{
	"oracle.sol": {
		"WeatherDataProvider": {
			"abi": [
				{
					"inputs": [
						{
							"internalType": "address",
							"name": "_relayer",
							"type": "address"
						}
					],
					"stateMutability": "nonpayable",
					"type": "constructor"
				},
				{
					"anonymous": false,
					"inputs": [
						{
							"indexed": true,
							"internalType": "address",
							"name": "previousOwner",
							"type": "address"
						},
						{
							"indexed": true,
							"internalType": "address",
							"name": "newOwner",
							"type": "address"
						}
					],
					"name": "OwnershipTransferred",
					"type": "event"
				},
				{
					"inputs": [],
					"name": "getDecimals",
					"outputs": [
						{
							"internalType": "uint256",
							"name": "",
							"type": "uint256"
						}
					],
					"stateMutability": "view",
					"type": "function"
				},
				{
					"inputs": [],
					"name": "getRelayer",
					"outputs": [
						{
							"internalType": "address",
							"name": "",
							"type": "address"
						}
					],
					"stateMutability": "view",
					"type": "function"
				},
				{
					"inputs": [],
					"name": "getRoundedTemperature",
					"outputs": [
						{
							"internalType": "int256",
							"name": "",
							"type": "int256"
						}
					],
					"stateMutability": "view",
					"type": "function"
				},
				{
					"inputs": [],
					"name": "getTemperature",
					"outputs": [
						{
							"internalType": "int256",
							"name": "",
							"type": "int256"
						}
					],
					"stateMutability": "view",
					"type": "function"
				},
				{
					"inputs": [],
					"name": "owner",
					"outputs": [
						{
							"internalType": "address",
							"name": "",
							"type": "address"
						}
					],
					"stateMutability": "view",
					"type": "function"
				},
				{
					"inputs": [],
					"name": "renounceOwnership",
					"outputs": [],
					"stateMutability": "nonpayable",
					"type": "function"
				},
				{
					"inputs": [
						{
							"internalType": "uint256",
							"name": "_decimals",
							"type": "uint256"
						}
					],
					"name": "setDecimals",
					"outputs": [],
					"stateMutability": "nonpayable",
					"type": "function"
				},
				{
					"inputs": [
						{
							"internalType": "address",
							"name": "_relayer",
							"type": "address"
						}
					],
					"name": "setRelayer",
					"outputs": [],
					"stateMutability": "nonpayable",
					"type": "function"
				},
				{
					"inputs": [
						{
							"internalType": "address",
							"name": "newOwner",
							"type": "address"
						}
					],
					"name": "transferOwnership",
					"outputs": [],
					"stateMutability": "nonpayable",
					"type": "function"
				},
				{
					"inputs": [
						{
							"internalType": "int256",
							"name": "temp",
							"type": "int256"
						}
					],
					"name": "updateTemperature",
					"outputs": [],
					"stateMutability": "nonpayable",
					"type": "function"
				}
			],
			"devdoc": {
				"kind": "dev",
				"methods": {
					"owner()": {
						"details": "Returns the address of the current owner."
					},
					"renounceOwnership()": {
						"details": "Leaves the contract without owner. It will not be possible to call `onlyOwner` functions anymore. Can only be called by the current owner. NOTE: Renouncing ownership will leave the contract without an owner, thereby removing any functionality that is only available to the owner."
					},
					"transferOwnership(address)": {
						"details": "Transfers ownership of the contract to a new account (`newOwner`). Can only be called by the current owner."
					}
				},
				"version": 1
			},
			"evm": {
				"assembly": "    /* \"oracle.sol\":1213:2680  contract WeatherDataProvider is Ownable {... */\n  mstore(0x40, 0x80)\n    /* \"oracle.sol\":1516:1517  4 */\n  0x04\n    /* \"oracle.sol\":1500:1517  uint decimals = 4 */\n  0x03\n  sstore\n    /* \"oracle.sol\":1526:1595  constructor(address _relayer) {... */\n  callvalue\n  dup1\n  iszero\n  tag_1\n  jumpi\n  0x00\n  dup1\n  revert\ntag_1:\n  pop\n  mload(0x40)\n  sub(codesize, bytecodeSize)\n  dup1\n  bytecodeSize\n  dup4\n  codecopy\n  dup2\n  dup2\n  add\n  0x40\n  mstore\n  dup2\n  add\n  swap1\n  tag_2\n  swap2\n  swap1\n  tag_3\n  jump\t// in\ntag_2:\n    /* \"@openzeppelin/contracts/access/Ownable.sol\":936:968  _transferOwnership(_msgSender()) */\n  tag_7\n    /* \"@openzeppelin/contracts/access/Ownable.sol\":955:967  _msgSender() */\n  tag_8\n    /* \"@openzeppelin/contracts/access/Ownable.sol\":955:965  _msgSender */\n  shl(0x20, tag_9)\n    /* \"@openzeppelin/contracts/access/Ownable.sol\":955:967  _msgSender() */\n  0x20\n  shr\n  jump\t// in\ntag_8:\n    /* \"@openzeppelin/contracts/access/Ownable.sol\":936:954  _transferOwnership */\n  shl(0x20, tag_10)\n    /* \"@openzeppelin/contracts/access/Ownable.sol\":936:968  _transferOwnership(_msgSender()) */\n  0x20\n  shr\n  jump\t// in\ntag_7:\n    /* \"oracle.sol\":1567:1587  setRelayer(_relayer) */\n  tag_12\n    /* \"oracle.sol\":1578:1586  _relayer */\n  dup2\n    /* \"oracle.sol\":1567:1577  setRelayer */\n  shl(0x20, tag_13)\n    /* \"oracle.sol\":1567:1587  setRelayer(_relayer) */\n  0x20\n  shr\n  jump\t// in\ntag_12:\n    /* \"oracle.sol\":1526:1595  constructor(address _relayer) {... */\n  pop\n    /* \"oracle.sol\":1213:2680  contract WeatherDataProvider is Ownable {... */\n  jump(tag_14)\n    /* \"@openzeppelin/contracts/utils/Context.sol\":640:736  function _msgSender() internal view virtual returns (address) {... */\ntag_9:\n    /* \"@openzeppelin/contracts/utils/Context.sol\":693:700  address */\n  0x00\n    /* \"@openzeppelin/contracts/utils/Context.sol\":719:729  msg.sender */\n  caller\n    /* \"@openzeppelin/contracts/utils/Context.sol\":712:729  return msg.sender */\n  swap1\n  pop\n    /* \"@openzeppelin/contracts/utils/Context.sol\":640:736  function _msgSender() internal view virtual returns (address) {... */\n  swap1\n  jump\t// out\n    /* \"@openzeppelin/contracts/access/Ownable.sol\":2433:2620  function _transferOwnership(address newOwner) internal virtual {... */\ntag_10:\n    /* \"@openzeppelin/contracts/access/Ownable.sol\":2506:2522  address oldOwner */\n  0x00\n    /* \"@openzeppelin/contracts/access/Ownable.sol\":2525:2531  _owner */\n  dup1\n  0x00\n  swap1\n  sload\n  swap1\n  0x0100\n  exp\n  swap1\n  div\n  0xffffffffffffffffffffffffffffffffffffffff\n  and\n    /* \"@openzeppelin/contracts/access/Ownable.sol\":2506:2531  address oldOwner = _owner */\n  swap1\n  pop\n    /* \"@openzeppelin/contracts/access/Ownable.sol\":2550:2558  newOwner */\n  dup2\n    /* \"@openzeppelin/contracts/access/Ownable.sol\":2541:2547  _owner */\n  0x00\n  dup1\n    /* \"@openzeppelin/contracts/access/Ownable.sol\":2541:2558  _owner = newOwner */\n  0x0100\n  exp\n  dup2\n  sload\n  dup2\n  0xffffffffffffffffffffffffffffffffffffffff\n  mul\n  not\n  and\n  swap1\n  dup4\n  0xffffffffffffffffffffffffffffffffffffffff\n  and\n  mul\n  or\n  swap1\n  sstore\n  pop\n    /* \"@openzeppelin/contracts/access/Ownable.sol\":2604:2612  newOwner */\n  dup2\n    /* \"@openzeppelin/contracts/access/Ownable.sol\":2573:2613  OwnershipTransferred(oldOwner, newOwner) */\n  0xffffffffffffffffffffffffffffffffffffffff\n  and\n    /* \"@openzeppelin/contracts/access/Ownable.sol\":2594:2602  oldOwner */\n  dup2\n    /* \"@openzeppelin/contracts/access/Ownable.sol\":2573:2613  OwnershipTransferred(oldOwner, newOwner) */\n  0xffffffffffffffffffffffffffffffffffffffff\n  and\n  0x8be0079c531659141344cd1fd0a4f28419497f9722a3daafe3b4186f6b6457e0\n  mload(0x40)\n  mload(0x40)\n  dup1\n  swap2\n  sub\n  swap1\n  log3\n    /* \"@openzeppelin/contracts/access/Ownable.sol\":2496:2620  {... */\n  pop\n    /* \"@openzeppelin/contracts/access/Ownable.sol\":2433:2620  function _transferOwnership(address newOwner) internal virtual {... */\n  pop\n  jump\t// out\n    /* \"oracle.sol\":2015:2107  function setRelayer(address _relayer) onlyOwner public {... */\ntag_13:\n    /* \"@openzeppelin/contracts/access/Ownable.sol\":1094:1107  _checkOwner() */\n  tag_18\n    /* \"@openzeppelin/contracts/access/Ownable.sol\":1094:1105  _checkOwner */\n  shl(0x20, tag_19)\n    /* \"@openzeppelin/contracts/access/Ownable.sol\":1094:1107  _checkOwner() */\n  0x20\n  shr\n  jump\t// in\ntag_18:\n    /* \"oracle.sol\":2091:2099  _relayer */\n  dup1\n    /* \"oracle.sol\":2081:2088  relayer */\n  0x02\n  0x00\n    /* \"oracle.sol\":2081:2099  relayer = _relayer */\n  0x0100\n  exp\n  dup2\n  sload\n  dup2\n  0xffffffffffffffffffffffffffffffffffffffff\n  mul\n  not\n  and\n  swap1\n  dup4\n  0xffffffffffffffffffffffffffffffffffffffff\n  and\n  mul\n  or\n  swap1\n  sstore\n  pop\n    /* \"oracle.sol\":2015:2107  function setRelayer(address _relayer) onlyOwner public {... */\n  pop\n  jump\t// out\n    /* \"@openzeppelin/contracts/access/Ownable.sol\":1359:1489  function _checkOwner() internal view virtual {... */\ntag_19:\n    /* \"@openzeppelin/contracts/access/Ownable.sol\":1433:1445  _msgSender() */\n  tag_22\n    /* \"@openzeppelin/contracts/access/Ownable.sol\":1433:1443  _msgSender */\n  shl(0x20, tag_9)\n    /* \"@openzeppelin/contracts/access/Ownable.sol\":1433:1445  _msgSender() */\n  0x20\n  shr\n  jump\t// in\ntag_22:\n    /* \"@openzeppelin/contracts/access/Ownable.sol\":1422:1445  owner() == _msgSender() */\n  0xffffffffffffffffffffffffffffffffffffffff\n  and\n    /* \"@openzeppelin/contracts/access/Ownable.sol\":1422:1429  owner() */\n  tag_23\n    /* \"@openzeppelin/contracts/access/Ownable.sol\":1422:1427  owner */\n  shl(0x20, tag_24)\n    /* \"@openzeppelin/contracts/access/Ownable.sol\":1422:1429  owner() */\n  0x20\n  shr\n  jump\t// in\ntag_23:\n    /* \"@openzeppelin/contracts/access/Ownable.sol\":1422:1445  owner() == _msgSender() */\n  0xffffffffffffffffffffffffffffffffffffffff\n  and\n  eq\n    /* \"@openzeppelin/contracts/access/Ownable.sol\":1414:1482  require(owner() == _msgSender(), \"Ownable: caller is not the owner\") */\n  tag_25\n  jumpi\n  mload(0x40)\n  0x08c379a000000000000000000000000000000000000000000000000000000000\n  dup2\n  mstore\n  0x04\n  add\n  tag_26\n  swap1\n  tag_27\n  jump\t// in\ntag_26:\n  mload(0x40)\n  dup1\n  swap2\n  sub\n  swap1\n  revert\ntag_25:\n    /* \"@openzeppelin/contracts/access/Ownable.sol\":1359:1489  function _checkOwner() internal view virtual {... */\n  jump\t// out\n    /* \"@openzeppelin/contracts/access/Ownable.sol\":1201:1286  function owner() public view virtual returns (address) {... */\ntag_24:\n    /* \"@openzeppelin/contracts/access/Ownable.sol\":1247:1254  address */\n  0x00\n    /* \"@openzeppelin/contracts/access/Ownable.sol\":1273:1279  _owner */\n  dup1\n  0x00\n  swap1\n  sload\n  swap1\n  0x0100\n  exp\n  swap1\n  div\n  0xffffffffffffffffffffffffffffffffffffffff\n  and\n    /* \"@openzeppelin/contracts/access/Ownable.sol\":1266:1279  return _owner */\n  swap1\n  pop\n    /* \"@openzeppelin/contracts/access/Ownable.sol\":1201:1286  function owner() public view virtual returns (address) {... */\n  swap1\n  jump\t// out\n    /* \"#utility.yul\":88:205   */\ntag_30:\n    /* \"#utility.yul\":197:198   */\n  0x00\n    /* \"#utility.yul\":194:195   */\n  dup1\n    /* \"#utility.yul\":187:199   */\n  revert\n    /* \"#utility.yul\":334:460   */\ntag_32:\n    /* \"#utility.yul\":371:378   */\n  0x00\n    /* \"#utility.yul\":411:453   */\n  0xffffffffffffffffffffffffffffffffffffffff\n    /* \"#utility.yul\":404:409   */\n  dup3\n    /* \"#utility.yul\":400:454   */\n  and\n    /* \"#utility.yul\":389:454   */\n  swap1\n  pop\n    /* \"#utility.yul\":334:460   */\n  swap2\n  swap1\n  pop\n  jump\t// out\n    /* \"#utility.yul\":466:562   */\ntag_33:\n    /* \"#utility.yul\":503:510   */\n  0x00\n    /* \"#utility.yul\":532:556   */\n  tag_45\n    /* \"#utility.yul\":550:555   */\n  dup3\n    /* \"#utility.yul\":532:556   */\n  tag_32\n  jump\t// in\ntag_45:\n    /* \"#utility.yul\":521:556   */\n  swap1\n  pop\n    /* \"#utility.yul\":466:562   */\n  swap2\n  swap1\n  pop\n  jump\t// out\n    /* \"#utility.yul\":568:690   */\ntag_34:\n    /* \"#utility.yul\":641:665   */\n  tag_47\n    /* \"#utility.yul\":659:664   */\n  dup2\n    /* \"#utility.yul\":641:665   */\n  tag_33\n  jump\t// in\ntag_47:\n    /* \"#utility.yul\":634:639   */\n  dup2\n    /* \"#utility.yul\":631:666   */\n  eq\n    /* \"#utility.yul\":621:684   */\n  tag_48\n  jumpi\n    /* \"#utility.yul\":680:681   */\n  0x00\n    /* \"#utility.yul\":677:678   */\n  dup1\n    /* \"#utility.yul\":670:682   */\n  revert\n    /* \"#utility.yul\":621:684   */\ntag_48:\n    /* \"#utility.yul\":568:690   */\n  pop\n  jump\t// out\n    /* \"#utility.yul\":696:839   */\ntag_35:\n    /* \"#utility.yul\":753:758   */\n  0x00\n    /* \"#utility.yul\":784:790   */\n  dup2\n    /* \"#utility.yul\":778:791   */\n  mload\n    /* \"#utility.yul\":769:791   */\n  swap1\n  pop\n    /* \"#utility.yul\":800:833   */\n  tag_50\n    /* \"#utility.yul\":827:832   */\n  dup2\n    /* \"#utility.yul\":800:833   */\n  tag_34\n  jump\t// in\ntag_50:\n    /* \"#utility.yul\":696:839   */\n  swap3\n  swap2\n  pop\n  pop\n  jump\t// out\n    /* \"#utility.yul\":845:1196   */\ntag_3:\n    /* \"#utility.yul\":915:921   */\n  0x00\n    /* \"#utility.yul\":964:966   */\n  0x20\n    /* \"#utility.yul\":952:961   */\n  dup3\n    /* \"#utility.yul\":943:950   */\n  dup5\n    /* \"#utility.yul\":939:962   */\n  sub\n    /* \"#utility.yul\":935:967   */\n  slt\n    /* \"#utility.yul\":932:1051   */\n  iszero\n  tag_52\n  jumpi\n    /* \"#utility.yul\":970:1049   */\n  tag_53\n  tag_30\n  jump\t// in\ntag_53:\n    /* \"#utility.yul\":932:1051   */\ntag_52:\n    /* \"#utility.yul\":1090:1091   */\n  0x00\n    /* \"#utility.yul\":1115:1179   */\n  tag_54\n    /* \"#utility.yul\":1171:1178   */\n  dup5\n    /* \"#utility.yul\":1162:1168   */\n  dup3\n    /* \"#utility.yul\":1151:1160   */\n  dup6\n    /* \"#utility.yul\":1147:1169   */\n  add\n    /* \"#utility.yul\":1115:1179   */\n  tag_35\n  jump\t// in\ntag_54:\n    /* \"#utility.yul\":1105:1179   */\n  swap2\n  pop\n    /* \"#utility.yul\":1061:1189   */\n  pop\n    /* \"#utility.yul\":845:1196   */\n  swap3\n  swap2\n  pop\n  pop\n  jump\t// out\n    /* \"#utility.yul\":1202:1371   */\ntag_36:\n    /* \"#utility.yul\":1286:1297   */\n  0x00\n    /* \"#utility.yul\":1320:1326   */\n  dup3\n    /* \"#utility.yul\":1315:1318   */\n  dup3\n    /* \"#utility.yul\":1308:1327   */\n  mstore\n    /* \"#utility.yul\":1360:1364   */\n  0x20\n    /* \"#utility.yul\":1355:1358   */\n  dup3\n    /* \"#utility.yul\":1351:1365   */\n  add\n    /* \"#utility.yul\":1336:1365   */\n  swap1\n  pop\n    /* \"#utility.yul\":1202:1371   */\n  swap3\n  swap2\n  pop\n  pop\n  jump\t// out\n    /* \"#utility.yul\":1377:1559   */\ntag_37:\n    /* \"#utility.yul\":1517:1551   */\n  0x4f776e61626c653a2063616c6c6572206973206e6f7420746865206f776e6572\n    /* \"#utility.yul\":1513:1514   */\n  0x00\n    /* \"#utility.yul\":1505:1511   */\n  dup3\n    /* \"#utility.yul\":1501:1515   */\n  add\n    /* \"#utility.yul\":1494:1552   */\n  mstore\n    /* \"#utility.yul\":1377:1559   */\n  pop\n  jump\t// out\n    /* \"#utility.yul\":1565:1931   */\ntag_38:\n    /* \"#utility.yul\":1707:1710   */\n  0x00\n    /* \"#utility.yul\":1728:1795   */\n  tag_58\n    /* \"#utility.yul\":1792:1794   */\n  0x20\n    /* \"#utility.yul\":1787:1790   */\n  dup4\n    /* \"#utility.yul\":1728:1795   */\n  tag_36\n  jump\t// in\ntag_58:\n    /* \"#utility.yul\":1721:1795   */\n  swap2\n  pop\n    /* \"#utility.yul\":1804:1897   */\n  tag_59\n    /* \"#utility.yul\":1893:1896   */\n  dup3\n    /* \"#utility.yul\":1804:1897   */\n  tag_37\n  jump\t// in\ntag_59:\n    /* \"#utility.yul\":1922:1924   */\n  0x20\n    /* \"#utility.yul\":1917:1920   */\n  dup3\n    /* \"#utility.yul\":1913:1925   */\n  add\n    /* \"#utility.yul\":1906:1925   */\n  swap1\n  pop\n    /* \"#utility.yul\":1565:1931   */\n  swap2\n  swap1\n  pop\n  jump\t// out\n    /* \"#utility.yul\":1937:2356   */\ntag_27:\n    /* \"#utility.yul\":2103:2107   */\n  0x00\n    /* \"#utility.yul\":2141:2143   */\n  0x20\n    /* \"#utility.yul\":2130:2139   */\n  dup3\n    /* \"#utility.yul\":2126:2144   */\n  add\n    /* \"#utility.yul\":2118:2144   */\n  swap1\n  pop\n    /* \"#utility.yul\":2190:2199   */\n  dup2\n    /* \"#utility.yul\":2184:2188   */\n  dup2\n    /* \"#utility.yul\":2180:2200   */\n  sub\n    /* \"#utility.yul\":2176:2177   */\n  0x00\n    /* \"#utility.yul\":2165:2174   */\n  dup4\n    /* \"#utility.yul\":2161:2178   */\n  add\n    /* \"#utility.yul\":2154:2201   */\n  mstore\n    /* \"#utility.yul\":2218:2349   */\n  tag_61\n    /* \"#utility.yul\":2344:2348   */\n  dup2\n    /* \"#utility.yul\":2218:2349   */\n  tag_38\n  jump\t// in\ntag_61:\n    /* \"#utility.yul\":2210:2349   */\n  swap1\n  pop\n    /* \"#utility.yul\":1937:2356   */\n  swap2\n  swap1\n  pop\n  jump\t// out\n    /* \"oracle.sol\":1213:2680  contract WeatherDataProvider is Ownable {... */\ntag_14:\n  dataSize(sub_0)\n  dup1\n  dataOffset(sub_0)\n  0x00\n  codecopy\n  0x00\n  return\nstop\n\nsub_0: assembly {\n        /* \"oracle.sol\":1213:2680  contract WeatherDataProvider is Ownable {... */\n      mstore(0x40, 0x80)\n      callvalue\n      dup1\n      iszero\n      tag_1\n      jumpi\n      0x00\n      dup1\n      revert\n    tag_1:\n      pop\n      jumpi(tag_2, lt(calldatasize, 0x04))\n      shr(0xe0, calldataload(0x00))\n      dup1\n      0x8da5cb5b\n      gt\n      tag_13\n      jumpi\n      dup1\n      0x8da5cb5b\n      eq\n      tag_8\n      jumpi\n      dup1\n      0xb976cb0b\n      eq\n      tag_9\n      jumpi\n      dup1\n      0xbdc50373\n      eq\n      tag_10\n      jumpi\n      dup1\n      0xf0141d84\n      eq\n      tag_11\n      jumpi\n      dup1\n      0xf2fde38b\n      eq\n      tag_12\n      jumpi\n      jump(tag_2)\n    tag_13:\n      dup1\n      0x076e48a1\n      eq\n      tag_3\n      jumpi\n      dup1\n      0x6421d04b\n      eq\n      tag_4\n      jumpi\n      dup1\n      0x6548e9bc\n      eq\n      tag_5\n      jumpi\n      dup1\n      0x715018a6\n      eq\n      tag_6\n      jumpi\n      dup1\n      0x8c8885c8\n      eq\n      tag_7\n      jumpi\n    tag_2:\n      0x00\n      dup1\n      revert\n        /* \"oracle.sol\":1603:1696  function updateTemperature(int temp) onlyRelayer public {... */\n    tag_3:\n      tag_14\n      0x04\n      dup1\n      calldatasize\n      sub\n      dup2\n      add\n      swap1\n      tag_15\n      swap2\n      swap1\n      tag_16\n      jump\t// in\n    tag_15:\n      tag_17\n      jump\t// in\n    tag_14:\n      stop\n        /* \"oracle.sol\":1704:1792  function getTemperature() public view returns(int) {... */\n    tag_4:\n      tag_18\n      tag_19\n      jump\t// in\n    tag_18:\n      mload(0x40)\n      tag_20\n      swap2\n      swap1\n      tag_21\n      jump\t// in\n    tag_20:\n      mload(0x40)\n      dup1\n      swap2\n      sub\n      swap1\n      return\n        /* \"oracle.sol\":2015:2107  function setRelayer(address _relayer) onlyOwner public {... */\n    tag_5:\n      tag_22\n      0x04\n      dup1\n      calldatasize\n      sub\n      dup2\n      add\n      swap1\n      tag_23\n      swap2\n      swap1\n      tag_24\n      jump\t// in\n    tag_23:\n      tag_25\n      jump\t// in\n    tag_22:\n      stop\n        /* \"@openzeppelin/contracts/access/Ownable.sol\":1831:1932  function renounceOwnership() public virtual onlyOwner {... */\n    tag_6:\n      tag_26\n      tag_27\n      jump\t// in\n    tag_26:\n      stop\n        /* \"oracle.sol\":2115:2210  function setDecimals(uint _decimals) onlyRelayer public {... */\n    tag_7:\n      tag_28\n      0x04\n      dup1\n      calldatasize\n      sub\n      dup2\n      add\n      swap1\n      tag_29\n      swap2\n      swap1\n      tag_30\n      jump\t// in\n    tag_29:\n      tag_31\n      jump\t// in\n    tag_28:\n      stop\n        /* \"@openzeppelin/contracts/access/Ownable.sol\":1201:1286  function owner() public view virtual returns (address) {... */\n    tag_8:\n      tag_32\n      tag_33\n      jump\t// in\n    tag_32:\n      mload(0x40)\n      tag_34\n      swap2\n      swap1\n      tag_35\n      jump\t// in\n    tag_34:\n      mload(0x40)\n      dup1\n      swap2\n      sub\n      swap1\n      return\n        /* \"oracle.sol\":1800:1915  function getRoundedTemperature() public view returns(int) {... */\n    tag_9:\n      tag_36\n      tag_37\n      jump\t// in\n    tag_36:\n      mload(0x40)\n      tag_38\n      swap2\n      swap1\n      tag_21\n      jump\t// in\n    tag_38:\n      mload(0x40)\n      dup1\n      swap2\n      sub\n      swap1\n      return\n        /* \"oracle.sol\":1923:2007  function getRelayer() public view returns(address) {... */\n    tag_10:\n      tag_39\n      tag_40\n      jump\t// in\n    tag_39:\n      mload(0x40)\n      tag_41\n      swap2\n      swap1\n      tag_35\n      jump\t// in\n    tag_41:\n      mload(0x40)\n      dup1\n      swap2\n      sub\n      swap1\n      return\n        /* \"oracle.sol\":2218:2301  function getDecimals() public view returns(uint) {... */\n    tag_11:\n      tag_42\n      tag_43\n      jump\t// in\n    tag_42:\n      mload(0x40)\n      tag_44\n      swap2\n      swap1\n      tag_45\n      jump\t// in\n    tag_44:\n      mload(0x40)\n      dup1\n      swap2\n      sub\n      swap1\n      return\n        /* \"@openzeppelin/contracts/access/Ownable.sol\":2081:2279  function transferOwnership(address newOwner) public virtual onlyOwner {... */\n    tag_12:\n      tag_46\n      0x04\n      dup1\n      calldatasize\n      sub\n      dup2\n      add\n      swap1\n      tag_47\n      swap2\n      swap1\n      tag_24\n      jump\t// in\n    tag_47:\n      tag_48\n      jump\t// in\n    tag_46:\n      stop\n        /* \"oracle.sol\":1603:1696  function updateTemperature(int temp) onlyRelayer public {... */\n    tag_17:\n        /* \"oracle.sol\":2634:2649  _checkRelayer() */\n      tag_50\n        /* \"oracle.sol\":2634:2647  _checkRelayer */\n      tag_51\n        /* \"oracle.sol\":2634:2649  _checkRelayer() */\n      jump\t// in\n    tag_50:\n        /* \"oracle.sol\":1684:1688  temp */\n      dup1\n        /* \"oracle.sol\":1670:1681  temperature */\n      0x01\n        /* \"oracle.sol\":1670:1688  temperature = temp */\n      dup2\n      swap1\n      sstore\n      pop\n        /* \"oracle.sol\":1603:1696  function updateTemperature(int temp) onlyRelayer public {... */\n      pop\n      jump\t// out\n        /* \"oracle.sol\":1704:1792  function getTemperature() public view returns(int) {... */\n    tag_19:\n        /* \"oracle.sol\":1750:1753  int */\n      0x00\n        /* \"oracle.sol\":1773:1784  temperature */\n      sload(0x01)\n        /* \"oracle.sol\":1766:1784  return temperature */\n      swap1\n      pop\n        /* \"oracle.sol\":1704:1792  function getTemperature() public view returns(int) {... */\n      swap1\n      jump\t// out\n        /* \"oracle.sol\":2015:2107  function setRelayer(address _relayer) onlyOwner public {... */\n    tag_25:\n        /* \"@openzeppelin/contracts/access/Ownable.sol\":1094:1107  _checkOwner() */\n      tag_55\n        /* \"@openzeppelin/contracts/access/Ownable.sol\":1094:1105  _checkOwner */\n      tag_56\n        /* \"@openzeppelin/contracts/access/Ownable.sol\":1094:1107  _checkOwner() */\n      jump\t// in\n    tag_55:\n        /* \"oracle.sol\":2091:2099  _relayer */\n      dup1\n        /* \"oracle.sol\":2081:2088  relayer */\n      0x02\n      0x00\n        /* \"oracle.sol\":2081:2099  relayer = _relayer */\n      0x0100\n      exp\n      dup2\n      sload\n      dup2\n      0xffffffffffffffffffffffffffffffffffffffff\n      mul\n      not\n      and\n      swap1\n      dup4\n      0xffffffffffffffffffffffffffffffffffffffff\n      and\n      mul\n      or\n      swap1\n      sstore\n      pop\n        /* \"oracle.sol\":2015:2107  function setRelayer(address _relayer) onlyOwner public {... */\n      pop\n      jump\t// out\n        /* \"@openzeppelin/contracts/access/Ownable.sol\":1831:1932  function renounceOwnership() public virtual onlyOwner {... */\n    tag_27:\n        /* \"@openzeppelin/contracts/access/Ownable.sol\":1094:1107  _checkOwner() */\n      tag_59\n        /* \"@openzeppelin/contracts/access/Ownable.sol\":1094:1105  _checkOwner */\n      tag_56\n        /* \"@openzeppelin/contracts/access/Ownable.sol\":1094:1107  _checkOwner() */\n      jump\t// in\n    tag_59:\n        /* \"@openzeppelin/contracts/access/Ownable.sol\":1895:1925  _transferOwnership(address(0)) */\n      tag_61\n        /* \"@openzeppelin/contracts/access/Ownable.sol\":1922:1923  0 */\n      0x00\n        /* \"@openzeppelin/contracts/access/Ownable.sol\":1895:1913  _transferOwnership */\n      tag_62\n        /* \"@openzeppelin/contracts/access/Ownable.sol\":1895:1925  _transferOwnership(address(0)) */\n      jump\t// in\n    tag_61:\n        /* \"@openzeppelin/contracts/access/Ownable.sol\":1831:1932  function renounceOwnership() public virtual onlyOwner {... */\n      jump\t// out\n        /* \"oracle.sol\":2115:2210  function setDecimals(uint _decimals) onlyRelayer public {... */\n    tag_31:\n        /* \"oracle.sol\":2634:2649  _checkRelayer() */\n      tag_64\n        /* \"oracle.sol\":2634:2647  _checkRelayer */\n      tag_51\n        /* \"oracle.sol\":2634:2649  _checkRelayer() */\n      jump\t// in\n    tag_64:\n        /* \"oracle.sol\":2193:2202  _decimals */\n      dup1\n        /* \"oracle.sol\":2182:2190  decimals */\n      0x03\n        /* \"oracle.sol\":2182:2202  decimals = _decimals */\n      dup2\n      swap1\n      sstore\n      pop\n        /* \"oracle.sol\":2115:2210  function setDecimals(uint _decimals) onlyRelayer public {... */\n      pop\n      jump\t// out\n        /* \"@openzeppelin/contracts/access/Ownable.sol\":1201:1286  function owner() public view virtual returns (address) {... */\n    tag_33:\n        /* \"@openzeppelin/contracts/access/Ownable.sol\":1247:1254  address */\n      0x00\n        /* \"@openzeppelin/contracts/access/Ownable.sol\":1273:1279  _owner */\n      dup1\n      0x00\n      swap1\n      sload\n      swap1\n      0x0100\n      exp\n      swap1\n      div\n      0xffffffffffffffffffffffffffffffffffffffff\n      and\n        /* \"@openzeppelin/contracts/access/Ownable.sol\":1266:1279  return _owner */\n      swap1\n      pop\n        /* \"@openzeppelin/contracts/access/Ownable.sol\":1201:1286  function owner() public view virtual returns (address) {... */\n      swap1\n      jump\t// out\n        /* \"oracle.sol\":1800:1915  function getRoundedTemperature() public view returns(int) {... */\n    tag_37:\n        /* \"oracle.sol\":1853:1856  int */\n      0x00\n        /* \"oracle.sol\":1898:1906  decimals */\n      sload(0x03)\n        /* \"oracle.sol\":1894:1896  10 */\n      0x0a\n        /* \"oracle.sol\":1894:1906  10**decimals */\n      tag_68\n      swap2\n      swap1\n      tag_69\n      jump\t// in\n    tag_68:\n        /* \"oracle.sol\":1876:1887  temperature */\n      sload(0x01)\n        /* \"oracle.sol\":1876:1907  temperature / int(10**decimals) */\n      tag_70\n      swap2\n      swap1\n      tag_71\n      jump\t// in\n    tag_70:\n        /* \"oracle.sol\":1869:1907  return temperature / int(10**decimals) */\n      swap1\n      pop\n        /* \"oracle.sol\":1800:1915  function getRoundedTemperature() public view returns(int) {... */\n      swap1\n      jump\t// out\n        /* \"oracle.sol\":1923:2007  function getRelayer() public view returns(address) {... */\n    tag_40:\n        /* \"oracle.sol\":1965:1972  address */\n      0x00\n        /* \"oracle.sol\":1992:1999  relayer */\n      0x02\n      0x00\n      swap1\n      sload\n      swap1\n      0x0100\n      exp\n      swap1\n      div\n      0xffffffffffffffffffffffffffffffffffffffff\n      and\n        /* \"oracle.sol\":1985:1999  return relayer */\n      swap1\n      pop\n        /* \"oracle.sol\":1923:2007  function getRelayer() public view returns(address) {... */\n      swap1\n      jump\t// out\n        /* \"oracle.sol\":2218:2301  function getDecimals() public view returns(uint) {... */\n    tag_43:\n        /* \"oracle.sol\":2261:2265  uint */\n      0x00\n        /* \"oracle.sol\":2285:2293  decimals */\n      sload(0x03)\n        /* \"oracle.sol\":2278:2293  return decimals */\n      swap1\n      pop\n        /* \"oracle.sol\":2218:2301  function getDecimals() public view returns(uint) {... */\n      swap1\n      jump\t// out\n        /* \"@openzeppelin/contracts/access/Ownable.sol\":2081:2279  function transferOwnership(address newOwner) public virtual onlyOwner {... */\n    tag_48:\n        /* \"@openzeppelin/contracts/access/Ownable.sol\":1094:1107  _checkOwner() */\n      tag_75\n        /* \"@openzeppelin/contracts/access/Ownable.sol\":1094:1105  _checkOwner */\n      tag_56\n        /* \"@openzeppelin/contracts/access/Ownable.sol\":1094:1107  _checkOwner() */\n      jump\t// in\n    tag_75:\n        /* \"@openzeppelin/contracts/access/Ownable.sol\":2189:2190  0 */\n      0x00\n        /* \"@openzeppelin/contracts/access/Ownable.sol\":2169:2191  newOwner != address(0) */\n      0xffffffffffffffffffffffffffffffffffffffff\n      and\n        /* \"@openzeppelin/contracts/access/Ownable.sol\":2169:2177  newOwner */\n      dup2\n        /* \"@openzeppelin/contracts/access/Ownable.sol\":2169:2191  newOwner != address(0) */\n      0xffffffffffffffffffffffffffffffffffffffff\n      and\n      sub\n        /* \"@openzeppelin/contracts/access/Ownable.sol\":2161:2234  require(newOwner != address(0), \"Ownable: new owner is the zero address\") */\n      tag_77\n      jumpi\n      mload(0x40)\n      0x08c379a000000000000000000000000000000000000000000000000000000000\n      dup2\n      mstore\n      0x04\n      add\n      tag_78\n      swap1\n      tag_79\n      jump\t// in\n    tag_78:\n      mload(0x40)\n      dup1\n      swap2\n      sub\n      swap1\n      revert\n    tag_77:\n        /* \"@openzeppelin/contracts/access/Ownable.sol\":2244:2272  _transferOwnership(newOwner) */\n      tag_80\n        /* \"@openzeppelin/contracts/access/Ownable.sol\":2263:2271  newOwner */\n      dup2\n        /* \"@openzeppelin/contracts/access/Ownable.sol\":2244:2262  _transferOwnership */\n      tag_62\n        /* \"@openzeppelin/contracts/access/Ownable.sol\":2244:2272  _transferOwnership(newOwner) */\n      jump\t// in\n    tag_80:\n        /* \"@openzeppelin/contracts/access/Ownable.sol\":2081:2279  function transferOwnership(address newOwner) public virtual onlyOwner {... */\n      pop\n      jump\t// out\n        /* \"oracle.sol\":2469:2594  function _checkRelayer() internal view virtual {... */\n    tag_51:\n        /* \"oracle.sol\":2546:2556  msg.sender */\n      caller\n        /* \"oracle.sol\":2535:2556  relayer == msg.sender */\n      0xffffffffffffffffffffffffffffffffffffffff\n      and\n        /* \"oracle.sol\":2535:2542  relayer */\n      0x02\n      0x00\n      swap1\n      sload\n      swap1\n      0x0100\n      exp\n      swap1\n      div\n      0xffffffffffffffffffffffffffffffffffffffff\n      and\n        /* \"oracle.sol\":2535:2556  relayer == msg.sender */\n      0xffffffffffffffffffffffffffffffffffffffff\n      and\n      eq\n        /* \"oracle.sol\":2527:2586  require(relayer == msg.sender, \"Caller is not the relayer\") */\n      tag_82\n      jumpi\n      mload(0x40)\n      0x08c379a000000000000000000000000000000000000000000000000000000000\n      dup2\n      mstore\n      0x04\n      add\n      tag_83\n      swap1\n      tag_84\n      jump\t// in\n    tag_83:\n      mload(0x40)\n      dup1\n      swap2\n      sub\n      swap1\n      revert\n    tag_82:\n        /* \"oracle.sol\":2469:2594  function _checkRelayer() internal view virtual {... */\n      jump\t// out\n        /* \"@openzeppelin/contracts/access/Ownable.sol\":1359:1489  function _checkOwner() internal view virtual {... */\n    tag_56:\n        /* \"@openzeppelin/contracts/access/Ownable.sol\":1433:1445  _msgSender() */\n      tag_86\n        /* \"@openzeppelin/contracts/access/Ownable.sol\":1433:1443  _msgSender */\n      tag_87\n        /* \"@openzeppelin/contracts/access/Ownable.sol\":1433:1445  _msgSender() */\n      jump\t// in\n    tag_86:\n        /* \"@openzeppelin/contracts/access/Ownable.sol\":1422:1445  owner() == _msgSender() */\n      0xffffffffffffffffffffffffffffffffffffffff\n      and\n        /* \"@openzeppelin/contracts/access/Ownable.sol\":1422:1429  owner() */\n      tag_88\n        /* \"@openzeppelin/contracts/access/Ownable.sol\":1422:1427  owner */\n      tag_33\n        /* \"@openzeppelin/contracts/access/Ownable.sol\":1422:1429  owner() */\n      jump\t// in\n    tag_88:\n        /* \"@openzeppelin/contracts/access/Ownable.sol\":1422:1445  owner() == _msgSender() */\n      0xffffffffffffffffffffffffffffffffffffffff\n      and\n      eq\n        /* \"@openzeppelin/contracts/access/Ownable.sol\":1414:1482  require(owner() == _msgSender(), \"Ownable: caller is not the owner\") */\n      tag_89\n      jumpi\n      mload(0x40)\n      0x08c379a000000000000000000000000000000000000000000000000000000000\n      dup2\n      mstore\n      0x04\n      add\n      tag_90\n      swap1\n      tag_91\n      jump\t// in\n    tag_90:\n      mload(0x40)\n      dup1\n      swap2\n      sub\n      swap1\n      revert\n    tag_89:\n        /* \"@openzeppelin/contracts/access/Ownable.sol\":1359:1489  function _checkOwner() internal view virtual {... */\n      jump\t// out\n        /* \"@openzeppelin/contracts/access/Ownable.sol\":2433:2620  function _transferOwnership(address newOwner) internal virtual {... */\n    tag_62:\n        /* \"@openzeppelin/contracts/access/Ownable.sol\":2506:2522  address oldOwner */\n      0x00\n        /* \"@openzeppelin/contracts/access/Ownable.sol\":2525:2531  _owner */\n      dup1\n      0x00\n      swap1\n      sload\n      swap1\n      0x0100\n      exp\n      swap1\n      div\n      0xffffffffffffffffffffffffffffffffffffffff\n      and\n        /* \"@openzeppelin/contracts/access/Ownable.sol\":2506:2531  address oldOwner = _owner */\n      swap1\n      pop\n        /* \"@openzeppelin/contracts/access/Ownable.sol\":2550:2558  newOwner */\n      dup2\n        /* \"@openzeppelin/contracts/access/Ownable.sol\":2541:2547  _owner */\n      0x00\n      dup1\n        /* \"@openzeppelin/contracts/access/Ownable.sol\":2541:2558  _owner = newOwner */\n      0x0100\n      exp\n      dup2\n      sload\n      dup2\n      0xffffffffffffffffffffffffffffffffffffffff\n      mul\n      not\n      and\n      swap1\n      dup4\n      0xffffffffffffffffffffffffffffffffffffffff\n      and\n      mul\n      or\n      swap1\n      sstore\n      pop\n        /* \"@openzeppelin/contracts/access/Ownable.sol\":2604:2612  newOwner */\n      dup2\n        /* \"@openzeppelin/contracts/access/Ownable.sol\":2573:2613  OwnershipTransferred(oldOwner, newOwner) */\n      0xffffffffffffffffffffffffffffffffffffffff\n      and\n        /* \"@openzeppelin/contracts/access/Ownable.sol\":2594:2602  oldOwner */\n      dup2\n        /* \"@openzeppelin/contracts/access/Ownable.sol\":2573:2613  OwnershipTransferred(oldOwner, newOwner) */\n      0xffffffffffffffffffffffffffffffffffffffff\n      and\n      0x8be0079c531659141344cd1fd0a4f28419497f9722a3daafe3b4186f6b6457e0\n      mload(0x40)\n      mload(0x40)\n      dup1\n      swap2\n      sub\n      swap1\n      log3\n        /* \"@openzeppelin/contracts/access/Ownable.sol\":2496:2620  {... */\n      pop\n        /* \"@openzeppelin/contracts/access/Ownable.sol\":2433:2620  function _transferOwnership(address newOwner) internal virtual {... */\n      pop\n      jump\t// out\n        /* \"@openzeppelin/contracts/utils/Context.sol\":640:736  function _msgSender() internal view virtual returns (address) {... */\n    tag_87:\n        /* \"@openzeppelin/contracts/utils/Context.sol\":693:700  address */\n      0x00\n        /* \"@openzeppelin/contracts/utils/Context.sol\":719:729  msg.sender */\n      caller\n        /* \"@openzeppelin/contracts/utils/Context.sol\":712:729  return msg.sender */\n      swap1\n      pop\n        /* \"@openzeppelin/contracts/utils/Context.sol\":640:736  function _msgSender() internal view virtual returns (address) {... */\n      swap1\n      jump\t// out\n        /* \"#utility.yul\":88:205   */\n    tag_95:\n        /* \"#utility.yul\":197:198   */\n      0x00\n        /* \"#utility.yul\":194:195   */\n      dup1\n        /* \"#utility.yul\":187:199   */\n      revert\n        /* \"#utility.yul\":334:410   */\n    tag_97:\n        /* \"#utility.yul\":370:377   */\n      0x00\n        /* \"#utility.yul\":399:404   */\n      dup2\n        /* \"#utility.yul\":388:404   */\n      swap1\n      pop\n        /* \"#utility.yul\":334:410   */\n      swap2\n      swap1\n      pop\n      jump\t// out\n        /* \"#utility.yul\":416:536   */\n    tag_98:\n        /* \"#utility.yul\":488:511   */\n      tag_128\n        /* \"#utility.yul\":505:510   */\n      dup2\n        /* \"#utility.yul\":488:511   */\n      tag_97\n      jump\t// in\n    tag_128:\n        /* \"#utility.yul\":481:486   */\n      dup2\n        /* \"#utility.yul\":478:512   */\n      eq\n        /* \"#utility.yul\":468:530   */\n      tag_129\n      jumpi\n        /* \"#utility.yul\":526:527   */\n      0x00\n        /* \"#utility.yul\":523:524   */\n      dup1\n        /* \"#utility.yul\":516:528   */\n      revert\n        /* \"#utility.yul\":468:530   */\n    tag_129:\n        /* \"#utility.yul\":416:536   */\n      pop\n      jump\t// out\n        /* \"#utility.yul\":542:679   */\n    tag_99:\n        /* \"#utility.yul\":587:592   */\n      0x00\n        /* \"#utility.yul\":625:631   */\n      dup2\n        /* \"#utility.yul\":612:632   */\n      calldataload\n        /* \"#utility.yul\":603:632   */\n      swap1\n      pop\n        /* \"#utility.yul\":641:673   */\n      tag_131\n        /* \"#utility.yul\":667:672   */\n      dup2\n        /* \"#utility.yul\":641:673   */\n      tag_98\n      jump\t// in\n    tag_131:\n        /* \"#utility.yul\":542:679   */\n      swap3\n      swap2\n      pop\n      pop\n      jump\t// out\n        /* \"#utility.yul\":685:1012   */\n    tag_16:\n        /* \"#utility.yul\":743:749   */\n      0x00\n        /* \"#utility.yul\":792:794   */\n      0x20\n        /* \"#utility.yul\":780:789   */\n      dup3\n        /* \"#utility.yul\":771:778   */\n      dup5\n        /* \"#utility.yul\":767:790   */\n      sub\n        /* \"#utility.yul\":763:795   */\n      slt\n        /* \"#utility.yul\":760:879   */\n      iszero\n      tag_133\n      jumpi\n        /* \"#utility.yul\":798:877   */\n      tag_134\n      tag_95\n      jump\t// in\n    tag_134:\n        /* \"#utility.yul\":760:879   */\n    tag_133:\n        /* \"#utility.yul\":918:919   */\n      0x00\n        /* \"#utility.yul\":943:995   */\n      tag_135\n        /* \"#utility.yul\":987:994   */\n      dup5\n        /* \"#utility.yul\":978:984   */\n      dup3\n        /* \"#utility.yul\":967:976   */\n      dup6\n        /* \"#utility.yul\":963:985   */\n      add\n        /* \"#utility.yul\":943:995   */\n      tag_99\n      jump\t// in\n    tag_135:\n        /* \"#utility.yul\":933:995   */\n      swap2\n      pop\n        /* \"#utility.yul\":889:1005   */\n      pop\n        /* \"#utility.yul\":685:1012   */\n      swap3\n      swap2\n      pop\n      pop\n      jump\t// out\n        /* \"#utility.yul\":1018:1133   */\n    tag_100:\n        /* \"#utility.yul\":1103:1126   */\n      tag_137\n        /* \"#utility.yul\":1120:1125   */\n      dup2\n        /* \"#utility.yul\":1103:1126   */\n      tag_97\n      jump\t// in\n    tag_137:\n        /* \"#utility.yul\":1098:1101   */\n      dup3\n        /* \"#utility.yul\":1091:1127   */\n      mstore\n        /* \"#utility.yul\":1018:1133   */\n      pop\n      pop\n      jump\t// out\n        /* \"#utility.yul\":1139:1357   */\n    tag_21:\n        /* \"#utility.yul\":1230:1234   */\n      0x00\n        /* \"#utility.yul\":1268:1270   */\n      0x20\n        /* \"#utility.yul\":1257:1266   */\n      dup3\n        /* \"#utility.yul\":1253:1271   */\n      add\n        /* \"#utility.yul\":1245:1271   */\n      swap1\n      pop\n        /* \"#utility.yul\":1281:1350   */\n      tag_139\n        /* \"#utility.yul\":1347:1348   */\n      0x00\n        /* \"#utility.yul\":1336:1345   */\n      dup4\n        /* \"#utility.yul\":1332:1349   */\n      add\n        /* \"#utility.yul\":1323:1329   */\n      dup5\n        /* \"#utility.yul\":1281:1350   */\n      tag_100\n      jump\t// in\n    tag_139:\n        /* \"#utility.yul\":1139:1357   */\n      swap3\n      swap2\n      pop\n      pop\n      jump\t// out\n        /* \"#utility.yul\":1363:1489   */\n    tag_101:\n        /* \"#utility.yul\":1400:1407   */\n      0x00\n        /* \"#utility.yul\":1440:1482   */\n      0xffffffffffffffffffffffffffffffffffffffff\n        /* \"#utility.yul\":1433:1438   */\n      dup3\n        /* \"#utility.yul\":1429:1483   */\n      and\n        /* \"#utility.yul\":1418:1483   */\n      swap1\n      pop\n        /* \"#utility.yul\":1363:1489   */\n      swap2\n      swap1\n      pop\n      jump\t// out\n        /* \"#utility.yul\":1495:1591   */\n    tag_102:\n        /* \"#utility.yul\":1532:1539   */\n      0x00\n        /* \"#utility.yul\":1561:1585   */\n      tag_142\n        /* \"#utility.yul\":1579:1584   */\n      dup3\n        /* \"#utility.yul\":1561:1585   */\n      tag_101\n      jump\t// in\n    tag_142:\n        /* \"#utility.yul\":1550:1585   */\n      swap1\n      pop\n        /* \"#utility.yul\":1495:1591   */\n      swap2\n      swap1\n      pop\n      jump\t// out\n        /* \"#utility.yul\":1597:1719   */\n    tag_103:\n        /* \"#utility.yul\":1670:1694   */\n      tag_144\n        /* \"#utility.yul\":1688:1693   */\n      dup2\n        /* \"#utility.yul\":1670:1694   */\n      tag_102\n      jump\t// in\n    tag_144:\n        /* \"#utility.yul\":1663:1668   */\n      dup2\n        /* \"#utility.yul\":1660:1695   */\n      eq\n        /* \"#utility.yul\":1650:1713   */\n      tag_145\n      jumpi\n        /* \"#utility.yul\":1709:1710   */\n      0x00\n        /* \"#utility.yul\":1706:1707   */\n      dup1\n        /* \"#utility.yul\":1699:1711   */\n      revert\n        /* \"#utility.yul\":1650:1713   */\n    tag_145:\n        /* \"#utility.yul\":1597:1719   */\n      pop\n      jump\t// out\n        /* \"#utility.yul\":1725:1864   */\n    tag_104:\n        /* \"#utility.yul\":1771:1776   */\n      0x00\n        /* \"#utility.yul\":1809:1815   */\n      dup2\n        /* \"#utility.yul\":1796:1816   */\n      calldataload\n        /* \"#utility.yul\":1787:1816   */\n      swap1\n      pop\n        /* \"#utility.yul\":1825:1858   */\n      tag_147\n        /* \"#utility.yul\":1852:1857   */\n      dup2\n        /* \"#utility.yul\":1825:1858   */\n      tag_103\n      jump\t// in\n    tag_147:\n        /* \"#utility.yul\":1725:1864   */\n      swap3\n      swap2\n      pop\n      pop\n      jump\t// out\n        /* \"#utility.yul\":1870:2199   */\n    tag_24:\n        /* \"#utility.yul\":1929:1935   */\n      0x00\n        /* \"#utility.yul\":1978:1980   */\n      0x20\n        /* \"#utility.yul\":1966:1975   */\n      dup3\n        /* \"#utility.yul\":1957:1964   */\n      dup5\n        /* \"#utility.yul\":1953:1976   */\n      sub\n        /* \"#utility.yul\":1949:1981   */\n      slt\n        /* \"#utility.yul\":1946:2065   */\n      iszero\n      tag_149\n      jumpi\n        /* \"#utility.yul\":1984:2063   */\n      tag_150\n      tag_95\n      jump\t// in\n    tag_150:\n        /* \"#utility.yul\":1946:2065   */\n    tag_149:\n        /* \"#utility.yul\":2104:2105   */\n      0x00\n        /* \"#utility.yul\":2129:2182   */\n      tag_151\n        /* \"#utility.yul\":2174:2181   */\n      dup5\n        /* \"#utility.yul\":2165:2171   */\n      dup3\n        /* \"#utility.yul\":2154:2163   */\n      dup6\n        /* \"#utility.yul\":2150:2172   */\n      add\n        /* \"#utility.yul\":2129:2182   */\n      tag_104\n      jump\t// in\n    tag_151:\n        /* \"#utility.yul\":2119:2182   */\n      swap2\n      pop\n        /* \"#utility.yul\":2075:2192   */\n      pop\n        /* \"#utility.yul\":1870:2199   */\n      swap3\n      swap2\n      pop\n      pop\n      jump\t// out\n        /* \"#utility.yul\":2205:2282   */\n    tag_105:\n        /* \"#utility.yul\":2242:2249   */\n      0x00\n        /* \"#utility.yul\":2271:2276   */\n      dup2\n        /* \"#utility.yul\":2260:2276   */\n      swap1\n      pop\n        /* \"#utility.yul\":2205:2282   */\n      swap2\n      swap1\n      pop\n      jump\t// out\n        /* \"#utility.yul\":2288:2410   */\n    tag_106:\n        /* \"#utility.yul\":2361:2385   */\n      tag_154\n        /* \"#utility.yul\":2379:2384   */\n      dup2\n        /* \"#utility.yul\":2361:2385   */\n      tag_105\n      jump\t// in\n    tag_154:\n        /* \"#utility.yul\":2354:2359   */\n      dup2\n        /* \"#utility.yul\":2351:2386   */\n      eq\n        /* \"#utility.yul\":2341:2404   */\n      tag_155\n      jumpi\n        /* \"#utility.yul\":2400:2401   */\n      0x00\n        /* \"#utility.yul\":2397:2398   */\n      dup1\n        /* \"#utility.yul\":2390:2402   */\n      revert\n        /* \"#utility.yul\":2341:2404   */\n    tag_155:\n        /* \"#utility.yul\":2288:2410   */\n      pop\n      jump\t// out\n        /* \"#utility.yul\":2416:2555   */\n    tag_107:\n        /* \"#utility.yul\":2462:2467   */\n      0x00\n        /* \"#utility.yul\":2500:2506   */\n      dup2\n        /* \"#utility.yul\":2487:2507   */\n      calldataload\n        /* \"#utility.yul\":2478:2507   */\n      swap1\n      pop\n        /* \"#utility.yul\":2516:2549   */\n      tag_157\n        /* \"#utility.yul\":2543:2548   */\n      dup2\n        /* \"#utility.yul\":2516:2549   */\n      tag_106\n      jump\t// in\n    tag_157:\n        /* \"#utility.yul\":2416:2555   */\n      swap3\n      swap2\n      pop\n      pop\n      jump\t// out\n        /* \"#utility.yul\":2561:2890   */\n    tag_30:\n        /* \"#utility.yul\":2620:2626   */\n      0x00\n        /* \"#utility.yul\":2669:2671   */\n      0x20\n        /* \"#utility.yul\":2657:2666   */\n      dup3\n        /* \"#utility.yul\":2648:2655   */\n      dup5\n        /* \"#utility.yul\":2644:2667   */\n      sub\n        /* \"#utility.yul\":2640:2672   */\n      slt\n        /* \"#utility.yul\":2637:2756   */\n      iszero\n      tag_159\n      jumpi\n        /* \"#utility.yul\":2675:2754   */\n      tag_160\n      tag_95\n      jump\t// in\n    tag_160:\n        /* \"#utility.yul\":2637:2756   */\n    tag_159:\n        /* \"#utility.yul\":2795:2796   */\n      0x00\n        /* \"#utility.yul\":2820:2873   */\n      tag_161\n        /* \"#utility.yul\":2865:2872   */\n      dup5\n        /* \"#utility.yul\":2856:2862   */\n      dup3\n        /* \"#utility.yul\":2845:2854   */\n      dup6\n        /* \"#utility.yul\":2841:2863   */\n      add\n        /* \"#utility.yul\":2820:2873   */\n      tag_107\n      jump\t// in\n    tag_161:\n        /* \"#utility.yul\":2810:2873   */\n      swap2\n      pop\n        /* \"#utility.yul\":2766:2883   */\n      pop\n        /* \"#utility.yul\":2561:2890   */\n      swap3\n      swap2\n      pop\n      pop\n      jump\t// out\n        /* \"#utility.yul\":2896:3014   */\n    tag_108:\n        /* \"#utility.yul\":2983:3007   */\n      tag_163\n        /* \"#utility.yul\":3001:3006   */\n      dup2\n        /* \"#utility.yul\":2983:3007   */\n      tag_102\n      jump\t// in\n    tag_163:\n        /* \"#utility.yul\":2978:2981   */\n      dup3\n        /* \"#utility.yul\":2971:3008   */\n      mstore\n        /* \"#utility.yul\":2896:3014   */\n      pop\n      pop\n      jump\t// out\n        /* \"#utility.yul\":3020:3242   */\n    tag_35:\n        /* \"#utility.yul\":3113:3117   */\n      0x00\n        /* \"#utility.yul\":3151:3153   */\n      0x20\n        /* \"#utility.yul\":3140:3149   */\n      dup3\n        /* \"#utility.yul\":3136:3154   */\n      add\n        /* \"#utility.yul\":3128:3154   */\n      swap1\n      pop\n        /* \"#utility.yul\":3164:3235   */\n      tag_165\n        /* \"#utility.yul\":3232:3233   */\n      0x00\n        /* \"#utility.yul\":3221:3230   */\n      dup4\n        /* \"#utility.yul\":3217:3234   */\n      add\n        /* \"#utility.yul\":3208:3214   */\n      dup5\n        /* \"#utility.yul\":3164:3235   */\n      tag_108\n      jump\t// in\n    tag_165:\n        /* \"#utility.yul\":3020:3242   */\n      swap3\n      swap2\n      pop\n      pop\n      jump\t// out\n        /* \"#utility.yul\":3248:3366   */\n    tag_109:\n        /* \"#utility.yul\":3335:3359   */\n      tag_167\n        /* \"#utility.yul\":3353:3358   */\n      dup2\n        /* \"#utility.yul\":3335:3359   */\n      tag_105\n      jump\t// in\n    tag_167:\n        /* \"#utility.yul\":3330:3333   */\n      dup3\n        /* \"#utility.yul\":3323:3360   */\n      mstore\n        /* \"#utility.yul\":3248:3366   */\n      pop\n      pop\n      jump\t// out\n        /* \"#utility.yul\":3372:3594   */\n    tag_45:\n        /* \"#utility.yul\":3465:3469   */\n      0x00\n        /* \"#utility.yul\":3503:3505   */\n      0x20\n        /* \"#utility.yul\":3492:3501   */\n      dup3\n        /* \"#utility.yul\":3488:3506   */\n      add\n        /* \"#utility.yul\":3480:3506   */\n      swap1\n      pop\n        /* \"#utility.yul\":3516:3587   */\n      tag_169\n        /* \"#utility.yul\":3584:3585   */\n      0x00\n        /* \"#utility.yul\":3573:3582   */\n      dup4\n        /* \"#utility.yul\":3569:3586   */\n      add\n        /* \"#utility.yul\":3560:3566   */\n      dup5\n        /* \"#utility.yul\":3516:3587   */\n      tag_109\n      jump\t// in\n    tag_169:\n        /* \"#utility.yul\":3372:3594   */\n      swap3\n      swap2\n      pop\n      pop\n      jump\t// out\n        /* \"#utility.yul\":3600:3780   */\n    tag_110:\n        /* \"#utility.yul\":3648:3725   */\n      0x4e487b7100000000000000000000000000000000000000000000000000000000\n        /* \"#utility.yul\":3645:3646   */\n      0x00\n        /* \"#utility.yul\":3638:3726   */\n      mstore\n        /* \"#utility.yul\":3745:3749   */\n      0x11\n        /* \"#utility.yul\":3742:3743   */\n      0x04\n        /* \"#utility.yul\":3735:3750   */\n      mstore\n        /* \"#utility.yul\":3769:3773   */\n      0x24\n        /* \"#utility.yul\":3766:3767   */\n      0x00\n        /* \"#utility.yul\":3759:3774   */\n      revert\n        /* \"#utility.yul\":3786:3888   */\n    tag_111:\n        /* \"#utility.yul\":3828:3836   */\n      0x00\n        /* \"#utility.yul\":3875:3880   */\n      dup2\n        /* \"#utility.yul\":3872:3873   */\n      0x01\n        /* \"#utility.yul\":3868:3881   */\n      shr\n        /* \"#utility.yul\":3847:3881   */\n      swap1\n      pop\n        /* \"#utility.yul\":3786:3888   */\n      swap2\n      swap1\n      pop\n      jump\t// out\n        /* \"#utility.yul\":3894:4742   */\n    tag_112:\n        /* \"#utility.yul\":3955:3960   */\n      0x00\n        /* \"#utility.yul\":3962:3966   */\n      dup1\n        /* \"#utility.yul\":3986:3992   */\n      dup3\n        /* \"#utility.yul\":3977:3992   */\n      swap2\n      pop\n        /* \"#utility.yul\":4010:4015   */\n      dup4\n        /* \"#utility.yul\":4001:4015   */\n      swap1\n      pop\n        /* \"#utility.yul\":4024:4736   */\n    tag_173:\n        /* \"#utility.yul\":4045:4046   */\n      0x01\n        /* \"#utility.yul\":4035:4043   */\n      dup6\n        /* \"#utility.yul\":4032:4047   */\n      gt\n        /* \"#utility.yul\":4024:4736   */\n      iszero\n      tag_175\n      jumpi\n        /* \"#utility.yul\":4140:4144   */\n      dup1\n        /* \"#utility.yul\":4135:4138   */\n      dup7\n        /* \"#utility.yul\":4131:4145   */\n      div\n        /* \"#utility.yul\":4125:4129   */\n      dup2\n        /* \"#utility.yul\":4122:4146   */\n      gt\n        /* \"#utility.yul\":4119:4169   */\n      iszero\n      tag_176\n      jumpi\n        /* \"#utility.yul\":4149:4167   */\n      tag_177\n      tag_110\n      jump\t// in\n    tag_177:\n        /* \"#utility.yul\":4119:4169   */\n    tag_176:\n        /* \"#utility.yul\":4199:4200   */\n      0x01\n        /* \"#utility.yul\":4189:4197   */\n      dup6\n        /* \"#utility.yul\":4185:4201   */\n      and\n        /* \"#utility.yul\":4182:4633   */\n      iszero\n      tag_178\n      jumpi\n        /* \"#utility.yul\":4614:4618   */\n      dup1\n        /* \"#utility.yul\":4607:4612   */\n      dup3\n        /* \"#utility.yul\":4603:4619   */\n      mul\n        /* \"#utility.yul\":4594:4619   */\n      swap2\n      pop\n        /* \"#utility.yul\":4182:4633   */\n    tag_178:\n        /* \"#utility.yul\":4664:4668   */\n      dup1\n        /* \"#utility.yul\":4658:4662   */\n      dup2\n        /* \"#utility.yul\":4654:4669   */\n      mul\n        /* \"#utility.yul\":4646:4669   */\n      swap1\n      pop\n        /* \"#utility.yul\":4694:4726   */\n      tag_179\n        /* \"#utility.yul\":4717:4725   */\n      dup6\n        /* \"#utility.yul\":4694:4726   */\n      tag_111\n      jump\t// in\n    tag_179:\n        /* \"#utility.yul\":4682:4726   */\n      swap5\n      pop\n        /* \"#utility.yul\":4024:4736   */\n      jump(tag_173)\n    tag_175:\n        /* \"#utility.yul\":3894:4742   */\n      swap5\n      pop\n      swap5\n      swap3\n      pop\n      pop\n      pop\n      jump\t// out\n        /* \"#utility.yul\":4748:5821   */\n    tag_113:\n        /* \"#utility.yul\":4802:4807   */\n      0x00\n        /* \"#utility.yul\":4993:5001   */\n      dup3\n        /* \"#utility.yul\":4983:5023   */\n      tag_181\n      jumpi\n        /* \"#utility.yul\":5014:5015   */\n      0x01\n        /* \"#utility.yul\":5005:5015   */\n      swap1\n      pop\n        /* \"#utility.yul\":5016:5021   */\n      jump(tag_180)\n        /* \"#utility.yul\":4983:5023   */\n    tag_181:\n        /* \"#utility.yul\":5042:5046   */\n      dup2\n        /* \"#utility.yul\":5032:5068   */\n      tag_182\n      jumpi\n        /* \"#utility.yul\":5059:5060   */\n      0x00\n        /* \"#utility.yul\":5050:5060   */\n      swap1\n      pop\n        /* \"#utility.yul\":5061:5066   */\n      jump(tag_180)\n        /* \"#utility.yul\":5032:5068   */\n    tag_182:\n        /* \"#utility.yul\":5128:5132   */\n      dup2\n        /* \"#utility.yul\":5176:5177   */\n      0x01\n        /* \"#utility.yul\":5171:5198   */\n      dup2\n      eq\n      tag_184\n      jumpi\n        /* \"#utility.yul\":5212:5213   */\n      0x02\n        /* \"#utility.yul\":5207:5398   */\n      dup2\n      eq\n      tag_185\n      jumpi\n        /* \"#utility.yul\":5121:5398   */\n      jump(tag_183)\n        /* \"#utility.yul\":5171:5198   */\n    tag_184:\n        /* \"#utility.yul\":5189:5190   */\n      0x01\n        /* \"#utility.yul\":5180:5190   */\n      swap2\n      pop\n        /* \"#utility.yul\":5191:5196   */\n      pop\n      jump(tag_180)\n        /* \"#utility.yul\":5207:5398   */\n    tag_185:\n        /* \"#utility.yul\":5252:5255   */\n      0xff\n        /* \"#utility.yul\":5242:5250   */\n      dup5\n        /* \"#utility.yul\":5239:5256   */\n      gt\n        /* \"#utility.yul\":5236:5279   */\n      iszero\n      tag_186\n      jumpi\n        /* \"#utility.yul\":5259:5277   */\n      tag_187\n      tag_110\n      jump\t// in\n    tag_187:\n        /* \"#utility.yul\":5236:5279   */\n    tag_186:\n        /* \"#utility.yul\":5308:5316   */\n      dup4\n        /* \"#utility.yul\":5305:5306   */\n      0x02\n        /* \"#utility.yul\":5301:5317   */\n      exp\n        /* \"#utility.yul\":5292:5317   */\n      swap2\n      pop\n        /* \"#utility.yul\":5343:5346   */\n      dup5\n        /* \"#utility.yul\":5336:5341   */\n      dup3\n        /* \"#utility.yul\":5333:5347   */\n      gt\n        /* \"#utility.yul\":5330:5370   */\n      iszero\n      tag_188\n      jumpi\n        /* \"#utility.yul\":5350:5368   */\n      tag_189\n      tag_110\n      jump\t// in\n    tag_189:\n        /* \"#utility.yul\":5330:5370   */\n    tag_188:\n        /* \"#utility.yul\":5383:5388   */\n      pop\n      jump(tag_180)\n        /* \"#utility.yul\":5121:5398   */\n    tag_183:\n      pop\n        /* \"#utility.yul\":5507:5509   */\n      0x20\n        /* \"#utility.yul\":5497:5505   */\n      dup4\n        /* \"#utility.yul\":5494:5510   */\n      lt\n        /* \"#utility.yul\":5488:5491   */\n      0x0133\n        /* \"#utility.yul\":5482:5486   */\n      dup4\n        /* \"#utility.yul\":5479:5492   */\n      lt\n        /* \"#utility.yul\":5475:5511   */\n      and\n        /* \"#utility.yul\":5457:5459   */\n      0x4e\n        /* \"#utility.yul\":5447:5455   */\n      dup5\n        /* \"#utility.yul\":5444:5460   */\n      lt\n        /* \"#utility.yul\":5439:5441   */\n      0x0b\n        /* \"#utility.yul\":5433:5437   */\n      dup5\n        /* \"#utility.yul\":5430:5442   */\n      lt\n        /* \"#utility.yul\":5426:5461   */\n      and\n        /* \"#utility.yul\":5410:5521   */\n      or\n        /* \"#utility.yul\":5407:5653   */\n      iszero\n      tag_190\n      jumpi\n        /* \"#utility.yul\":5563:5571   */\n      dup3\n        /* \"#utility.yul\":5557:5561   */\n      dup3\n        /* \"#utility.yul\":5553:5572   */\n      exp\n        /* \"#utility.yul\":5544:5572   */\n      swap1\n      pop\n        /* \"#utility.yul\":5598:5601   */\n      dup4\n        /* \"#utility.yul\":5591:5596   */\n      dup2\n        /* \"#utility.yul\":5588:5602   */\n      gt\n        /* \"#utility.yul\":5585:5625   */\n      iszero\n      tag_191\n      jumpi\n        /* \"#utility.yul\":5605:5623   */\n      tag_192\n      tag_110\n      jump\t// in\n    tag_192:\n        /* \"#utility.yul\":5585:5625   */\n    tag_191:\n        /* \"#utility.yul\":5638:5643   */\n      jump(tag_180)\n        /* \"#utility.yul\":5407:5653   */\n    tag_190:\n        /* \"#utility.yul\":5678:5720   */\n      tag_193\n        /* \"#utility.yul\":5716:5719   */\n      dup5\n        /* \"#utility.yul\":5706:5714   */\n      dup5\n        /* \"#utility.yul\":5700:5704   */\n      dup5\n        /* \"#utility.yul\":5697:5698   */\n      0x01\n        /* \"#utility.yul\":5678:5720   */\n      tag_112\n      jump\t// in\n    tag_193:\n        /* \"#utility.yul\":5663:5720   */\n      swap3\n      pop\n      swap1\n      pop\n        /* \"#utility.yul\":5752:5756   */\n      dup2\n        /* \"#utility.yul\":5747:5750   */\n      dup5\n        /* \"#utility.yul\":5743:5757   */\n      div\n        /* \"#utility.yul\":5736:5741   */\n      dup2\n        /* \"#utility.yul\":5733:5758   */\n      gt\n        /* \"#utility.yul\":5730:5781   */\n      iszero\n      tag_194\n      jumpi\n        /* \"#utility.yul\":5761:5779   */\n      tag_195\n      tag_110\n      jump\t// in\n    tag_195:\n        /* \"#utility.yul\":5730:5781   */\n    tag_194:\n        /* \"#utility.yul\":5810:5814   */\n      dup2\n        /* \"#utility.yul\":5803:5808   */\n      dup2\n        /* \"#utility.yul\":5799:5815   */\n      mul\n        /* \"#utility.yul\":5790:5815   */\n      swap1\n      pop\n        /* \"#utility.yul\":4748:5821   */\n    tag_180:\n      swap4\n      swap3\n      pop\n      pop\n      pop\n      jump\t// out\n        /* \"#utility.yul\":5827:6112   */\n    tag_69:\n        /* \"#utility.yul\":5887:5892   */\n      0x00\n        /* \"#utility.yul\":5911:5934   */\n      tag_197\n        /* \"#utility.yul\":5929:5933   */\n      dup3\n        /* \"#utility.yul\":5911:5934   */\n      tag_105\n      jump\t// in\n    tag_197:\n        /* \"#utility.yul\":5903:5934   */\n      swap2\n      pop\n        /* \"#utility.yul\":5955:5982   */\n      tag_198\n        /* \"#utility.yul\":5973:5981   */\n      dup4\n        /* \"#utility.yul\":5955:5982   */\n      tag_105\n      jump\t// in\n    tag_198:\n        /* \"#utility.yul\":5943:5982   */\n      swap3\n      pop\n        /* \"#utility.yul\":6001:6105   */\n      tag_199\n        /* \"#utility.yul\":6038:6104   */\n      0xffffffffffffffffffffffffffffffffffffffffffffffffffffffffffffffff\n        /* \"#utility.yul\":6028:6036   */\n      dup5\n        /* \"#utility.yul\":6022:6026   */\n      dup5\n        /* \"#utility.yul\":6001:6105   */\n      tag_113\n      jump\t// in\n    tag_199:\n        /* \"#utility.yul\":5992:6105   */\n      swap1\n      pop\n        /* \"#utility.yul\":5827:6112   */\n      swap3\n      swap2\n      pop\n      pop\n      jump\t// out\n        /* \"#utility.yul\":6118:6298   */\n    tag_114:\n        /* \"#utility.yul\":6166:6243   */\n      0x4e487b7100000000000000000000000000000000000000000000000000000000\n        /* \"#utility.yul\":6163:6164   */\n      0x00\n        /* \"#utility.yul\":6156:6244   */\n      mstore\n        /* \"#utility.yul\":6263:6267   */\n      0x12\n        /* \"#utility.yul\":6260:6261   */\n      0x04\n        /* \"#utility.yul\":6253:6268   */\n      mstore\n        /* \"#utility.yul\":6287:6291   */\n      0x24\n        /* \"#utility.yul\":6284:6285   */\n      0x00\n        /* \"#utility.yul\":6277:6292   */\n      revert\n        /* \"#utility.yul\":6304:6689   */\n    tag_71:\n        /* \"#utility.yul\":6343:6344   */\n      0x00\n        /* \"#utility.yul\":6360:6379   */\n      tag_202\n        /* \"#utility.yul\":6377:6378   */\n      dup3\n        /* \"#utility.yul\":6360:6379   */\n      tag_97\n      jump\t// in\n    tag_202:\n        /* \"#utility.yul\":6355:6379   */\n      swap2\n      pop\n        /* \"#utility.yul\":6393:6412   */\n      tag_203\n        /* \"#utility.yul\":6410:6411   */\n      dup4\n        /* \"#utility.yul\":6393:6412   */\n      tag_97\n      jump\t// in\n    tag_203:\n        /* \"#utility.yul\":6388:6412   */\n      swap3\n      pop\n        /* \"#utility.yul\":6431:6432   */\n      dup3\n        /* \"#utility.yul\":6421:6456   */\n      tag_204\n      jumpi\n        /* \"#utility.yul\":6436:6454   */\n      tag_205\n      tag_114\n      jump\t// in\n    tag_205:\n        /* \"#utility.yul\":6421:6456   */\n    tag_204:\n        /* \"#utility.yul\":6622:6623   */\n      0x01\n        /* \"#utility.yul\":6619:6620   */\n      0x00\n        /* \"#utility.yul\":6615:6624   */\n      sub\n        /* \"#utility.yul\":6612:6613   */\n      dup4\n        /* \"#utility.yul\":6609:6625   */\n      eq\n        /* \"#utility.yul\":6528:6594   */\n      0x8000000000000000000000000000000000000000000000000000000000000000\n        /* \"#utility.yul\":6525:6526   */\n      dup4\n        /* \"#utility.yul\":6522:6595   */\n      eq\n        /* \"#utility.yul\":6505:6635   */\n      and\n        /* \"#utility.yul\":6502:6658   */\n      iszero\n      tag_206\n      jumpi\n        /* \"#utility.yul\":6638:6656   */\n      tag_207\n      tag_110\n      jump\t// in\n    tag_207:\n        /* \"#utility.yul\":6502:6658   */\n    tag_206:\n        /* \"#utility.yul\":6681:6682   */\n      dup3\n        /* \"#utility.yul\":6678:6679   */\n      dup3\n        /* \"#utility.yul\":6673:6683   */\n      sdiv\n        /* \"#utility.yul\":6668:6683   */\n      swap1\n      pop\n        /* \"#utility.yul\":6304:6689   */\n      swap3\n      swap2\n      pop\n      pop\n      jump\t// out\n        /* \"#utility.yul\":6695:6864   */\n    tag_115:\n        /* \"#utility.yul\":6779:6790   */\n      0x00\n        /* \"#utility.yul\":6813:6819   */\n      dup3\n        /* \"#utility.yul\":6808:6811   */\n      dup3\n        /* \"#utility.yul\":6801:6820   */\n      mstore\n        /* \"#utility.yul\":6853:6857   */\n      0x20\n        /* \"#utility.yul\":6848:6851   */\n      dup3\n        /* \"#utility.yul\":6844:6858   */\n      add\n        /* \"#utility.yul\":6829:6858   */\n      swap1\n      pop\n        /* \"#utility.yul\":6695:6864   */\n      swap3\n      swap2\n      pop\n      pop\n      jump\t// out\n        /* \"#utility.yul\":6870:7095   */\n    tag_116:\n        /* \"#utility.yul\":7010:7044   */\n      0x4f776e61626c653a206e6577206f776e657220697320746865207a65726f2061\n        /* \"#utility.yul\":7006:7007   */\n      0x00\n        /* \"#utility.yul\":6998:7004   */\n      dup3\n        /* \"#utility.yul\":6994:7008   */\n      add\n        /* \"#utility.yul\":6987:7045   */\n      mstore\n        /* \"#utility.yul\":7079:7087   */\n      0x6464726573730000000000000000000000000000000000000000000000000000\n        /* \"#utility.yul\":7074:7076   */\n      0x20\n        /* \"#utility.yul\":7066:7072   */\n      dup3\n        /* \"#utility.yul\":7062:7077   */\n      add\n        /* \"#utility.yul\":7055:7088   */\n      mstore\n        /* \"#utility.yul\":6870:7095   */\n      pop\n      jump\t// out\n        /* \"#utility.yul\":7101:7467   */\n    tag_117:\n        /* \"#utility.yul\":7243:7246   */\n      0x00\n        /* \"#utility.yul\":7264:7331   */\n      tag_211\n        /* \"#utility.yul\":7328:7330   */\n      0x26\n        /* \"#utility.yul\":7323:7326   */\n      dup4\n        /* \"#utility.yul\":7264:7331   */\n      tag_115\n      jump\t// in\n    tag_211:\n        /* \"#utility.yul\":7257:7331   */\n      swap2\n      pop\n        /* \"#utility.yul\":7340:7433   */\n      tag_212\n        /* \"#utility.yul\":7429:7432   */\n      dup3\n        /* \"#utility.yul\":7340:7433   */\n      tag_116\n      jump\t// in\n    tag_212:\n        /* \"#utility.yul\":7458:7460   */\n      0x40\n        /* \"#utility.yul\":7453:7456   */\n      dup3\n        /* \"#utility.yul\":7449:7461   */\n      add\n        /* \"#utility.yul\":7442:7461   */\n      swap1\n      pop\n        /* \"#utility.yul\":7101:7467   */\n      swap2\n      swap1\n      pop\n      jump\t// out\n        /* \"#utility.yul\":7473:7892   */\n    tag_79:\n        /* \"#utility.yul\":7639:7643   */\n      0x00\n        /* \"#utility.yul\":7677:7679   */\n      0x20\n        /* \"#utility.yul\":7666:7675   */\n      dup3\n        /* \"#utility.yul\":7662:7680   */\n      add\n        /* \"#utility.yul\":7654:7680   */\n      swap1\n      pop\n        /* \"#utility.yul\":7726:7735   */\n      dup2\n        /* \"#utility.yul\":7720:7724   */\n      dup2\n        /* \"#utility.yul\":7716:7736   */\n      sub\n        /* \"#utility.yul\":7712:7713   */\n      0x00\n        /* \"#utility.yul\":7701:7710   */\n      dup4\n        /* \"#utility.yul\":7697:7714   */\n      add\n        /* \"#utility.yul\":7690:7737   */\n      mstore\n        /* \"#utility.yul\":7754:7885   */\n      tag_214\n        /* \"#utility.yul\":7880:7884   */\n      dup2\n        /* \"#utility.yul\":7754:7885   */\n      tag_117\n      jump\t// in\n    tag_214:\n        /* \"#utility.yul\":7746:7885   */\n      swap1\n      pop\n        /* \"#utility.yul\":7473:7892   */\n      swap2\n      swap1\n      pop\n      jump\t// out\n        /* \"#utility.yul\":7898:8073   */\n    tag_118:\n        /* \"#utility.yul\":8038:8065   */\n      0x43616c6c6572206973206e6f74207468652072656c6179657200000000000000\n        /* \"#utility.yul\":8034:8035   */\n      0x00\n        /* \"#utility.yul\":8026:8032   */\n      dup3\n        /* \"#utility.yul\":8022:8036   */\n      add\n        /* \"#utility.yul\":8015:8066   */\n      mstore\n        /* \"#utility.yul\":7898:8073   */\n      pop\n      jump\t// out\n        /* \"#utility.yul\":8079:8445   */\n    tag_119:\n        /* \"#utility.yul\":8221:8224   */\n      0x00\n        /* \"#utility.yul\":8242:8309   */\n      tag_217\n        /* \"#utility.yul\":8306:8308   */\n      0x19\n        /* \"#utility.yul\":8301:8304   */\n      dup4\n        /* \"#utility.yul\":8242:8309   */\n      tag_115\n      jump\t// in\n    tag_217:\n        /* \"#utility.yul\":8235:8309   */\n      swap2\n      pop\n        /* \"#utility.yul\":8318:8411   */\n      tag_218\n        /* \"#utility.yul\":8407:8410   */\n      dup3\n        /* \"#utility.yul\":8318:8411   */\n      tag_118\n      jump\t// in\n    tag_218:\n        /* \"#utility.yul\":8436:8438   */\n      0x20\n        /* \"#utility.yul\":8431:8434   */\n      dup3\n        /* \"#utility.yul\":8427:8439   */\n      add\n        /* \"#utility.yul\":8420:8439   */\n      swap1\n      pop\n        /* \"#utility.yul\":8079:8445   */\n      swap2\n      swap1\n      pop\n      jump\t// out\n        /* \"#utility.yul\":8451:8870   */\n    tag_84:\n        /* \"#utility.yul\":8617:8621   */\n      0x00\n        /* \"#utility.yul\":8655:8657   */\n      0x20\n        /* \"#utility.yul\":8644:8653   */\n      dup3\n        /* \"#utility.yul\":8640:8658   */\n      add\n        /* \"#utility.yul\":8632:8658   */\n      swap1\n      pop\n        /* \"#utility.yul\":8704:8713   */\n      dup2\n        /* \"#utility.yul\":8698:8702   */\n      dup2\n        /* \"#utility.yul\":8694:8714   */\n      sub\n        /* \"#utility.yul\":8690:8691   */\n      0x00\n        /* \"#utility.yul\":8679:8688   */\n      dup4\n        /* \"#utility.yul\":8675:8692   */\n      add\n        /* \"#utility.yul\":8668:8715   */\n      mstore\n        /* \"#utility.yul\":8732:8863   */\n      tag_220\n        /* \"#utility.yul\":8858:8862   */\n      dup2\n        /* \"#utility.yul\":8732:8863   */\n      tag_119\n      jump\t// in\n    tag_220:\n        /* \"#utility.yul\":8724:8863   */\n      swap1\n      pop\n        /* \"#utility.yul\":8451:8870   */\n      swap2\n      swap1\n      pop\n      jump\t// out\n        /* \"#utility.yul\":8876:9058   */\n    tag_120:\n        /* \"#utility.yul\":9016:9050   */\n      0x4f776e61626c653a2063616c6c6572206973206e6f7420746865206f776e6572\n        /* \"#utility.yul\":9012:9013   */\n      0x00\n        /* \"#utility.yul\":9004:9010   */\n      dup3\n        /* \"#utility.yul\":9000:9014   */\n      add\n        /* \"#utility.yul\":8993:9051   */\n      mstore\n        /* \"#utility.yul\":8876:9058   */\n      pop\n      jump\t// out\n        /* \"#utility.yul\":9064:9430   */\n    tag_121:\n        /* \"#utility.yul\":9206:9209   */\n      0x00\n        /* \"#utility.yul\":9227:9294   */\n      tag_223\n        /* \"#utility.yul\":9291:9293   */\n      0x20\n        /* \"#utility.yul\":9286:9289   */\n      dup4\n        /* \"#utility.yul\":9227:9294   */\n      tag_115\n      jump\t// in\n    tag_223:\n        /* \"#utility.yul\":9220:9294   */\n      swap2\n      pop\n        /* \"#utility.yul\":9303:9396   */\n      tag_224\n        /* \"#utility.yul\":9392:9395   */\n      dup3\n        /* \"#utility.yul\":9303:9396   */\n      tag_120\n      jump\t// in\n    tag_224:\n        /* \"#utility.yul\":9421:9423   */\n      0x20\n        /* \"#utility.yul\":9416:9419   */\n      dup3\n        /* \"#utility.yul\":9412:9424   */\n      add\n        /* \"#utility.yul\":9405:9424   */\n      swap1\n      pop\n        /* \"#utility.yul\":9064:9430   */\n      swap2\n      swap1\n      pop\n      jump\t// out\n        /* \"#utility.yul\":9436:9855   */\n    tag_91:\n        /* \"#utility.yul\":9602:9606   */\n      0x00\n        /* \"#utility.yul\":9640:9642   */\n      0x20\n        /* \"#utility.yul\":9629:9638   */\n      dup3\n        /* \"#utility.yul\":9625:9643   */\n      add\n        /* \"#utility.yul\":9617:9643   */\n      swap1\n      pop\n        /* \"#utility.yul\":9689:9698   */\n      dup2\n        /* \"#utility.yul\":9683:9687   */\n      dup2\n        /* \"#utility.yul\":9679:9699   */\n      sub\n        /* \"#utility.yul\":9675:9676   */\n      0x00\n        /* \"#utility.yul\":9664:9673   */\n      dup4\n        /* \"#utility.yul\":9660:9677   */\n      add\n        /* \"#utility.yul\":9653:9700   */\n      mstore\n        /* \"#utility.yul\":9717:9848   */\n      tag_226\n        /* \"#utility.yul\":9843:9847   */\n      dup2\n        /* \"#utility.yul\":9717:9848   */\n      tag_121\n      jump\t// in\n    tag_226:\n        /* \"#utility.yul\":9709:9848   */\n      swap1\n      pop\n        /* \"#utility.yul\":9436:9855   */\n      swap2\n      swap1\n      pop\n      jump\t// out\n\n    auxdata: 0xa2646970667358221220de549f45c273c48dd974ea73cdb67ebee942a572bf1b0e343e23061ff7128dd764736f6c63430008110033\n}\n",
				"bytecode": {
					"linkReferences": {},
					"object": "608060405260046003553480156200001657600080fd5b5060405162000e6838038062000e6883398181016040528101906200003c9190620002b8565b6200005c620000506200007460201b60201c565b6200007c60201b60201c565b6200006d816200014060201b60201c565b506200036d565b600033905090565b60008060009054906101000a900473ffffffffffffffffffffffffffffffffffffffff169050816000806101000a81548173ffffffffffffffffffffffffffffffffffffffff021916908373ffffffffffffffffffffffffffffffffffffffff1602179055508173ffffffffffffffffffffffffffffffffffffffff168173ffffffffffffffffffffffffffffffffffffffff167f8be0079c531659141344cd1fd0a4f28419497f9722a3daafe3b4186f6b6457e060405160405180910390a35050565b620001506200019460201b60201c565b80600260006101000a81548173ffffffffffffffffffffffffffffffffffffffff021916908373ffffffffffffffffffffffffffffffffffffffff16021790555050565b620001a46200007460201b60201c565b73ffffffffffffffffffffffffffffffffffffffff16620001ca6200022560201b60201c565b73ffffffffffffffffffffffffffffffffffffffff161462000223576040517f08c379a00000000000000000000000000000000000000000000000000000000081526004016200021a906200034b565b60405180910390fd5b565b60008060009054906101000a900473ffffffffffffffffffffffffffffffffffffffff16905090565b600080fd5b600073ffffffffffffffffffffffffffffffffffffffff82169050919050565b6000620002808262000253565b9050919050565b620002928162000273565b81146200029e57600080fd5b50565b600081519050620002b28162000287565b92915050565b600060208284031215620002d157620002d06200024e565b5b6000620002e184828501620002a1565b91505092915050565b600082825260208201905092915050565b7f4f776e61626c653a2063616c6c6572206973206e6f7420746865206f776e6572600082015250565b600062000333602083620002ea565b91506200034082620002fb565b602082019050919050565b60006020820190508181036000830152620003668162000324565b9050919050565b610aeb806200037d6000396000f3fe608060405234801561001057600080fd5b506004361061009e5760003560e01c80638da5cb5b116100665780638da5cb5b1461011f578063b976cb0b1461013d578063bdc503731461015b578063f0141d8414610179578063f2fde38b146101975761009e565b8063076e48a1146100a35780636421d04b146100bf5780636548e9bc146100dd578063715018a6146100f95780638c8885c814610103575b600080fd5b6100bd60048036038101906100b8919061055b565b6101b3565b005b6100c76101c5565b6040516100d49190610597565b60405180910390f35b6100f760048036038101906100f29190610610565b6101cf565b005b61010161021b565b005b61011d60048036038101906101189190610673565b61022f565b005b610127610241565b60405161013491906106af565b60405180910390f35b61014561026a565b6040516101529190610597565b60405180910390f35b61016361028d565b60405161017091906106af565b60405180910390f35b6101816102b7565b60405161018e91906106d9565b60405180910390f35b6101b160048036038101906101ac9190610610565b6102c1565b005b6101bb610344565b8060018190555050565b6000600154905090565b6101d76103d6565b80600260006101000a81548173ffffffffffffffffffffffffffffffffffffffff021916908373ffffffffffffffffffffffffffffffffffffffff16021790555050565b6102236103d6565b61022d6000610454565b565b610237610344565b8060038190555050565b60008060009054906101000a900473ffffffffffffffffffffffffffffffffffffffff16905090565b6000600354600a61027b9190610856565b60015461028891906108d0565b905090565b6000600260009054906101000a900473ffffffffffffffffffffffffffffffffffffffff16905090565b6000600354905090565b6102c96103d6565b600073ffffffffffffffffffffffffffffffffffffffff168173ffffffffffffffffffffffffffffffffffffffff1603610338576040517f08c379a000000000000000000000000000000000000000000000000000000000815260040161032f906109bd565b60405180910390fd5b61034181610454565b50565b3373ffffffffffffffffffffffffffffffffffffffff16600260009054906101000a900473ffffffffffffffffffffffffffffffffffffffff1673ffffffffffffffffffffffffffffffffffffffff16146103d4576040517f08c379a00000000000000000000000000000000000000000000000000000000081526004016103cb90610a29565b60405180910390fd5b565b6103de610518565b73ffffffffffffffffffffffffffffffffffffffff166103fc610241565b73ffffffffffffffffffffffffffffffffffffffff1614610452576040517f08c379a000000000000000000000000000000000000000000000000000000000815260040161044990610a95565b60405180910390fd5b565b60008060009054906101000a900473ffffffffffffffffffffffffffffffffffffffff169050816000806101000a81548173ffffffffffffffffffffffffffffffffffffffff021916908373ffffffffffffffffffffffffffffffffffffffff1602179055508173ffffffffffffffffffffffffffffffffffffffff168173ffffffffffffffffffffffffffffffffffffffff167f8be0079c531659141344cd1fd0a4f28419497f9722a3daafe3b4186f6b6457e060405160405180910390a35050565b600033905090565b600080fd5b6000819050919050565b61053881610525565b811461054357600080fd5b50565b6000813590506105558161052f565b92915050565b60006020828403121561057157610570610520565b5b600061057f84828501610546565b91505092915050565b61059181610525565b82525050565b60006020820190506105ac6000830184610588565b92915050565b600073ffffffffffffffffffffffffffffffffffffffff82169050919050565b60006105dd826105b2565b9050919050565b6105ed816105d2565b81146105f857600080fd5b50565b60008135905061060a816105e4565b92915050565b60006020828403121561062657610625610520565b5b6000610634848285016105fb565b91505092915050565b6000819050919050565b6106508161063d565b811461065b57600080fd5b50565b60008135905061066d81610647565b92915050565b60006020828403121561068957610688610520565b5b60006106978482850161065e565b91505092915050565b6106a9816105d2565b82525050565b60006020820190506106c460008301846106a0565b92915050565b6106d38161063d565b82525050565b60006020820190506106ee60008301846106ca565b92915050565b7f4e487b7100000000000000000000000000000000000000000000000000000000600052601160045260246000fd5b60008160011c9050919050565b6000808291508390505b600185111561077a57808604811115610756576107556106f4565b5b60018516156107655780820291505b808102905061077385610723565b945061073a565b94509492505050565b600082610793576001905061084f565b816107a1576000905061084f565b81600181146107b757600281146107c1576107f0565b600191505061084f565b60ff8411156107d3576107d26106f4565b5b8360020a9150848211156107ea576107e96106f4565b5b5061084f565b5060208310610133831016604e8410600b84101617156108255782820a9050838111156108205761081f6106f4565b5b61084f565b6108328484846001610730565b92509050818404811115610849576108486106f4565b5b81810290505b9392505050565b60006108618261063d565b915061086c8361063d565b92506108997fffffffffffffffffffffffffffffffffffffffffffffffffffffffffffffffff8484610783565b905092915050565b7f4e487b7100000000000000000000000000000000000000000000000000000000600052601260045260246000fd5b60006108db82610525565b91506108e683610525565b9250826108f6576108f56108a1565b5b600160000383147f80000000000000000000000000000000000000000000000000000000000000008314161561092f5761092e6106f4565b5b828205905092915050565b600082825260208201905092915050565b7f4f776e61626c653a206e6577206f776e657220697320746865207a65726f206160008201527f6464726573730000000000000000000000000000000000000000000000000000602082015250565b60006109a760268361093a565b91506109b28261094b565b604082019050919050565b600060208201905081810360008301526109d68161099a565b9050919050565b7f43616c6c6572206973206e6f74207468652072656c6179657200000000000000600082015250565b6000610a1360198361093a565b9150610a1e826109dd565b602082019050919050565b60006020820190508181036000830152610a4281610a06565b9050919050565b7f4f776e61626c653a2063616c6c6572206973206e6f7420746865206f776e6572600082015250565b6000610a7f60208361093a565b9150610a8a82610a49565b602082019050919050565b60006020820190508181036000830152610aae81610a72565b905091905056fea2646970667358221220de549f45c273c48dd974ea73cdb67ebee942a572bf1b0e343e23061ff7128dd764736f6c63430008110033",
					"opcodes": "PUSH1 0x80 PUSH1 0x40 MSTORE PUSH1 0x4 PUSH1 0x3 SSTORE CALLVALUE DUP1 ISZERO PUSH3 0x16 JUMPI PUSH1 0x0 DUP1 REVERT JUMPDEST POP PUSH1 0x40 MLOAD PUSH3 0xE68 CODESIZE SUB DUP1 PUSH3 0xE68 DUP4 CODECOPY DUP2 DUP2 ADD PUSH1 0x40 MSTORE DUP2 ADD SWAP1 PUSH3 0x3C SWAP2 SWAP1 PUSH3 0x2B8 JUMP JUMPDEST PUSH3 0x5C PUSH3 0x50 PUSH3 0x74 PUSH1 0x20 SHL PUSH1 0x20 SHR JUMP JUMPDEST PUSH3 0x7C PUSH1 0x20 SHL PUSH1 0x20 SHR JUMP JUMPDEST PUSH3 0x6D DUP2 PUSH3 0x140 PUSH1 0x20 SHL PUSH1 0x20 SHR JUMP JUMPDEST POP PUSH3 0x36D JUMP JUMPDEST PUSH1 0x0 CALLER SWAP1 POP SWAP1 JUMP JUMPDEST PUSH1 0x0 DUP1 PUSH1 0x0 SWAP1 SLOAD SWAP1 PUSH2 0x100 EXP SWAP1 DIV PUSH20 0xFFFFFFFFFFFFFFFFFFFFFFFFFFFFFFFFFFFFFFFF AND SWAP1 POP DUP2 PUSH1 0x0 DUP1 PUSH2 0x100 EXP DUP2 SLOAD DUP2 PUSH20 0xFFFFFFFFFFFFFFFFFFFFFFFFFFFFFFFFFFFFFFFF MUL NOT AND SWAP1 DUP4 PUSH20 0xFFFFFFFFFFFFFFFFFFFFFFFFFFFFFFFFFFFFFFFF AND MUL OR SWAP1 SSTORE POP DUP2 PUSH20 0xFFFFFFFFFFFFFFFFFFFFFFFFFFFFFFFFFFFFFFFF AND DUP2 PUSH20 0xFFFFFFFFFFFFFFFFFFFFFFFFFFFFFFFFFFFFFFFF AND PUSH32 0x8BE0079C531659141344CD1FD0A4F28419497F9722A3DAAFE3B4186F6B6457E0 PUSH1 0x40 MLOAD PUSH1 0x40 MLOAD DUP1 SWAP2 SUB SWAP1 LOG3 POP POP JUMP JUMPDEST PUSH3 0x150 PUSH3 0x194 PUSH1 0x20 SHL PUSH1 0x20 SHR JUMP JUMPDEST DUP1 PUSH1 0x2 PUSH1 0x0 PUSH2 0x100 EXP DUP2 SLOAD DUP2 PUSH20 0xFFFFFFFFFFFFFFFFFFFFFFFFFFFFFFFFFFFFFFFF MUL NOT AND SWAP1 DUP4 PUSH20 0xFFFFFFFFFFFFFFFFFFFFFFFFFFFFFFFFFFFFFFFF AND MUL OR SWAP1 SSTORE POP POP JUMP JUMPDEST PUSH3 0x1A4 PUSH3 0x74 PUSH1 0x20 SHL PUSH1 0x20 SHR JUMP JUMPDEST PUSH20 0xFFFFFFFFFFFFFFFFFFFFFFFFFFFFFFFFFFFFFFFF AND PUSH3 0x1CA PUSH3 0x225 PUSH1 0x20 SHL PUSH1 0x20 SHR JUMP JUMPDEST PUSH20 0xFFFFFFFFFFFFFFFFFFFFFFFFFFFFFFFFFFFFFFFF AND EQ PUSH3 0x223 JUMPI PUSH1 0x40 MLOAD PUSH32 0x8C379A000000000000000000000000000000000000000000000000000000000 DUP2 MSTORE PUSH1 0x4 ADD PUSH3 0x21A SWAP1 PUSH3 0x34B JUMP JUMPDEST PUSH1 0x40 MLOAD DUP1 SWAP2 SUB SWAP1 REVERT JUMPDEST JUMP JUMPDEST PUSH1 0x0 DUP1 PUSH1 0x0 SWAP1 SLOAD SWAP1 PUSH2 0x100 EXP SWAP1 DIV PUSH20 0xFFFFFFFFFFFFFFFFFFFFFFFFFFFFFFFFFFFFFFFF AND SWAP1 POP SWAP1 JUMP JUMPDEST PUSH1 0x0 DUP1 REVERT JUMPDEST PUSH1 0x0 PUSH20 0xFFFFFFFFFFFFFFFFFFFFFFFFFFFFFFFFFFFFFFFF DUP3 AND SWAP1 POP SWAP2 SWAP1 POP JUMP JUMPDEST PUSH1 0x0 PUSH3 0x280 DUP3 PUSH3 0x253 JUMP JUMPDEST SWAP1 POP SWAP2 SWAP1 POP JUMP JUMPDEST PUSH3 0x292 DUP2 PUSH3 0x273 JUMP JUMPDEST DUP2 EQ PUSH3 0x29E JUMPI PUSH1 0x0 DUP1 REVERT JUMPDEST POP JUMP JUMPDEST PUSH1 0x0 DUP2 MLOAD SWAP1 POP PUSH3 0x2B2 DUP2 PUSH3 0x287 JUMP JUMPDEST SWAP3 SWAP2 POP POP JUMP JUMPDEST PUSH1 0x0 PUSH1 0x20 DUP3 DUP5 SUB SLT ISZERO PUSH3 0x2D1 JUMPI PUSH3 0x2D0 PUSH3 0x24E JUMP JUMPDEST JUMPDEST PUSH1 0x0 PUSH3 0x2E1 DUP5 DUP3 DUP6 ADD PUSH3 0x2A1 JUMP JUMPDEST SWAP2 POP POP SWAP3 SWAP2 POP POP JUMP JUMPDEST PUSH1 0x0 DUP3 DUP3 MSTORE PUSH1 0x20 DUP3 ADD SWAP1 POP SWAP3 SWAP2 POP POP JUMP JUMPDEST PUSH32 0x4F776E61626C653A2063616C6C6572206973206E6F7420746865206F776E6572 PUSH1 0x0 DUP3 ADD MSTORE POP JUMP JUMPDEST PUSH1 0x0 PUSH3 0x333 PUSH1 0x20 DUP4 PUSH3 0x2EA JUMP JUMPDEST SWAP2 POP PUSH3 0x340 DUP3 PUSH3 0x2FB JUMP JUMPDEST PUSH1 0x20 DUP3 ADD SWAP1 POP SWAP2 SWAP1 POP JUMP JUMPDEST PUSH1 0x0 PUSH1 0x20 DUP3 ADD SWAP1 POP DUP2 DUP2 SUB PUSH1 0x0 DUP4 ADD MSTORE PUSH3 0x366 DUP2 PUSH3 0x324 JUMP JUMPDEST SWAP1 POP SWAP2 SWAP1 POP JUMP JUMPDEST PUSH2 0xAEB DUP1 PUSH3 0x37D PUSH1 0x0 CODECOPY PUSH1 0x0 RETURN INVALID PUSH1 0x80 PUSH1 0x40 MSTORE CALLVALUE DUP1 ISZERO PUSH2 0x10 JUMPI PUSH1 0x0 DUP1 REVERT JUMPDEST POP PUSH1 0x4 CALLDATASIZE LT PUSH2 0x9E JUMPI PUSH1 0x0 CALLDATALOAD PUSH1 0xE0 SHR DUP1 PUSH4 0x8DA5CB5B GT PUSH2 0x66 JUMPI DUP1 PUSH4 0x8DA5CB5B EQ PUSH2 0x11F JUMPI DUP1 PUSH4 0xB976CB0B EQ PUSH2 0x13D JUMPI DUP1 PUSH4 0xBDC50373 EQ PUSH2 0x15B JUMPI DUP1 PUSH4 0xF0141D84 EQ PUSH2 0x179 JUMPI DUP1 PUSH4 0xF2FDE38B EQ PUSH2 0x197 JUMPI PUSH2 0x9E JUMP JUMPDEST DUP1 PUSH4 0x76E48A1 EQ PUSH2 0xA3 JUMPI DUP1 PUSH4 0x6421D04B EQ PUSH2 0xBF JUMPI DUP1 PUSH4 0x6548E9BC EQ PUSH2 0xDD JUMPI DUP1 PUSH4 0x715018A6 EQ PUSH2 0xF9 JUMPI DUP1 PUSH4 0x8C8885C8 EQ PUSH2 0x103 JUMPI JUMPDEST PUSH1 0x0 DUP1 REVERT JUMPDEST PUSH2 0xBD PUSH1 0x4 DUP1 CALLDATASIZE SUB DUP2 ADD SWAP1 PUSH2 0xB8 SWAP2 SWAP1 PUSH2 0x55B JUMP JUMPDEST PUSH2 0x1B3 JUMP JUMPDEST STOP JUMPDEST PUSH2 0xC7 PUSH2 0x1C5 JUMP JUMPDEST PUSH1 0x40 MLOAD PUSH2 0xD4 SWAP2 SWAP1 PUSH2 0x597 JUMP JUMPDEST PUSH1 0x40 MLOAD DUP1 SWAP2 SUB SWAP1 RETURN JUMPDEST PUSH2 0xF7 PUSH1 0x4 DUP1 CALLDATASIZE SUB DUP2 ADD SWAP1 PUSH2 0xF2 SWAP2 SWAP1 PUSH2 0x610 JUMP JUMPDEST PUSH2 0x1CF JUMP JUMPDEST STOP JUMPDEST PUSH2 0x101 PUSH2 0x21B JUMP JUMPDEST STOP JUMPDEST PUSH2 0x11D PUSH1 0x4 DUP1 CALLDATASIZE SUB DUP2 ADD SWAP1 PUSH2 0x118 SWAP2 SWAP1 PUSH2 0x673 JUMP JUMPDEST PUSH2 0x22F JUMP JUMPDEST STOP JUMPDEST PUSH2 0x127 PUSH2 0x241 JUMP JUMPDEST PUSH1 0x40 MLOAD PUSH2 0x134 SWAP2 SWAP1 PUSH2 0x6AF JUMP JUMPDEST PUSH1 0x40 MLOAD DUP1 SWAP2 SUB SWAP1 RETURN JUMPDEST PUSH2 0x145 PUSH2 0x26A JUMP JUMPDEST PUSH1 0x40 MLOAD PUSH2 0x152 SWAP2 SWAP1 PUSH2 0x597 JUMP JUMPDEST PUSH1 0x40 MLOAD DUP1 SWAP2 SUB SWAP1 RETURN JUMPDEST PUSH2 0x163 PUSH2 0x28D JUMP JUMPDEST PUSH1 0x40 MLOAD PUSH2 0x170 SWAP2 SWAP1 PUSH2 0x6AF JUMP JUMPDEST PUSH1 0x40 MLOAD DUP1 SWAP2 SUB SWAP1 RETURN JUMPDEST PUSH2 0x181 PUSH2 0x2B7 JUMP JUMPDEST PUSH1 0x40 MLOAD PUSH2 0x18E SWAP2 SWAP1 PUSH2 0x6D9 JUMP JUMPDEST PUSH1 0x40 MLOAD DUP1 SWAP2 SUB SWAP1 RETURN JUMPDEST PUSH2 0x1B1 PUSH1 0x4 DUP1 CALLDATASIZE SUB DUP2 ADD SWAP1 PUSH2 0x1AC SWAP2 SWAP1 PUSH2 0x610 JUMP JUMPDEST PUSH2 0x2C1 JUMP JUMPDEST STOP JUMPDEST PUSH2 0x1BB PUSH2 0x344 JUMP JUMPDEST DUP1 PUSH1 0x1 DUP2 SWAP1 SSTORE POP POP JUMP JUMPDEST PUSH1 0x0 PUSH1 0x1 SLOAD SWAP1 POP SWAP1 JUMP JUMPDEST PUSH2 0x1D7 PUSH2 0x3D6 JUMP JUMPDEST DUP1 PUSH1 0x2 PUSH1 0x0 PUSH2 0x100 EXP DUP2 SLOAD DUP2 PUSH20 0xFFFFFFFFFFFFFFFFFFFFFFFFFFFFFFFFFFFFFFFF MUL NOT AND SWAP1 DUP4 PUSH20 0xFFFFFFFFFFFFFFFFFFFFFFFFFFFFFFFFFFFFFFFF AND MUL OR SWAP1 SSTORE POP POP JUMP JUMPDEST PUSH2 0x223 PUSH2 0x3D6 JUMP JUMPDEST PUSH2 0x22D PUSH1 0x0 PUSH2 0x454 JUMP JUMPDEST JUMP JUMPDEST PUSH2 0x237 PUSH2 0x344 JUMP JUMPDEST DUP1 PUSH1 0x3 DUP2 SWAP1 SSTORE POP POP JUMP JUMPDEST PUSH1 0x0 DUP1 PUSH1 0x0 SWAP1 SLOAD SWAP1 PUSH2 0x100 EXP SWAP1 DIV PUSH20 0xFFFFFFFFFFFFFFFFFFFFFFFFFFFFFFFFFFFFFFFF AND SWAP1 POP SWAP1 JUMP JUMPDEST PUSH1 0x0 PUSH1 0x3 SLOAD PUSH1 0xA PUSH2 0x27B SWAP2 SWAP1 PUSH2 0x856 JUMP JUMPDEST PUSH1 0x1 SLOAD PUSH2 0x288 SWAP2 SWAP1 PUSH2 0x8D0 JUMP JUMPDEST SWAP1 POP SWAP1 JUMP JUMPDEST PUSH1 0x0 PUSH1 0x2 PUSH1 0x0 SWAP1 SLOAD SWAP1 PUSH2 0x100 EXP SWAP1 DIV PUSH20 0xFFFFFFFFFFFFFFFFFFFFFFFFFFFFFFFFFFFFFFFF AND SWAP1 POP SWAP1 JUMP JUMPDEST PUSH1 0x0 PUSH1 0x3 SLOAD SWAP1 POP SWAP1 JUMP JUMPDEST PUSH2 0x2C9 PUSH2 0x3D6 JUMP JUMPDEST PUSH1 0x0 PUSH20 0xFFFFFFFFFFFFFFFFFFFFFFFFFFFFFFFFFFFFFFFF AND DUP2 PUSH20 0xFFFFFFFFFFFFFFFFFFFFFFFFFFFFFFFFFFFFFFFF AND SUB PUSH2 0x338 JUMPI PUSH1 0x40 MLOAD PUSH32 0x8C379A000000000000000000000000000000000000000000000000000000000 DUP2 MSTORE PUSH1 0x4 ADD PUSH2 0x32F SWAP1 PUSH2 0x9BD JUMP JUMPDEST PUSH1 0x40 MLOAD DUP1 SWAP2 SUB SWAP1 REVERT JUMPDEST PUSH2 0x341 DUP2 PUSH2 0x454 JUMP JUMPDEST POP JUMP JUMPDEST CALLER PUSH20 0xFFFFFFFFFFFFFFFFFFFFFFFFFFFFFFFFFFFFFFFF AND PUSH1 0x2 PUSH1 0x0 SWAP1 SLOAD SWAP1 PUSH2 0x100 EXP SWAP1 DIV PUSH20 0xFFFFFFFFFFFFFFFFFFFFFFFFFFFFFFFFFFFFFFFF AND PUSH20 0xFFFFFFFFFFFFFFFFFFFFFFFFFFFFFFFFFFFFFFFF AND EQ PUSH2 0x3D4 JUMPI PUSH1 0x40 MLOAD PUSH32 0x8C379A000000000000000000000000000000000000000000000000000000000 DUP2 MSTORE PUSH1 0x4 ADD PUSH2 0x3CB SWAP1 PUSH2 0xA29 JUMP JUMPDEST PUSH1 0x40 MLOAD DUP1 SWAP2 SUB SWAP1 REVERT JUMPDEST JUMP JUMPDEST PUSH2 0x3DE PUSH2 0x518 JUMP JUMPDEST PUSH20 0xFFFFFFFFFFFFFFFFFFFFFFFFFFFFFFFFFFFFFFFF AND PUSH2 0x3FC PUSH2 0x241 JUMP JUMPDEST PUSH20 0xFFFFFFFFFFFFFFFFFFFFFFFFFFFFFFFFFFFFFFFF AND EQ PUSH2 0x452 JUMPI PUSH1 0x40 MLOAD PUSH32 0x8C379A000000000000000000000000000000000000000000000000000000000 DUP2 MSTORE PUSH1 0x4 ADD PUSH2 0x449 SWAP1 PUSH2 0xA95 JUMP JUMPDEST PUSH1 0x40 MLOAD DUP1 SWAP2 SUB SWAP1 REVERT JUMPDEST JUMP JUMPDEST PUSH1 0x0 DUP1 PUSH1 0x0 SWAP1 SLOAD SWAP1 PUSH2 0x100 EXP SWAP1 DIV PUSH20 0xFFFFFFFFFFFFFFFFFFFFFFFFFFFFFFFFFFFFFFFF AND SWAP1 POP DUP2 PUSH1 0x0 DUP1 PUSH2 0x100 EXP DUP2 SLOAD DUP2 PUSH20 0xFFFFFFFFFFFFFFFFFFFFFFFFFFFFFFFFFFFFFFFF MUL NOT AND SWAP1 DUP4 PUSH20 0xFFFFFFFFFFFFFFFFFFFFFFFFFFFFFFFFFFFFFFFF AND MUL OR SWAP1 SSTORE POP DUP2 PUSH20 0xFFFFFFFFFFFFFFFFFFFFFFFFFFFFFFFFFFFFFFFF AND DUP2 PUSH20 0xFFFFFFFFFFFFFFFFFFFFFFFFFFFFFFFFFFFFFFFF AND PUSH32 0x8BE0079C531659141344CD1FD0A4F28419497F9722A3DAAFE3B4186F6B6457E0 PUSH1 0x40 MLOAD PUSH1 0x40 MLOAD DUP1 SWAP2 SUB SWAP1 LOG3 POP POP JUMP JUMPDEST PUSH1 0x0 CALLER SWAP1 POP SWAP1 JUMP JUMPDEST PUSH1 0x0 DUP1 REVERT JUMPDEST PUSH1 0x0 DUP2 SWAP1 POP SWAP2 SWAP1 POP JUMP JUMPDEST PUSH2 0x538 DUP2 PUSH2 0x525 JUMP JUMPDEST DUP2 EQ PUSH2 0x543 JUMPI PUSH1 0x0 DUP1 REVERT JUMPDEST POP JUMP JUMPDEST PUSH1 0x0 DUP2 CALLDATALOAD SWAP1 POP PUSH2 0x555 DUP2 PUSH2 0x52F JUMP JUMPDEST SWAP3 SWAP2 POP POP JUMP JUMPDEST PUSH1 0x0 PUSH1 0x20 DUP3 DUP5 SUB SLT ISZERO PUSH2 0x571 JUMPI PUSH2 0x570 PUSH2 0x520 JUMP JUMPDEST JUMPDEST PUSH1 0x0 PUSH2 0x57F DUP5 DUP3 DUP6 ADD PUSH2 0x546 JUMP JUMPDEST SWAP2 POP POP SWAP3 SWAP2 POP POP JUMP JUMPDEST PUSH2 0x591 DUP2 PUSH2 0x525 JUMP JUMPDEST DUP3 MSTORE POP POP JUMP JUMPDEST PUSH1 0x0 PUSH1 0x20 DUP3 ADD SWAP1 POP PUSH2 0x5AC PUSH1 0x0 DUP4 ADD DUP5 PUSH2 0x588 JUMP JUMPDEST SWAP3 SWAP2 POP POP JUMP JUMPDEST PUSH1 0x0 PUSH20 0xFFFFFFFFFFFFFFFFFFFFFFFFFFFFFFFFFFFFFFFF DUP3 AND SWAP1 POP SWAP2 SWAP1 POP JUMP JUMPDEST PUSH1 0x0 PUSH2 0x5DD DUP3 PUSH2 0x5B2 JUMP JUMPDEST SWAP1 POP SWAP2 SWAP1 POP JUMP JUMPDEST PUSH2 0x5ED DUP2 PUSH2 0x5D2 JUMP JUMPDEST DUP2 EQ PUSH2 0x5F8 JUMPI PUSH1 0x0 DUP1 REVERT JUMPDEST POP JUMP JUMPDEST PUSH1 0x0 DUP2 CALLDATALOAD SWAP1 POP PUSH2 0x60A DUP2 PUSH2 0x5E4 JUMP JUMPDEST SWAP3 SWAP2 POP POP JUMP JUMPDEST PUSH1 0x0 PUSH1 0x20 DUP3 DUP5 SUB SLT ISZERO PUSH2 0x626 JUMPI PUSH2 0x625 PUSH2 0x520 JUMP JUMPDEST JUMPDEST PUSH1 0x0 PUSH2 0x634 DUP5 DUP3 DUP6 ADD PUSH2 0x5FB JUMP JUMPDEST SWAP2 POP POP SWAP3 SWAP2 POP POP JUMP JUMPDEST PUSH1 0x0 DUP2 SWAP1 POP SWAP2 SWAP1 POP JUMP JUMPDEST PUSH2 0x650 DUP2 PUSH2 0x63D JUMP JUMPDEST DUP2 EQ PUSH2 0x65B JUMPI PUSH1 0x0 DUP1 REVERT JUMPDEST POP JUMP JUMPDEST PUSH1 0x0 DUP2 CALLDATALOAD SWAP1 POP PUSH2 0x66D DUP2 PUSH2 0x647 JUMP JUMPDEST SWAP3 SWAP2 POP POP JUMP JUMPDEST PUSH1 0x0 PUSH1 0x20 DUP3 DUP5 SUB SLT ISZERO PUSH2 0x689 JUMPI PUSH2 0x688 PUSH2 0x520 JUMP JUMPDEST JUMPDEST PUSH1 0x0 PUSH2 0x697 DUP5 DUP3 DUP6 ADD PUSH2 0x65E JUMP JUMPDEST SWAP2 POP POP SWAP3 SWAP2 POP POP JUMP JUMPDEST PUSH2 0x6A9 DUP2 PUSH2 0x5D2 JUMP JUMPDEST DUP3 MSTORE POP POP JUMP JUMPDEST PUSH1 0x0 PUSH1 0x20 DUP3 ADD SWAP1 POP PUSH2 0x6C4 PUSH1 0x0 DUP4 ADD DUP5 PUSH2 0x6A0 JUMP JUMPDEST SWAP3 SWAP2 POP POP JUMP JUMPDEST PUSH2 0x6D3 DUP2 PUSH2 0x63D JUMP JUMPDEST DUP3 MSTORE POP POP JUMP JUMPDEST PUSH1 0x0 PUSH1 0x20 DUP3 ADD SWAP1 POP PUSH2 0x6EE PUSH1 0x0 DUP4 ADD DUP5 PUSH2 0x6CA JUMP JUMPDEST SWAP3 SWAP2 POP POP JUMP JUMPDEST PUSH32 0x4E487B7100000000000000000000000000000000000000000000000000000000 PUSH1 0x0 MSTORE PUSH1 0x11 PUSH1 0x4 MSTORE PUSH1 0x24 PUSH1 0x0 REVERT JUMPDEST PUSH1 0x0 DUP2 PUSH1 0x1 SHR SWAP1 POP SWAP2 SWAP1 POP JUMP JUMPDEST PUSH1 0x0 DUP1 DUP3 SWAP2 POP DUP4 SWAP1 POP JUMPDEST PUSH1 0x1 DUP6 GT ISZERO PUSH2 0x77A JUMPI DUP1 DUP7 DIV DUP2 GT ISZERO PUSH2 0x756 JUMPI PUSH2 0x755 PUSH2 0x6F4 JUMP JUMPDEST JUMPDEST PUSH1 0x1 DUP6 AND ISZERO PUSH2 0x765 JUMPI DUP1 DUP3 MUL SWAP2 POP JUMPDEST DUP1 DUP2 MUL SWAP1 POP PUSH2 0x773 DUP6 PUSH2 0x723 JUMP JUMPDEST SWAP5 POP PUSH2 0x73A JUMP JUMPDEST SWAP5 POP SWAP5 SWAP3 POP POP POP JUMP JUMPDEST PUSH1 0x0 DUP3 PUSH2 0x793 JUMPI PUSH1 0x1 SWAP1 POP PUSH2 0x84F JUMP JUMPDEST DUP2 PUSH2 0x7A1 JUMPI PUSH1 0x0 SWAP1 POP PUSH2 0x84F JUMP JUMPDEST DUP2 PUSH1 0x1 DUP2 EQ PUSH2 0x7B7 JUMPI PUSH1 0x2 DUP2 EQ PUSH2 0x7C1 JUMPI PUSH2 0x7F0 JUMP JUMPDEST PUSH1 0x1 SWAP2 POP POP PUSH2 0x84F JUMP JUMPDEST PUSH1 0xFF DUP5 GT ISZERO PUSH2 0x7D3 JUMPI PUSH2 0x7D2 PUSH2 0x6F4 JUMP JUMPDEST JUMPDEST DUP4 PUSH1 0x2 EXP SWAP2 POP DUP5 DUP3 GT ISZERO PUSH2 0x7EA JUMPI PUSH2 0x7E9 PUSH2 0x6F4 JUMP JUMPDEST JUMPDEST POP PUSH2 0x84F JUMP JUMPDEST POP PUSH1 0x20 DUP4 LT PUSH2 0x133 DUP4 LT AND PUSH1 0x4E DUP5 LT PUSH1 0xB DUP5 LT AND OR ISZERO PUSH2 0x825 JUMPI DUP3 DUP3 EXP SWAP1 POP DUP4 DUP2 GT ISZERO PUSH2 0x820 JUMPI PUSH2 0x81F PUSH2 0x6F4 JUMP JUMPDEST JUMPDEST PUSH2 0x84F JUMP JUMPDEST PUSH2 0x832 DUP5 DUP5 DUP5 PUSH1 0x1 PUSH2 0x730 JUMP JUMPDEST SWAP3 POP SWAP1 POP DUP2 DUP5 DIV DUP2 GT ISZERO PUSH2 0x849 JUMPI PUSH2 0x848 PUSH2 0x6F4 JUMP JUMPDEST JUMPDEST DUP2 DUP2 MUL SWAP1 POP JUMPDEST SWAP4 SWAP3 POP POP POP JUMP JUMPDEST PUSH1 0x0 PUSH2 0x861 DUP3 PUSH2 0x63D JUMP JUMPDEST SWAP2 POP PUSH2 0x86C DUP4 PUSH2 0x63D JUMP JUMPDEST SWAP3 POP PUSH2 0x899 PUSH32 0xFFFFFFFFFFFFFFFFFFFFFFFFFFFFFFFFFFFFFFFFFFFFFFFFFFFFFFFFFFFFFFFF DUP5 DUP5 PUSH2 0x783 JUMP JUMPDEST SWAP1 POP SWAP3 SWAP2 POP POP JUMP JUMPDEST PUSH32 0x4E487B7100000000000000000000000000000000000000000000000000000000 PUSH1 0x0 MSTORE PUSH1 0x12 PUSH1 0x4 MSTORE PUSH1 0x24 PUSH1 0x0 REVERT JUMPDEST PUSH1 0x0 PUSH2 0x8DB DUP3 PUSH2 0x525 JUMP JUMPDEST SWAP2 POP PUSH2 0x8E6 DUP4 PUSH2 0x525 JUMP JUMPDEST SWAP3 POP DUP3 PUSH2 0x8F6 JUMPI PUSH2 0x8F5 PUSH2 0x8A1 JUMP JUMPDEST JUMPDEST PUSH1 0x1 PUSH1 0x0 SUB DUP4 EQ PUSH32 0x8000000000000000000000000000000000000000000000000000000000000000 DUP4 EQ AND ISZERO PUSH2 0x92F JUMPI PUSH2 0x92E PUSH2 0x6F4 JUMP JUMPDEST JUMPDEST DUP3 DUP3 SDIV SWAP1 POP SWAP3 SWAP2 POP POP JUMP JUMPDEST PUSH1 0x0 DUP3 DUP3 MSTORE PUSH1 0x20 DUP3 ADD SWAP1 POP SWAP3 SWAP2 POP POP JUMP JUMPDEST PUSH32 0x4F776E61626C653A206E6577206F776E657220697320746865207A65726F2061 PUSH1 0x0 DUP3 ADD MSTORE PUSH32 0x6464726573730000000000000000000000000000000000000000000000000000 PUSH1 0x20 DUP3 ADD MSTORE POP JUMP JUMPDEST PUSH1 0x0 PUSH2 0x9A7 PUSH1 0x26 DUP4 PUSH2 0x93A JUMP JUMPDEST SWAP2 POP PUSH2 0x9B2 DUP3 PUSH2 0x94B JUMP JUMPDEST PUSH1 0x40 DUP3 ADD SWAP1 POP SWAP2 SWAP1 POP JUMP JUMPDEST PUSH1 0x0 PUSH1 0x20 DUP3 ADD SWAP1 POP DUP2 DUP2 SUB PUSH1 0x0 DUP4 ADD MSTORE PUSH2 0x9D6 DUP2 PUSH2 0x99A JUMP JUMPDEST SWAP1 POP SWAP2 SWAP1 POP JUMP JUMPDEST PUSH32 0x43616C6C6572206973206E6F74207468652072656C6179657200000000000000 PUSH1 0x0 DUP3 ADD MSTORE POP JUMP JUMPDEST PUSH1 0x0 PUSH2 0xA13 PUSH1 0x19 DUP4 PUSH2 0x93A JUMP JUMPDEST SWAP2 POP PUSH2 0xA1E DUP3 PUSH2 0x9DD JUMP JUMPDEST PUSH1 0x20 DUP3 ADD SWAP1 POP SWAP2 SWAP1 POP JUMP JUMPDEST PUSH1 0x0 PUSH1 0x20 DUP3 ADD SWAP1 POP DUP2 DUP2 SUB PUSH1 0x0 DUP4 ADD MSTORE PUSH2 0xA42 DUP2 PUSH2 0xA06 JUMP JUMPDEST SWAP1 POP SWAP2 SWAP1 POP JUMP JUMPDEST PUSH32 0x4F776E61626C653A2063616C6C6572206973206E6F7420746865206F776E6572 PUSH1 0x0 DUP3 ADD MSTORE POP JUMP JUMPDEST PUSH1 0x0 PUSH2 0xA7F PUSH1 0x20 DUP4 PUSH2 0x93A JUMP JUMPDEST SWAP2 POP PUSH2 0xA8A DUP3 PUSH2 0xA49 JUMP JUMPDEST PUSH1 0x20 DUP3 ADD SWAP1 POP SWAP2 SWAP1 POP JUMP JUMPDEST PUSH1 0x0 PUSH1 0x20 DUP3 ADD SWAP1 POP DUP2 DUP2 SUB PUSH1 0x0 DUP4 ADD MSTORE PUSH2 0xAAE DUP2 PUSH2 0xA72 JUMP JUMPDEST SWAP1 POP SWAP2 SWAP1 POP JUMP INVALID LOG2 PUSH5 0x6970667358 0x22 SLT KECCAK256 0xDE SLOAD SWAP16 GASLIMIT 0xC2 PUSH20 0xC48DD974EA73CDB67EBEE942A572BF1B0E343E23 MOD 0x1F 0xF7 SLT DUP14 0xD7 PUSH5 0x736F6C6343 STOP ADDMOD GT STOP CALLER "
				},
				"gasEstimates": {
					"creation": {
						"codeDepositCost": "559000",
						"executionCost": "infinite",
						"totalCost": "infinite"
					},
					"external": {
						"getDecimals()": "2503",
						"getRelayer()": "2566",
						"getRoundedTemperature()": "infinite",
						"getTemperature()": "2460",
						"owner()": "2522",
						"renounceOwnership()": "30465",
						"setDecimals(uint256)": "24803",
						"setRelayer(address)": "27031",
						"transferOwnership(address)": "30832",
						"updateTemperature(int256)": "24715"
					},
					"internal": {
						"_checkRelayer()": "infinite"
					}
				},
				"methodIdentifiers": {
					"getDecimals()": "f0141d84",
					"getRelayer()": "bdc50373",
					"getRoundedTemperature()": "b976cb0b",
					"getTemperature()": "6421d04b",
					"owner()": "8da5cb5b",
					"renounceOwnership()": "715018a6",
					"setDecimals(uint256)": "8c8885c8",
					"setRelayer(address)": "6548e9bc",
					"transferOwnership(address)": "f2fde38b",
					"updateTemperature(int256)": "076e48a1"
				}
			},
			"storageLayout": {
				"storage": [
					{
						"astId": 7,
						"contract": "oracle.sol:WeatherDataProvider",
						"label": "_owner",
						"offset": 0,
						"slot": "0",
						"type": "t_address"
					},
					{
						"astId": 141,
						"contract": "oracle.sol:WeatherDataProvider",
						"label": "temperature",
						"offset": 0,
						"slot": "1",
						"type": "t_int256"
					},
					{
						"astId": 143,
						"contract": "oracle.sol:WeatherDataProvider",
						"label": "relayer",
						"offset": 0,
						"slot": "2",
						"type": "t_address"
					},
					{
						"astId": 146,
						"contract": "oracle.sol:WeatherDataProvider",
						"label": "decimals",
						"offset": 0,
						"slot": "3",
						"type": "t_uint256"
					}
				],
				"types": {
					"t_address": {
						"encoding": "inplace",
						"label": "address",
						"numberOfBytes": "20"
					},
					"t_int256": {
						"encoding": "inplace",
						"label": "int256",
						"numberOfBytes": "32"
					},
					"t_uint256": {
						"encoding": "inplace",
						"label": "uint256",
						"numberOfBytes": "32"
					}
				}
			},
			"userdoc": {
				"kind": "user",
				"methods": {},
				"version": 1
			}
		}
	}
}