{
	"decentralized_oracle.sol": {
		"Weather": {
			"abi": [
				{
					"inputs": [
						{
							"internalType": "address",
							"name": "_link",
							"type": "address"
						},
						{
							"internalType": "address",
							"name": "_oracle",
							"type": "address"
						},
						{
							"internalType": "bytes32",
							"name": "_avgTempJobId",
							"type": "bytes32"
						},
						{
							"internalType": "bytes32",
							"name": "_totalRainJobId",
							"type": "bytes32"
						},
						{
							"internalType": "bytes32",
							"name": "_hailJobId",
							"type": "bytes32"
						},
						{
							"internalType": "uint256",
							"name": "_fee",
							"type": "uint256"
						}
					],
					"stateMutability": "nonpayable",
					"type": "constructor"
				},
				{
					"anonymous": false,
					"inputs": [
						{
							"indexed": false,
							"internalType": "uint256",
							"name": "_result",
							"type": "uint256"
						}
					],
					"name": "AvgTemp",
					"type": "event"
				},
				{
					"anonymous": false,
					"inputs": [
						{
							"indexed": true,
							"internalType": "bytes32",
							"name": "id",
							"type": "bytes32"
						}
					],
					"name": "ChainlinkCancelled",
					"type": "event"
				},
				{
					"anonymous": false,
					"inputs": [
						{
							"indexed": true,
							"internalType": "bytes32",
							"name": "id",
							"type": "bytes32"
						}
					],
					"name": "ChainlinkFulfilled",
					"type": "event"
				},
				{
					"anonymous": false,
					"inputs": [
						{
							"indexed": true,
							"internalType": "bytes32",
							"name": "id",
							"type": "bytes32"
						}
					],
					"name": "ChainlinkRequested",
					"type": "event"
				},
				{
					"anonymous": false,
					"inputs": [
						{
							"indexed": false,
							"internalType": "uint256",
							"name": "_result",
							"type": "uint256"
						}
					],
					"name": "Hail",
					"type": "event"
				},
				{
					"anonymous": false,
					"inputs": [
						{
							"indexed": false,
							"internalType": "uint256",
							"name": "_result",
							"type": "uint256"
						}
					],
					"name": "TotalRain",
					"type": "event"
				},
				{
					"inputs": [],
					"name": "avgTemp",
					"outputs": [
						{
							"internalType": "uint256",
							"name": "",
							"type": "uint256"
						}
					],
					"stateMutability": "view",
					"type": "function"
				},
				{
					"inputs": [],
					"name": "avgTempJobId",
					"outputs": [
						{
							"internalType": "bytes32",
							"name": "",
							"type": "bytes32"
						}
					],
					"stateMutability": "view",
					"type": "function"
				},
				{
					"inputs": [],
					"name": "fee",
					"outputs": [
						{
							"internalType": "uint256",
							"name": "",
							"type": "uint256"
						}
					],
					"stateMutability": "view",
					"type": "function"
				},
				{
					"inputs": [
						{
							"internalType": "bytes32",
							"name": "_requestId",
							"type": "bytes32"
						},
						{
							"internalType": "uint256",
							"name": "_result",
							"type": "uint256"
						}
					],
					"name": "fulfillAvgTemp",
					"outputs": [],
					"stateMutability": "nonpayable",
					"type": "function"
				},
				{
					"inputs": [
						{
							"internalType": "bytes32",
							"name": "_requestId",
							"type": "bytes32"
						},
						{
							"internalType": "uint256",
							"name": "_result",
							"type": "uint256"
						}
					],
					"name": "fulfillHail",
					"outputs": [],
					"stateMutability": "nonpayable",
					"type": "function"
				},
				{
					"inputs": [
						{
							"internalType": "bytes32",
							"name": "_requestId",
							"type": "bytes32"
						},
						{
							"internalType": "uint256",
							"name": "_result",
							"type": "uint256"
						}
					],
					"name": "fulfillTotalRain",
					"outputs": [],
					"stateMutability": "nonpayable",
					"type": "function"
				},
				{
					"inputs": [],
					"name": "hail",
					"outputs": [
						{
							"internalType": "uint256",
							"name": "",
							"type": "uint256"
						}
					],
					"stateMutability": "view",
					"type": "function"
				},
				{
					"inputs": [],
					"name": "hailJobId",
					"outputs": [
						{
							"internalType": "bytes32",
							"name": "",
							"type": "bytes32"
						}
					],
					"stateMutability": "view",
					"type": "function"
				},
				{
					"inputs": [
						{
							"internalType": "string",
							"name": "_from",
							"type": "string"
						},
						{
							"internalType": "string",
							"name": "_to",
							"type": "string"
						}
					],
					"name": "requestAvgTemp",
					"outputs": [],
					"stateMutability": "nonpayable",
					"type": "function"
				},
				{
					"inputs": [
						{
							"internalType": "string",
							"name": "_from",
							"type": "string"
						},
						{
							"internalType": "string",
							"name": "_to",
							"type": "string"
						}
					],
					"name": "requestHail",
					"outputs": [],
					"stateMutability": "nonpayable",
					"type": "function"
				},
				{
					"inputs": [
						{
							"internalType": "string",
							"name": "_from",
							"type": "string"
						},
						{
							"internalType": "string",
							"name": "_to",
							"type": "string"
						}
					],
					"name": "requestTotalRain",
					"outputs": [],
					"stateMutability": "nonpayable",
					"type": "function"
				},
				{
					"inputs": [],
					"name": "totalRain",
					"outputs": [
						{
							"internalType": "uint256",
							"name": "",
							"type": "uint256"
						}
					],
					"stateMutability": "view",
					"type": "function"
				},
				{
					"inputs": [],
					"name": "totalRainJobId",
					"outputs": [
						{
							"internalType": "bytes32",
							"name": "",
							"type": "bytes32"
						}
					],
					"stateMutability": "view",
					"type": "function"
				}
			],
			"devdoc": {
				"kind": "dev",
				"methods": {},
				"version": 1
			},
			"evm": {
				"assembly": "    /* \"decentralized_oracle.sol\":527:3302  contract Weather is ChainlinkClient {\r... */\n  mstore(0x40, 0x80)\n    /* \"@chainlink/contracts/src/v0.8/ChainlinkClient.sol\":1291:1292  1 */\n  0x01\n    /* \"@chainlink/contracts/src/v0.8/ChainlinkClient.sol\":1258:1292  uint256 private s_requestCount = 1 */\n  0x04\n  sstore\n    /* \"decentralized_oracle.sol\":942:1346  constructor(\r... */\n  callvalue\n  dup1\n  iszero\n  tag_1\n  jumpi\n  0x00\n  dup1\n  revert\ntag_1:\n  pop\n  mload(0x40)\n  sub(codesize, bytecodeSize)\n  dup1\n  bytecodeSize\n  dup4\n  codecopy\n  dup2\n  dup2\n  add\n  0x40\n  mstore\n  dup2\n  add\n  swap1\n  tag_2\n  swap2\n  swap1\n  tag_3\n  jump\t// in\ntag_2:\n    /* \"decentralized_oracle.sol\":1140:1164  setChainlinkToken(_link) */\n  tag_6\n    /* \"decentralized_oracle.sol\":1158:1163  _link */\n  dup7\n    /* \"decentralized_oracle.sol\":1140:1157  setChainlinkToken */\n  shl(0x20, tag_7)\n    /* \"decentralized_oracle.sol\":1140:1164  setChainlinkToken(_link) */\n  0x20\n  shr\n  jump\t// in\ntag_6:\n    /* \"decentralized_oracle.sol\":1175:1202  setChainlinkOracle(_oracle) */\n  tag_8\n    /* \"decentralized_oracle.sol\":1194:1201  _oracle */\n  dup6\n    /* \"decentralized_oracle.sol\":1175:1193  setChainlinkOracle */\n  shl(0x20, tag_9)\n    /* \"decentralized_oracle.sol\":1175:1202  setChainlinkOracle(_oracle) */\n  0x20\n  shr\n  jump\t// in\ntag_8:\n    /* \"decentralized_oracle.sol\":1228:1241  _avgTempJobId */\n  dup4\n    /* \"decentralized_oracle.sol\":1213:1225  avgTempJobId */\n  0x06\n    /* \"decentralized_oracle.sol\":1213:1241  avgTempJobId = _avgTempJobId */\n  dup2\n  swap1\n  sstore\n  pop\n    /* \"decentralized_oracle.sol\":1269:1284  _totalRainJobId */\n  dup3\n    /* \"decentralized_oracle.sol\":1252:1266  totalRainJobId */\n  0x08\n    /* \"decentralized_oracle.sol\":1252:1284  totalRainJobId = _totalRainJobId */\n  dup2\n  swap1\n  sstore\n  pop\n    /* \"decentralized_oracle.sol\":1307:1317  _hailJobId */\n  dup2\n    /* \"decentralized_oracle.sol\":1295:1304  hailJobId */\n  0x0a\n    /* \"decentralized_oracle.sol\":1295:1317  hailJobId = _hailJobId */\n  dup2\n  swap1\n  sstore\n  pop\n    /* \"decentralized_oracle.sol\":1334:1338  _fee */\n  dup1\n    /* \"decentralized_oracle.sol\":1328:1331  fee */\n  0x0c\n    /* \"decentralized_oracle.sol\":1328:1338  fee = _fee */\n  dup2\n  swap1\n  sstore\n  pop\n    /* \"decentralized_oracle.sol\":942:1346  constructor(\r... */\n  pop\n  pop\n  pop\n  pop\n  pop\n  pop\n    /* \"decentralized_oracle.sol\":527:3302  contract Weather is ChainlinkClient {\r... */\n  jump(tag_10)\n    /* \"@chainlink/contracts/src/v0.8/ChainlinkClient.sol\":8625:8733  function setChainlinkToken(address linkAddress) internal {... */\ntag_7:\n    /* \"@chainlink/contracts/src/v0.8/ChainlinkClient.sol\":8716:8727  linkAddress */\n  dup1\n    /* \"@chainlink/contracts/src/v0.8/ChainlinkClient.sol\":8688:8694  s_link */\n  0x02\n  0x00\n    /* \"@chainlink/contracts/src/v0.8/ChainlinkClient.sol\":8688:8728  s_link = LinkTokenInterface(linkAddress) */\n  0x0100\n  exp\n  dup2\n  sload\n  dup2\n  0xffffffffffffffffffffffffffffffffffffffff\n  mul\n  not\n  and\n  swap1\n  dup4\n  0xffffffffffffffffffffffffffffffffffffffff\n  and\n  mul\n  or\n  swap1\n  sstore\n  pop\n    /* \"@chainlink/contracts/src/v0.8/ChainlinkClient.sol\":8625:8733  function setChainlinkToken(address linkAddress) internal {... */\n  pop\n  jump\t// out\n    /* \"@chainlink/contracts/src/v0.8/ChainlinkClient.sol\":8391:8505  function setChainlinkOracle(address oracleAddress) internal {... */\ntag_9:\n    /* \"@chainlink/contracts/src/v0.8/ChainlinkClient.sol\":8486:8499  oracleAddress */\n  dup1\n    /* \"@chainlink/contracts/src/v0.8/ChainlinkClient.sol\":8457:8465  s_oracle */\n  0x03\n  0x00\n    /* \"@chainlink/contracts/src/v0.8/ChainlinkClient.sol\":8457:8500  s_oracle = OperatorInterface(oracleAddress) */\n  0x0100\n  exp\n  dup2\n  sload\n  dup2\n  0xffffffffffffffffffffffffffffffffffffffff\n  mul\n  not\n  and\n  swap1\n  dup4\n  0xffffffffffffffffffffffffffffffffffffffff\n  and\n  mul\n  or\n  swap1\n  sstore\n  pop\n    /* \"@chainlink/contracts/src/v0.8/ChainlinkClient.sol\":8391:8505  function setChainlinkOracle(address oracleAddress) internal {... */\n  pop\n  jump\t// out\n    /* \"#utility.yul\":7:150   */\ntag_14:\n    /* \"#utility.yul\":64:69   */\n  0x00\n    /* \"#utility.yul\":95:101   */\n  dup2\n    /* \"#utility.yul\":89:102   */\n  mload\n    /* \"#utility.yul\":80:102   */\n  swap1\n  pop\n    /* \"#utility.yul\":111:144   */\n  tag_16\n    /* \"#utility.yul\":138:143   */\n  dup2\n    /* \"#utility.yul\":111:144   */\n  tag_17\n  jump\t// in\ntag_16:\n    /* \"#utility.yul\":7:150   */\n  swap3\n  swap2\n  pop\n  pop\n  jump\t// out\n    /* \"#utility.yul\":156:299   */\ntag_18:\n    /* \"#utility.yul\":213:218   */\n  0x00\n    /* \"#utility.yul\":244:250   */\n  dup2\n    /* \"#utility.yul\":238:251   */\n  mload\n    /* \"#utility.yul\":229:251   */\n  swap1\n  pop\n    /* \"#utility.yul\":260:293   */\n  tag_20\n    /* \"#utility.yul\":287:292   */\n  dup2\n    /* \"#utility.yul\":260:293   */\n  tag_21\n  jump\t// in\ntag_20:\n    /* \"#utility.yul\":156:299   */\n  swap3\n  swap2\n  pop\n  pop\n  jump\t// out\n    /* \"#utility.yul\":305:448   */\ntag_22:\n    /* \"#utility.yul\":362:367   */\n  0x00\n    /* \"#utility.yul\":393:399   */\n  dup2\n    /* \"#utility.yul\":387:400   */\n  mload\n    /* \"#utility.yul\":378:400   */\n  swap1\n  pop\n    /* \"#utility.yul\":409:442   */\n  tag_24\n    /* \"#utility.yul\":436:441   */\n  dup2\n    /* \"#utility.yul\":409:442   */\n  tag_25\n  jump\t// in\ntag_24:\n    /* \"#utility.yul\":305:448   */\n  swap3\n  swap2\n  pop\n  pop\n  jump\t// out\n    /* \"#utility.yul\":454:1588   */\ntag_3:\n    /* \"#utility.yul\":569:575   */\n  0x00\n    /* \"#utility.yul\":577:583   */\n  dup1\n    /* \"#utility.yul\":585:591   */\n  0x00\n    /* \"#utility.yul\":593:599   */\n  dup1\n    /* \"#utility.yul\":601:607   */\n  0x00\n    /* \"#utility.yul\":609:615   */\n  dup1\n    /* \"#utility.yul\":658:661   */\n  0xc0\n    /* \"#utility.yul\":646:655   */\n  dup8\n    /* \"#utility.yul\":637:644   */\n  dup10\n    /* \"#utility.yul\":633:656   */\n  sub\n    /* \"#utility.yul\":629:662   */\n  slt\n    /* \"#utility.yul\":626:746   */\n  iszero\n  tag_27\n  jumpi\n    /* \"#utility.yul\":665:744   */\n  tag_28\n  tag_29\n  jump\t// in\ntag_28:\n    /* \"#utility.yul\":626:746   */\ntag_27:\n    /* \"#utility.yul\":785:786   */\n  0x00\n    /* \"#utility.yul\":810:874   */\n  tag_30\n    /* \"#utility.yul\":866:873   */\n  dup10\n    /* \"#utility.yul\":857:863   */\n  dup3\n    /* \"#utility.yul\":846:855   */\n  dup11\n    /* \"#utility.yul\":842:864   */\n  add\n    /* \"#utility.yul\":810:874   */\n  tag_14\n  jump\t// in\ntag_30:\n    /* \"#utility.yul\":800:874   */\n  swap7\n  pop\n    /* \"#utility.yul\":756:884   */\n  pop\n    /* \"#utility.yul\":923:925   */\n  0x20\n    /* \"#utility.yul\":949:1013   */\n  tag_31\n    /* \"#utility.yul\":1005:1012   */\n  dup10\n    /* \"#utility.yul\":996:1002   */\n  dup3\n    /* \"#utility.yul\":985:994   */\n  dup11\n    /* \"#utility.yul\":981:1003   */\n  add\n    /* \"#utility.yul\":949:1013   */\n  tag_14\n  jump\t// in\ntag_31:\n    /* \"#utility.yul\":939:1013   */\n  swap6\n  pop\n    /* \"#utility.yul\":894:1023   */\n  pop\n    /* \"#utility.yul\":1062:1064   */\n  0x40\n    /* \"#utility.yul\":1088:1152   */\n  tag_32\n    /* \"#utility.yul\":1144:1151   */\n  dup10\n    /* \"#utility.yul\":1135:1141   */\n  dup3\n    /* \"#utility.yul\":1124:1133   */\n  dup11\n    /* \"#utility.yul\":1120:1142   */\n  add\n    /* \"#utility.yul\":1088:1152   */\n  tag_18\n  jump\t// in\ntag_32:\n    /* \"#utility.yul\":1078:1152   */\n  swap5\n  pop\n    /* \"#utility.yul\":1033:1162   */\n  pop\n    /* \"#utility.yul\":1201:1203   */\n  0x60\n    /* \"#utility.yul\":1227:1291   */\n  tag_33\n    /* \"#utility.yul\":1283:1290   */\n  dup10\n    /* \"#utility.yul\":1274:1280   */\n  dup3\n    /* \"#utility.yul\":1263:1272   */\n  dup11\n    /* \"#utility.yul\":1259:1281   */\n  add\n    /* \"#utility.yul\":1227:1291   */\n  tag_18\n  jump\t// in\ntag_33:\n    /* \"#utility.yul\":1217:1291   */\n  swap4\n  pop\n    /* \"#utility.yul\":1172:1301   */\n  pop\n    /* \"#utility.yul\":1340:1343   */\n  0x80\n    /* \"#utility.yul\":1367:1431   */\n  tag_34\n    /* \"#utility.yul\":1423:1430   */\n  dup10\n    /* \"#utility.yul\":1414:1420   */\n  dup3\n    /* \"#utility.yul\":1403:1412   */\n  dup11\n    /* \"#utility.yul\":1399:1421   */\n  add\n    /* \"#utility.yul\":1367:1431   */\n  tag_18\n  jump\t// in\ntag_34:\n    /* \"#utility.yul\":1357:1431   */\n  swap3\n  pop\n    /* \"#utility.yul\":1311:1441   */\n  pop\n    /* \"#utility.yul\":1480:1483   */\n  0xa0\n    /* \"#utility.yul\":1507:1571   */\n  tag_35\n    /* \"#utility.yul\":1563:1570   */\n  dup10\n    /* \"#utility.yul\":1554:1560   */\n  dup3\n    /* \"#utility.yul\":1543:1552   */\n  dup11\n    /* \"#utility.yul\":1539:1561   */\n  add\n    /* \"#utility.yul\":1507:1571   */\n  tag_22\n  jump\t// in\ntag_35:\n    /* \"#utility.yul\":1497:1571   */\n  swap2\n  pop\n    /* \"#utility.yul\":1451:1581   */\n  pop\n    /* \"#utility.yul\":454:1588   */\n  swap3\n  swap6\n  pop\n  swap3\n  swap6\n  pop\n  swap3\n  swap6\n  jump\t// out\n    /* \"#utility.yul\":1675:1771   */\ntag_38:\n    /* \"#utility.yul\":1712:1719   */\n  0x00\n    /* \"#utility.yul\":1741:1765   */\n  tag_40\n    /* \"#utility.yul\":1759:1764   */\n  dup3\n    /* \"#utility.yul\":1741:1765   */\n  tag_41\n  jump\t// in\ntag_40:\n    /* \"#utility.yul\":1730:1765   */\n  swap1\n  pop\n    /* \"#utility.yul\":1675:1771   */\n  swap2\n  swap1\n  pop\n  jump\t// out\n    /* \"#utility.yul\":1777:1854   */\ntag_42:\n    /* \"#utility.yul\":1814:1821   */\n  0x00\n    /* \"#utility.yul\":1843:1848   */\n  dup2\n    /* \"#utility.yul\":1832:1848   */\n  swap1\n  pop\n    /* \"#utility.yul\":1777:1854   */\n  swap2\n  swap1\n  pop\n  jump\t// out\n    /* \"#utility.yul\":1860:1986   */\ntag_41:\n    /* \"#utility.yul\":1897:1904   */\n  0x00\n    /* \"#utility.yul\":1937:1979   */\n  0xffffffffffffffffffffffffffffffffffffffff\n    /* \"#utility.yul\":1930:1935   */\n  dup3\n    /* \"#utility.yul\":1926:1980   */\n  and\n    /* \"#utility.yul\":1915:1980   */\n  swap1\n  pop\n    /* \"#utility.yul\":1860:1986   */\n  swap2\n  swap1\n  pop\n  jump\t// out\n    /* \"#utility.yul\":1992:2069   */\ntag_45:\n    /* \"#utility.yul\":2029:2036   */\n  0x00\n    /* \"#utility.yul\":2058:2063   */\n  dup2\n    /* \"#utility.yul\":2047:2063   */\n  swap1\n  pop\n    /* \"#utility.yul\":1992:2069   */\n  swap2\n  swap1\n  pop\n  jump\t// out\n    /* \"#utility.yul\":2198:2315   */\ntag_29:\n    /* \"#utility.yul\":2307:2308   */\n  0x00\n    /* \"#utility.yul\":2304:2305   */\n  dup1\n    /* \"#utility.yul\":2297:2309   */\n  revert\n    /* \"#utility.yul\":2321:2443   */\ntag_17:\n    /* \"#utility.yul\":2394:2418   */\n  tag_51\n    /* \"#utility.yul\":2412:2417   */\n  dup2\n    /* \"#utility.yul\":2394:2418   */\n  tag_38\n  jump\t// in\ntag_51:\n    /* \"#utility.yul\":2387:2392   */\n  dup2\n    /* \"#utility.yul\":2384:2419   */\n  eq\n    /* \"#utility.yul\":2374:2437   */\n  tag_52\n  jumpi\n    /* \"#utility.yul\":2433:2434   */\n  0x00\n    /* \"#utility.yul\":2430:2431   */\n  dup1\n    /* \"#utility.yul\":2423:2435   */\n  revert\n    /* \"#utility.yul\":2374:2437   */\ntag_52:\n    /* \"#utility.yul\":2321:2443   */\n  pop\n  jump\t// out\n    /* \"#utility.yul\":2449:2571   */\ntag_21:\n    /* \"#utility.yul\":2522:2546   */\n  tag_54\n    /* \"#utility.yul\":2540:2545   */\n  dup2\n    /* \"#utility.yul\":2522:2546   */\n  tag_42\n  jump\t// in\ntag_54:\n    /* \"#utility.yul\":2515:2520   */\n  dup2\n    /* \"#utility.yul\":2512:2547   */\n  eq\n    /* \"#utility.yul\":2502:2565   */\n  tag_55\n  jumpi\n    /* \"#utility.yul\":2561:2562   */\n  0x00\n    /* \"#utility.yul\":2558:2559   */\n  dup1\n    /* \"#utility.yul\":2551:2563   */\n  revert\n    /* \"#utility.yul\":2502:2565   */\ntag_55:\n    /* \"#utility.yul\":2449:2571   */\n  pop\n  jump\t// out\n    /* \"#utility.yul\":2577:2699   */\ntag_25:\n    /* \"#utility.yul\":2650:2674   */\n  tag_57\n    /* \"#utility.yul\":2668:2673   */\n  dup2\n    /* \"#utility.yul\":2650:2674   */\n  tag_45\n  jump\t// in\ntag_57:\n    /* \"#utility.yul\":2643:2648   */\n  dup2\n    /* \"#utility.yul\":2640:2675   */\n  eq\n    /* \"#utility.yul\":2630:2693   */\n  tag_58\n  jumpi\n    /* \"#utility.yul\":2689:2690   */\n  0x00\n    /* \"#utility.yul\":2686:2687   */\n  dup1\n    /* \"#utility.yul\":2679:2691   */\n  revert\n    /* \"#utility.yul\":2630:2693   */\ntag_58:\n    /* \"#utility.yul\":2577:2699   */\n  pop\n  jump\t// out\n    /* \"decentralized_oracle.sol\":527:3302  contract Weather is ChainlinkClient {\r... */\ntag_10:\n  dataSize(sub_0)\n  dup1\n  dataOffset(sub_0)\n  0x00\n  codecopy\n  0x00\n  return\nstop\n\nsub_0: assembly {\n        /* \"decentralized_oracle.sol\":527:3302  contract Weather is ChainlinkClient {\r... */\n      mstore(0x40, 0x80)\n      callvalue\n      dup1\n      iszero\n      tag_1\n      jumpi\n      0x00\n      dup1\n      revert\n    tag_1:\n      pop\n      jumpi(tag_2, lt(calldatasize, 0x04))\n      shr(0xe0, calldataload(0x00))\n      dup1\n      0xa5236370\n      gt\n      tag_16\n      jumpi\n      dup1\n      0xc70d4391\n      gt\n      tag_17\n      jumpi\n      dup1\n      0xc70d4391\n      eq\n      tag_12\n      jumpi\n      dup1\n      0xc95fa3c9\n      eq\n      tag_13\n      jumpi\n      dup1\n      0xce4316a5\n      eq\n      tag_14\n      jumpi\n      dup1\n      0xddca3f43\n      eq\n      tag_15\n      jumpi\n      jump(tag_2)\n    tag_17:\n      dup1\n      0xa5236370\n      eq\n      tag_9\n      jumpi\n      dup1\n      0xbdcc616e\n      eq\n      tag_10\n      jumpi\n      dup1\n      0xbf5be35a\n      eq\n      tag_11\n      jumpi\n      jump(tag_2)\n    tag_16:\n      dup1\n      0x05efce06\n      eq\n      tag_3\n      jumpi\n      dup1\n      0x2a3508dc\n      eq\n      tag_4\n      jumpi\n      dup1\n      0x38171947\n      eq\n      tag_5\n      jumpi\n      dup1\n      0x446bf1e3\n      eq\n      tag_6\n      jumpi\n      dup1\n      0x6aead4a3\n      eq\n      tag_7\n      jumpi\n      dup1\n      0x7c4d50ad\n      eq\n      tag_8\n      jumpi\n    tag_2:\n      0x00\n      dup1\n      revert\n        /* \"decentralized_oracle.sol\":2456:2664  function fulfillTotalRain(\r... */\n    tag_3:\n      tag_18\n      0x04\n      dup1\n      calldatasize\n      sub\n      dup2\n      add\n      swap1\n      tag_19\n      swap2\n      swap1\n      tag_20\n      jump\t// in\n    tag_19:\n      tag_21\n      jump\t// in\n    tag_18:\n      stop\n        /* \"decentralized_oracle.sol\":1797:1999  function fulfillAvgTemp(\r... */\n    tag_4:\n      tag_22\n      0x04\n      dup1\n      calldatasize\n      sub\n      dup2\n      add\n      swap1\n      tag_23\n      swap2\n      swap1\n      tag_20\n      jump\t// in\n    tag_23:\n      tag_24\n      jump\t// in\n    tag_22:\n      stop\n        /* \"decentralized_oracle.sol\":3106:3299  function fulfillHail(\r... */\n    tag_5:\n      tag_25\n      0x04\n      dup1\n      calldatasize\n      sub\n      dup2\n      add\n      swap1\n      tag_26\n      swap2\n      swap1\n      tag_20\n      jump\t// in\n    tag_26:\n      tag_27\n      jump\t// in\n    tag_25:\n      stop\n        /* \"decentralized_oracle.sol\":2007:2448  function requestTotalRain(string memory _from, string memory _to) external {\r... */\n    tag_6:\n      tag_28\n      0x04\n      dup1\n      calldatasize\n      sub\n      dup2\n      add\n      swap1\n      tag_29\n      swap2\n      swap1\n      tag_30\n      jump\t// in\n    tag_29:\n      tag_31\n      jump\t// in\n    tag_28:\n      stop\n        /* \"decentralized_oracle.sol\":650:672  uint256 public avgTemp */\n    tag_7:\n      tag_32\n      tag_33\n      jump\t// in\n    tag_32:\n      mload(0x40)\n      tag_34\n      swap2\n      swap1\n      tag_35\n      jump\t// in\n    tag_34:\n      mload(0x40)\n      dup1\n      swap2\n      sub\n      swap1\n      return\n        /* \"decentralized_oracle.sol\":1354:1789  function requestAvgTemp(string memory _from, string memory _to) external {\r... */\n    tag_8:\n      tag_36\n      0x04\n      dup1\n      calldatasize\n      sub\n      dup2\n      add\n      swap1\n      tag_37\n      swap2\n      swap1\n      tag_30\n      jump\t// in\n    tag_37:\n      tag_38\n      jump\t// in\n    tag_36:\n      stop\n        /* \"decentralized_oracle.sol\":715:739  uint256 public totalRain */\n    tag_9:\n      tag_39\n      tag_40\n      jump\t// in\n    tag_39:\n      mload(0x40)\n      tag_41\n      swap2\n      swap1\n      tag_35\n      jump\t// in\n    tag_41:\n      mload(0x40)\n      dup1\n      swap2\n      sub\n      swap1\n      return\n        /* \"decentralized_oracle.sol\":746:770  bytes32 public hailJobId */\n    tag_10:\n      tag_42\n      tag_43\n      jump\t// in\n    tag_42:\n      mload(0x40)\n      tag_44\n      swap2\n      swap1\n      tag_45\n      jump\t// in\n    tag_44:\n      mload(0x40)\n      dup1\n      swap2\n      sub\n      swap1\n      return\n        /* \"decentralized_oracle.sol\":777:796  uint256 public hail */\n    tag_11:\n      tag_46\n      tag_47\n      jump\t// in\n    tag_46:\n      mload(0x40)\n      tag_48\n      swap2\n      swap1\n      tag_35\n      jump\t// in\n    tag_48:\n      mload(0x40)\n      dup1\n      swap2\n      sub\n      swap1\n      return\n        /* \"decentralized_oracle.sol\":616:643  bytes32 public avgTempJobId */\n    tag_12:\n      tag_49\n      tag_50\n      jump\t// in\n    tag_49:\n      mload(0x40)\n      tag_51\n      swap2\n      swap1\n      tag_45\n      jump\t// in\n    tag_51:\n      mload(0x40)\n      dup1\n      swap2\n      sub\n      swap1\n      return\n        /* \"decentralized_oracle.sol\":679:708  bytes32 public totalRainJobId */\n    tag_13:\n      tag_52\n      tag_53\n      jump\t// in\n    tag_52:\n      mload(0x40)\n      tag_54\n      swap2\n      swap1\n      tag_45\n      jump\t// in\n    tag_54:\n      mload(0x40)\n      dup1\n      swap2\n      sub\n      swap1\n      return\n        /* \"decentralized_oracle.sol\":2672:3098  function requestHail(string memory _from, string memory _to) external {\r... */\n    tag_14:\n      tag_55\n      0x04\n      dup1\n      calldatasize\n      sub\n      dup2\n      add\n      swap1\n      tag_56\n      swap2\n      swap1\n      tag_30\n      jump\t// in\n    tag_56:\n      tag_57\n      jump\t// in\n    tag_55:\n      stop\n        /* \"decentralized_oracle.sol\":803:821  uint256 public fee */\n    tag_15:\n      tag_58\n      tag_59\n      jump\t// in\n    tag_58:\n      mload(0x40)\n      tag_60\n      swap2\n      swap1\n      tag_35\n      jump\t// in\n    tag_60:\n      mload(0x40)\n      dup1\n      swap2\n      sub\n      swap1\n      return\n        /* \"decentralized_oracle.sol\":2456:2664  function fulfillTotalRain(\r... */\n    tag_21:\n        /* \"decentralized_oracle.sol\":2580:2590  _requestId */\n      dup2\n        /* \"@chainlink/contracts/src/v0.8/ChainlinkClient.sol\":11663:11680  s_pendingRequests */\n      0x05\n        /* \"@chainlink/contracts/src/v0.8/ChainlinkClient.sol\":11663:11691  s_pendingRequests[requestId] */\n      0x00\n        /* \"@chainlink/contracts/src/v0.8/ChainlinkClient.sol\":11681:11690  requestId */\n      dup3\n        /* \"@chainlink/contracts/src/v0.8/ChainlinkClient.sol\":11663:11691  s_pendingRequests[requestId] */\n      dup2\n      mstore\n      0x20\n      add\n      swap1\n      dup2\n      mstore\n      0x20\n      add\n      0x00\n      keccak256\n      0x00\n      swap1\n      sload\n      swap1\n      0x0100\n      exp\n      swap1\n      div\n      0xffffffffffffffffffffffffffffffffffffffff\n      and\n        /* \"@chainlink/contracts/src/v0.8/ChainlinkClient.sol\":11649:11691  msg.sender == s_pendingRequests[requestId] */\n      0xffffffffffffffffffffffffffffffffffffffff\n      and\n        /* \"@chainlink/contracts/src/v0.8/ChainlinkClient.sol\":11649:11659  msg.sender */\n      caller\n        /* \"@chainlink/contracts/src/v0.8/ChainlinkClient.sol\":11649:11691  msg.sender == s_pendingRequests[requestId] */\n      0xffffffffffffffffffffffffffffffffffffffff\n      and\n      eq\n        /* \"@chainlink/contracts/src/v0.8/ChainlinkClient.sol\":11641:11736  require(msg.sender == s_pendingRequests[requestId], \"Source must be the oracle of the request\") */\n      tag_62\n      jumpi\n      mload(0x40)\n      0x08c379a000000000000000000000000000000000000000000000000000000000\n      dup2\n      mstore\n      0x04\n      add\n      tag_63\n      swap1\n      tag_64\n      jump\t// in\n    tag_63:\n      mload(0x40)\n      dup1\n      swap2\n      sub\n      swap1\n      revert\n    tag_62:\n        /* \"@chainlink/contracts/src/v0.8/ChainlinkClient.sol\":11749:11766  s_pendingRequests */\n      0x05\n        /* \"@chainlink/contracts/src/v0.8/ChainlinkClient.sol\":11749:11777  s_pendingRequests[requestId] */\n      0x00\n        /* \"@chainlink/contracts/src/v0.8/ChainlinkClient.sol\":11767:11776  requestId */\n      dup3\n        /* \"@chainlink/contracts/src/v0.8/ChainlinkClient.sol\":11749:11777  s_pendingRequests[requestId] */\n      dup2\n      mstore\n      0x20\n      add\n      swap1\n      dup2\n      mstore\n      0x20\n      add\n      0x00\n      keccak256\n      0x00\n        /* \"@chainlink/contracts/src/v0.8/ChainlinkClient.sol\":11742:11777  delete s_pendingRequests[requestId] */\n      0x0100\n      exp\n      dup2\n      sload\n      swap1\n      0xffffffffffffffffffffffffffffffffffffffff\n      mul\n      not\n      and\n      swap1\n      sstore\n        /* \"@chainlink/contracts/src/v0.8/ChainlinkClient.sol\":11807:11816  requestId */\n      dup1\n        /* \"@chainlink/contracts/src/v0.8/ChainlinkClient.sol\":11788:11817  ChainlinkFulfilled(requestId) */\n      0x7cc135e0cebb02c3480ae5d74d377283180a2601f8f644edf7987b009316c63a\n      mload(0x40)\n      mload(0x40)\n      dup1\n      swap2\n      sub\n      swap1\n      log2\n        /* \"decentralized_oracle.sol\":2615:2622  _result */\n      dup2\n        /* \"decentralized_oracle.sol\":2603:2612  totalRain */\n      0x09\n        /* \"decentralized_oracle.sol\":2603:2622  totalRain = _result */\n      dup2\n      swap1\n      sstore\n      pop\n        /* \"decentralized_oracle.sol\":2638:2656  TotalRain(_result) */\n      0x26115bd9d6d2ceafb11a6485d30eba28954e14cfd3934f01e68beaddfea51078\n        /* \"decentralized_oracle.sol\":2648:2655  _result */\n      dup3\n        /* \"decentralized_oracle.sol\":2638:2656  TotalRain(_result) */\n      mload(0x40)\n      tag_66\n      swap2\n      swap1\n      tag_35\n      jump\t// in\n    tag_66:\n      mload(0x40)\n      dup1\n      swap2\n      sub\n      swap1\n      log1\n        /* \"decentralized_oracle.sol\":2456:2664  function fulfillTotalRain(\r... */\n      pop\n      pop\n      pop\n      jump\t// out\n        /* \"decentralized_oracle.sol\":1797:1999  function fulfillAvgTemp(\r... */\n    tag_24:\n        /* \"decentralized_oracle.sol\":1919:1929  _requestId */\n      dup2\n        /* \"@chainlink/contracts/src/v0.8/ChainlinkClient.sol\":11663:11680  s_pendingRequests */\n      0x05\n        /* \"@chainlink/contracts/src/v0.8/ChainlinkClient.sol\":11663:11691  s_pendingRequests[requestId] */\n      0x00\n        /* \"@chainlink/contracts/src/v0.8/ChainlinkClient.sol\":11681:11690  requestId */\n      dup3\n        /* \"@chainlink/contracts/src/v0.8/ChainlinkClient.sol\":11663:11691  s_pendingRequests[requestId] */\n      dup2\n      mstore\n      0x20\n      add\n      swap1\n      dup2\n      mstore\n      0x20\n      add\n      0x00\n      keccak256\n      0x00\n      swap1\n      sload\n      swap1\n      0x0100\n      exp\n      swap1\n      div\n      0xffffffffffffffffffffffffffffffffffffffff\n      and\n        /* \"@chainlink/contracts/src/v0.8/ChainlinkClient.sol\":11649:11691  msg.sender == s_pendingRequests[requestId] */\n      0xffffffffffffffffffffffffffffffffffffffff\n      and\n        /* \"@chainlink/contracts/src/v0.8/ChainlinkClient.sol\":11649:11659  msg.sender */\n      caller\n        /* \"@chainlink/contracts/src/v0.8/ChainlinkClient.sol\":11649:11691  msg.sender == s_pendingRequests[requestId] */\n      0xffffffffffffffffffffffffffffffffffffffff\n      and\n      eq\n        /* \"@chainlink/contracts/src/v0.8/ChainlinkClient.sol\":11641:11736  require(msg.sender == s_pendingRequests[requestId], \"Source must be the oracle of the request\") */\n      tag_68\n      jumpi\n      mload(0x40)\n      0x08c379a000000000000000000000000000000000000000000000000000000000\n      dup2\n      mstore\n      0x04\n      add\n      tag_69\n      swap1\n      tag_64\n      jump\t// in\n    tag_69:\n      mload(0x40)\n      dup1\n      swap2\n      sub\n      swap1\n      revert\n    tag_68:\n        /* \"@chainlink/contracts/src/v0.8/ChainlinkClient.sol\":11749:11766  s_pendingRequests */\n      0x05\n        /* \"@chainlink/contracts/src/v0.8/ChainlinkClient.sol\":11749:11777  s_pendingRequests[requestId] */\n      0x00\n        /* \"@chainlink/contracts/src/v0.8/ChainlinkClient.sol\":11767:11776  requestId */\n      dup3\n        /* \"@chainlink/contracts/src/v0.8/ChainlinkClient.sol\":11749:11777  s_pendingRequests[requestId] */\n      dup2\n      mstore\n      0x20\n      add\n      swap1\n      dup2\n      mstore\n      0x20\n      add\n      0x00\n      keccak256\n      0x00\n        /* \"@chainlink/contracts/src/v0.8/ChainlinkClient.sol\":11742:11777  delete s_pendingRequests[requestId] */\n      0x0100\n      exp\n      dup2\n      sload\n      swap1\n      0xffffffffffffffffffffffffffffffffffffffff\n      mul\n      not\n      and\n      swap1\n      sstore\n        /* \"@chainlink/contracts/src/v0.8/ChainlinkClient.sol\":11807:11816  requestId */\n      dup1\n        /* \"@chainlink/contracts/src/v0.8/ChainlinkClient.sol\":11788:11817  ChainlinkFulfilled(requestId) */\n      0x7cc135e0cebb02c3480ae5d74d377283180a2601f8f644edf7987b009316c63a\n      mload(0x40)\n      mload(0x40)\n      dup1\n      swap2\n      sub\n      swap1\n      log2\n        /* \"decentralized_oracle.sol\":1952:1959  _result */\n      dup2\n        /* \"decentralized_oracle.sol\":1942:1949  avgTemp */\n      0x07\n        /* \"decentralized_oracle.sol\":1942:1959  avgTemp = _result */\n      dup2\n      swap1\n      sstore\n      pop\n        /* \"decentralized_oracle.sol\":1975:1991  AvgTemp(_result) */\n      0xe5e26a600dc81b241131b3541c3c53d9b02d780f102c65b08b91fd57998e3b72\n        /* \"decentralized_oracle.sol\":1983:1990  _result */\n      dup3\n        /* \"decentralized_oracle.sol\":1975:1991  AvgTemp(_result) */\n      mload(0x40)\n      tag_71\n      swap2\n      swap1\n      tag_35\n      jump\t// in\n    tag_71:\n      mload(0x40)\n      dup1\n      swap2\n      sub\n      swap1\n      log1\n        /* \"decentralized_oracle.sol\":1797:1999  function fulfillAvgTemp(\r... */\n      pop\n      pop\n      pop\n      jump\t// out\n        /* \"decentralized_oracle.sol\":3106:3299  function fulfillHail(\r... */\n    tag_27:\n        /* \"decentralized_oracle.sol\":3225:3235  _requestId */\n      dup2\n        /* \"@chainlink/contracts/src/v0.8/ChainlinkClient.sol\":11663:11680  s_pendingRequests */\n      0x05\n        /* \"@chainlink/contracts/src/v0.8/ChainlinkClient.sol\":11663:11691  s_pendingRequests[requestId] */\n      0x00\n        /* \"@chainlink/contracts/src/v0.8/ChainlinkClient.sol\":11681:11690  requestId */\n      dup3\n        /* \"@chainlink/contracts/src/v0.8/ChainlinkClient.sol\":11663:11691  s_pendingRequests[requestId] */\n      dup2\n      mstore\n      0x20\n      add\n      swap1\n      dup2\n      mstore\n      0x20\n      add\n      0x00\n      keccak256\n      0x00\n      swap1\n      sload\n      swap1\n      0x0100\n      exp\n      swap1\n      div\n      0xffffffffffffffffffffffffffffffffffffffff\n      and\n        /* \"@chainlink/contracts/src/v0.8/ChainlinkClient.sol\":11649:11691  msg.sender == s_pendingRequests[requestId] */\n      0xffffffffffffffffffffffffffffffffffffffff\n      and\n        /* \"@chainlink/contracts/src/v0.8/ChainlinkClient.sol\":11649:11659  msg.sender */\n      caller\n        /* \"@chainlink/contracts/src/v0.8/ChainlinkClient.sol\":11649:11691  msg.sender == s_pendingRequests[requestId] */\n      0xffffffffffffffffffffffffffffffffffffffff\n      and\n      eq\n        /* \"@chainlink/contracts/src/v0.8/ChainlinkClient.sol\":11641:11736  require(msg.sender == s_pendingRequests[requestId], \"Source must be the oracle of the request\") */\n      tag_73\n      jumpi\n      mload(0x40)\n      0x08c379a000000000000000000000000000000000000000000000000000000000\n      dup2\n      mstore\n      0x04\n      add\n      tag_74\n      swap1\n      tag_64\n      jump\t// in\n    tag_74:\n      mload(0x40)\n      dup1\n      swap2\n      sub\n      swap1\n      revert\n    tag_73:\n        /* \"@chainlink/contracts/src/v0.8/ChainlinkClient.sol\":11749:11766  s_pendingRequests */\n      0x05\n        /* \"@chainlink/contracts/src/v0.8/ChainlinkClient.sol\":11749:11777  s_pendingRequests[requestId] */\n      0x00\n        /* \"@chainlink/contracts/src/v0.8/ChainlinkClient.sol\":11767:11776  requestId */\n      dup3\n        /* \"@chainlink/contracts/src/v0.8/ChainlinkClient.sol\":11749:11777  s_pendingRequests[requestId] */\n      dup2\n      mstore\n      0x20\n      add\n      swap1\n      dup2\n      mstore\n      0x20\n      add\n      0x00\n      keccak256\n      0x00\n        /* \"@chainlink/contracts/src/v0.8/ChainlinkClient.sol\":11742:11777  delete s_pendingRequests[requestId] */\n      0x0100\n      exp\n      dup2\n      sload\n      swap1\n      0xffffffffffffffffffffffffffffffffffffffff\n      mul\n      not\n      and\n      swap1\n      sstore\n        /* \"@chainlink/contracts/src/v0.8/ChainlinkClient.sol\":11807:11816  requestId */\n      dup1\n        /* \"@chainlink/contracts/src/v0.8/ChainlinkClient.sol\":11788:11817  ChainlinkFulfilled(requestId) */\n      0x7cc135e0cebb02c3480ae5d74d377283180a2601f8f644edf7987b009316c63a\n      mload(0x40)\n      mload(0x40)\n      dup1\n      swap2\n      sub\n      swap1\n      log2\n        /* \"decentralized_oracle.sol\":3255:3262  _result */\n      dup2\n        /* \"decentralized_oracle.sol\":3248:3252  hail */\n      0x0b\n        /* \"decentralized_oracle.sol\":3248:3262  hail = _result */\n      dup2\n      swap1\n      sstore\n      pop\n        /* \"decentralized_oracle.sol\":3278:3291  Hail(_result) */\n      0xfe14b6164c67c7837a2e1bbf8eb765ff403c6a748a8d7c22be06745dc92cf338\n        /* \"decentralized_oracle.sol\":3283:3290  _result */\n      dup3\n        /* \"decentralized_oracle.sol\":3278:3291  Hail(_result) */\n      mload(0x40)\n      tag_76\n      swap2\n      swap1\n      tag_35\n      jump\t// in\n    tag_76:\n      mload(0x40)\n      dup1\n      swap2\n      sub\n      swap1\n      log1\n        /* \"decentralized_oracle.sol\":3106:3299  function fulfillHail(\r... */\n      pop\n      pop\n      pop\n      jump\t// out\n        /* \"decentralized_oracle.sol\":2007:2448  function requestTotalRain(string memory _from, string memory _to) external {\r... */\n    tag_31:\n        /* \"decentralized_oracle.sol\":2093:2121  Chainlink.Request memory req */\n      0x00\n        /* \"decentralized_oracle.sol\":2124:2258  buildChainlinkRequest(\r... */\n      tag_78\n        /* \"decentralized_oracle.sol\":2160:2174  totalRainJobId */\n      sload(0x08)\n        /* \"decentralized_oracle.sol\":2197:2201  this */\n      address\n        /* \"decentralized_oracle.sol\":2217:2247  this.fulfillTotalRain.selector */\n      shl(0xe0, 0x05efce06)\n        /* \"decentralized_oracle.sol\":2124:2145  buildChainlinkRequest */\n      tag_79\n        /* \"decentralized_oracle.sol\":2124:2258  buildChainlinkRequest(\r... */\n      jump\t// in\n    tag_78:\n        /* \"decentralized_oracle.sol\":2093:2258  Chainlink.Request memory req = buildChainlinkRequest(\r... */\n      swap1\n      pop\n        /* \"decentralized_oracle.sol\":2269:2295  req.add(\"dateFrom\", _from) */\n      tag_80\n      mload(0x40)\n      dup1\n      0x40\n      add\n      0x40\n      mstore\n      dup1\n      0x08\n      dup2\n      mstore\n      0x20\n      add\n      0x6461746546726f6d000000000000000000000000000000000000000000000000\n      dup2\n      mstore\n      pop\n        /* \"decentralized_oracle.sol\":2289:2294  _from */\n      dup5\n        /* \"decentralized_oracle.sol\":2269:2272  req */\n      dup4\n        /* \"decentralized_oracle.sol\":2269:2276  req.add */\n      tag_81\n      swap1\n        /* \"decentralized_oracle.sol\":2269:2295  req.add(\"dateFrom\", _from) */\n      swap3\n      swap2\n      swap1\n      0xffffffff\n      and\n      jump\t// in\n    tag_80:\n        /* \"decentralized_oracle.sol\":2306:2328  req.add(\"dateTo\", _to) */\n      tag_82\n      mload(0x40)\n      dup1\n      0x40\n      add\n      0x40\n      mstore\n      dup1\n      0x06\n      dup2\n      mstore\n      0x20\n      add\n      0x64617465546f0000000000000000000000000000000000000000000000000000\n      dup2\n      mstore\n      pop\n        /* \"decentralized_oracle.sol\":2324:2327  _to */\n      dup4\n        /* \"decentralized_oracle.sol\":2306:2309  req */\n      dup4\n        /* \"decentralized_oracle.sol\":2306:2313  req.add */\n      tag_81\n      swap1\n        /* \"decentralized_oracle.sol\":2306:2328  req.add(\"dateTo\", _to) */\n      swap3\n      swap2\n      swap1\n      0xffffffff\n      and\n      jump\t// in\n    tag_82:\n        /* \"decentralized_oracle.sol\":2339:2363  req.add(\"method\", \"SUM\") */\n      tag_83\n      mload(0x40)\n      dup1\n      0x40\n      add\n      0x40\n      mstore\n      dup1\n      0x06\n      dup2\n      mstore\n      0x20\n      add\n      0x6d6574686f640000000000000000000000000000000000000000000000000000\n      dup2\n      mstore\n      pop\n      mload(0x40)\n      dup1\n      0x40\n      add\n      0x40\n      mstore\n      dup1\n      0x03\n      dup2\n      mstore\n      0x20\n      add\n      0x53554d0000000000000000000000000000000000000000000000000000000000\n      dup2\n      mstore\n      pop\n        /* \"decentralized_oracle.sol\":2339:2342  req */\n      dup4\n        /* \"decentralized_oracle.sol\":2339:2346  req.add */\n      tag_81\n      swap1\n        /* \"decentralized_oracle.sol\":2339:2363  req.add(\"method\", \"SUM\") */\n      swap3\n      swap2\n      swap1\n      0xffffffff\n      and\n      jump\t// in\n    tag_83:\n        /* \"decentralized_oracle.sol\":2374:2399  req.add(\"column\", \"prcp\") */\n      tag_84\n      mload(0x40)\n      dup1\n      0x40\n      add\n      0x40\n      mstore\n      dup1\n      0x06\n      dup2\n      mstore\n      0x20\n      add\n      0x636f6c756d6e0000000000000000000000000000000000000000000000000000\n      dup2\n      mstore\n      pop\n      mload(0x40)\n      dup1\n      0x40\n      add\n      0x40\n      mstore\n      dup1\n      0x04\n      dup2\n      mstore\n      0x20\n      add\n      0x7072637000000000000000000000000000000000000000000000000000000000\n      dup2\n      mstore\n      pop\n        /* \"decentralized_oracle.sol\":2374:2377  req */\n      dup4\n        /* \"decentralized_oracle.sol\":2374:2381  req.add */\n      tag_81\n      swap1\n        /* \"decentralized_oracle.sol\":2374:2399  req.add(\"column\", \"prcp\") */\n      swap3\n      swap2\n      swap1\n      0xffffffff\n      and\n      jump\t// in\n    tag_84:\n        /* \"decentralized_oracle.sol\":2410:2440  sendChainlinkRequest(req, fee) */\n      tag_85\n        /* \"decentralized_oracle.sol\":2431:2434  req */\n      dup2\n        /* \"decentralized_oracle.sol\":2436:2439  fee */\n      sload(0x0c)\n        /* \"decentralized_oracle.sol\":2410:2430  sendChainlinkRequest */\n      tag_86\n        /* \"decentralized_oracle.sol\":2410:2440  sendChainlinkRequest(req, fee) */\n      jump\t// in\n    tag_85:\n      pop\n        /* \"decentralized_oracle.sol\":2082:2448  {\r... */\n      pop\n        /* \"decentralized_oracle.sol\":2007:2448  function requestTotalRain(string memory _from, string memory _to) external {\r... */\n      pop\n      pop\n      jump\t// out\n        /* \"decentralized_oracle.sol\":650:672  uint256 public avgTemp */\n    tag_33:\n      sload(0x07)\n      dup2\n      jump\t// out\n        /* \"decentralized_oracle.sol\":1354:1789  function requestAvgTemp(string memory _from, string memory _to) external {\r... */\n    tag_38:\n        /* \"decentralized_oracle.sol\":1438:1466  Chainlink.Request memory req */\n      0x00\n        /* \"decentralized_oracle.sol\":1469:1599  buildChainlinkRequest(\r... */\n      tag_88\n        /* \"decentralized_oracle.sol\":1505:1517  avgTempJobId */\n      sload(0x06)\n        /* \"decentralized_oracle.sol\":1540:1544  this */\n      address\n        /* \"decentralized_oracle.sol\":1560:1588  this.fulfillAvgTemp.selector */\n      shl(0xe0, 0x2a3508dc)\n        /* \"decentralized_oracle.sol\":1469:1490  buildChainlinkRequest */\n      tag_79\n        /* \"decentralized_oracle.sol\":1469:1599  buildChainlinkRequest(\r... */\n      jump\t// in\n    tag_88:\n        /* \"decentralized_oracle.sol\":1438:1599  Chainlink.Request memory req = buildChainlinkRequest(\r... */\n      swap1\n      pop\n        /* \"decentralized_oracle.sol\":1610:1636  req.add(\"dateFrom\", _from) */\n      tag_89\n      mload(0x40)\n      dup1\n      0x40\n      add\n      0x40\n      mstore\n      dup1\n      0x08\n      dup2\n      mstore\n      0x20\n      add\n      0x6461746546726f6d000000000000000000000000000000000000000000000000\n      dup2\n      mstore\n      pop\n        /* \"decentralized_oracle.sol\":1630:1635  _from */\n      dup5\n        /* \"decentralized_oracle.sol\":1610:1613  req */\n      dup4\n        /* \"decentralized_oracle.sol\":1610:1617  req.add */\n      tag_81\n      swap1\n        /* \"decentralized_oracle.sol\":1610:1636  req.add(\"dateFrom\", _from) */\n      swap3\n      swap2\n      swap1\n      0xffffffff\n      and\n      jump\t// in\n    tag_89:\n        /* \"decentralized_oracle.sol\":1647:1669  req.add(\"dateTo\", _to) */\n      tag_90\n      mload(0x40)\n      dup1\n      0x40\n      add\n      0x40\n      mstore\n      dup1\n      0x06\n      dup2\n      mstore\n      0x20\n      add\n      0x64617465546f0000000000000000000000000000000000000000000000000000\n      dup2\n      mstore\n      pop\n        /* \"decentralized_oracle.sol\":1665:1668  _to */\n      dup4\n        /* \"decentralized_oracle.sol\":1647:1650  req */\n      dup4\n        /* \"decentralized_oracle.sol\":1647:1654  req.add */\n      tag_81\n      swap1\n        /* \"decentralized_oracle.sol\":1647:1669  req.add(\"dateTo\", _to) */\n      swap3\n      swap2\n      swap1\n      0xffffffff\n      and\n      jump\t// in\n    tag_90:\n        /* \"decentralized_oracle.sol\":1680:1704  req.add(\"method\", \"AVG\") */\n      tag_91\n      mload(0x40)\n      dup1\n      0x40\n      add\n      0x40\n      mstore\n      dup1\n      0x06\n      dup2\n      mstore\n      0x20\n      add\n      0x6d6574686f640000000000000000000000000000000000000000000000000000\n      dup2\n      mstore\n      pop\n      mload(0x40)\n      dup1\n      0x40\n      add\n      0x40\n      mstore\n      dup1\n      0x03\n      dup2\n      mstore\n      0x20\n      add\n      0x4156470000000000000000000000000000000000000000000000000000000000\n      dup2\n      mstore\n      pop\n        /* \"decentralized_oracle.sol\":1680:1683  req */\n      dup4\n        /* \"decentralized_oracle.sol\":1680:1687  req.add */\n      tag_81\n      swap1\n        /* \"decentralized_oracle.sol\":1680:1704  req.add(\"method\", \"AVG\") */\n      swap3\n      swap2\n      swap1\n      0xffffffff\n      and\n      jump\t// in\n    tag_91:\n        /* \"decentralized_oracle.sol\":1715:1740  req.add(\"column\", \"temp\") */\n      tag_92\n      mload(0x40)\n      dup1\n      0x40\n      add\n      0x40\n      mstore\n      dup1\n      0x06\n      dup2\n      mstore\n      0x20\n      add\n      0x636f6c756d6e0000000000000000000000000000000000000000000000000000\n      dup2\n      mstore\n      pop\n      mload(0x40)\n      dup1\n      0x40\n      add\n      0x40\n      mstore\n      dup1\n      0x04\n      dup2\n      mstore\n      0x20\n      add\n      0x74656d7000000000000000000000000000000000000000000000000000000000\n      dup2\n      mstore\n      pop\n        /* \"decentralized_oracle.sol\":1715:1718  req */\n      dup4\n        /* \"decentralized_oracle.sol\":1715:1722  req.add */\n      tag_81\n      swap1\n        /* \"decentralized_oracle.sol\":1715:1740  req.add(\"column\", \"temp\") */\n      swap3\n      swap2\n      swap1\n      0xffffffff\n      and\n      jump\t// in\n    tag_92:\n        /* \"decentralized_oracle.sol\":1751:1781  sendChainlinkRequest(req, fee) */\n      tag_93\n        /* \"decentralized_oracle.sol\":1772:1775  req */\n      dup2\n        /* \"decentralized_oracle.sol\":1777:1780  fee */\n      sload(0x0c)\n        /* \"decentralized_oracle.sol\":1751:1771  sendChainlinkRequest */\n      tag_86\n        /* \"decentralized_oracle.sol\":1751:1781  sendChainlinkRequest(req, fee) */\n      jump\t// in\n    tag_93:\n      pop\n        /* \"decentralized_oracle.sol\":1427:1789  {\r... */\n      pop\n        /* \"decentralized_oracle.sol\":1354:1789  function requestAvgTemp(string memory _from, string memory _to) external {\r... */\n      pop\n      pop\n      jump\t// out\n        /* \"decentralized_oracle.sol\":715:739  uint256 public totalRain */\n    tag_40:\n      sload(0x09)\n      dup2\n      jump\t// out\n        /* \"decentralized_oracle.sol\":746:770  bytes32 public hailJobId */\n    tag_43:\n      sload(0x0a)\n      dup2\n      jump\t// out\n        /* \"decentralized_oracle.sol\":777:796  uint256 public hail */\n    tag_47:\n      sload(0x0b)\n      dup2\n      jump\t// out\n        /* \"decentralized_oracle.sol\":616:643  bytes32 public avgTempJobId */\n    tag_50:\n      sload(0x06)\n      dup2\n      jump\t// out\n        /* \"decentralized_oracle.sol\":679:708  bytes32 public totalRainJobId */\n    tag_53:\n      sload(0x08)\n      dup2\n      jump\t// out\n        /* \"decentralized_oracle.sol\":2672:3098  function requestHail(string memory _from, string memory _to) external {\r... */\n    tag_57:\n        /* \"decentralized_oracle.sol\":2753:2781  Chainlink.Request memory req */\n      0x00\n        /* \"decentralized_oracle.sol\":2784:2908  buildChainlinkRequest(\r... */\n      tag_95\n        /* \"decentralized_oracle.sol\":2820:2829  hailJobId */\n      sload(0x0a)\n        /* \"decentralized_oracle.sol\":2852:2856  this */\n      address\n        /* \"decentralized_oracle.sol\":2872:2897  this.fulfillHail.selector */\n      shl(0xe0, 0x38171947)\n        /* \"decentralized_oracle.sol\":2784:2805  buildChainlinkRequest */\n      tag_79\n        /* \"decentralized_oracle.sol\":2784:2908  buildChainlinkRequest(\r... */\n      jump\t// in\n    tag_95:\n        /* \"decentralized_oracle.sol\":2753:2908  Chainlink.Request memory req = buildChainlinkRequest(\r... */\n      swap1\n      pop\n        /* \"decentralized_oracle.sol\":2919:2945  req.add(\"dateFrom\", _from) */\n      tag_96\n      mload(0x40)\n      dup1\n      0x40\n      add\n      0x40\n      mstore\n      dup1\n      0x08\n      dup2\n      mstore\n      0x20\n      add\n      0x6461746546726f6d000000000000000000000000000000000000000000000000\n      dup2\n      mstore\n      pop\n        /* \"decentralized_oracle.sol\":2939:2944  _from */\n      dup5\n        /* \"decentralized_oracle.sol\":2919:2922  req */\n      dup4\n        /* \"decentralized_oracle.sol\":2919:2926  req.add */\n      tag_81\n      swap1\n        /* \"decentralized_oracle.sol\":2919:2945  req.add(\"dateFrom\", _from) */\n      swap3\n      swap2\n      swap1\n      0xffffffff\n      and\n      jump\t// in\n    tag_96:\n        /* \"decentralized_oracle.sol\":2956:2978  req.add(\"dateTo\", _to) */\n      tag_97\n      mload(0x40)\n      dup1\n      0x40\n      add\n      0x40\n      mstore\n      dup1\n      0x06\n      dup2\n      mstore\n      0x20\n      add\n      0x64617465546f0000000000000000000000000000000000000000000000000000\n      dup2\n      mstore\n      pop\n        /* \"decentralized_oracle.sol\":2974:2977  _to */\n      dup4\n        /* \"decentralized_oracle.sol\":2956:2959  req */\n      dup4\n        /* \"decentralized_oracle.sol\":2956:2963  req.add */\n      tag_81\n      swap1\n        /* \"decentralized_oracle.sol\":2956:2978  req.add(\"dateTo\", _to) */\n      swap3\n      swap2\n      swap1\n      0xffffffff\n      and\n      jump\t// in\n    tag_97:\n        /* \"decentralized_oracle.sol\":2989:3013  req.add(\"method\", \"SUM\") */\n      tag_98\n      mload(0x40)\n      dup1\n      0x40\n      add\n      0x40\n      mstore\n      dup1\n      0x06\n      dup2\n      mstore\n      0x20\n      add\n      0x6d6574686f640000000000000000000000000000000000000000000000000000\n      dup2\n      mstore\n      pop\n      mload(0x40)\n      dup1\n      0x40\n      add\n      0x40\n      mstore\n      dup1\n      0x03\n      dup2\n      mstore\n      0x20\n      add\n      0x53554d0000000000000000000000000000000000000000000000000000000000\n      dup2\n      mstore\n      pop\n        /* \"decentralized_oracle.sol\":2989:2992  req */\n      dup4\n        /* \"decentralized_oracle.sol\":2989:2996  req.add */\n      tag_81\n      swap1\n        /* \"decentralized_oracle.sol\":2989:3013  req.add(\"method\", \"SUM\") */\n      swap3\n      swap2\n      swap1\n      0xffffffff\n      and\n      jump\t// in\n    tag_98:\n        /* \"decentralized_oracle.sol\":3024:3049  req.add(\"column\", \"hail\") */\n      tag_99\n      mload(0x40)\n      dup1\n      0x40\n      add\n      0x40\n      mstore\n      dup1\n      0x06\n      dup2\n      mstore\n      0x20\n      add\n      0x636f6c756d6e0000000000000000000000000000000000000000000000000000\n      dup2\n      mstore\n      pop\n      mload(0x40)\n      dup1\n      0x40\n      add\n      0x40\n      mstore\n      dup1\n      0x04\n      dup2\n      mstore\n      0x20\n      add\n      0x6861696c00000000000000000000000000000000000000000000000000000000\n      dup2\n      mstore\n      pop\n        /* \"decentralized_oracle.sol\":3024:3027  req */\n      dup4\n        /* \"decentralized_oracle.sol\":3024:3031  req.add */\n      tag_81\n      swap1\n        /* \"decentralized_oracle.sol\":3024:3049  req.add(\"column\", \"hail\") */\n      swap3\n      swap2\n      swap1\n      0xffffffff\n      and\n      jump\t// in\n    tag_99:\n        /* \"decentralized_oracle.sol\":3060:3090  sendChainlinkRequest(req, fee) */\n      tag_100\n        /* \"decentralized_oracle.sol\":3081:3084  req */\n      dup2\n        /* \"decentralized_oracle.sol\":3086:3089  fee */\n      sload(0x0c)\n        /* \"decentralized_oracle.sol\":3060:3080  sendChainlinkRequest */\n      tag_86\n        /* \"decentralized_oracle.sol\":3060:3090  sendChainlinkRequest(req, fee) */\n      jump\t// in\n    tag_100:\n      pop\n        /* \"decentralized_oracle.sol\":2742:3098  {\r... */\n      pop\n        /* \"decentralized_oracle.sol\":2672:3098  function requestHail(string memory _from, string memory _to) external {\r... */\n      pop\n      pop\n      jump\t// out\n        /* \"decentralized_oracle.sol\":803:821  uint256 public fee */\n    tag_59:\n      sload(0x0c)\n      dup2\n      jump\t// out\n        /* \"@chainlink/contracts/src/v0.8/ChainlinkClient.sol\":1850:2133  function buildChainlinkRequest(... */\n    tag_79:\n        /* \"@chainlink/contracts/src/v0.8/ChainlinkClient.sol\":1992:2016  Chainlink.Request memory */\n      tag_101\n      tag_102\n      jump\t// in\n    tag_101:\n        /* \"@chainlink/contracts/src/v0.8/ChainlinkClient.sol\":2024:2052  Chainlink.Request memory req */\n      tag_104\n      tag_102\n      jump\t// in\n    tag_104:\n        /* \"@chainlink/contracts/src/v0.8/ChainlinkClient.sol\":2065:2128  req.initialize(specId, callbackAddr, callbackFunctionSignature) */\n      tag_105\n        /* \"@chainlink/contracts/src/v0.8/ChainlinkClient.sol\":2080:2086  specId */\n      dup6\n        /* \"@chainlink/contracts/src/v0.8/ChainlinkClient.sol\":2088:2100  callbackAddr */\n      dup6\n        /* \"@chainlink/contracts/src/v0.8/ChainlinkClient.sol\":2102:2127  callbackFunctionSignature */\n      dup6\n        /* \"@chainlink/contracts/src/v0.8/ChainlinkClient.sol\":2065:2068  req */\n      dup5\n        /* \"@chainlink/contracts/src/v0.8/ChainlinkClient.sol\":2065:2079  req.initialize */\n      tag_106\n      swap1\n        /* \"@chainlink/contracts/src/v0.8/ChainlinkClient.sol\":2065:2128  req.initialize(specId, callbackAddr, callbackFunctionSignature) */\n      swap4\n      swap3\n      swap2\n      swap1\n      0xffffffff\n      and\n      jump\t// in\n    tag_105:\n        /* \"@chainlink/contracts/src/v0.8/ChainlinkClient.sol\":2058:2128  return req.initialize(specId, callbackAddr, callbackFunctionSignature) */\n      swap2\n      pop\n      pop\n        /* \"@chainlink/contracts/src/v0.8/ChainlinkClient.sol\":1850:2133  function buildChainlinkRequest(... */\n      swap4\n      swap3\n      pop\n      pop\n      pop\n      jump\t// out\n        /* \"@chainlink/contracts/src/v0.8/Chainlink.sol\":1951:2126  function add(... */\n    tag_81:\n        /* \"@chainlink/contracts/src/v0.8/Chainlink.sol\":2061:2087  self.buf.encodeString(key) */\n      tag_108\n        /* \"@chainlink/contracts/src/v0.8/Chainlink.sol\":2083:2086  key */\n      dup3\n        /* \"@chainlink/contracts/src/v0.8/Chainlink.sol\":2061:2065  self */\n      dup5\n        /* \"@chainlink/contracts/src/v0.8/Chainlink.sol\":2061:2069  self.buf */\n      0x80\n      add\n      mload\n        /* \"@chainlink/contracts/src/v0.8/Chainlink.sol\":2061:2082  self.buf.encodeString */\n      tag_109\n      swap1\n        /* \"@chainlink/contracts/src/v0.8/Chainlink.sol\":2061:2087  self.buf.encodeString(key) */\n      swap2\n      swap1\n      0xffffffff\n      and\n      jump\t// in\n    tag_108:\n        /* \"@chainlink/contracts/src/v0.8/Chainlink.sol\":2093:2121  self.buf.encodeString(value) */\n      tag_110\n        /* \"@chainlink/contracts/src/v0.8/Chainlink.sol\":2115:2120  value */\n      dup2\n        /* \"@chainlink/contracts/src/v0.8/Chainlink.sol\":2093:2097  self */\n      dup5\n        /* \"@chainlink/contracts/src/v0.8/Chainlink.sol\":2093:2101  self.buf */\n      0x80\n      add\n      mload\n        /* \"@chainlink/contracts/src/v0.8/Chainlink.sol\":2093:2114  self.buf.encodeString */\n      tag_109\n      swap1\n        /* \"@chainlink/contracts/src/v0.8/Chainlink.sol\":2093:2121  self.buf.encodeString(value) */\n      swap2\n      swap1\n      0xffffffff\n      and\n      jump\t// in\n    tag_110:\n        /* \"@chainlink/contracts/src/v0.8/Chainlink.sol\":1951:2126  function add(... */\n      pop\n      pop\n      pop\n      jump\t// out\n        /* \"@chainlink/contracts/src/v0.8/ChainlinkClient.sol\":2992:3169  function sendChainlinkRequest(Chainlink.Request memory req, uint256 payment) internal returns (bytes32) {... */\n    tag_86:\n        /* \"@chainlink/contracts/src/v0.8/ChainlinkClient.sol\":3087:3094  bytes32 */\n      0x00\n        /* \"@chainlink/contracts/src/v0.8/ChainlinkClient.sol\":3109:3164  sendChainlinkRequestTo(address(s_oracle), req, payment) */\n      tag_112\n        /* \"@chainlink/contracts/src/v0.8/ChainlinkClient.sol\":3140:3148  s_oracle */\n      0x03\n      0x00\n      swap1\n      sload\n      swap1\n      0x0100\n      exp\n      swap1\n      div\n      0xffffffffffffffffffffffffffffffffffffffff\n      and\n        /* \"@chainlink/contracts/src/v0.8/ChainlinkClient.sol\":3151:3154  req */\n      dup5\n        /* \"@chainlink/contracts/src/v0.8/ChainlinkClient.sol\":3156:3163  payment */\n      dup5\n        /* \"@chainlink/contracts/src/v0.8/ChainlinkClient.sol\":3109:3131  sendChainlinkRequestTo */\n      tag_113\n        /* \"@chainlink/contracts/src/v0.8/ChainlinkClient.sol\":3109:3164  sendChainlinkRequestTo(address(s_oracle), req, payment) */\n      jump\t// in\n    tag_112:\n        /* \"@chainlink/contracts/src/v0.8/ChainlinkClient.sol\":3102:3164  return sendChainlinkRequestTo(address(s_oracle), req, payment) */\n      swap1\n      pop\n        /* \"@chainlink/contracts/src/v0.8/ChainlinkClient.sol\":2992:3169  function sendChainlinkRequest(Chainlink.Request memory req, uint256 payment) internal returns (bytes32) {... */\n      swap3\n      swap2\n      pop\n      pop\n      jump\t// out\n        /* \"@chainlink/contracts/src/v0.8/Chainlink.sol\":987:1338  function initialize(... */\n    tag_106:\n        /* \"@chainlink/contracts/src/v0.8/Chainlink.sol\":1129:1153  Chainlink.Request memory */\n      tag_114\n      tag_102\n      jump\t// in\n    tag_114:\n        /* \"@chainlink/contracts/src/v0.8/Chainlink.sol\":1161:1210  BufferChainlink.init(self.buf, defaultBufferSize) */\n      tag_116\n        /* \"@chainlink/contracts/src/v0.8/Chainlink.sol\":1182:1186  self */\n      dup6\n        /* \"@chainlink/contracts/src/v0.8/Chainlink.sol\":1182:1190  self.buf */\n      0x80\n      add\n      mload\n        /* \"@chainlink/contracts/src/v0.8/Chainlink.sol\":361:364  256 */\n      0x0100\n        /* \"@chainlink/contracts/src/v0.8/Chainlink.sol\":1161:1181  BufferChainlink.init */\n      tag_117\n        /* \"@chainlink/contracts/src/v0.8/Chainlink.sol\":1161:1210  BufferChainlink.init(self.buf, defaultBufferSize) */\n      jump\t// in\n    tag_116:\n      pop\n        /* \"@chainlink/contracts/src/v0.8/Chainlink.sol\":1226:1231  jobId */\n      dup4\n        /* \"@chainlink/contracts/src/v0.8/Chainlink.sol\":1216:1220  self */\n      dup6\n        /* \"@chainlink/contracts/src/v0.8/Chainlink.sol\":1216:1223  self.id */\n      0x00\n      add\n        /* \"@chainlink/contracts/src/v0.8/Chainlink.sol\":1216:1231  self.id = jobId */\n      dup2\n      dup2\n      mstore\n      pop\n      pop\n        /* \"@chainlink/contracts/src/v0.8/Chainlink.sol\":1260:1272  callbackAddr */\n      dup3\n        /* \"@chainlink/contracts/src/v0.8/Chainlink.sol\":1237:1241  self */\n      dup6\n        /* \"@chainlink/contracts/src/v0.8/Chainlink.sol\":1237:1257  self.callbackAddress */\n      0x20\n      add\n        /* \"@chainlink/contracts/src/v0.8/Chainlink.sol\":1237:1272  self.callbackAddress = callbackAddr */\n      swap1\n      0xffffffffffffffffffffffffffffffffffffffff\n      and\n      swap1\n      dup2\n      0xffffffffffffffffffffffffffffffffffffffff\n      and\n      dup2\n      mstore\n      pop\n      pop\n        /* \"@chainlink/contracts/src/v0.8/Chainlink.sol\":1304:1316  callbackFunc */\n      dup2\n        /* \"@chainlink/contracts/src/v0.8/Chainlink.sol\":1278:1282  self */\n      dup6\n        /* \"@chainlink/contracts/src/v0.8/Chainlink.sol\":1278:1301  self.callbackFunctionId */\n      0x40\n      add\n        /* \"@chainlink/contracts/src/v0.8/Chainlink.sol\":1278:1316  self.callbackFunctionId = callbackFunc */\n      swap1\n      not(0xffffffffffffffffffffffffffffffffffffffffffffffffffffffff)\n      and\n      swap1\n      dup2\n      not(0xffffffffffffffffffffffffffffffffffffffffffffffffffffffff)\n      and\n      dup2\n      mstore\n      pop\n      pop\n        /* \"@chainlink/contracts/src/v0.8/Chainlink.sol\":1329:1333  self */\n      dup5\n        /* \"@chainlink/contracts/src/v0.8/Chainlink.sol\":1322:1333  return self */\n      swap1\n      pop\n        /* \"@chainlink/contracts/src/v0.8/Chainlink.sol\":987:1338  function initialize(... */\n      swap5\n      swap4\n      pop\n      pop\n      pop\n      pop\n      jump\t// out\n        /* \"@chainlink/contracts/src/v0.8/vendor/CBORChainlink.sol\":2777:2981  function encodeString(BufferChainlink.buffer memory buf, string memory value) internal pure {... */\n    tag_109:\n        /* \"@chainlink/contracts/src/v0.8/vendor/CBORChainlink.sol\":2875:2946  encodeFixedNumeric(buf, MAJOR_TYPE_STRING, uint64(bytes(value).length)) */\n      tag_119\n        /* \"@chainlink/contracts/src/v0.8/vendor/CBORChainlink.sol\":2894:2897  buf */\n      dup3\n        /* \"@chainlink/contracts/src/v0.8/vendor/CBORChainlink.sol\":383:384  3 */\n      0x03\n        /* \"@chainlink/contracts/src/v0.8/vendor/CBORChainlink.sol\":2931:2936  value */\n      dup4\n        /* \"@chainlink/contracts/src/v0.8/vendor/CBORChainlink.sol\":2925:2944  bytes(value).length */\n      mload\n        /* \"@chainlink/contracts/src/v0.8/vendor/CBORChainlink.sol\":2875:2893  encodeFixedNumeric */\n      tag_120\n        /* \"@chainlink/contracts/src/v0.8/vendor/CBORChainlink.sol\":2875:2946  encodeFixedNumeric(buf, MAJOR_TYPE_STRING, uint64(bytes(value).length)) */\n      jump\t// in\n    tag_119:\n        /* \"@chainlink/contracts/src/v0.8/vendor/CBORChainlink.sol\":2952:2976  buf.append(bytes(value)) */\n      tag_121\n        /* \"@chainlink/contracts/src/v0.8/vendor/CBORChainlink.sol\":2969:2974  value */\n      dup2\n        /* \"@chainlink/contracts/src/v0.8/vendor/CBORChainlink.sol\":2952:2955  buf */\n      dup4\n        /* \"@chainlink/contracts/src/v0.8/vendor/CBORChainlink.sol\":2952:2962  buf.append */\n      tag_122\n      swap1\n        /* \"@chainlink/contracts/src/v0.8/vendor/CBORChainlink.sol\":2952:2976  buf.append(bytes(value)) */\n      swap2\n      swap1\n      0xffffffff\n      and\n      jump\t// in\n    tag_121:\n      pop\n        /* \"@chainlink/contracts/src/v0.8/vendor/CBORChainlink.sol\":2777:2981  function encodeString(BufferChainlink.buffer memory buf, string memory value) internal pure {... */\n      pop\n      pop\n      jump\t// out\n        /* \"@chainlink/contracts/src/v0.8/ChainlinkClient.sol\":3687:4443  function sendChainlinkRequestTo(... */\n    tag_113:\n        /* \"@chainlink/contracts/src/v0.8/ChainlinkClient.sol\":3823:3840  bytes32 requestId */\n      0x00\n        /* \"@chainlink/contracts/src/v0.8/ChainlinkClient.sol\":3848:3861  uint256 nonce */\n      dup1\n        /* \"@chainlink/contracts/src/v0.8/ChainlinkClient.sol\":3864:3878  s_requestCount */\n      sload(0x04)\n        /* \"@chainlink/contracts/src/v0.8/ChainlinkClient.sol\":3848:3878  uint256 nonce = s_requestCount */\n      swap1\n      pop\n        /* \"@chainlink/contracts/src/v0.8/ChainlinkClient.sol\":3909:3910  1 */\n      0x01\n        /* \"@chainlink/contracts/src/v0.8/ChainlinkClient.sol\":3901:3906  nonce */\n      dup2\n        /* \"@chainlink/contracts/src/v0.8/ChainlinkClient.sol\":3901:3910  nonce + 1 */\n      tag_124\n      swap2\n      swap1\n      tag_125\n      jump\t// in\n    tag_124:\n        /* \"@chainlink/contracts/src/v0.8/ChainlinkClient.sol\":3884:3898  s_requestCount */\n      0x04\n        /* \"@chainlink/contracts/src/v0.8/ChainlinkClient.sol\":3884:3910  s_requestCount = nonce + 1 */\n      dup2\n      swap1\n      sstore\n      pop\n        /* \"@chainlink/contracts/src/v0.8/ChainlinkClient.sol\":3916:3943  bytes memory encodedRequest */\n      0x00\n        /* \"@chainlink/contracts/src/v0.8/ChainlinkClient.sol\":3976:4024  ChainlinkRequestInterface.oracleRequest.selector */\n      shl(0xe0, 0x40429946)\n        /* \"@chainlink/contracts/src/v0.8/ChainlinkClient.sol\":784:785  0 */\n      0x00\n        /* \"@chainlink/contracts/src/v0.8/ChainlinkClient.sol\":728:729  0 */\n      dup1\n        /* \"@chainlink/contracts/src/v0.8/ChainlinkClient.sol\":4245:4248  req */\n      dup8\n        /* \"@chainlink/contracts/src/v0.8/ChainlinkClient.sol\":4245:4251  req.id */\n      0x00\n      add\n      mload\n        /* \"@chainlink/contracts/src/v0.8/ChainlinkClient.sol\":4267:4271  this */\n      address\n        /* \"@chainlink/contracts/src/v0.8/ChainlinkClient.sol\":4280:4283  req */\n      dup10\n        /* \"@chainlink/contracts/src/v0.8/ChainlinkClient.sol\":4280:4302  req.callbackFunctionId */\n      0x40\n      add\n      mload\n        /* \"@chainlink/contracts/src/v0.8/ChainlinkClient.sol\":4310:4315  nonce */\n      dup8\n        /* \"@chainlink/contracts/src/v0.8/ChainlinkClient.sol\":837:838  1 */\n      0x01\n        /* \"@chainlink/contracts/src/v0.8/ChainlinkClient.sol\":4350:4353  req */\n      dup13\n        /* \"@chainlink/contracts/src/v0.8/ChainlinkClient.sol\":4350:4357  req.buf */\n      0x80\n      add\n      mload\n        /* \"@chainlink/contracts/src/v0.8/ChainlinkClient.sol\":4350:4361  req.buf.buf */\n      0x00\n      add\n      mload\n        /* \"@chainlink/contracts/src/v0.8/ChainlinkClient.sol\":3946:4367  abi.encodeWithSelector(... */\n      add(0x24, mload(0x40))\n      tag_126\n      swap9\n      swap8\n      swap7\n      swap6\n      swap5\n      swap4\n      swap3\n      swap2\n      swap1\n      tag_127\n      jump\t// in\n    tag_126:\n      mload(0x40)\n      0x20\n      dup2\n      dup4\n      sub\n      sub\n      dup2\n      mstore\n      swap1\n      0x40\n      mstore\n      swap1\n      not(0xffffffffffffffffffffffffffffffffffffffffffffffffffffffff)\n      and\n      0x20\n      dup3\n      add\n      dup1\n      mload\n      0xffffffffffffffffffffffffffffffffffffffffffffffffffffffff\n      dup4\n      dup2\n      dup4\n      and\n      or\n      dup4\n      mstore\n      pop\n      pop\n      pop\n      pop\n        /* \"@chainlink/contracts/src/v0.8/ChainlinkClient.sol\":3916:4367  bytes memory encodedRequest = abi.encodeWithSelector(... */\n      swap1\n      pop\n        /* \"@chainlink/contracts/src/v0.8/ChainlinkClient.sol\":4380:4438  _rawRequest(oracleAddress, nonce, payment, encodedRequest) */\n      tag_128\n        /* \"@chainlink/contracts/src/v0.8/ChainlinkClient.sol\":4392:4405  oracleAddress */\n      dup7\n        /* \"@chainlink/contracts/src/v0.8/ChainlinkClient.sol\":4407:4412  nonce */\n      dup4\n        /* \"@chainlink/contracts/src/v0.8/ChainlinkClient.sol\":4414:4421  payment */\n      dup7\n        /* \"@chainlink/contracts/src/v0.8/ChainlinkClient.sol\":4423:4437  encodedRequest */\n      dup5\n        /* \"@chainlink/contracts/src/v0.8/ChainlinkClient.sol\":4380:4391  _rawRequest */\n      tag_129\n        /* \"@chainlink/contracts/src/v0.8/ChainlinkClient.sol\":4380:4438  _rawRequest(oracleAddress, nonce, payment, encodedRequest) */\n      jump\t// in\n    tag_128:\n        /* \"@chainlink/contracts/src/v0.8/ChainlinkClient.sol\":4373:4438  return _rawRequest(oracleAddress, nonce, payment, encodedRequest) */\n      swap3\n      pop\n      pop\n      pop\n        /* \"@chainlink/contracts/src/v0.8/ChainlinkClient.sol\":3687:4443  function sendChainlinkRequestTo(... */\n      swap4\n      swap3\n      pop\n      pop\n      pop\n      jump\t// out\n        /* \"@chainlink/contracts/src/v0.8/vendor/BufferChainlink.sol\":1001:1400  function init(buffer memory buf, uint256 capacity) internal pure returns (buffer memory) {... */\n    tag_117:\n        /* \"@chainlink/contracts/src/v0.8/vendor/BufferChainlink.sol\":1075:1088  buffer memory */\n      tag_130\n      tag_131\n      jump\t// in\n    tag_130:\n        /* \"@chainlink/contracts/src/v0.8/vendor/BufferChainlink.sol\":1117:1118  0 */\n      0x00\n        /* \"@chainlink/contracts/src/v0.8/vendor/BufferChainlink.sol\":1111:1113  32 */\n      0x20\n        /* \"@chainlink/contracts/src/v0.8/vendor/BufferChainlink.sol\":1100:1108  capacity */\n      dup4\n        /* \"@chainlink/contracts/src/v0.8/vendor/BufferChainlink.sol\":1100:1113  capacity % 32 */\n      tag_133\n      swap2\n      swap1\n      tag_134\n      jump\t// in\n    tag_133:\n        /* \"@chainlink/contracts/src/v0.8/vendor/BufferChainlink.sol\":1100:1118  capacity % 32 != 0 */\n      eq\n        /* \"@chainlink/contracts/src/v0.8/vendor/BufferChainlink.sol\":1096:1167  if (capacity % 32 != 0) {... */\n      tag_135\n      jumpi\n        /* \"@chainlink/contracts/src/v0.8/vendor/BufferChainlink.sol\":1157:1159  32 */\n      0x20\n        /* \"@chainlink/contracts/src/v0.8/vendor/BufferChainlink.sol\":1146:1154  capacity */\n      dup3\n        /* \"@chainlink/contracts/src/v0.8/vendor/BufferChainlink.sol\":1146:1159  capacity % 32 */\n      tag_136\n      swap2\n      swap1\n      tag_134\n      jump\t// in\n    tag_136:\n        /* \"@chainlink/contracts/src/v0.8/vendor/BufferChainlink.sol\":1140:1142  32 */\n      0x20\n        /* \"@chainlink/contracts/src/v0.8/vendor/BufferChainlink.sol\":1140:1160  32 - (capacity % 32) */\n      tag_137\n      swap2\n      swap1\n      tag_138\n      jump\t// in\n    tag_137:\n        /* \"@chainlink/contracts/src/v0.8/vendor/BufferChainlink.sol\":1128:1160  capacity += 32 - (capacity % 32) */\n      dup3\n      tag_139\n      swap2\n      swap1\n      tag_125\n      jump\t// in\n    tag_139:\n      swap2\n      pop\n        /* \"@chainlink/contracts/src/v0.8/vendor/BufferChainlink.sol\":1096:1167  if (capacity % 32 != 0) {... */\n    tag_135:\n        /* \"@chainlink/contracts/src/v0.8/vendor/BufferChainlink.sol\":1229:1237  capacity */\n      dup2\n        /* \"@chainlink/contracts/src/v0.8/vendor/BufferChainlink.sol\":1214:1217  buf */\n      dup4\n        /* \"@chainlink/contracts/src/v0.8/vendor/BufferChainlink.sol\":1214:1226  buf.capacity */\n      0x20\n      add\n        /* \"@chainlink/contracts/src/v0.8/vendor/BufferChainlink.sol\":1214:1237  buf.capacity = capacity */\n      dup2\n      dup2\n      mstore\n      pop\n      pop\n        /* \"@chainlink/contracts/src/v0.8/vendor/BufferChainlink.sol\":1277:1281  0x40 */\n      0x40\n        /* \"@chainlink/contracts/src/v0.8/vendor/BufferChainlink.sol\":1271:1282  mload(0x40) */\n      mload\n        /* \"@chainlink/contracts/src/v0.8/vendor/BufferChainlink.sol\":1301:1304  ptr */\n      dup1\n        /* \"@chainlink/contracts/src/v0.8/vendor/BufferChainlink.sol\":1296:1299  buf */\n      dup5\n        /* \"@chainlink/contracts/src/v0.8/vendor/BufferChainlink.sol\":1289:1305  mstore(buf, ptr) */\n      mstore\n        /* \"@chainlink/contracts/src/v0.8/vendor/BufferChainlink.sol\":1324:1325  0 */\n      0x00\n        /* \"@chainlink/contracts/src/v0.8/vendor/BufferChainlink.sol\":1319:1322  ptr */\n      dup2\n        /* \"@chainlink/contracts/src/v0.8/vendor/BufferChainlink.sol\":1312:1326  mstore(ptr, 0) */\n      mstore\n        /* \"@chainlink/contracts/src/v0.8/vendor/BufferChainlink.sol\":1363:1371  capacity */\n      dup3\n        /* \"@chainlink/contracts/src/v0.8/vendor/BufferChainlink.sol\":1358:1361  ptr */\n      dup2\n        /* \"@chainlink/contracts/src/v0.8/vendor/BufferChainlink.sol\":1354:1372  add(ptr, capacity) */\n      add\n        /* \"@chainlink/contracts/src/v0.8/vendor/BufferChainlink.sol\":1350:1352  32 */\n      0x20\n        /* \"@chainlink/contracts/src/v0.8/vendor/BufferChainlink.sol\":1346:1373  add(32, add(ptr, capacity)) */\n      add\n        /* \"@chainlink/contracts/src/v0.8/vendor/BufferChainlink.sol\":1340:1344  0x40 */\n      0x40\n        /* \"@chainlink/contracts/src/v0.8/vendor/BufferChainlink.sol\":1333:1374  mstore(0x40, add(32, add(ptr, capacity))) */\n      mstore\n        /* \"@chainlink/contracts/src/v0.8/vendor/BufferChainlink.sol\":1252:1380  {... */\n      pop\n        /* \"@chainlink/contracts/src/v0.8/vendor/BufferChainlink.sol\":1392:1395  buf */\n      dup3\n        /* \"@chainlink/contracts/src/v0.8/vendor/BufferChainlink.sol\":1385:1395  return buf */\n      swap1\n      pop\n        /* \"@chainlink/contracts/src/v0.8/vendor/BufferChainlink.sol\":1001:1400  function init(buffer memory buf, uint256 capacity) internal pure returns (buffer memory) {... */\n      swap3\n      swap2\n      pop\n      pop\n      jump\t// out\n        /* \"@chainlink/contracts/src/v0.8/vendor/CBORChainlink.sol\":682:1307  function encodeFixedNumeric(BufferChainlink.buffer memory buf, uint8 major, uint64 value) private pure {... */\n    tag_120:\n        /* \"@chainlink/contracts/src/v0.8/vendor/CBORChainlink.sol\":803:805  23 */\n      0x17\n        /* \"@chainlink/contracts/src/v0.8/vendor/CBORChainlink.sol\":794:799  value */\n      dup2\n        /* \"@chainlink/contracts/src/v0.8/vendor/CBORChainlink.sol\":794:805  value <= 23 */\n      0xffffffffffffffff\n      and\n      gt\n        /* \"@chainlink/contracts/src/v0.8/vendor/CBORChainlink.sol\":791:1303  if(value <= 23) {... */\n      tag_141\n      jumpi\n        /* \"@chainlink/contracts/src/v0.8/vendor/CBORChainlink.sol\":815:859  buf.appendUint8(uint8((major << 5) | value)) */\n      tag_142\n        /* \"@chainlink/contracts/src/v0.8/vendor/CBORChainlink.sol\":852:857  value */\n      dup2\n        /* \"@chainlink/contracts/src/v0.8/vendor/CBORChainlink.sol\":847:848  5 */\n      0x05\n        /* \"@chainlink/contracts/src/v0.8/vendor/CBORChainlink.sol\":838:843  major */\n      dup5\n        /* \"@chainlink/contracts/src/v0.8/vendor/CBORChainlink.sol\":838:848  major << 5 */\n      0xff\n      and\n      swap1\n      shl\n        /* \"@chainlink/contracts/src/v0.8/vendor/CBORChainlink.sol\":837:857  (major << 5) | value */\n      0xff\n      and\n      or\n        /* \"@chainlink/contracts/src/v0.8/vendor/CBORChainlink.sol\":815:818  buf */\n      dup5\n        /* \"@chainlink/contracts/src/v0.8/vendor/CBORChainlink.sol\":815:830  buf.appendUint8 */\n      tag_143\n      swap1\n        /* \"@chainlink/contracts/src/v0.8/vendor/CBORChainlink.sol\":815:859  buf.appendUint8(uint8((major << 5) | value)) */\n      swap2\n      swap1\n      0xffffffff\n      and\n      jump\t// in\n    tag_142:\n      pop\n        /* \"@chainlink/contracts/src/v0.8/vendor/CBORChainlink.sol\":791:1303  if(value <= 23) {... */\n      jump(tag_144)\n    tag_141:\n        /* \"@chainlink/contracts/src/v0.8/vendor/CBORChainlink.sol\":885:889  0xFF */\n      0xff\n        /* \"@chainlink/contracts/src/v0.8/vendor/CBORChainlink.sol\":876:881  value */\n      dup2\n        /* \"@chainlink/contracts/src/v0.8/vendor/CBORChainlink.sol\":876:889  value <= 0xFF */\n      0xffffffffffffffff\n      and\n      gt\n        /* \"@chainlink/contracts/src/v0.8/vendor/CBORChainlink.sol\":872:1303  if (value <= 0xFF) {... */\n      tag_145\n      jumpi\n        /* \"@chainlink/contracts/src/v0.8/vendor/CBORChainlink.sol\":899:940  buf.appendUint8(uint8((major << 5) | 24)) */\n      tag_146\n        /* \"@chainlink/contracts/src/v0.8/vendor/CBORChainlink.sol\":936:938  24 */\n      0x18\n        /* \"@chainlink/contracts/src/v0.8/vendor/CBORChainlink.sol\":931:932  5 */\n      0x05\n        /* \"@chainlink/contracts/src/v0.8/vendor/CBORChainlink.sol\":922:927  major */\n      dup5\n        /* \"@chainlink/contracts/src/v0.8/vendor/CBORChainlink.sol\":922:932  major << 5 */\n      0xff\n      and\n      swap1\n      shl\n        /* \"@chainlink/contracts/src/v0.8/vendor/CBORChainlink.sol\":921:938  (major << 5) | 24 */\n      or\n        /* \"@chainlink/contracts/src/v0.8/vendor/CBORChainlink.sol\":899:902  buf */\n      dup5\n        /* \"@chainlink/contracts/src/v0.8/vendor/CBORChainlink.sol\":899:914  buf.appendUint8 */\n      tag_143\n      swap1\n        /* \"@chainlink/contracts/src/v0.8/vendor/CBORChainlink.sol\":899:940  buf.appendUint8(uint8((major << 5) | 24)) */\n      swap2\n      swap1\n      0xffffffff\n      and\n      jump\t// in\n    tag_146:\n      pop\n        /* \"@chainlink/contracts/src/v0.8/vendor/CBORChainlink.sol\":948:971  buf.appendInt(value, 1) */\n      tag_147\n        /* \"@chainlink/contracts/src/v0.8/vendor/CBORChainlink.sol\":962:967  value */\n      dup2\n        /* \"@chainlink/contracts/src/v0.8/vendor/CBORChainlink.sol\":948:971  buf.appendInt(value, 1) */\n      0xffffffffffffffff\n      and\n        /* \"@chainlink/contracts/src/v0.8/vendor/CBORChainlink.sol\":969:970  1 */\n      0x01\n        /* \"@chainlink/contracts/src/v0.8/vendor/CBORChainlink.sol\":948:951  buf */\n      dup6\n        /* \"@chainlink/contracts/src/v0.8/vendor/CBORChainlink.sol\":948:961  buf.appendInt */\n      tag_148\n      swap1\n        /* \"@chainlink/contracts/src/v0.8/vendor/CBORChainlink.sol\":948:971  buf.appendInt(value, 1) */\n      swap3\n      swap2\n      swap1\n      0xffffffff\n      and\n      jump\t// in\n    tag_147:\n      pop\n        /* \"@chainlink/contracts/src/v0.8/vendor/CBORChainlink.sol\":872:1303  if (value <= 0xFF) {... */\n      jump(tag_149)\n    tag_145:\n        /* \"@chainlink/contracts/src/v0.8/vendor/CBORChainlink.sol\":997:1003  0xFFFF */\n      0xffff\n        /* \"@chainlink/contracts/src/v0.8/vendor/CBORChainlink.sol\":988:993  value */\n      dup2\n        /* \"@chainlink/contracts/src/v0.8/vendor/CBORChainlink.sol\":988:1003  value <= 0xFFFF */\n      0xffffffffffffffff\n      and\n      gt\n        /* \"@chainlink/contracts/src/v0.8/vendor/CBORChainlink.sol\":984:1303  if (value <= 0xFFFF) {... */\n      tag_150\n      jumpi\n        /* \"@chainlink/contracts/src/v0.8/vendor/CBORChainlink.sol\":1013:1054  buf.appendUint8(uint8((major << 5) | 25)) */\n      tag_151\n        /* \"@chainlink/contracts/src/v0.8/vendor/CBORChainlink.sol\":1050:1052  25 */\n      0x19\n        /* \"@chainlink/contracts/src/v0.8/vendor/CBORChainlink.sol\":1045:1046  5 */\n      0x05\n        /* \"@chainlink/contracts/src/v0.8/vendor/CBORChainlink.sol\":1036:1041  major */\n      dup5\n        /* \"@chainlink/contracts/src/v0.8/vendor/CBORChainlink.sol\":1036:1046  major << 5 */\n      0xff\n      and\n      swap1\n      shl\n        /* \"@chainlink/contracts/src/v0.8/vendor/CBORChainlink.sol\":1035:1052  (major << 5) | 25 */\n      or\n        /* \"@chainlink/contracts/src/v0.8/vendor/CBORChainlink.sol\":1013:1016  buf */\n      dup5\n        /* \"@chainlink/contracts/src/v0.8/vendor/CBORChainlink.sol\":1013:1028  buf.appendUint8 */\n      tag_143\n      swap1\n        /* \"@chainlink/contracts/src/v0.8/vendor/CBORChainlink.sol\":1013:1054  buf.appendUint8(uint8((major << 5) | 25)) */\n      swap2\n      swap1\n      0xffffffff\n      and\n      jump\t// in\n    tag_151:\n      pop\n        /* \"@chainlink/contracts/src/v0.8/vendor/CBORChainlink.sol\":1062:1085  buf.appendInt(value, 2) */\n      tag_152\n        /* \"@chainlink/contracts/src/v0.8/vendor/CBORChainlink.sol\":1076:1081  value */\n      dup2\n        /* \"@chainlink/contracts/src/v0.8/vendor/CBORChainlink.sol\":1062:1085  buf.appendInt(value, 2) */\n      0xffffffffffffffff\n      and\n        /* \"@chainlink/contracts/src/v0.8/vendor/CBORChainlink.sol\":1083:1084  2 */\n      0x02\n        /* \"@chainlink/contracts/src/v0.8/vendor/CBORChainlink.sol\":1062:1065  buf */\n      dup6\n        /* \"@chainlink/contracts/src/v0.8/vendor/CBORChainlink.sol\":1062:1075  buf.appendInt */\n      tag_148\n      swap1\n        /* \"@chainlink/contracts/src/v0.8/vendor/CBORChainlink.sol\":1062:1085  buf.appendInt(value, 2) */\n      swap3\n      swap2\n      swap1\n      0xffffffff\n      and\n      jump\t// in\n    tag_152:\n      pop\n        /* \"@chainlink/contracts/src/v0.8/vendor/CBORChainlink.sol\":984:1303  if (value <= 0xFFFF) {... */\n      jump(tag_153)\n    tag_150:\n        /* \"@chainlink/contracts/src/v0.8/vendor/CBORChainlink.sol\":1111:1121  0xFFFFFFFF */\n      0xffffffff\n        /* \"@chainlink/contracts/src/v0.8/vendor/CBORChainlink.sol\":1102:1107  value */\n      dup2\n        /* \"@chainlink/contracts/src/v0.8/vendor/CBORChainlink.sol\":1102:1121  value <= 0xFFFFFFFF */\n      0xffffffffffffffff\n      and\n      gt\n        /* \"@chainlink/contracts/src/v0.8/vendor/CBORChainlink.sol\":1098:1303  if (value <= 0xFFFFFFFF) {... */\n      tag_154\n      jumpi\n        /* \"@chainlink/contracts/src/v0.8/vendor/CBORChainlink.sol\":1131:1172  buf.appendUint8(uint8((major << 5) | 26)) */\n      tag_155\n        /* \"@chainlink/contracts/src/v0.8/vendor/CBORChainlink.sol\":1168:1170  26 */\n      0x1a\n        /* \"@chainlink/contracts/src/v0.8/vendor/CBORChainlink.sol\":1163:1164  5 */\n      0x05\n        /* \"@chainlink/contracts/src/v0.8/vendor/CBORChainlink.sol\":1154:1159  major */\n      dup5\n        /* \"@chainlink/contracts/src/v0.8/vendor/CBORChainlink.sol\":1154:1164  major << 5 */\n      0xff\n      and\n      swap1\n      shl\n        /* \"@chainlink/contracts/src/v0.8/vendor/CBORChainlink.sol\":1153:1170  (major << 5) | 26 */\n      or\n        /* \"@chainlink/contracts/src/v0.8/vendor/CBORChainlink.sol\":1131:1134  buf */\n      dup5\n        /* \"@chainlink/contracts/src/v0.8/vendor/CBORChainlink.sol\":1131:1146  buf.appendUint8 */\n      tag_143\n      swap1\n        /* \"@chainlink/contracts/src/v0.8/vendor/CBORChainlink.sol\":1131:1172  buf.appendUint8(uint8((major << 5) | 26)) */\n      swap2\n      swap1\n      0xffffffff\n      and\n      jump\t// in\n    tag_155:\n      pop\n        /* \"@chainlink/contracts/src/v0.8/vendor/CBORChainlink.sol\":1180:1203  buf.appendInt(value, 4) */\n      tag_156\n        /* \"@chainlink/contracts/src/v0.8/vendor/CBORChainlink.sol\":1194:1199  value */\n      dup2\n        /* \"@chainlink/contracts/src/v0.8/vendor/CBORChainlink.sol\":1180:1203  buf.appendInt(value, 4) */\n      0xffffffffffffffff\n      and\n        /* \"@chainlink/contracts/src/v0.8/vendor/CBORChainlink.sol\":1201:1202  4 */\n      0x04\n        /* \"@chainlink/contracts/src/v0.8/vendor/CBORChainlink.sol\":1180:1183  buf */\n      dup6\n        /* \"@chainlink/contracts/src/v0.8/vendor/CBORChainlink.sol\":1180:1193  buf.appendInt */\n      tag_148\n      swap1\n        /* \"@chainlink/contracts/src/v0.8/vendor/CBORChainlink.sol\":1180:1203  buf.appendInt(value, 4) */\n      swap3\n      swap2\n      swap1\n      0xffffffff\n      and\n      jump\t// in\n    tag_156:\n      pop\n        /* \"@chainlink/contracts/src/v0.8/vendor/CBORChainlink.sol\":1098:1303  if (value <= 0xFFFFFFFF) {... */\n      jump(tag_157)\n    tag_154:\n        /* \"@chainlink/contracts/src/v0.8/vendor/CBORChainlink.sol\":1224:1265  buf.appendUint8(uint8((major << 5) | 27)) */\n      tag_158\n        /* \"@chainlink/contracts/src/v0.8/vendor/CBORChainlink.sol\":1261:1263  27 */\n      0x1b\n        /* \"@chainlink/contracts/src/v0.8/vendor/CBORChainlink.sol\":1256:1257  5 */\n      0x05\n        /* \"@chainlink/contracts/src/v0.8/vendor/CBORChainlink.sol\":1247:1252  major */\n      dup5\n        /* \"@chainlink/contracts/src/v0.8/vendor/CBORChainlink.sol\":1247:1257  major << 5 */\n      0xff\n      and\n      swap1\n      shl\n        /* \"@chainlink/contracts/src/v0.8/vendor/CBORChainlink.sol\":1246:1263  (major << 5) | 27 */\n      or\n        /* \"@chainlink/contracts/src/v0.8/vendor/CBORChainlink.sol\":1224:1227  buf */\n      dup5\n        /* \"@chainlink/contracts/src/v0.8/vendor/CBORChainlink.sol\":1224:1239  buf.appendUint8 */\n      tag_143\n      swap1\n        /* \"@chainlink/contracts/src/v0.8/vendor/CBORChainlink.sol\":1224:1265  buf.appendUint8(uint8((major << 5) | 27)) */\n      swap2\n      swap1\n      0xffffffff\n      and\n      jump\t// in\n    tag_158:\n      pop\n        /* \"@chainlink/contracts/src/v0.8/vendor/CBORChainlink.sol\":1273:1296  buf.appendInt(value, 8) */\n      tag_159\n        /* \"@chainlink/contracts/src/v0.8/vendor/CBORChainlink.sol\":1287:1292  value */\n      dup2\n        /* \"@chainlink/contracts/src/v0.8/vendor/CBORChainlink.sol\":1273:1296  buf.appendInt(value, 8) */\n      0xffffffffffffffff\n      and\n        /* \"@chainlink/contracts/src/v0.8/vendor/CBORChainlink.sol\":1294:1295  8 */\n      0x08\n        /* \"@chainlink/contracts/src/v0.8/vendor/CBORChainlink.sol\":1273:1276  buf */\n      dup6\n        /* \"@chainlink/contracts/src/v0.8/vendor/CBORChainlink.sol\":1273:1286  buf.appendInt */\n      tag_148\n      swap1\n        /* \"@chainlink/contracts/src/v0.8/vendor/CBORChainlink.sol\":1273:1296  buf.appendInt(value, 8) */\n      swap3\n      swap2\n      swap1\n      0xffffffff\n      and\n      jump\t// in\n    tag_159:\n      pop\n        /* \"@chainlink/contracts/src/v0.8/vendor/CBORChainlink.sol\":1098:1303  if (value <= 0xFFFFFFFF) {... */\n    tag_157:\n        /* \"@chainlink/contracts/src/v0.8/vendor/CBORChainlink.sol\":984:1303  if (value <= 0xFFFF) {... */\n    tag_153:\n        /* \"@chainlink/contracts/src/v0.8/vendor/CBORChainlink.sol\":872:1303  if (value <= 0xFF) {... */\n    tag_149:\n        /* \"@chainlink/contracts/src/v0.8/vendor/CBORChainlink.sol\":791:1303  if(value <= 23) {... */\n    tag_144:\n        /* \"@chainlink/contracts/src/v0.8/vendor/CBORChainlink.sol\":682:1307  function encodeFixedNumeric(BufferChainlink.buffer memory buf, uint8 major, uint64 value) private pure {... */\n      pop\n      pop\n      pop\n      jump\t// out\n        /* \"@chainlink/contracts/src/v0.8/vendor/BufferChainlink.sol\":4692:4847  function append(buffer memory buf, bytes memory data) internal pure returns (buffer memory) {... */\n    tag_122:\n        /* \"@chainlink/contracts/src/v0.8/vendor/BufferChainlink.sol\":4769:4782  buffer memory */\n      tag_160\n      tag_131\n      jump\t// in\n    tag_160:\n        /* \"@chainlink/contracts/src/v0.8/vendor/BufferChainlink.sol\":4797:4842  write(buf, buf.buf.length, data, data.length) */\n      tag_162\n        /* \"@chainlink/contracts/src/v0.8/vendor/BufferChainlink.sol\":4803:4806  buf */\n      dup4\n        /* \"@chainlink/contracts/src/v0.8/vendor/BufferChainlink.sol\":4808:4811  buf */\n      dup5\n        /* \"@chainlink/contracts/src/v0.8/vendor/BufferChainlink.sol\":4808:4815  buf.buf */\n      0x00\n      add\n      mload\n        /* \"@chainlink/contracts/src/v0.8/vendor/BufferChainlink.sol\":4808:4822  buf.buf.length */\n      mload\n        /* \"@chainlink/contracts/src/v0.8/vendor/BufferChainlink.sol\":4824:4828  data */\n      dup5\n        /* \"@chainlink/contracts/src/v0.8/vendor/BufferChainlink.sol\":4830:4834  data */\n      dup6\n        /* \"@chainlink/contracts/src/v0.8/vendor/BufferChainlink.sol\":4830:4841  data.length */\n      mload\n        /* \"@chainlink/contracts/src/v0.8/vendor/BufferChainlink.sol\":4797:4802  write */\n      tag_163\n        /* \"@chainlink/contracts/src/v0.8/vendor/BufferChainlink.sol\":4797:4842  write(buf, buf.buf.length, data, data.length) */\n      jump\t// in\n    tag_162:\n        /* \"@chainlink/contracts/src/v0.8/vendor/BufferChainlink.sol\":4790:4842  return write(buf, buf.buf.length, data, data.length) */\n      swap1\n      pop\n        /* \"@chainlink/contracts/src/v0.8/vendor/BufferChainlink.sol\":4692:4847  function append(buffer memory buf, bytes memory data) internal pure returns (buffer memory) {... */\n      swap3\n      swap2\n      pop\n      pop\n      jump\t// out\n        /* \"@chainlink/contracts/src/v0.8/ChainlinkClient.sol\":6629:7059  function _rawRequest(... */\n    tag_129:\n        /* \"@chainlink/contracts/src/v0.8/ChainlinkClient.sol\":6771:6788  bytes32 requestId */\n      0x00\n        /* \"@chainlink/contracts/src/v0.8/ChainlinkClient.sol\":6835:6839  this */\n      address\n        /* \"@chainlink/contracts/src/v0.8/ChainlinkClient.sol\":6841:6846  nonce */\n      dup5\n        /* \"@chainlink/contracts/src/v0.8/ChainlinkClient.sol\":6818:6847  abi.encodePacked(this, nonce) */\n      add(0x20, mload(0x40))\n      tag_165\n      swap3\n      swap2\n      swap1\n      tag_166\n      jump\t// in\n    tag_165:\n      mload(0x40)\n      0x20\n      dup2\n      dup4\n      sub\n      sub\n      dup2\n      mstore\n      swap1\n      0x40\n      mstore\n        /* \"@chainlink/contracts/src/v0.8/ChainlinkClient.sol\":6808:6848  keccak256(abi.encodePacked(this, nonce)) */\n      dup1\n      mload\n      swap1\n      0x20\n      add\n      keccak256\n        /* \"@chainlink/contracts/src/v0.8/ChainlinkClient.sol\":6796:6848  requestId = keccak256(abi.encodePacked(this, nonce)) */\n      swap1\n      pop\n        /* \"@chainlink/contracts/src/v0.8/ChainlinkClient.sol\":6885:6898  oracleAddress */\n      dup5\n        /* \"@chainlink/contracts/src/v0.8/ChainlinkClient.sol\":6854:6871  s_pendingRequests */\n      0x05\n        /* \"@chainlink/contracts/src/v0.8/ChainlinkClient.sol\":6854:6882  s_pendingRequests[requestId] */\n      0x00\n        /* \"@chainlink/contracts/src/v0.8/ChainlinkClient.sol\":6872:6881  requestId */\n      dup4\n        /* \"@chainlink/contracts/src/v0.8/ChainlinkClient.sol\":6854:6882  s_pendingRequests[requestId] */\n      dup2\n      mstore\n      0x20\n      add\n      swap1\n      dup2\n      mstore\n      0x20\n      add\n      0x00\n      keccak256\n      0x00\n        /* \"@chainlink/contracts/src/v0.8/ChainlinkClient.sol\":6854:6898  s_pendingRequests[requestId] = oracleAddress */\n      0x0100\n      exp\n      dup2\n      sload\n      dup2\n      0xffffffffffffffffffffffffffffffffffffffff\n      mul\n      not\n      and\n      swap1\n      dup4\n      0xffffffffffffffffffffffffffffffffffffffff\n      and\n      mul\n      or\n      swap1\n      sstore\n      pop\n        /* \"@chainlink/contracts/src/v0.8/ChainlinkClient.sol\":6928:6937  requestId */\n      dup1\n        /* \"@chainlink/contracts/src/v0.8/ChainlinkClient.sol\":6909:6938  ChainlinkRequested(requestId) */\n      0xb5e6e01e79f91267dc17b4e6314d5d4d03593d2ceee0fbb452b750bd70ea5af9\n      mload(0x40)\n      mload(0x40)\n      dup1\n      swap2\n      sub\n      swap1\n      log2\n        /* \"@chainlink/contracts/src/v0.8/ChainlinkClient.sol\":6952:6958  s_link */\n      0x02\n      0x00\n      swap1\n      sload\n      swap1\n      0x0100\n      exp\n      swap1\n      div\n      0xffffffffffffffffffffffffffffffffffffffff\n      and\n        /* \"@chainlink/contracts/src/v0.8/ChainlinkClient.sol\":6952:6974  s_link.transferAndCall */\n      0xffffffffffffffffffffffffffffffffffffffff\n      and\n      0x4000aea0\n        /* \"@chainlink/contracts/src/v0.8/ChainlinkClient.sol\":6975:6988  oracleAddress */\n      dup7\n        /* \"@chainlink/contracts/src/v0.8/ChainlinkClient.sol\":6990:6997  payment */\n      dup6\n        /* \"@chainlink/contracts/src/v0.8/ChainlinkClient.sol\":6999:7013  encodedRequest */\n      dup6\n        /* \"@chainlink/contracts/src/v0.8/ChainlinkClient.sol\":6952:7014  s_link.transferAndCall(oracleAddress, payment, encodedRequest) */\n      mload(0x40)\n      dup5\n      0xffffffff\n      and\n      0xe0\n      shl\n      dup2\n      mstore\n      0x04\n      add\n      tag_167\n      swap4\n      swap3\n      swap2\n      swap1\n      tag_168\n      jump\t// in\n    tag_167:\n      0x20\n      mload(0x40)\n      dup1\n      dup4\n      sub\n      dup2\n      0x00\n      dup8\n      dup1\n      extcodesize\n      iszero\n      dup1\n      iszero\n      tag_169\n      jumpi\n      0x00\n      dup1\n      revert\n    tag_169:\n      pop\n      gas\n      call\n      iszero\n      dup1\n      iszero\n      tag_171\n      jumpi\n      returndatasize\n      0x00\n      dup1\n      returndatacopy\n      revert(0x00, returndatasize)\n    tag_171:\n      pop\n      pop\n      pop\n      pop\n      mload(0x40)\n      returndatasize\n      not(0x1f)\n      0x1f\n      dup3\n      add\n      and\n      dup3\n      add\n      dup1\n      0x40\n      mstore\n      pop\n      dup2\n      add\n      swap1\n      tag_172\n      swap2\n      swap1\n      tag_173\n      jump\t// in\n    tag_172:\n        /* \"@chainlink/contracts/src/v0.8/ChainlinkClient.sol\":6944:7054  require(s_link.transferAndCall(oracleAddress, payment, encodedRequest), \"unable to transferAndCall to oracle\") */\n      tag_174\n      jumpi\n      mload(0x40)\n      0x08c379a000000000000000000000000000000000000000000000000000000000\n      dup2\n      mstore\n      0x04\n      add\n      tag_175\n      swap1\n      tag_176\n      jump\t// in\n    tag_175:\n      mload(0x40)\n      dup1\n      swap2\n      sub\n      swap1\n      revert\n    tag_174:\n        /* \"@chainlink/contracts/src/v0.8/ChainlinkClient.sol\":6629:7059  function _rawRequest(... */\n      swap5\n      swap4\n      pop\n      pop\n      pop\n      pop\n      jump\t// out\n        /* \"@chainlink/contracts/src/v0.8/vendor/BufferChainlink.sol\":6040:6185  function appendUint8(buffer memory buf, uint8 data) internal pure returns (buffer memory) {... */\n    tag_143:\n        /* \"@chainlink/contracts/src/v0.8/vendor/BufferChainlink.sol\":6115:6128  buffer memory */\n      tag_177\n      tag_131\n      jump\t// in\n    tag_177:\n        /* \"@chainlink/contracts/src/v0.8/vendor/BufferChainlink.sol\":6143:6180  writeUint8(buf, buf.buf.length, data) */\n      tag_179\n        /* \"@chainlink/contracts/src/v0.8/vendor/BufferChainlink.sol\":6154:6157  buf */\n      dup4\n        /* \"@chainlink/contracts/src/v0.8/vendor/BufferChainlink.sol\":6159:6162  buf */\n      dup5\n        /* \"@chainlink/contracts/src/v0.8/vendor/BufferChainlink.sol\":6159:6166  buf.buf */\n      0x00\n      add\n      mload\n        /* \"@chainlink/contracts/src/v0.8/vendor/BufferChainlink.sol\":6159:6173  buf.buf.length */\n      mload\n        /* \"@chainlink/contracts/src/v0.8/vendor/BufferChainlink.sol\":6175:6179  data */\n      dup5\n        /* \"@chainlink/contracts/src/v0.8/vendor/BufferChainlink.sol\":6143:6153  writeUint8 */\n      tag_180\n        /* \"@chainlink/contracts/src/v0.8/vendor/BufferChainlink.sol\":6143:6180  writeUint8(buf, buf.buf.length, data) */\n      jump\t// in\n    tag_179:\n        /* \"@chainlink/contracts/src/v0.8/vendor/BufferChainlink.sol\":6136:6180  return writeUint8(buf, buf.buf.length, data) */\n      swap1\n      pop\n        /* \"@chainlink/contracts/src/v0.8/vendor/BufferChainlink.sol\":6040:6185  function appendUint8(buffer memory buf, uint8 data) internal pure returns (buffer memory) {... */\n      swap3\n      swap2\n      pop\n      pop\n      jump\t// out\n        /* \"@chainlink/contracts/src/v0.8/vendor/BufferChainlink.sol\":9894:10071  function appendInt(... */\n    tag_148:\n        /* \"@chainlink/contracts/src/v0.8/vendor/BufferChainlink.sol\":9998:10011  buffer memory */\n      tag_181\n      tag_131\n      jump\t// in\n    tag_181:\n        /* \"@chainlink/contracts/src/v0.8/vendor/BufferChainlink.sol\":10026:10066  writeInt(buf, buf.buf.length, data, len) */\n      tag_183\n        /* \"@chainlink/contracts/src/v0.8/vendor/BufferChainlink.sol\":10035:10038  buf */\n      dup5\n        /* \"@chainlink/contracts/src/v0.8/vendor/BufferChainlink.sol\":10040:10043  buf */\n      dup6\n        /* \"@chainlink/contracts/src/v0.8/vendor/BufferChainlink.sol\":10040:10047  buf.buf */\n      0x00\n      add\n      mload\n        /* \"@chainlink/contracts/src/v0.8/vendor/BufferChainlink.sol\":10040:10054  buf.buf.length */\n      mload\n        /* \"@chainlink/contracts/src/v0.8/vendor/BufferChainlink.sol\":10056:10060  data */\n      dup6\n        /* \"@chainlink/contracts/src/v0.8/vendor/BufferChainlink.sol\":10062:10065  len */\n      dup6\n        /* \"@chainlink/contracts/src/v0.8/vendor/BufferChainlink.sol\":10026:10034  writeInt */\n      tag_184\n        /* \"@chainlink/contracts/src/v0.8/vendor/BufferChainlink.sol\":10026:10066  writeInt(buf, buf.buf.length, data, len) */\n      jump\t// in\n    tag_183:\n        /* \"@chainlink/contracts/src/v0.8/vendor/BufferChainlink.sol\":10019:10066  return writeInt(buf, buf.buf.length, data, len) */\n      swap1\n      pop\n        /* \"@chainlink/contracts/src/v0.8/vendor/BufferChainlink.sol\":9894:10071  function appendInt(... */\n      swap4\n      swap3\n      pop\n      pop\n      pop\n      jump\t// out\n        /* \"@chainlink/contracts/src/v0.8/vendor/BufferChainlink.sol\":2745:3955  function write(... */\n    tag_163:\n        /* \"@chainlink/contracts/src/v0.8/vendor/BufferChainlink.sol\":2867:2880  buffer memory */\n      tag_185\n      tag_131\n      jump\t// in\n    tag_185:\n        /* \"@chainlink/contracts/src/v0.8/vendor/BufferChainlink.sol\":2903:2907  data */\n      dup3\n        /* \"@chainlink/contracts/src/v0.8/vendor/BufferChainlink.sol\":2903:2914  data.length */\n      mload\n        /* \"@chainlink/contracts/src/v0.8/vendor/BufferChainlink.sol\":2896:2899  len */\n      dup3\n        /* \"@chainlink/contracts/src/v0.8/vendor/BufferChainlink.sol\":2896:2914  len <= data.length */\n      gt\n      iszero\n        /* \"@chainlink/contracts/src/v0.8/vendor/BufferChainlink.sol\":2888:2915  require(len <= data.length) */\n      tag_187\n      jumpi\n      0x00\n      dup1\n      revert\n    tag_187:\n        /* \"@chainlink/contracts/src/v0.8/vendor/BufferChainlink.sol\":2938:2941  buf */\n      dup5\n        /* \"@chainlink/contracts/src/v0.8/vendor/BufferChainlink.sol\":2938:2950  buf.capacity */\n      0x20\n      add\n      mload\n        /* \"@chainlink/contracts/src/v0.8/vendor/BufferChainlink.sol\":2932:2935  len */\n      dup3\n        /* \"@chainlink/contracts/src/v0.8/vendor/BufferChainlink.sol\":2926:2929  off */\n      dup6\n        /* \"@chainlink/contracts/src/v0.8/vendor/BufferChainlink.sol\":2926:2935  off + len */\n      tag_188\n      swap2\n      swap1\n      tag_125\n      jump\t// in\n    tag_188:\n        /* \"@chainlink/contracts/src/v0.8/vendor/BufferChainlink.sol\":2926:2950  off + len > buf.capacity */\n      gt\n        /* \"@chainlink/contracts/src/v0.8/vendor/BufferChainlink.sol\":2922:3012  if (off + len > buf.capacity) {... */\n      iszero\n      tag_189\n      jumpi\n        /* \"@chainlink/contracts/src/v0.8/vendor/BufferChainlink.sol\":2960:3005  resize(buf, max(buf.capacity, len + off) * 2) */\n      tag_190\n        /* \"@chainlink/contracts/src/v0.8/vendor/BufferChainlink.sol\":2967:2970  buf */\n      dup6\n        /* \"@chainlink/contracts/src/v0.8/vendor/BufferChainlink.sol\":3003:3004  2 */\n      0x02\n        /* \"@chainlink/contracts/src/v0.8/vendor/BufferChainlink.sol\":2972:3000  max(buf.capacity, len + off) */\n      tag_191\n        /* \"@chainlink/contracts/src/v0.8/vendor/BufferChainlink.sol\":2976:2979  buf */\n      dup9\n        /* \"@chainlink/contracts/src/v0.8/vendor/BufferChainlink.sol\":2976:2988  buf.capacity */\n      0x20\n      add\n      mload\n        /* \"@chainlink/contracts/src/v0.8/vendor/BufferChainlink.sol\":2996:2999  off */\n      dup9\n        /* \"@chainlink/contracts/src/v0.8/vendor/BufferChainlink.sol\":2990:2993  len */\n      dup8\n        /* \"@chainlink/contracts/src/v0.8/vendor/BufferChainlink.sol\":2990:2999  len + off */\n      tag_192\n      swap2\n      swap1\n      tag_125\n      jump\t// in\n    tag_192:\n        /* \"@chainlink/contracts/src/v0.8/vendor/BufferChainlink.sol\":2972:2975  max */\n      tag_193\n        /* \"@chainlink/contracts/src/v0.8/vendor/BufferChainlink.sol\":2972:3000  max(buf.capacity, len + off) */\n      jump\t// in\n    tag_191:\n        /* \"@chainlink/contracts/src/v0.8/vendor/BufferChainlink.sol\":2972:3004  max(buf.capacity, len + off) * 2 */\n      tag_194\n      swap2\n      swap1\n      tag_195\n      jump\t// in\n    tag_194:\n        /* \"@chainlink/contracts/src/v0.8/vendor/BufferChainlink.sol\":2960:2966  resize */\n      tag_196\n        /* \"@chainlink/contracts/src/v0.8/vendor/BufferChainlink.sol\":2960:3005  resize(buf, max(buf.capacity, len + off) * 2) */\n      jump\t// in\n    tag_190:\n        /* \"@chainlink/contracts/src/v0.8/vendor/BufferChainlink.sol\":2922:3012  if (off + len > buf.capacity) {... */\n    tag_189:\n        /* \"@chainlink/contracts/src/v0.8/vendor/BufferChainlink.sol\":3018:3030  uint256 dest */\n      0x00\n        /* \"@chainlink/contracts/src/v0.8/vendor/BufferChainlink.sol\":3036:3047  uint256 src */\n      dup1\n        /* \"@chainlink/contracts/src/v0.8/vendor/BufferChainlink.sol\":3133:3136  buf */\n      dup7\n        /* \"@chainlink/contracts/src/v0.8/vendor/BufferChainlink.sol\":3127:3137  mload(buf) */\n      mload\n        /* \"@chainlink/contracts/src/v0.8/vendor/BufferChainlink.sol\":3204:3210  bufptr */\n      dup1\n        /* \"@chainlink/contracts/src/v0.8/vendor/BufferChainlink.sol\":3198:3211  mload(bufptr) */\n      mload\n        /* \"@chainlink/contracts/src/v0.8/vendor/BufferChainlink.sol\":3320:3323  off */\n      dup8\n        /* \"@chainlink/contracts/src/v0.8/vendor/BufferChainlink.sol\":3315:3317  32 */\n      0x20\n        /* \"@chainlink/contracts/src/v0.8/vendor/BufferChainlink.sol\":3307:3313  bufptr */\n      dup4\n        /* \"@chainlink/contracts/src/v0.8/vendor/BufferChainlink.sol\":3303:3318  add(bufptr, 32) */\n      add\n        /* \"@chainlink/contracts/src/v0.8/vendor/BufferChainlink.sol\":3299:3324  add(add(bufptr, 32), off) */\n      add\n        /* \"@chainlink/contracts/src/v0.8/vendor/BufferChainlink.sol\":3291:3324  dest := add(add(bufptr, 32), off) */\n      swap4\n      pop\n        /* \"@chainlink/contracts/src/v0.8/vendor/BufferChainlink.sol\":3404:3410  buflen */\n      dup1\n        /* \"@chainlink/contracts/src/v0.8/vendor/BufferChainlink.sol\":3398:3401  off */\n      dup9\n        /* \"@chainlink/contracts/src/v0.8/vendor/BufferChainlink.sol\":3393:3396  len */\n      dup8\n        /* \"@chainlink/contracts/src/v0.8/vendor/BufferChainlink.sol\":3389:3402  add(len, off) */\n      add\n        /* \"@chainlink/contracts/src/v0.8/vendor/BufferChainlink.sol\":3386:3411  gt(add(len, off), buflen) */\n      gt\n        /* \"@chainlink/contracts/src/v0.8/vendor/BufferChainlink.sol\":3383:3459  if gt(add(len, off), buflen) {... */\n      iszero\n      tag_197\n      jumpi\n        /* \"@chainlink/contracts/src/v0.8/vendor/BufferChainlink.sol\":3446:3449  off */\n      dup8\n        /* \"@chainlink/contracts/src/v0.8/vendor/BufferChainlink.sol\":3441:3444  len */\n      dup7\n        /* \"@chainlink/contracts/src/v0.8/vendor/BufferChainlink.sol\":3437:3450  add(len, off) */\n      add\n        /* \"@chainlink/contracts/src/v0.8/vendor/BufferChainlink.sol\":3429:3435  bufptr */\n      dup3\n        /* \"@chainlink/contracts/src/v0.8/vendor/BufferChainlink.sol\":3422:3451  mstore(bufptr, add(len, off)) */\n      mstore\n        /* \"@chainlink/contracts/src/v0.8/vendor/BufferChainlink.sol\":3383:3459  if gt(add(len, off), buflen) {... */\n    tag_197:\n        /* \"@chainlink/contracts/src/v0.8/vendor/BufferChainlink.sol\":3483:3485  32 */\n      0x20\n        /* \"@chainlink/contracts/src/v0.8/vendor/BufferChainlink.sol\":3477:3481  data */\n      dup8\n        /* \"@chainlink/contracts/src/v0.8/vendor/BufferChainlink.sol\":3473:3486  add(data, 32) */\n      add\n        /* \"@chainlink/contracts/src/v0.8/vendor/BufferChainlink.sol\":3466:3486  src := add(data, 32) */\n      swap3\n      pop\n        /* \"@chainlink/contracts/src/v0.8/vendor/BufferChainlink.sol\":3062:3492  {... */\n      pop\n      pop\n        /* \"@chainlink/contracts/src/v0.8/vendor/BufferChainlink.sol\":3544:3673  for (; len >= 32; len -= 32) {... */\n    tag_198:\n        /* \"@chainlink/contracts/src/v0.8/vendor/BufferChainlink.sol\":3558:3560  32 */\n      0x20\n        /* \"@chainlink/contracts/src/v0.8/vendor/BufferChainlink.sol\":3551:3554  len */\n      dup5\n        /* \"@chainlink/contracts/src/v0.8/vendor/BufferChainlink.sol\":3551:3560  len >= 32 */\n      lt\n        /* \"@chainlink/contracts/src/v0.8/vendor/BufferChainlink.sol\":3544:3673  for (; len >= 32; len -= 32) {... */\n      tag_199\n      jumpi\n        /* \"@chainlink/contracts/src/v0.8/vendor/BufferChainlink.sol\":3619:3622  src */\n      dup1\n        /* \"@chainlink/contracts/src/v0.8/vendor/BufferChainlink.sol\":3613:3623  mload(src) */\n      mload\n        /* \"@chainlink/contracts/src/v0.8/vendor/BufferChainlink.sol\":3607:3611  dest */\n      dup3\n        /* \"@chainlink/contracts/src/v0.8/vendor/BufferChainlink.sol\":3600:3624  mstore(dest, mload(src)) */\n      mstore\n        /* \"@chainlink/contracts/src/v0.8/vendor/BufferChainlink.sol\":3647:3649  32 */\n      0x20\n        /* \"@chainlink/contracts/src/v0.8/vendor/BufferChainlink.sol\":3639:3649  dest += 32 */\n      dup3\n      tag_201\n      swap2\n      swap1\n      tag_125\n      jump\t// in\n    tag_201:\n      swap2\n      pop\n        /* \"@chainlink/contracts/src/v0.8/vendor/BufferChainlink.sol\":3664:3666  32 */\n      0x20\n        /* \"@chainlink/contracts/src/v0.8/vendor/BufferChainlink.sol\":3657:3666  src += 32 */\n      dup2\n      tag_202\n      swap2\n      swap1\n      tag_125\n      jump\t// in\n    tag_202:\n      swap1\n      pop\n        /* \"@chainlink/contracts/src/v0.8/vendor/BufferChainlink.sol\":3569:3571  32 */\n      0x20\n        /* \"@chainlink/contracts/src/v0.8/vendor/BufferChainlink.sol\":3562:3571  len -= 32 */\n      dup5\n      tag_203\n      swap2\n      swap1\n      tag_138\n      jump\t// in\n    tag_203:\n      swap4\n      pop\n        /* \"@chainlink/contracts/src/v0.8/vendor/BufferChainlink.sol\":3544:3673  for (; len >= 32; len -= 32) {... */\n      jump(tag_198)\n    tag_199:\n        /* \"@chainlink/contracts/src/v0.8/vendor/BufferChainlink.sol\":3725:3737  uint256 mask */\n      0x00\n        /* \"@chainlink/contracts/src/v0.8/vendor/BufferChainlink.sol\":3760:3761  1 */\n      0x01\n        /* \"@chainlink/contracts/src/v0.8/vendor/BufferChainlink.sol\":3752:3755  len */\n      dup6\n        /* \"@chainlink/contracts/src/v0.8/vendor/BufferChainlink.sol\":3747:3749  32 */\n      0x20\n        /* \"@chainlink/contracts/src/v0.8/vendor/BufferChainlink.sol\":3747:3755  32 - len */\n      sub\n        /* \"@chainlink/contracts/src/v0.8/vendor/BufferChainlink.sol\":3741:3744  256 */\n      0x0100\n        /* \"@chainlink/contracts/src/v0.8/vendor/BufferChainlink.sol\":3741:3756  256**(32 - len) */\n      exp\n        /* \"@chainlink/contracts/src/v0.8/vendor/BufferChainlink.sol\":3740:3761  (256**(32 - len)) - 1 */\n      sub\n        /* \"@chainlink/contracts/src/v0.8/vendor/BufferChainlink.sol\":3725:3761  uint256 mask = (256**(32 - len)) - 1 */\n      swap1\n      pop\n        /* \"@chainlink/contracts/src/v0.8/vendor/BufferChainlink.sol\":3823:3827  mask */\n      dup1\n        /* \"@chainlink/contracts/src/v0.8/vendor/BufferChainlink.sol\":3819:3828  not(mask) */\n      not\n        /* \"@chainlink/contracts/src/v0.8/vendor/BufferChainlink.sol\":3813:3816  src */\n      dup3\n        /* \"@chainlink/contracts/src/v0.8/vendor/BufferChainlink.sol\":3807:3817  mload(src) */\n      mload\n        /* \"@chainlink/contracts/src/v0.8/vendor/BufferChainlink.sol\":3803:3829  and(mload(src), not(mask)) */\n      and\n        /* \"@chainlink/contracts/src/v0.8/vendor/BufferChainlink.sol\":3871:3875  mask */\n      dup2\n        /* \"@chainlink/contracts/src/v0.8/vendor/BufferChainlink.sol\":3864:3868  dest */\n      dup5\n        /* \"@chainlink/contracts/src/v0.8/vendor/BufferChainlink.sol\":3858:3869  mload(dest) */\n      mload\n        /* \"@chainlink/contracts/src/v0.8/vendor/BufferChainlink.sol\":3854:3876  and(mload(dest), mask) */\n      and\n        /* \"@chainlink/contracts/src/v0.8/vendor/BufferChainlink.sol\":3911:3918  srcpart */\n      dup2\n        /* \"@chainlink/contracts/src/v0.8/vendor/BufferChainlink.sol\":3901:3909  destpart */\n      dup2\n        /* \"@chainlink/contracts/src/v0.8/vendor/BufferChainlink.sol\":3898:3919  or(destpart, srcpart) */\n      or\n        /* \"@chainlink/contracts/src/v0.8/vendor/BufferChainlink.sol\":3892:3896  dest */\n      dup6\n        /* \"@chainlink/contracts/src/v0.8/vendor/BufferChainlink.sol\":3885:3920  mstore(dest, or(destpart, srcpart)) */\n      mstore\n        /* \"@chainlink/contracts/src/v0.8/vendor/BufferChainlink.sol\":3778:3928  {... */\n      pop\n      pop\n      pop\n        /* \"@chainlink/contracts/src/v0.8/vendor/BufferChainlink.sol\":3947:3950  buf */\n      dup7\n        /* \"@chainlink/contracts/src/v0.8/vendor/BufferChainlink.sol\":3940:3950  return buf */\n      swap3\n      pop\n      pop\n      pop\n        /* \"@chainlink/contracts/src/v0.8/vendor/BufferChainlink.sol\":2745:3955  function write(... */\n      swap5\n      swap4\n      pop\n      pop\n      pop\n      pop\n      jump\t// out\n        /* \"@chainlink/contracts/src/v0.8/vendor/BufferChainlink.sol\":5148:5787  function writeUint8(... */\n    tag_180:\n        /* \"@chainlink/contracts/src/v0.8/vendor/BufferChainlink.sol\":5251:5264  buffer memory */\n      tag_204\n      tag_131\n      jump\t// in\n    tag_204:\n        /* \"@chainlink/contracts/src/v0.8/vendor/BufferChainlink.sol\":5283:5286  buf */\n      dup4\n        /* \"@chainlink/contracts/src/v0.8/vendor/BufferChainlink.sol\":5283:5295  buf.capacity */\n      0x20\n      add\n      mload\n        /* \"@chainlink/contracts/src/v0.8/vendor/BufferChainlink.sol\":5276:5279  off */\n      dup4\n        /* \"@chainlink/contracts/src/v0.8/vendor/BufferChainlink.sol\":5276:5295  off >= buf.capacity */\n      lt\n        /* \"@chainlink/contracts/src/v0.8/vendor/BufferChainlink.sol\":5272:5341  if (off >= buf.capacity) {... */\n      tag_206\n      jumpi\n        /* \"@chainlink/contracts/src/v0.8/vendor/BufferChainlink.sol\":5305:5334  resize(buf, buf.capacity * 2) */\n      tag_207\n        /* \"@chainlink/contracts/src/v0.8/vendor/BufferChainlink.sol\":5312:5315  buf */\n      dup5\n        /* \"@chainlink/contracts/src/v0.8/vendor/BufferChainlink.sol\":5332:5333  2 */\n      0x02\n        /* \"@chainlink/contracts/src/v0.8/vendor/BufferChainlink.sol\":5317:5320  buf */\n      dup7\n        /* \"@chainlink/contracts/src/v0.8/vendor/BufferChainlink.sol\":5317:5329  buf.capacity */\n      0x20\n      add\n      mload\n        /* \"@chainlink/contracts/src/v0.8/vendor/BufferChainlink.sol\":5317:5333  buf.capacity * 2 */\n      tag_208\n      swap2\n      swap1\n      tag_195\n      jump\t// in\n    tag_208:\n        /* \"@chainlink/contracts/src/v0.8/vendor/BufferChainlink.sol\":5305:5311  resize */\n      tag_196\n        /* \"@chainlink/contracts/src/v0.8/vendor/BufferChainlink.sol\":5305:5334  resize(buf, buf.capacity * 2) */\n      jump\t// in\n    tag_207:\n        /* \"@chainlink/contracts/src/v0.8/vendor/BufferChainlink.sol\":5272:5341  if (off >= buf.capacity) {... */\n    tag_206:\n        /* \"@chainlink/contracts/src/v0.8/vendor/BufferChainlink.sol\":5427:5430  buf */\n      dup4\n        /* \"@chainlink/contracts/src/v0.8/vendor/BufferChainlink.sol\":5421:5431  mload(buf) */\n      mload\n        /* \"@chainlink/contracts/src/v0.8/vendor/BufferChainlink.sol\":5498:5504  bufptr */\n      dup1\n        /* \"@chainlink/contracts/src/v0.8/vendor/BufferChainlink.sol\":5492:5505  mload(bufptr) */\n      mload\n        /* \"@chainlink/contracts/src/v0.8/vendor/BufferChainlink.sol\":5610:5612  32 */\n      0x20\n        /* \"@chainlink/contracts/src/v0.8/vendor/BufferChainlink.sol\":5604:5607  off */\n      dup6\n        /* \"@chainlink/contracts/src/v0.8/vendor/BufferChainlink.sol\":5596:5602  bufptr */\n      dup4\n        /* \"@chainlink/contracts/src/v0.8/vendor/BufferChainlink.sol\":5592:5608  add(bufptr, off) */\n      add\n        /* \"@chainlink/contracts/src/v0.8/vendor/BufferChainlink.sol\":5588:5613  add(add(bufptr, off), 32) */\n      add\n        /* \"@chainlink/contracts/src/v0.8/vendor/BufferChainlink.sol\":5634:5638  data */\n      dup5\n        /* \"@chainlink/contracts/src/v0.8/vendor/BufferChainlink.sol\":5628:5632  dest */\n      dup2\n        /* \"@chainlink/contracts/src/v0.8/vendor/BufferChainlink.sol\":5620:5639  mstore8(dest, data) */\n      mstore8\n        /* \"@chainlink/contracts/src/v0.8/vendor/BufferChainlink.sol\":5705:5711  buflen */\n      dup2\n        /* \"@chainlink/contracts/src/v0.8/vendor/BufferChainlink.sol\":5700:5703  off */\n      dup7\n        /* \"@chainlink/contracts/src/v0.8/vendor/BufferChainlink.sol\":5697:5712  eq(off, buflen) */\n      eq\n        /* \"@chainlink/contracts/src/v0.8/vendor/BufferChainlink.sol\":5694:5761  if eq(off, buflen) {... */\n      iszero\n      tag_209\n      jumpi\n        /* \"@chainlink/contracts/src/v0.8/vendor/BufferChainlink.sol\":5750:5751  1 */\n      0x01\n        /* \"@chainlink/contracts/src/v0.8/vendor/BufferChainlink.sol\":5742:5748  buflen */\n      dup3\n        /* \"@chainlink/contracts/src/v0.8/vendor/BufferChainlink.sol\":5738:5752  add(buflen, 1) */\n      add\n        /* \"@chainlink/contracts/src/v0.8/vendor/BufferChainlink.sol\":5730:5736  bufptr */\n      dup4\n        /* \"@chainlink/contracts/src/v0.8/vendor/BufferChainlink.sol\":5723:5753  mstore(bufptr, add(buflen, 1)) */\n      mstore\n        /* \"@chainlink/contracts/src/v0.8/vendor/BufferChainlink.sol\":5694:5761  if eq(off, buflen) {... */\n    tag_209:\n        /* \"@chainlink/contracts/src/v0.8/vendor/BufferChainlink.sol\":5356:5767  {... */\n      pop\n      pop\n      pop\n        /* \"@chainlink/contracts/src/v0.8/vendor/BufferChainlink.sol\":5779:5782  buf */\n      dup4\n        /* \"@chainlink/contracts/src/v0.8/vendor/BufferChainlink.sol\":5772:5782  return buf */\n      swap1\n      pop\n        /* \"@chainlink/contracts/src/v0.8/vendor/BufferChainlink.sol\":5148:5787  function writeUint8(... */\n      swap4\n      swap3\n      pop\n      pop\n      pop\n      jump\t// out\n        /* \"@chainlink/contracts/src/v0.8/vendor/BufferChainlink.sol\":8974:9649  function writeInt(... */\n    tag_184:\n        /* \"@chainlink/contracts/src/v0.8/vendor/BufferChainlink.sol\":9093:9106  buffer memory */\n      tag_210\n      tag_131\n      jump\t// in\n    tag_210:\n        /* \"@chainlink/contracts/src/v0.8/vendor/BufferChainlink.sol\":9130:9133  buf */\n      dup5\n        /* \"@chainlink/contracts/src/v0.8/vendor/BufferChainlink.sol\":9130:9142  buf.capacity */\n      0x20\n      add\n      mload\n        /* \"@chainlink/contracts/src/v0.8/vendor/BufferChainlink.sol\":9124:9127  off */\n      dup5\n        /* \"@chainlink/contracts/src/v0.8/vendor/BufferChainlink.sol\":9118:9121  len */\n      dup4\n        /* \"@chainlink/contracts/src/v0.8/vendor/BufferChainlink.sol\":9118:9127  len + off */\n      tag_212\n      swap2\n      swap1\n      tag_125\n      jump\t// in\n    tag_212:\n        /* \"@chainlink/contracts/src/v0.8/vendor/BufferChainlink.sol\":9118:9142  len + off > buf.capacity */\n      gt\n        /* \"@chainlink/contracts/src/v0.8/vendor/BufferChainlink.sol\":9114:9187  if (len + off > buf.capacity) {... */\n      iszero\n      tag_213\n      jumpi\n        /* \"@chainlink/contracts/src/v0.8/vendor/BufferChainlink.sol\":9152:9180  resize(buf, (len + off) * 2) */\n      tag_214\n        /* \"@chainlink/contracts/src/v0.8/vendor/BufferChainlink.sol\":9159:9162  buf */\n      dup6\n        /* \"@chainlink/contracts/src/v0.8/vendor/BufferChainlink.sol\":9178:9179  2 */\n      0x02\n        /* \"@chainlink/contracts/src/v0.8/vendor/BufferChainlink.sol\":9171:9174  off */\n      dup7\n        /* \"@chainlink/contracts/src/v0.8/vendor/BufferChainlink.sol\":9165:9168  len */\n      dup6\n        /* \"@chainlink/contracts/src/v0.8/vendor/BufferChainlink.sol\":9165:9174  len + off */\n      tag_215\n      swap2\n      swap1\n      tag_125\n      jump\t// in\n    tag_215:\n        /* \"@chainlink/contracts/src/v0.8/vendor/BufferChainlink.sol\":9164:9179  (len + off) * 2 */\n      tag_216\n      swap2\n      swap1\n      tag_195\n      jump\t// in\n    tag_216:\n        /* \"@chainlink/contracts/src/v0.8/vendor/BufferChainlink.sol\":9152:9158  resize */\n      tag_196\n        /* \"@chainlink/contracts/src/v0.8/vendor/BufferChainlink.sol\":9152:9180  resize(buf, (len + off) * 2) */\n      jump\t// in\n    tag_214:\n        /* \"@chainlink/contracts/src/v0.8/vendor/BufferChainlink.sol\":9114:9187  if (len + off > buf.capacity) {... */\n    tag_213:\n        /* \"@chainlink/contracts/src/v0.8/vendor/BufferChainlink.sol\":9193:9205  uint256 mask */\n      0x00\n        /* \"@chainlink/contracts/src/v0.8/vendor/BufferChainlink.sol\":9221:9222  1 */\n      0x01\n        /* \"@chainlink/contracts/src/v0.8/vendor/BufferChainlink.sol\":9214:9217  len */\n      dup4\n        /* \"@chainlink/contracts/src/v0.8/vendor/BufferChainlink.sol\":9209:9212  256 */\n      0x0100\n        /* \"@chainlink/contracts/src/v0.8/vendor/BufferChainlink.sol\":9209:9217  256**len */\n      tag_217\n      swap2\n      swap1\n      tag_218\n      jump\t// in\n    tag_217:\n        /* \"@chainlink/contracts/src/v0.8/vendor/BufferChainlink.sol\":9208:9222  (256**len) - 1 */\n      tag_219\n      swap2\n      swap1\n      tag_138\n      jump\t// in\n    tag_219:\n        /* \"@chainlink/contracts/src/v0.8/vendor/BufferChainlink.sol\":9193:9222  uint256 mask = (256**len) - 1 */\n      swap1\n      pop\n        /* \"@chainlink/contracts/src/v0.8/vendor/BufferChainlink.sol\":9308:9311  buf */\n      dup6\n        /* \"@chainlink/contracts/src/v0.8/vendor/BufferChainlink.sol\":9302:9312  mload(buf) */\n      mload\n        /* \"@chainlink/contracts/src/v0.8/vendor/BufferChainlink.sol\":9423:9426  len */\n      dup4\n        /* \"@chainlink/contracts/src/v0.8/vendor/BufferChainlink.sol\":9417:9420  off */\n      dup7\n        /* \"@chainlink/contracts/src/v0.8/vendor/BufferChainlink.sol\":9409:9415  bufptr */\n      dup3\n        /* \"@chainlink/contracts/src/v0.8/vendor/BufferChainlink.sol\":9405:9421  add(bufptr, off) */\n      add\n        /* \"@chainlink/contracts/src/v0.8/vendor/BufferChainlink.sol\":9401:9427  add(add(bufptr, off), len) */\n      add\n        /* \"@chainlink/contracts/src/v0.8/vendor/BufferChainlink.sol\":9479:9483  data */\n      dup6\n        /* \"@chainlink/contracts/src/v0.8/vendor/BufferChainlink.sol\":9471:9475  mask */\n      dup4\n        /* \"@chainlink/contracts/src/v0.8/vendor/BufferChainlink.sol\":9467:9476  not(mask) */\n      not\n        /* \"@chainlink/contracts/src/v0.8/vendor/BufferChainlink.sol\":9460:9464  dest */\n      dup3\n        /* \"@chainlink/contracts/src/v0.8/vendor/BufferChainlink.sol\":9454:9465  mload(dest) */\n      mload\n        /* \"@chainlink/contracts/src/v0.8/vendor/BufferChainlink.sol\":9450:9477  and(mload(dest), not(mask)) */\n      and\n        /* \"@chainlink/contracts/src/v0.8/vendor/BufferChainlink.sol\":9447:9484  or(and(mload(dest), not(mask)), data) */\n      or\n        /* \"@chainlink/contracts/src/v0.8/vendor/BufferChainlink.sol\":9441:9445  dest */\n      dup2\n        /* \"@chainlink/contracts/src/v0.8/vendor/BufferChainlink.sol\":9434:9485  mstore(dest, or(and(mload(dest), not(mask)), data)) */\n      mstore\n        /* \"@chainlink/contracts/src/v0.8/vendor/BufferChainlink.sol\":9567:9573  bufptr */\n      dup2\n        /* \"@chainlink/contracts/src/v0.8/vendor/BufferChainlink.sol\":9561:9574  mload(bufptr) */\n      mload\n        /* \"@chainlink/contracts/src/v0.8/vendor/BufferChainlink.sol\":9555:9558  len */\n      dup6\n        /* \"@chainlink/contracts/src/v0.8/vendor/BufferChainlink.sol\":9550:9553  off */\n      dup9\n        /* \"@chainlink/contracts/src/v0.8/vendor/BufferChainlink.sol\":9546:9559  add(off, len) */\n      add\n        /* \"@chainlink/contracts/src/v0.8/vendor/BufferChainlink.sol\":9543:9575  gt(add(off, len), mload(bufptr)) */\n      gt\n        /* \"@chainlink/contracts/src/v0.8/vendor/BufferChainlink.sol\":9540:9623  if gt(add(off, len), mload(bufptr)) {... */\n      iszero\n      tag_220\n      jumpi\n        /* \"@chainlink/contracts/src/v0.8/vendor/BufferChainlink.sol\":9610:9613  len */\n      dup5\n        /* \"@chainlink/contracts/src/v0.8/vendor/BufferChainlink.sol\":9605:9608  off */\n      dup8\n        /* \"@chainlink/contracts/src/v0.8/vendor/BufferChainlink.sol\":9601:9614  add(off, len) */\n      add\n        /* \"@chainlink/contracts/src/v0.8/vendor/BufferChainlink.sol\":9593:9599  bufptr */\n      dup3\n        /* \"@chainlink/contracts/src/v0.8/vendor/BufferChainlink.sol\":9586:9615  mstore(bufptr, add(off, len)) */\n      mstore\n        /* \"@chainlink/contracts/src/v0.8/vendor/BufferChainlink.sol\":9540:9623  if gt(add(off, len), mload(bufptr)) {... */\n    tag_220:\n        /* \"@chainlink/contracts/src/v0.8/vendor/BufferChainlink.sol\":9237:9629  {... */\n      pop\n      pop\n        /* \"@chainlink/contracts/src/v0.8/vendor/BufferChainlink.sol\":9641:9644  buf */\n      dup6\n        /* \"@chainlink/contracts/src/v0.8/vendor/BufferChainlink.sol\":9634:9644  return buf */\n      swap2\n      pop\n      pop\n        /* \"@chainlink/contracts/src/v0.8/vendor/BufferChainlink.sol\":8974:9649  function writeInt(... */\n      swap5\n      swap4\n      pop\n      pop\n      pop\n      pop\n      jump\t// out\n        /* \"@chainlink/contracts/src/v0.8/vendor/BufferChainlink.sol\":1961:2085  function max(uint256 a, uint256 b) private pure returns (uint256) {... */\n    tag_193:\n        /* \"@chainlink/contracts/src/v0.8/vendor/BufferChainlink.sol\":2018:2025  uint256 */\n      0x00\n        /* \"@chainlink/contracts/src/v0.8/vendor/BufferChainlink.sol\":2041:2042  b */\n      dup2\n        /* \"@chainlink/contracts/src/v0.8/vendor/BufferChainlink.sol\":2037:2038  a */\n      dup4\n        /* \"@chainlink/contracts/src/v0.8/vendor/BufferChainlink.sol\":2037:2042  a > b */\n      gt\n        /* \"@chainlink/contracts/src/v0.8/vendor/BufferChainlink.sol\":2033:2067  if (a > b) {... */\n      iszero\n      tag_222\n      jumpi\n        /* \"@chainlink/contracts/src/v0.8/vendor/BufferChainlink.sol\":2059:2060  a */\n      dup3\n        /* \"@chainlink/contracts/src/v0.8/vendor/BufferChainlink.sol\":2052:2060  return a */\n      swap1\n      pop\n      jump(tag_221)\n        /* \"@chainlink/contracts/src/v0.8/vendor/BufferChainlink.sol\":2033:2067  if (a > b) {... */\n    tag_222:\n        /* \"@chainlink/contracts/src/v0.8/vendor/BufferChainlink.sol\":2079:2080  b */\n      dup2\n        /* \"@chainlink/contracts/src/v0.8/vendor/BufferChainlink.sol\":2072:2080  return b */\n      swap1\n      pop\n        /* \"@chainlink/contracts/src/v0.8/vendor/BufferChainlink.sol\":1961:2085  function max(uint256 a, uint256 b) private pure returns (uint256) {... */\n    tag_221:\n      swap3\n      swap2\n      pop\n      pop\n      jump\t// out\n        /* \"@chainlink/contracts/src/v0.8/vendor/BufferChainlink.sol\":1801:1957  function resize(buffer memory buf, uint256 capacity) private pure {... */\n    tag_196:\n        /* \"@chainlink/contracts/src/v0.8/vendor/BufferChainlink.sol\":1873:1892  bytes memory oldbuf */\n      0x00\n        /* \"@chainlink/contracts/src/v0.8/vendor/BufferChainlink.sol\":1895:1898  buf */\n      dup3\n        /* \"@chainlink/contracts/src/v0.8/vendor/BufferChainlink.sol\":1895:1902  buf.buf */\n      0x00\n      add\n      mload\n        /* \"@chainlink/contracts/src/v0.8/vendor/BufferChainlink.sol\":1873:1902  bytes memory oldbuf = buf.buf */\n      swap1\n      pop\n        /* \"@chainlink/contracts/src/v0.8/vendor/BufferChainlink.sol\":1908:1927  init(buf, capacity) */\n      tag_224\n        /* \"@chainlink/contracts/src/v0.8/vendor/BufferChainlink.sol\":1913:1916  buf */\n      dup4\n        /* \"@chainlink/contracts/src/v0.8/vendor/BufferChainlink.sol\":1918:1926  capacity */\n      dup4\n        /* \"@chainlink/contracts/src/v0.8/vendor/BufferChainlink.sol\":1908:1912  init */\n      tag_117\n        /* \"@chainlink/contracts/src/v0.8/vendor/BufferChainlink.sol\":1908:1927  init(buf, capacity) */\n      jump\t// in\n    tag_224:\n      pop\n        /* \"@chainlink/contracts/src/v0.8/vendor/BufferChainlink.sol\":1933:1952  append(buf, oldbuf) */\n      tag_225\n        /* \"@chainlink/contracts/src/v0.8/vendor/BufferChainlink.sol\":1940:1943  buf */\n      dup4\n        /* \"@chainlink/contracts/src/v0.8/vendor/BufferChainlink.sol\":1945:1951  oldbuf */\n      dup3\n        /* \"@chainlink/contracts/src/v0.8/vendor/BufferChainlink.sol\":1933:1939  append */\n      tag_122\n        /* \"@chainlink/contracts/src/v0.8/vendor/BufferChainlink.sol\":1933:1952  append(buf, oldbuf) */\n      jump\t// in\n    tag_225:\n      pop\n        /* \"@chainlink/contracts/src/v0.8/vendor/BufferChainlink.sol\":1867:1957  {... */\n      pop\n        /* \"@chainlink/contracts/src/v0.8/vendor/BufferChainlink.sol\":1801:1957  function resize(buffer memory buf, uint256 capacity) private pure {... */\n      pop\n      pop\n      jump\t// out\n    tag_102:\n      mload(0x40)\n      dup1\n      0xa0\n      add\n      0x40\n      mstore\n      dup1\n      0x00\n      dup1\n      not\n      and\n      dup2\n      mstore\n      0x20\n      add\n      and(0xffffffffffffffffffffffffffffffffffffffff, 0x00)\n      dup2\n      mstore\n      0x20\n      add\n      and(not(0xffffffffffffffffffffffffffffffffffffffffffffffffffffffff), 0x00)\n      dup2\n      mstore\n      0x20\n      add\n      0x00\n      dup2\n      mstore\n      0x20\n      add\n      tag_226\n      tag_131\n      jump\t// in\n    tag_226:\n      dup2\n      mstore\n      pop\n      swap1\n      jump\t// out\n    tag_131:\n      mload(0x40)\n      dup1\n      0x40\n      add\n      0x40\n      mstore\n      dup1\n      0x60\n      dup2\n      mstore\n      0x20\n      add\n      0x00\n      dup2\n      mstore\n      pop\n      swap1\n      jump\t// out\n        /* \"#utility.yul\":7:419   */\n    tag_228:\n        /* \"#utility.yul\":85:90   */\n      0x00\n        /* \"#utility.yul\":110:176   */\n      tag_230\n        /* \"#utility.yul\":126:175   */\n      tag_231\n        /* \"#utility.yul\":168:174   */\n      dup5\n        /* \"#utility.yul\":126:175   */\n      tag_232\n      jump\t// in\n    tag_231:\n        /* \"#utility.yul\":110:176   */\n      tag_233\n      jump\t// in\n    tag_230:\n        /* \"#utility.yul\":101:176   */\n      swap1\n      pop\n        /* \"#utility.yul\":199:205   */\n      dup3\n        /* \"#utility.yul\":192:197   */\n      dup2\n        /* \"#utility.yul\":185:206   */\n      mstore\n        /* \"#utility.yul\":237:241   */\n      0x20\n        /* \"#utility.yul\":230:235   */\n      dup2\n        /* \"#utility.yul\":226:242   */\n      add\n        /* \"#utility.yul\":275:278   */\n      dup5\n        /* \"#utility.yul\":266:272   */\n      dup5\n        /* \"#utility.yul\":261:264   */\n      dup5\n        /* \"#utility.yul\":257:273   */\n      add\n        /* \"#utility.yul\":254:279   */\n      gt\n        /* \"#utility.yul\":251:363   */\n      iszero\n      tag_234\n      jumpi\n        /* \"#utility.yul\":282:361   */\n      tag_235\n      tag_236\n      jump\t// in\n    tag_235:\n        /* \"#utility.yul\":251:363   */\n    tag_234:\n        /* \"#utility.yul\":372:413   */\n      tag_237\n        /* \"#utility.yul\":406:412   */\n      dup5\n        /* \"#utility.yul\":401:404   */\n      dup3\n        /* \"#utility.yul\":396:399   */\n      dup6\n        /* \"#utility.yul\":372:413   */\n      tag_238\n      jump\t// in\n    tag_237:\n        /* \"#utility.yul\":91:419   */\n      pop\n        /* \"#utility.yul\":7:419   */\n      swap4\n      swap3\n      pop\n      pop\n      pop\n      jump\t// out\n        /* \"#utility.yul\":425:562   */\n    tag_239:\n        /* \"#utility.yul\":479:484   */\n      0x00\n        /* \"#utility.yul\":510:516   */\n      dup2\n        /* \"#utility.yul\":504:517   */\n      mload\n        /* \"#utility.yul\":495:517   */\n      swap1\n      pop\n        /* \"#utility.yul\":526:556   */\n      tag_241\n        /* \"#utility.yul\":550:555   */\n      dup2\n        /* \"#utility.yul\":526:556   */\n      tag_242\n      jump\t// in\n    tag_241:\n        /* \"#utility.yul\":425:562   */\n      swap3\n      swap2\n      pop\n      pop\n      jump\t// out\n        /* \"#utility.yul\":568:707   */\n    tag_243:\n        /* \"#utility.yul\":614:619   */\n      0x00\n        /* \"#utility.yul\":652:658   */\n      dup2\n        /* \"#utility.yul\":639:659   */\n      calldataload\n        /* \"#utility.yul\":630:659   */\n      swap1\n      pop\n        /* \"#utility.yul\":668:701   */\n      tag_245\n        /* \"#utility.yul\":695:700   */\n      dup2\n        /* \"#utility.yul\":668:701   */\n      tag_246\n      jump\t// in\n    tag_245:\n        /* \"#utility.yul\":568:707   */\n      swap3\n      swap2\n      pop\n      pop\n      jump\t// out\n        /* \"#utility.yul\":727:1067   */\n    tag_247:\n        /* \"#utility.yul\":783:788   */\n      0x00\n        /* \"#utility.yul\":832:835   */\n      dup3\n        /* \"#utility.yul\":825:829   */\n      0x1f\n        /* \"#utility.yul\":817:823   */\n      dup4\n        /* \"#utility.yul\":813:830   */\n      add\n        /* \"#utility.yul\":809:836   */\n      slt\n        /* \"#utility.yul\":799:921   */\n      tag_249\n      jumpi\n        /* \"#utility.yul\":840:919   */\n      tag_250\n      tag_251\n      jump\t// in\n    tag_250:\n        /* \"#utility.yul\":799:921   */\n    tag_249:\n        /* \"#utility.yul\":957:963   */\n      dup2\n        /* \"#utility.yul\":944:964   */\n      calldataload\n        /* \"#utility.yul\":982:1061   */\n      tag_252\n        /* \"#utility.yul\":1057:1060   */\n      dup5\n        /* \"#utility.yul\":1049:1055   */\n      dup3\n        /* \"#utility.yul\":1042:1046   */\n      0x20\n        /* \"#utility.yul\":1034:1040   */\n      dup7\n        /* \"#utility.yul\":1030:1047   */\n      add\n        /* \"#utility.yul\":982:1061   */\n      tag_228\n      jump\t// in\n    tag_252:\n        /* \"#utility.yul\":973:1061   */\n      swap2\n      pop\n        /* \"#utility.yul\":789:1067   */\n      pop\n        /* \"#utility.yul\":727:1067   */\n      swap3\n      swap2\n      pop\n      pop\n      jump\t// out\n        /* \"#utility.yul\":1073:1212   */\n    tag_253:\n        /* \"#utility.yul\":1119:1124   */\n      0x00\n        /* \"#utility.yul\":1157:1163   */\n      dup2\n        /* \"#utility.yul\":1144:1164   */\n      calldataload\n        /* \"#utility.yul\":1135:1164   */\n      swap1\n      pop\n        /* \"#utility.yul\":1173:1206   */\n      tag_255\n        /* \"#utility.yul\":1200:1205   */\n      dup2\n        /* \"#utility.yul\":1173:1206   */\n      tag_256\n      jump\t// in\n    tag_255:\n        /* \"#utility.yul\":1073:1212   */\n      swap3\n      swap2\n      pop\n      pop\n      jump\t// out\n        /* \"#utility.yul\":1218:1563   */\n    tag_173:\n        /* \"#utility.yul\":1285:1291   */\n      0x00\n        /* \"#utility.yul\":1334:1336   */\n      0x20\n        /* \"#utility.yul\":1322:1331   */\n      dup3\n        /* \"#utility.yul\":1313:1320   */\n      dup5\n        /* \"#utility.yul\":1309:1332   */\n      sub\n        /* \"#utility.yul\":1305:1337   */\n      slt\n        /* \"#utility.yul\":1302:1421   */\n      iszero\n      tag_258\n      jumpi\n        /* \"#utility.yul\":1340:1419   */\n      tag_259\n      tag_260\n      jump\t// in\n    tag_259:\n        /* \"#utility.yul\":1302:1421   */\n    tag_258:\n        /* \"#utility.yul\":1460:1461   */\n      0x00\n        /* \"#utility.yul\":1485:1546   */\n      tag_261\n        /* \"#utility.yul\":1538:1545   */\n      dup5\n        /* \"#utility.yul\":1529:1535   */\n      dup3\n        /* \"#utility.yul\":1518:1527   */\n      dup6\n        /* \"#utility.yul\":1514:1536   */\n      add\n        /* \"#utility.yul\":1485:1546   */\n      tag_239\n      jump\t// in\n    tag_261:\n        /* \"#utility.yul\":1475:1546   */\n      swap2\n      pop\n        /* \"#utility.yul\":1431:1556   */\n      pop\n        /* \"#utility.yul\":1218:1563   */\n      swap3\n      swap2\n      pop\n      pop\n      jump\t// out\n        /* \"#utility.yul\":1569:2043   */\n    tag_20:\n        /* \"#utility.yul\":1637:1643   */\n      0x00\n        /* \"#utility.yul\":1645:1651   */\n      dup1\n        /* \"#utility.yul\":1694:1696   */\n      0x40\n        /* \"#utility.yul\":1682:1691   */\n      dup4\n        /* \"#utility.yul\":1673:1680   */\n      dup6\n        /* \"#utility.yul\":1669:1692   */\n      sub\n        /* \"#utility.yul\":1665:1697   */\n      slt\n        /* \"#utility.yul\":1662:1781   */\n      iszero\n      tag_263\n      jumpi\n        /* \"#utility.yul\":1700:1779   */\n      tag_264\n      tag_260\n      jump\t// in\n    tag_264:\n        /* \"#utility.yul\":1662:1781   */\n    tag_263:\n        /* \"#utility.yul\":1820:1821   */\n      0x00\n        /* \"#utility.yul\":1845:1898   */\n      tag_265\n        /* \"#utility.yul\":1890:1897   */\n      dup6\n        /* \"#utility.yul\":1881:1887   */\n      dup3\n        /* \"#utility.yul\":1870:1879   */\n      dup7\n        /* \"#utility.yul\":1866:1888   */\n      add\n        /* \"#utility.yul\":1845:1898   */\n      tag_243\n      jump\t// in\n    tag_265:\n        /* \"#utility.yul\":1835:1898   */\n      swap3\n      pop\n        /* \"#utility.yul\":1791:1908   */\n      pop\n        /* \"#utility.yul\":1947:1949   */\n      0x20\n        /* \"#utility.yul\":1973:2026   */\n      tag_266\n        /* \"#utility.yul\":2018:2025   */\n      dup6\n        /* \"#utility.yul\":2009:2015   */\n      dup3\n        /* \"#utility.yul\":1998:2007   */\n      dup7\n        /* \"#utility.yul\":1994:2016   */\n      add\n        /* \"#utility.yul\":1973:2026   */\n      tag_253\n      jump\t// in\n    tag_266:\n        /* \"#utility.yul\":1963:2026   */\n      swap2\n      pop\n        /* \"#utility.yul\":1918:2036   */\n      pop\n        /* \"#utility.yul\":1569:2043   */\n      swap3\n      pop\n      swap3\n      swap1\n      pop\n      jump\t// out\n        /* \"#utility.yul\":2049:2883   */\n    tag_30:\n        /* \"#utility.yul\":2137:2143   */\n      0x00\n        /* \"#utility.yul\":2145:2151   */\n      dup1\n        /* \"#utility.yul\":2194:2196   */\n      0x40\n        /* \"#utility.yul\":2182:2191   */\n      dup4\n        /* \"#utility.yul\":2173:2180   */\n      dup6\n        /* \"#utility.yul\":2169:2192   */\n      sub\n        /* \"#utility.yul\":2165:2197   */\n      slt\n        /* \"#utility.yul\":2162:2281   */\n      iszero\n      tag_268\n      jumpi\n        /* \"#utility.yul\":2200:2279   */\n      tag_269\n      tag_260\n      jump\t// in\n    tag_269:\n        /* \"#utility.yul\":2162:2281   */\n    tag_268:\n        /* \"#utility.yul\":2348:2349   */\n      0x00\n        /* \"#utility.yul\":2337:2346   */\n      dup4\n        /* \"#utility.yul\":2333:2350   */\n      add\n        /* \"#utility.yul\":2320:2351   */\n      calldataload\n        /* \"#utility.yul\":2378:2396   */\n      0xffffffffffffffff\n        /* \"#utility.yul\":2370:2376   */\n      dup2\n        /* \"#utility.yul\":2367:2397   */\n      gt\n        /* \"#utility.yul\":2364:2481   */\n      iszero\n      tag_270\n      jumpi\n        /* \"#utility.yul\":2400:2479   */\n      tag_271\n      tag_272\n      jump\t// in\n    tag_271:\n        /* \"#utility.yul\":2364:2481   */\n    tag_270:\n        /* \"#utility.yul\":2505:2568   */\n      tag_273\n        /* \"#utility.yul\":2560:2567   */\n      dup6\n        /* \"#utility.yul\":2551:2557   */\n      dup3\n        /* \"#utility.yul\":2540:2549   */\n      dup7\n        /* \"#utility.yul\":2536:2558   */\n      add\n        /* \"#utility.yul\":2505:2568   */\n      tag_247\n      jump\t// in\n    tag_273:\n        /* \"#utility.yul\":2495:2568   */\n      swap3\n      pop\n        /* \"#utility.yul\":2291:2578   */\n      pop\n        /* \"#utility.yul\":2645:2647   */\n      0x20\n        /* \"#utility.yul\":2634:2643   */\n      dup4\n        /* \"#utility.yul\":2630:2648   */\n      add\n        /* \"#utility.yul\":2617:2649   */\n      calldataload\n        /* \"#utility.yul\":2676:2694   */\n      0xffffffffffffffff\n        /* \"#utility.yul\":2668:2674   */\n      dup2\n        /* \"#utility.yul\":2665:2695   */\n      gt\n        /* \"#utility.yul\":2662:2779   */\n      iszero\n      tag_274\n      jumpi\n        /* \"#utility.yul\":2698:2777   */\n      tag_275\n      tag_272\n      jump\t// in\n    tag_275:\n        /* \"#utility.yul\":2662:2779   */\n    tag_274:\n        /* \"#utility.yul\":2803:2866   */\n      tag_276\n        /* \"#utility.yul\":2858:2865   */\n      dup6\n        /* \"#utility.yul\":2849:2855   */\n      dup3\n        /* \"#utility.yul\":2838:2847   */\n      dup7\n        /* \"#utility.yul\":2834:2856   */\n      add\n        /* \"#utility.yul\":2803:2866   */\n      tag_247\n      jump\t// in\n    tag_276:\n        /* \"#utility.yul\":2793:2866   */\n      swap2\n      pop\n        /* \"#utility.yul\":2588:2876   */\n      pop\n        /* \"#utility.yul\":2049:2883   */\n      swap3\n      pop\n      swap3\n      swap1\n      pop\n      jump\t// out\n        /* \"#utility.yul\":2889:3007   */\n    tag_277:\n        /* \"#utility.yul\":2976:3000   */\n      tag_279\n        /* \"#utility.yul\":2994:2999   */\n      dup2\n        /* \"#utility.yul\":2976:3000   */\n      tag_280\n      jump\t// in\n    tag_279:\n        /* \"#utility.yul\":2971:2974   */\n      dup3\n        /* \"#utility.yul\":2964:3001   */\n      mstore\n        /* \"#utility.yul\":2889:3007   */\n      pop\n      pop\n      jump\t// out\n        /* \"#utility.yul\":3013:3131   */\n    tag_281:\n        /* \"#utility.yul\":3100:3124   */\n      tag_283\n        /* \"#utility.yul\":3118:3123   */\n      dup2\n        /* \"#utility.yul\":3100:3124   */\n      tag_284\n      jump\t// in\n    tag_283:\n        /* \"#utility.yul\":3095:3098   */\n      dup3\n        /* \"#utility.yul\":3088:3125   */\n      mstore\n        /* \"#utility.yul\":3013:3131   */\n      pop\n      pop\n      jump\t// out\n        /* \"#utility.yul\":3137:3252   */\n    tag_285:\n        /* \"#utility.yul\":3222:3245   */\n      tag_287\n        /* \"#utility.yul\":3239:3244   */\n      dup2\n        /* \"#utility.yul\":3222:3245   */\n      tag_288\n      jump\t// in\n    tag_287:\n        /* \"#utility.yul\":3217:3220   */\n      dup3\n        /* \"#utility.yul\":3210:3246   */\n      mstore\n        /* \"#utility.yul\":3137:3252   */\n      pop\n      pop\n      jump\t// out\n        /* \"#utility.yul\":3258:3618   */\n    tag_289:\n        /* \"#utility.yul\":3344:3347   */\n      0x00\n        /* \"#utility.yul\":3372:3410   */\n      tag_291\n        /* \"#utility.yul\":3404:3409   */\n      dup3\n        /* \"#utility.yul\":3372:3410   */\n      tag_292\n      jump\t// in\n    tag_291:\n        /* \"#utility.yul\":3426:3496   */\n      tag_293\n        /* \"#utility.yul\":3489:3495   */\n      dup2\n        /* \"#utility.yul\":3484:3487   */\n      dup6\n        /* \"#utility.yul\":3426:3496   */\n      tag_294\n      jump\t// in\n    tag_293:\n        /* \"#utility.yul\":3419:3496   */\n      swap4\n      pop\n        /* \"#utility.yul\":3505:3557   */\n      tag_295\n        /* \"#utility.yul\":3550:3556   */\n      dup2\n        /* \"#utility.yul\":3545:3548   */\n      dup6\n        /* \"#utility.yul\":3538:3542   */\n      0x20\n        /* \"#utility.yul\":3531:3536   */\n      dup7\n        /* \"#utility.yul\":3527:3543   */\n      add\n        /* \"#utility.yul\":3505:3557   */\n      tag_296\n      jump\t// in\n    tag_295:\n        /* \"#utility.yul\":3582:3611   */\n      tag_297\n        /* \"#utility.yul\":3604:3610   */\n      dup2\n        /* \"#utility.yul\":3582:3611   */\n      tag_298\n      jump\t// in\n    tag_297:\n        /* \"#utility.yul\":3577:3580   */\n      dup5\n        /* \"#utility.yul\":3573:3612   */\n      add\n        /* \"#utility.yul\":3566:3612   */\n      swap2\n      pop\n        /* \"#utility.yul\":3348:3618   */\n      pop\n        /* \"#utility.yul\":3258:3618   */\n      swap3\n      swap2\n      pop\n      pop\n      jump\t// out\n        /* \"#utility.yul\":3624:3840   */\n    tag_299:\n        /* \"#utility.yul\":3752:3833   */\n      tag_301\n        /* \"#utility.yul\":3772:3832   */\n      tag_302\n        /* \"#utility.yul\":3826:3831   */\n      dup3\n        /* \"#utility.yul\":3772:3832   */\n      tag_303\n      jump\t// in\n    tag_302:\n        /* \"#utility.yul\":3752:3833   */\n      tag_304\n      jump\t// in\n    tag_301:\n        /* \"#utility.yul\":3747:3750   */\n      dup3\n        /* \"#utility.yul\":3740:3834   */\n      mstore\n        /* \"#utility.yul\":3624:3840   */\n      pop\n      pop\n      jump\t// out\n        /* \"#utility.yul\":3846:4212   */\n    tag_305:\n        /* \"#utility.yul\":3988:3991   */\n      0x00\n        /* \"#utility.yul\":4009:4076   */\n      tag_307\n        /* \"#utility.yul\":4073:4075   */\n      0x23\n        /* \"#utility.yul\":4068:4071   */\n      dup4\n        /* \"#utility.yul\":4009:4076   */\n      tag_308\n      jump\t// in\n    tag_307:\n        /* \"#utility.yul\":4002:4076   */\n      swap2\n      pop\n        /* \"#utility.yul\":4085:4178   */\n      tag_309\n        /* \"#utility.yul\":4174:4177   */\n      dup3\n        /* \"#utility.yul\":4085:4178   */\n      tag_310\n      jump\t// in\n    tag_309:\n        /* \"#utility.yul\":4203:4205   */\n      0x40\n        /* \"#utility.yul\":4198:4201   */\n      dup3\n        /* \"#utility.yul\":4194:4206   */\n      add\n        /* \"#utility.yul\":4187:4206   */\n      swap1\n      pop\n        /* \"#utility.yul\":3846:4212   */\n      swap2\n      swap1\n      pop\n      jump\t// out\n        /* \"#utility.yul\":4218:4584   */\n    tag_311:\n        /* \"#utility.yul\":4360:4363   */\n      0x00\n        /* \"#utility.yul\":4381:4448   */\n      tag_313\n        /* \"#utility.yul\":4445:4447   */\n      0x28\n        /* \"#utility.yul\":4440:4443   */\n      dup4\n        /* \"#utility.yul\":4381:4448   */\n      tag_308\n      jump\t// in\n    tag_313:\n        /* \"#utility.yul\":4374:4448   */\n      swap2\n      pop\n        /* \"#utility.yul\":4457:4550   */\n      tag_314\n        /* \"#utility.yul\":4546:4549   */\n      dup3\n        /* \"#utility.yul\":4457:4550   */\n      tag_315\n      jump\t// in\n    tag_314:\n        /* \"#utility.yul\":4575:4577   */\n      0x40\n        /* \"#utility.yul\":4570:4573   */\n      dup3\n        /* \"#utility.yul\":4566:4578   */\n      add\n        /* \"#utility.yul\":4559:4578   */\n      swap1\n      pop\n        /* \"#utility.yul\":4218:4584   */\n      swap2\n      swap1\n      pop\n      jump\t// out\n        /* \"#utility.yul\":4590:4708   */\n    tag_316:\n        /* \"#utility.yul\":4677:4701   */\n      tag_318\n        /* \"#utility.yul\":4695:4700   */\n      dup2\n        /* \"#utility.yul\":4677:4701   */\n      tag_319\n      jump\t// in\n    tag_318:\n        /* \"#utility.yul\":4672:4675   */\n      dup3\n        /* \"#utility.yul\":4665:4702   */\n      mstore\n        /* \"#utility.yul\":4590:4708   */\n      pop\n      pop\n      jump\t// out\n        /* \"#utility.yul\":4714:4871   */\n    tag_320:\n        /* \"#utility.yul\":4819:4864   */\n      tag_322\n        /* \"#utility.yul\":4839:4863   */\n      tag_323\n        /* \"#utility.yul\":4857:4862   */\n      dup3\n        /* \"#utility.yul\":4839:4863   */\n      tag_319\n      jump\t// in\n    tag_323:\n        /* \"#utility.yul\":4819:4864   */\n      tag_324\n      jump\t// in\n    tag_322:\n        /* \"#utility.yul\":4814:4817   */\n      dup3\n        /* \"#utility.yul\":4807:4865   */\n      mstore\n        /* \"#utility.yul\":4714:4871   */\n      pop\n      pop\n      jump\t// out\n        /* \"#utility.yul\":4877:5320   */\n    tag_166:\n        /* \"#utility.yul\":5040:5043   */\n      0x00\n        /* \"#utility.yul\":5055:5153   */\n      tag_326\n        /* \"#utility.yul\":5149:5152   */\n      dup3\n        /* \"#utility.yul\":5140:5146   */\n      dup6\n        /* \"#utility.yul\":5055:5153   */\n      tag_299\n      jump\t// in\n    tag_326:\n        /* \"#utility.yul\":5178:5180   */\n      0x14\n        /* \"#utility.yul\":5173:5176   */\n      dup3\n        /* \"#utility.yul\":5169:5181   */\n      add\n        /* \"#utility.yul\":5162:5181   */\n      swap2\n      pop\n        /* \"#utility.yul\":5191:5266   */\n      tag_327\n        /* \"#utility.yul\":5262:5265   */\n      dup3\n        /* \"#utility.yul\":5253:5259   */\n      dup5\n        /* \"#utility.yul\":5191:5266   */\n      tag_320\n      jump\t// in\n    tag_327:\n        /* \"#utility.yul\":5291:5293   */\n      0x20\n        /* \"#utility.yul\":5286:5289   */\n      dup3\n        /* \"#utility.yul\":5282:5294   */\n      add\n        /* \"#utility.yul\":5275:5294   */\n      swap2\n      pop\n        /* \"#utility.yul\":5311:5314   */\n      dup2\n        /* \"#utility.yul\":5304:5314   */\n      swap1\n      pop\n        /* \"#utility.yul\":4877:5320   */\n      swap4\n      swap3\n      pop\n      pop\n      pop\n      jump\t// out\n        /* \"#utility.yul\":5326:6406   */\n    tag_127:\n        /* \"#utility.yul\":5631:5635   */\n      0x00\n        /* \"#utility.yul\":5669:5672   */\n      0x0100\n        /* \"#utility.yul\":5658:5667   */\n      dup3\n        /* \"#utility.yul\":5654:5673   */\n      add\n        /* \"#utility.yul\":5646:5673   */\n      swap1\n      pop\n        /* \"#utility.yul\":5683:5754   */\n      tag_329\n        /* \"#utility.yul\":5751:5752   */\n      0x00\n        /* \"#utility.yul\":5740:5749   */\n      dup4\n        /* \"#utility.yul\":5736:5753   */\n      add\n        /* \"#utility.yul\":5727:5733   */\n      dup12\n        /* \"#utility.yul\":5683:5754   */\n      tag_277\n      jump\t// in\n    tag_329:\n        /* \"#utility.yul\":5764:5836   */\n      tag_330\n        /* \"#utility.yul\":5832:5834   */\n      0x20\n        /* \"#utility.yul\":5821:5830   */\n      dup4\n        /* \"#utility.yul\":5817:5835   */\n      add\n        /* \"#utility.yul\":5808:5814   */\n      dup11\n        /* \"#utility.yul\":5764:5836   */\n      tag_316\n      jump\t// in\n    tag_330:\n        /* \"#utility.yul\":5846:5918   */\n      tag_331\n        /* \"#utility.yul\":5914:5916   */\n      0x40\n        /* \"#utility.yul\":5903:5912   */\n      dup4\n        /* \"#utility.yul\":5899:5917   */\n      add\n        /* \"#utility.yul\":5890:5896   */\n      dup10\n        /* \"#utility.yul\":5846:5918   */\n      tag_281\n      jump\t// in\n    tag_331:\n        /* \"#utility.yul\":5928:6000   */\n      tag_332\n        /* \"#utility.yul\":5996:5998   */\n      0x60\n        /* \"#utility.yul\":5985:5994   */\n      dup4\n        /* \"#utility.yul\":5981:5999   */\n      add\n        /* \"#utility.yul\":5972:5978   */\n      dup9\n        /* \"#utility.yul\":5928:6000   */\n      tag_277\n      jump\t// in\n    tag_332:\n        /* \"#utility.yul\":6010:6081   */\n      tag_333\n        /* \"#utility.yul\":6076:6079   */\n      0x80\n        /* \"#utility.yul\":6065:6074   */\n      dup4\n        /* \"#utility.yul\":6061:6080   */\n      add\n        /* \"#utility.yul\":6052:6058   */\n      dup8\n        /* \"#utility.yul\":6010:6081   */\n      tag_285\n      jump\t// in\n    tag_333:\n        /* \"#utility.yul\":6091:6164   */\n      tag_334\n        /* \"#utility.yul\":6159:6162   */\n      0xa0\n        /* \"#utility.yul\":6148:6157   */\n      dup4\n        /* \"#utility.yul\":6144:6163   */\n      add\n        /* \"#utility.yul\":6135:6141   */\n      dup7\n        /* \"#utility.yul\":6091:6164   */\n      tag_316\n      jump\t// in\n    tag_334:\n        /* \"#utility.yul\":6174:6247   */\n      tag_335\n        /* \"#utility.yul\":6242:6245   */\n      0xc0\n        /* \"#utility.yul\":6231:6240   */\n      dup4\n        /* \"#utility.yul\":6227:6246   */\n      add\n        /* \"#utility.yul\":6218:6224   */\n      dup6\n        /* \"#utility.yul\":6174:6247   */\n      tag_316\n      jump\t// in\n    tag_335:\n        /* \"#utility.yul\":6295:6304   */\n      dup2\n        /* \"#utility.yul\":6289:6293   */\n      dup2\n        /* \"#utility.yul\":6285:6305   */\n      sub\n        /* \"#utility.yul\":6279:6282   */\n      0xe0\n        /* \"#utility.yul\":6268:6277   */\n      dup4\n        /* \"#utility.yul\":6264:6283   */\n      add\n        /* \"#utility.yul\":6257:6306   */\n      mstore\n        /* \"#utility.yul\":6323:6399   */\n      tag_336\n        /* \"#utility.yul\":6394:6398   */\n      dup2\n        /* \"#utility.yul\":6385:6391   */\n      dup5\n        /* \"#utility.yul\":6323:6399   */\n      tag_289\n      jump\t// in\n    tag_336:\n        /* \"#utility.yul\":6315:6399   */\n      swap1\n      pop\n        /* \"#utility.yul\":5326:6406   */\n      swap10\n      swap9\n      pop\n      pop\n      pop\n      pop\n      pop\n      pop\n      pop\n      pop\n      pop\n      jump\t// out\n        /* \"#utility.yul\":6412:6941   */\n    tag_168:\n        /* \"#utility.yul\":6579:6583   */\n      0x00\n        /* \"#utility.yul\":6617:6619   */\n      0x60\n        /* \"#utility.yul\":6606:6615   */\n      dup3\n        /* \"#utility.yul\":6602:6620   */\n      add\n        /* \"#utility.yul\":6594:6620   */\n      swap1\n      pop\n        /* \"#utility.yul\":6630:6701   */\n      tag_338\n        /* \"#utility.yul\":6698:6699   */\n      0x00\n        /* \"#utility.yul\":6687:6696   */\n      dup4\n        /* \"#utility.yul\":6683:6700   */\n      add\n        /* \"#utility.yul\":6674:6680   */\n      dup7\n        /* \"#utility.yul\":6630:6701   */\n      tag_277\n      jump\t// in\n    tag_338:\n        /* \"#utility.yul\":6711:6783   */\n      tag_339\n        /* \"#utility.yul\":6779:6781   */\n      0x20\n        /* \"#utility.yul\":6768:6777   */\n      dup4\n        /* \"#utility.yul\":6764:6782   */\n      add\n        /* \"#utility.yul\":6755:6761   */\n      dup6\n        /* \"#utility.yul\":6711:6783   */\n      tag_316\n      jump\t// in\n    tag_339:\n        /* \"#utility.yul\":6830:6839   */\n      dup2\n        /* \"#utility.yul\":6824:6828   */\n      dup2\n        /* \"#utility.yul\":6820:6840   */\n      sub\n        /* \"#utility.yul\":6815:6817   */\n      0x40\n        /* \"#utility.yul\":6804:6813   */\n      dup4\n        /* \"#utility.yul\":6800:6818   */\n      add\n        /* \"#utility.yul\":6793:6841   */\n      mstore\n        /* \"#utility.yul\":6858:6934   */\n      tag_340\n        /* \"#utility.yul\":6929:6933   */\n      dup2\n        /* \"#utility.yul\":6920:6926   */\n      dup5\n        /* \"#utility.yul\":6858:6934   */\n      tag_289\n      jump\t// in\n    tag_340:\n        /* \"#utility.yul\":6850:6934   */\n      swap1\n      pop\n        /* \"#utility.yul\":6412:6941   */\n      swap5\n      swap4\n      pop\n      pop\n      pop\n      pop\n      jump\t// out\n        /* \"#utility.yul\":6947:7169   */\n    tag_45:\n        /* \"#utility.yul\":7040:7044   */\n      0x00\n        /* \"#utility.yul\":7078:7080   */\n      0x20\n        /* \"#utility.yul\":7067:7076   */\n      dup3\n        /* \"#utility.yul\":7063:7081   */\n      add\n        /* \"#utility.yul\":7055:7081   */\n      swap1\n      pop\n        /* \"#utility.yul\":7091:7162   */\n      tag_342\n        /* \"#utility.yul\":7159:7160   */\n      0x00\n        /* \"#utility.yul\":7148:7157   */\n      dup4\n        /* \"#utility.yul\":7144:7161   */\n      add\n        /* \"#utility.yul\":7135:7141   */\n      dup5\n        /* \"#utility.yul\":7091:7162   */\n      tag_281\n      jump\t// in\n    tag_342:\n        /* \"#utility.yul\":6947:7169   */\n      swap3\n      swap2\n      pop\n      pop\n      jump\t// out\n        /* \"#utility.yul\":7175:7594   */\n    tag_176:\n        /* \"#utility.yul\":7341:7345   */\n      0x00\n        /* \"#utility.yul\":7379:7381   */\n      0x20\n        /* \"#utility.yul\":7368:7377   */\n      dup3\n        /* \"#utility.yul\":7364:7382   */\n      add\n        /* \"#utility.yul\":7356:7382   */\n      swap1\n      pop\n        /* \"#utility.yul\":7428:7437   */\n      dup2\n        /* \"#utility.yul\":7422:7426   */\n      dup2\n        /* \"#utility.yul\":7418:7438   */\n      sub\n        /* \"#utility.yul\":7414:7415   */\n      0x00\n        /* \"#utility.yul\":7403:7412   */\n      dup4\n        /* \"#utility.yul\":7399:7416   */\n      add\n        /* \"#utility.yul\":7392:7439   */\n      mstore\n        /* \"#utility.yul\":7456:7587   */\n      tag_344\n        /* \"#utility.yul\":7582:7586   */\n      dup2\n        /* \"#utility.yul\":7456:7587   */\n      tag_305\n      jump\t// in\n    tag_344:\n        /* \"#utility.yul\":7448:7587   */\n      swap1\n      pop\n        /* \"#utility.yul\":7175:7594   */\n      swap2\n      swap1\n      pop\n      jump\t// out\n        /* \"#utility.yul\":7600:8019   */\n    tag_64:\n        /* \"#utility.yul\":7766:7770   */\n      0x00\n        /* \"#utility.yul\":7804:7806   */\n      0x20\n        /* \"#utility.yul\":7793:7802   */\n      dup3\n        /* \"#utility.yul\":7789:7807   */\n      add\n        /* \"#utility.yul\":7781:7807   */\n      swap1\n      pop\n        /* \"#utility.yul\":7853:7862   */\n      dup2\n        /* \"#utility.yul\":7847:7851   */\n      dup2\n        /* \"#utility.yul\":7843:7863   */\n      sub\n        /* \"#utility.yul\":7839:7840   */\n      0x00\n        /* \"#utility.yul\":7828:7837   */\n      dup4\n        /* \"#utility.yul\":7824:7841   */\n      add\n        /* \"#utility.yul\":7817:7864   */\n      mstore\n        /* \"#utility.yul\":7881:8012   */\n      tag_346\n        /* \"#utility.yul\":8007:8011   */\n      dup2\n        /* \"#utility.yul\":7881:8012   */\n      tag_311\n      jump\t// in\n    tag_346:\n        /* \"#utility.yul\":7873:8012   */\n      swap1\n      pop\n        /* \"#utility.yul\":7600:8019   */\n      swap2\n      swap1\n      pop\n      jump\t// out\n        /* \"#utility.yul\":8025:8247   */\n    tag_35:\n        /* \"#utility.yul\":8118:8122   */\n      0x00\n        /* \"#utility.yul\":8156:8158   */\n      0x20\n        /* \"#utility.yul\":8145:8154   */\n      dup3\n        /* \"#utility.yul\":8141:8159   */\n      add\n        /* \"#utility.yul\":8133:8159   */\n      swap1\n      pop\n        /* \"#utility.yul\":8169:8240   */\n      tag_348\n        /* \"#utility.yul\":8237:8238   */\n      0x00\n        /* \"#utility.yul\":8226:8235   */\n      dup4\n        /* \"#utility.yul\":8222:8239   */\n      add\n        /* \"#utility.yul\":8213:8219   */\n      dup5\n        /* \"#utility.yul\":8169:8240   */\n      tag_316\n      jump\t// in\n    tag_348:\n        /* \"#utility.yul\":8025:8247   */\n      swap3\n      swap2\n      pop\n      pop\n      jump\t// out\n        /* \"#utility.yul\":8253:8382   */\n    tag_233:\n        /* \"#utility.yul\":8287:8293   */\n      0x00\n        /* \"#utility.yul\":8314:8334   */\n      tag_350\n      tag_351\n      jump\t// in\n    tag_350:\n        /* \"#utility.yul\":8304:8334   */\n      swap1\n      pop\n        /* \"#utility.yul\":8343:8376   */\n      tag_352\n        /* \"#utility.yul\":8371:8375   */\n      dup3\n        /* \"#utility.yul\":8363:8369   */\n      dup3\n        /* \"#utility.yul\":8343:8376   */\n      tag_353\n      jump\t// in\n    tag_352:\n        /* \"#utility.yul\":8253:8382   */\n      swap2\n      swap1\n      pop\n      jump\t// out\n        /* \"#utility.yul\":8388:8463   */\n    tag_351:\n        /* \"#utility.yul\":8421:8427   */\n      0x00\n        /* \"#utility.yul\":8454:8456   */\n      0x40\n        /* \"#utility.yul\":8448:8457   */\n      mload\n        /* \"#utility.yul\":8438:8457   */\n      swap1\n      pop\n        /* \"#utility.yul\":8388:8463   */\n      swap1\n      jump\t// out\n        /* \"#utility.yul\":8469:8777   */\n    tag_232:\n        /* \"#utility.yul\":8531:8535   */\n      0x00\n        /* \"#utility.yul\":8621:8639   */\n      0xffffffffffffffff\n        /* \"#utility.yul\":8613:8619   */\n      dup3\n        /* \"#utility.yul\":8610:8640   */\n      gt\n        /* \"#utility.yul\":8607:8663   */\n      iszero\n      tag_356\n      jumpi\n        /* \"#utility.yul\":8643:8661   */\n      tag_357\n      tag_358\n      jump\t// in\n    tag_357:\n        /* \"#utility.yul\":8607:8663   */\n    tag_356:\n        /* \"#utility.yul\":8681:8710   */\n      tag_359\n        /* \"#utility.yul\":8703:8709   */\n      dup3\n        /* \"#utility.yul\":8681:8710   */\n      tag_298\n      jump\t// in\n    tag_359:\n        /* \"#utility.yul\":8673:8710   */\n      swap1\n      pop\n        /* \"#utility.yul\":8765:8769   */\n      0x20\n        /* \"#utility.yul\":8759:8763   */\n      dup2\n        /* \"#utility.yul\":8755:8770   */\n      add\n        /* \"#utility.yul\":8747:8770   */\n      swap1\n      pop\n        /* \"#utility.yul\":8469:8777   */\n      swap2\n      swap1\n      pop\n      jump\t// out\n        /* \"#utility.yul\":8783:8881   */\n    tag_292:\n        /* \"#utility.yul\":8834:8840   */\n      0x00\n        /* \"#utility.yul\":8868:8873   */\n      dup2\n        /* \"#utility.yul\":8862:8874   */\n      mload\n        /* \"#utility.yul\":8852:8874   */\n      swap1\n      pop\n        /* \"#utility.yul\":8783:8881   */\n      swap2\n      swap1\n      pop\n      jump\t// out\n        /* \"#utility.yul\":8887:9055   */\n    tag_294:\n        /* \"#utility.yul\":8970:8981   */\n      0x00\n        /* \"#utility.yul\":9004:9010   */\n      dup3\n        /* \"#utility.yul\":8999:9002   */\n      dup3\n        /* \"#utility.yul\":8992:9011   */\n      mstore\n        /* \"#utility.yul\":9044:9048   */\n      0x20\n        /* \"#utility.yul\":9039:9042   */\n      dup3\n        /* \"#utility.yul\":9035:9049   */\n      add\n        /* \"#utility.yul\":9020:9049   */\n      swap1\n      pop\n        /* \"#utility.yul\":8887:9055   */\n      swap3\n      swap2\n      pop\n      pop\n      jump\t// out\n        /* \"#utility.yul\":9061:9230   */\n    tag_308:\n        /* \"#utility.yul\":9145:9156   */\n      0x00\n        /* \"#utility.yul\":9179:9185   */\n      dup3\n        /* \"#utility.yul\":9174:9177   */\n      dup3\n        /* \"#utility.yul\":9167:9186   */\n      mstore\n        /* \"#utility.yul\":9219:9223   */\n      0x20\n        /* \"#utility.yul\":9214:9217   */\n      dup3\n        /* \"#utility.yul\":9210:9224   */\n      add\n        /* \"#utility.yul\":9195:9224   */\n      swap1\n      pop\n        /* \"#utility.yul\":9061:9230   */\n      swap3\n      swap2\n      pop\n      pop\n      jump\t// out\n        /* \"#utility.yul\":9236:9541   */\n    tag_125:\n        /* \"#utility.yul\":9276:9279   */\n      0x00\n        /* \"#utility.yul\":9295:9315   */\n      tag_364\n        /* \"#utility.yul\":9313:9314   */\n      dup3\n        /* \"#utility.yul\":9295:9315   */\n      tag_319\n      jump\t// in\n    tag_364:\n        /* \"#utility.yul\":9290:9315   */\n      swap2\n      pop\n        /* \"#utility.yul\":9329:9349   */\n      tag_365\n        /* \"#utility.yul\":9347:9348   */\n      dup4\n        /* \"#utility.yul\":9329:9349   */\n      tag_319\n      jump\t// in\n    tag_365:\n        /* \"#utility.yul\":9324:9349   */\n      swap3\n      pop\n        /* \"#utility.yul\":9483:9484   */\n      dup3\n        /* \"#utility.yul\":9415:9481   */\n      0xffffffffffffffffffffffffffffffffffffffffffffffffffffffffffffffff\n        /* \"#utility.yul\":9411:9485   */\n      sub\n        /* \"#utility.yul\":9408:9409   */\n      dup3\n        /* \"#utility.yul\":9405:9486   */\n      gt\n        /* \"#utility.yul\":9402:9509   */\n      iszero\n      tag_366\n      jumpi\n        /* \"#utility.yul\":9489:9507   */\n      tag_367\n      tag_368\n      jump\t// in\n    tag_367:\n        /* \"#utility.yul\":9402:9509   */\n    tag_366:\n        /* \"#utility.yul\":9533:9534   */\n      dup3\n        /* \"#utility.yul\":9530:9531   */\n      dup3\n        /* \"#utility.yul\":9526:9535   */\n      add\n        /* \"#utility.yul\":9519:9535   */\n      swap1\n      pop\n        /* \"#utility.yul\":9236:9541   */\n      swap3\n      swap2\n      pop\n      pop\n      jump\t// out\n        /* \"#utility.yul\":9547:10395   */\n    tag_369:\n        /* \"#utility.yul\":9608:9613   */\n      0x00\n        /* \"#utility.yul\":9615:9619   */\n      dup1\n        /* \"#utility.yul\":9639:9645   */\n      dup3\n        /* \"#utility.yul\":9630:9645   */\n      swap2\n      pop\n        /* \"#utility.yul\":9663:9668   */\n      dup4\n        /* \"#utility.yul\":9654:9668   */\n      swap1\n      pop\n        /* \"#utility.yul\":9677:10389   */\n    tag_371:\n        /* \"#utility.yul\":9698:9699   */\n      0x01\n        /* \"#utility.yul\":9688:9696   */\n      dup6\n        /* \"#utility.yul\":9685:9700   */\n      gt\n        /* \"#utility.yul\":9677:10389   */\n      iszero\n      tag_373\n      jumpi\n        /* \"#utility.yul\":9793:9797   */\n      dup1\n        /* \"#utility.yul\":9788:9791   */\n      dup7\n        /* \"#utility.yul\":9784:9798   */\n      div\n        /* \"#utility.yul\":9778:9782   */\n      dup2\n        /* \"#utility.yul\":9775:9799   */\n      gt\n        /* \"#utility.yul\":9772:9822   */\n      iszero\n      tag_374\n      jumpi\n        /* \"#utility.yul\":9802:9820   */\n      tag_375\n      tag_368\n      jump\t// in\n    tag_375:\n        /* \"#utility.yul\":9772:9822   */\n    tag_374:\n        /* \"#utility.yul\":9852:9853   */\n      0x01\n        /* \"#utility.yul\":9842:9850   */\n      dup6\n        /* \"#utility.yul\":9838:9854   */\n      and\n        /* \"#utility.yul\":9835:10286   */\n      iszero\n      tag_376\n      jumpi\n        /* \"#utility.yul\":10267:10271   */\n      dup1\n        /* \"#utility.yul\":10260:10265   */\n      dup3\n        /* \"#utility.yul\":10256:10272   */\n      mul\n        /* \"#utility.yul\":10247:10272   */\n      swap2\n      pop\n        /* \"#utility.yul\":9835:10286   */\n    tag_376:\n        /* \"#utility.yul\":10317:10321   */\n      dup1\n        /* \"#utility.yul\":10311:10315   */\n      dup2\n        /* \"#utility.yul\":10307:10322   */\n      mul\n        /* \"#utility.yul\":10299:10322   */\n      swap1\n      pop\n        /* \"#utility.yul\":10347:10379   */\n      tag_377\n        /* \"#utility.yul\":10370:10378   */\n      dup6\n        /* \"#utility.yul\":10347:10379   */\n      tag_378\n      jump\t// in\n    tag_377:\n        /* \"#utility.yul\":10335:10379   */\n      swap5\n      pop\n        /* \"#utility.yul\":9677:10389   */\n      jump(tag_371)\n    tag_373:\n        /* \"#utility.yul\":9547:10395   */\n      swap5\n      pop\n      swap5\n      swap3\n      pop\n      pop\n      pop\n      jump\t// out\n        /* \"#utility.yul\":10401:10686   */\n    tag_218:\n        /* \"#utility.yul\":10461:10466   */\n      0x00\n        /* \"#utility.yul\":10485:10508   */\n      tag_380\n        /* \"#utility.yul\":10503:10507   */\n      dup3\n        /* \"#utility.yul\":10485:10508   */\n      tag_319\n      jump\t// in\n    tag_380:\n        /* \"#utility.yul\":10477:10508   */\n      swap2\n      pop\n        /* \"#utility.yul\":10529:10556   */\n      tag_381\n        /* \"#utility.yul\":10547:10555   */\n      dup4\n        /* \"#utility.yul\":10529:10556   */\n      tag_319\n      jump\t// in\n    tag_381:\n        /* \"#utility.yul\":10517:10556   */\n      swap3\n      pop\n        /* \"#utility.yul\":10575:10679   */\n      tag_382\n        /* \"#utility.yul\":10612:10678   */\n      0xffffffffffffffffffffffffffffffffffffffffffffffffffffffffffffffff\n        /* \"#utility.yul\":10602:10610   */\n      dup5\n        /* \"#utility.yul\":10596:10600   */\n      dup5\n        /* \"#utility.yul\":10575:10679   */\n      tag_383\n      jump\t// in\n    tag_382:\n        /* \"#utility.yul\":10566:10679   */\n      swap1\n      pop\n        /* \"#utility.yul\":10401:10686   */\n      swap3\n      swap2\n      pop\n      pop\n      jump\t// out\n        /* \"#utility.yul\":10692:11765   */\n    tag_383:\n        /* \"#utility.yul\":10746:10751   */\n      0x00\n        /* \"#utility.yul\":10937:10945   */\n      dup3\n        /* \"#utility.yul\":10927:10967   */\n      tag_385\n      jumpi\n        /* \"#utility.yul\":10958:10959   */\n      0x01\n        /* \"#utility.yul\":10949:10959   */\n      swap1\n      pop\n        /* \"#utility.yul\":10960:10965   */\n      jump(tag_384)\n        /* \"#utility.yul\":10927:10967   */\n    tag_385:\n        /* \"#utility.yul\":10986:10990   */\n      dup2\n        /* \"#utility.yul\":10976:11012   */\n      tag_386\n      jumpi\n        /* \"#utility.yul\":11003:11004   */\n      0x00\n        /* \"#utility.yul\":10994:11004   */\n      swap1\n      pop\n        /* \"#utility.yul\":11005:11010   */\n      jump(tag_384)\n        /* \"#utility.yul\":10976:11012   */\n    tag_386:\n        /* \"#utility.yul\":11072:11076   */\n      dup2\n        /* \"#utility.yul\":11120:11121   */\n      0x01\n        /* \"#utility.yul\":11115:11142   */\n      dup2\n      eq\n      tag_388\n      jumpi\n        /* \"#utility.yul\":11156:11157   */\n      0x02\n        /* \"#utility.yul\":11151:11342   */\n      dup2\n      eq\n      tag_389\n      jumpi\n        /* \"#utility.yul\":11065:11342   */\n      jump(tag_387)\n        /* \"#utility.yul\":11115:11142   */\n    tag_388:\n        /* \"#utility.yul\":11133:11134   */\n      0x01\n        /* \"#utility.yul\":11124:11134   */\n      swap2\n      pop\n        /* \"#utility.yul\":11135:11140   */\n      pop\n      jump(tag_384)\n        /* \"#utility.yul\":11151:11342   */\n    tag_389:\n        /* \"#utility.yul\":11196:11199   */\n      0xff\n        /* \"#utility.yul\":11186:11194   */\n      dup5\n        /* \"#utility.yul\":11183:11200   */\n      gt\n        /* \"#utility.yul\":11180:11223   */\n      iszero\n      tag_390\n      jumpi\n        /* \"#utility.yul\":11203:11221   */\n      tag_391\n      tag_368\n      jump\t// in\n    tag_391:\n        /* \"#utility.yul\":11180:11223   */\n    tag_390:\n        /* \"#utility.yul\":11252:11260   */\n      dup4\n        /* \"#utility.yul\":11249:11250   */\n      0x02\n        /* \"#utility.yul\":11245:11261   */\n      exp\n        /* \"#utility.yul\":11236:11261   */\n      swap2\n      pop\n        /* \"#utility.yul\":11287:11290   */\n      dup5\n        /* \"#utility.yul\":11280:11285   */\n      dup3\n        /* \"#utility.yul\":11277:11291   */\n      gt\n        /* \"#utility.yul\":11274:11314   */\n      iszero\n      tag_392\n      jumpi\n        /* \"#utility.yul\":11294:11312   */\n      tag_393\n      tag_368\n      jump\t// in\n    tag_393:\n        /* \"#utility.yul\":11274:11314   */\n    tag_392:\n        /* \"#utility.yul\":11327:11332   */\n      pop\n      jump(tag_384)\n        /* \"#utility.yul\":11065:11342   */\n    tag_387:\n      pop\n        /* \"#utility.yul\":11451:11453   */\n      0x20\n        /* \"#utility.yul\":11441:11449   */\n      dup4\n        /* \"#utility.yul\":11438:11454   */\n      lt\n        /* \"#utility.yul\":11432:11435   */\n      0x0133\n        /* \"#utility.yul\":11426:11430   */\n      dup4\n        /* \"#utility.yul\":11423:11436   */\n      lt\n        /* \"#utility.yul\":11419:11455   */\n      and\n        /* \"#utility.yul\":11401:11403   */\n      0x4e\n        /* \"#utility.yul\":11391:11399   */\n      dup5\n        /* \"#utility.yul\":11388:11404   */\n      lt\n        /* \"#utility.yul\":11383:11385   */\n      0x0b\n        /* \"#utility.yul\":11377:11381   */\n      dup5\n        /* \"#utility.yul\":11374:11386   */\n      lt\n        /* \"#utility.yul\":11370:11405   */\n      and\n        /* \"#utility.yul\":11354:11465   */\n      or\n        /* \"#utility.yul\":11351:11597   */\n      iszero\n      tag_394\n      jumpi\n        /* \"#utility.yul\":11507:11515   */\n      dup3\n        /* \"#utility.yul\":11501:11505   */\n      dup3\n        /* \"#utility.yul\":11497:11516   */\n      exp\n        /* \"#utility.yul\":11488:11516   */\n      swap1\n      pop\n        /* \"#utility.yul\":11542:11545   */\n      dup4\n        /* \"#utility.yul\":11535:11540   */\n      dup2\n        /* \"#utility.yul\":11532:11546   */\n      gt\n        /* \"#utility.yul\":11529:11569   */\n      iszero\n      tag_395\n      jumpi\n        /* \"#utility.yul\":11549:11567   */\n      tag_396\n      tag_368\n      jump\t// in\n    tag_396:\n        /* \"#utility.yul\":11529:11569   */\n    tag_395:\n        /* \"#utility.yul\":11582:11587   */\n      jump(tag_384)\n        /* \"#utility.yul\":11351:11597   */\n    tag_394:\n        /* \"#utility.yul\":11622:11664   */\n      tag_397\n        /* \"#utility.yul\":11660:11663   */\n      dup5\n        /* \"#utility.yul\":11650:11658   */\n      dup5\n        /* \"#utility.yul\":11644:11648   */\n      dup5\n        /* \"#utility.yul\":11641:11642   */\n      0x01\n        /* \"#utility.yul\":11622:11664   */\n      tag_369\n      jump\t// in\n    tag_397:\n        /* \"#utility.yul\":11607:11664   */\n      swap3\n      pop\n      swap1\n      pop\n        /* \"#utility.yul\":11696:11700   */\n      dup2\n        /* \"#utility.yul\":11691:11694   */\n      dup5\n        /* \"#utility.yul\":11687:11701   */\n      div\n        /* \"#utility.yul\":11680:11685   */\n      dup2\n        /* \"#utility.yul\":11677:11702   */\n      gt\n        /* \"#utility.yul\":11674:11725   */\n      iszero\n      tag_398\n      jumpi\n        /* \"#utility.yul\":11705:11723   */\n      tag_399\n      tag_368\n      jump\t// in\n    tag_399:\n        /* \"#utility.yul\":11674:11725   */\n    tag_398:\n        /* \"#utility.yul\":11754:11758   */\n      dup2\n        /* \"#utility.yul\":11747:11752   */\n      dup2\n        /* \"#utility.yul\":11743:11759   */\n      mul\n        /* \"#utility.yul\":11734:11759   */\n      swap1\n      pop\n        /* \"#utility.yul\":10692:11765   */\n    tag_384:\n      swap4\n      swap3\n      pop\n      pop\n      pop\n      jump\t// out\n        /* \"#utility.yul\":11771:12119   */\n    tag_195:\n        /* \"#utility.yul\":11811:11818   */\n      0x00\n        /* \"#utility.yul\":11834:11854   */\n      tag_401\n        /* \"#utility.yul\":11852:11853   */\n      dup3\n        /* \"#utility.yul\":11834:11854   */\n      tag_319\n      jump\t// in\n    tag_401:\n        /* \"#utility.yul\":11829:11854   */\n      swap2\n      pop\n        /* \"#utility.yul\":11868:11888   */\n      tag_402\n        /* \"#utility.yul\":11886:11887   */\n      dup4\n        /* \"#utility.yul\":11868:11888   */\n      tag_319\n      jump\t// in\n    tag_402:\n        /* \"#utility.yul\":11863:11888   */\n      swap3\n      pop\n        /* \"#utility.yul\":12056:12057   */\n      dup2\n        /* \"#utility.yul\":11988:12054   */\n      0xffffffffffffffffffffffffffffffffffffffffffffffffffffffffffffffff\n        /* \"#utility.yul\":11984:12058   */\n      div\n        /* \"#utility.yul\":11981:11982   */\n      dup4\n        /* \"#utility.yul\":11978:12059   */\n      gt\n        /* \"#utility.yul\":11973:11974   */\n      dup3\n        /* \"#utility.yul\":11966:11975   */\n      iszero\n        /* \"#utility.yul\":11959:11976   */\n      iszero\n        /* \"#utility.yul\":11955:12060   */\n      and\n        /* \"#utility.yul\":11952:12083   */\n      iszero\n      tag_403\n      jumpi\n        /* \"#utility.yul\":12063:12081   */\n      tag_404\n      tag_368\n      jump\t// in\n    tag_404:\n        /* \"#utility.yul\":11952:12083   */\n    tag_403:\n        /* \"#utility.yul\":12111:12112   */\n      dup3\n        /* \"#utility.yul\":12108:12109   */\n      dup3\n        /* \"#utility.yul\":12104:12113   */\n      mul\n        /* \"#utility.yul\":12093:12113   */\n      swap1\n      pop\n        /* \"#utility.yul\":11771:12119   */\n      swap3\n      swap2\n      pop\n      pop\n      jump\t// out\n        /* \"#utility.yul\":12125:12316   */\n    tag_138:\n        /* \"#utility.yul\":12165:12169   */\n      0x00\n        /* \"#utility.yul\":12185:12205   */\n      tag_406\n        /* \"#utility.yul\":12203:12204   */\n      dup3\n        /* \"#utility.yul\":12185:12205   */\n      tag_319\n      jump\t// in\n    tag_406:\n        /* \"#utility.yul\":12180:12205   */\n      swap2\n      pop\n        /* \"#utility.yul\":12219:12239   */\n      tag_407\n        /* \"#utility.yul\":12237:12238   */\n      dup4\n        /* \"#utility.yul\":12219:12239   */\n      tag_319\n      jump\t// in\n    tag_407:\n        /* \"#utility.yul\":12214:12239   */\n      swap3\n      pop\n        /* \"#utility.yul\":12258:12259   */\n      dup3\n        /* \"#utility.yul\":12255:12256   */\n      dup3\n        /* \"#utility.yul\":12252:12260   */\n      lt\n        /* \"#utility.yul\":12249:12283   */\n      iszero\n      tag_408\n      jumpi\n        /* \"#utility.yul\":12263:12281   */\n      tag_409\n      tag_368\n      jump\t// in\n    tag_409:\n        /* \"#utility.yul\":12249:12283   */\n    tag_408:\n        /* \"#utility.yul\":12308:12309   */\n      dup3\n        /* \"#utility.yul\":12305:12306   */\n      dup3\n        /* \"#utility.yul\":12301:12310   */\n      sub\n        /* \"#utility.yul\":12293:12310   */\n      swap1\n      pop\n        /* \"#utility.yul\":12125:12316   */\n      swap3\n      swap2\n      pop\n      pop\n      jump\t// out\n        /* \"#utility.yul\":12322:12418   */\n    tag_280:\n        /* \"#utility.yul\":12359:12366   */\n      0x00\n        /* \"#utility.yul\":12388:12412   */\n      tag_411\n        /* \"#utility.yul\":12406:12411   */\n      dup3\n        /* \"#utility.yul\":12388:12412   */\n      tag_412\n      jump\t// in\n    tag_411:\n        /* \"#utility.yul\":12377:12412   */\n      swap1\n      pop\n        /* \"#utility.yul\":12322:12418   */\n      swap2\n      swap1\n      pop\n      jump\t// out\n        /* \"#utility.yul\":12424:12514   */\n    tag_413:\n        /* \"#utility.yul\":12458:12465   */\n      0x00\n        /* \"#utility.yul\":12501:12506   */\n      dup2\n        /* \"#utility.yul\":12494:12507   */\n      iszero\n        /* \"#utility.yul\":12487:12508   */\n      iszero\n        /* \"#utility.yul\":12476:12508   */\n      swap1\n      pop\n        /* \"#utility.yul\":12424:12514   */\n      swap2\n      swap1\n      pop\n      jump\t// out\n        /* \"#utility.yul\":12520:12597   */\n    tag_284:\n        /* \"#utility.yul\":12557:12564   */\n      0x00\n        /* \"#utility.yul\":12586:12591   */\n      dup2\n        /* \"#utility.yul\":12575:12591   */\n      swap1\n      pop\n        /* \"#utility.yul\":12520:12597   */\n      swap2\n      swap1\n      pop\n      jump\t// out\n        /* \"#utility.yul\":12603:12752   */\n    tag_288:\n        /* \"#utility.yul\":12639:12646   */\n      0x00\n        /* \"#utility.yul\":12679:12745   */\n      0xffffffff00000000000000000000000000000000000000000000000000000000\n        /* \"#utility.yul\":12672:12677   */\n      dup3\n        /* \"#utility.yul\":12668:12746   */\n      and\n        /* \"#utility.yul\":12657:12746   */\n      swap1\n      pop\n        /* \"#utility.yul\":12603:12752   */\n      swap2\n      swap1\n      pop\n      jump\t// out\n        /* \"#utility.yul\":12758:12884   */\n    tag_412:\n        /* \"#utility.yul\":12795:12802   */\n      0x00\n        /* \"#utility.yul\":12835:12877   */\n      0xffffffffffffffffffffffffffffffffffffffff\n        /* \"#utility.yul\":12828:12833   */\n      dup3\n        /* \"#utility.yul\":12824:12878   */\n      and\n        /* \"#utility.yul\":12813:12878   */\n      swap1\n      pop\n        /* \"#utility.yul\":12758:12884   */\n      swap2\n      swap1\n      pop\n      jump\t// out\n        /* \"#utility.yul\":12890:12967   */\n    tag_319:\n        /* \"#utility.yul\":12927:12934   */\n      0x00\n        /* \"#utility.yul\":12956:12961   */\n      dup2\n        /* \"#utility.yul\":12945:12961   */\n      swap1\n      pop\n        /* \"#utility.yul\":12890:12967   */\n      swap2\n      swap1\n      pop\n      jump\t// out\n        /* \"#utility.yul\":12973:13122   */\n    tag_303:\n        /* \"#utility.yul\":13046:13055   */\n      0x00\n        /* \"#utility.yul\":13079:13116   */\n      tag_420\n        /* \"#utility.yul\":13110:13115   */\n      dup3\n        /* \"#utility.yul\":13079:13116   */\n      tag_421\n      jump\t// in\n    tag_420:\n        /* \"#utility.yul\":13066:13116   */\n      swap1\n      pop\n        /* \"#utility.yul\":12973:13122   */\n      swap2\n      swap1\n      pop\n      jump\t// out\n        /* \"#utility.yul\":13128:13254   */\n    tag_421:\n        /* \"#utility.yul\":13178:13187   */\n      0x00\n        /* \"#utility.yul\":13211:13248   */\n      tag_423\n        /* \"#utility.yul\":13242:13247   */\n      dup3\n        /* \"#utility.yul\":13211:13248   */\n      tag_424\n      jump\t// in\n    tag_423:\n        /* \"#utility.yul\":13198:13248   */\n      swap1\n      pop\n        /* \"#utility.yul\":13128:13254   */\n      swap2\n      swap1\n      pop\n      jump\t// out\n        /* \"#utility.yul\":13260:13373   */\n    tag_424:\n        /* \"#utility.yul\":13310:13319   */\n      0x00\n        /* \"#utility.yul\":13343:13367   */\n      tag_426\n        /* \"#utility.yul\":13361:13366   */\n      dup3\n        /* \"#utility.yul\":13343:13367   */\n      tag_412\n      jump\t// in\n    tag_426:\n        /* \"#utility.yul\":13330:13367   */\n      swap1\n      pop\n        /* \"#utility.yul\":13260:13373   */\n      swap2\n      swap1\n      pop\n      jump\t// out\n        /* \"#utility.yul\":13379:13533   */\n    tag_238:\n        /* \"#utility.yul\":13463:13469   */\n      dup3\n        /* \"#utility.yul\":13458:13461   */\n      dup2\n        /* \"#utility.yul\":13453:13456   */\n      dup4\n        /* \"#utility.yul\":13440:13470   */\n      calldatacopy\n        /* \"#utility.yul\":13525:13526   */\n      0x00\n        /* \"#utility.yul\":13516:13522   */\n      dup4\n        /* \"#utility.yul\":13511:13514   */\n      dup4\n        /* \"#utility.yul\":13507:13523   */\n      add\n        /* \"#utility.yul\":13500:13527   */\n      mstore\n        /* \"#utility.yul\":13379:13533   */\n      pop\n      pop\n      pop\n      jump\t// out\n        /* \"#utility.yul\":13539:13846   */\n    tag_296:\n        /* \"#utility.yul\":13607:13608   */\n      0x00\n        /* \"#utility.yul\":13617:13730   */\n    tag_429:\n        /* \"#utility.yul\":13631:13637   */\n      dup4\n        /* \"#utility.yul\":13628:13629   */\n      dup2\n        /* \"#utility.yul\":13625:13638   */\n      lt\n        /* \"#utility.yul\":13617:13730   */\n      iszero\n      tag_431\n      jumpi\n        /* \"#utility.yul\":13716:13717   */\n      dup1\n        /* \"#utility.yul\":13711:13714   */\n      dup3\n        /* \"#utility.yul\":13707:13718   */\n      add\n        /* \"#utility.yul\":13701:13719   */\n      mload\n        /* \"#utility.yul\":13697:13698   */\n      dup2\n        /* \"#utility.yul\":13692:13695   */\n      dup5\n        /* \"#utility.yul\":13688:13699   */\n      add\n        /* \"#utility.yul\":13681:13720   */\n      mstore\n        /* \"#utility.yul\":13653:13655   */\n      0x20\n        /* \"#utility.yul\":13650:13651   */\n      dup2\n        /* \"#utility.yul\":13646:13656   */\n      add\n        /* \"#utility.yul\":13641:13656   */\n      swap1\n      pop\n        /* \"#utility.yul\":13617:13730   */\n      jump(tag_429)\n    tag_431:\n        /* \"#utility.yul\":13748:13754   */\n      dup4\n        /* \"#utility.yul\":13745:13746   */\n      dup2\n        /* \"#utility.yul\":13742:13755   */\n      gt\n        /* \"#utility.yul\":13739:13840   */\n      iszero\n      tag_432\n      jumpi\n        /* \"#utility.yul\":13828:13829   */\n      0x00\n        /* \"#utility.yul\":13819:13825   */\n      dup5\n        /* \"#utility.yul\":13814:13817   */\n      dup5\n        /* \"#utility.yul\":13810:13826   */\n      add\n        /* \"#utility.yul\":13803:13830   */\n      mstore\n        /* \"#utility.yul\":13739:13840   */\n    tag_432:\n        /* \"#utility.yul\":13588:13846   */\n      pop\n        /* \"#utility.yul\":13539:13846   */\n      pop\n      pop\n      pop\n      jump\t// out\n        /* \"#utility.yul\":13852:14133   */\n    tag_353:\n        /* \"#utility.yul\":13935:13962   */\n      tag_434\n        /* \"#utility.yul\":13957:13961   */\n      dup3\n        /* \"#utility.yul\":13935:13962   */\n      tag_298\n      jump\t// in\n    tag_434:\n        /* \"#utility.yul\":13927:13933   */\n      dup2\n        /* \"#utility.yul\":13923:13963   */\n      add\n        /* \"#utility.yul\":14065:14071   */\n      dup2\n        /* \"#utility.yul\":14053:14063   */\n      dup2\n        /* \"#utility.yul\":14050:14072   */\n      lt\n        /* \"#utility.yul\":14029:14047   */\n      0xffffffffffffffff\n        /* \"#utility.yul\":14017:14027   */\n      dup3\n        /* \"#utility.yul\":14014:14048   */\n      gt\n        /* \"#utility.yul\":14011:14073   */\n      or\n        /* \"#utility.yul\":14008:14096   */\n      iszero\n      tag_435\n      jumpi\n        /* \"#utility.yul\":14076:14094   */\n      tag_436\n      tag_358\n      jump\t// in\n    tag_436:\n        /* \"#utility.yul\":14008:14096   */\n    tag_435:\n        /* \"#utility.yul\":14116:14126   */\n      dup1\n        /* \"#utility.yul\":14112:14114   */\n      0x40\n        /* \"#utility.yul\":14105:14127   */\n      mstore\n        /* \"#utility.yul\":13895:14133   */\n      pop\n        /* \"#utility.yul\":13852:14133   */\n      pop\n      pop\n      jump\t// out\n        /* \"#utility.yul\":14139:14239   */\n    tag_304:\n        /* \"#utility.yul\":14178:14185   */\n      0x00\n        /* \"#utility.yul\":14207:14233   */\n      tag_438\n        /* \"#utility.yul\":14227:14232   */\n      dup3\n        /* \"#utility.yul\":14207:14233   */\n      tag_439\n      jump\t// in\n    tag_438:\n        /* \"#utility.yul\":14196:14233   */\n      swap1\n      pop\n        /* \"#utility.yul\":14139:14239   */\n      swap2\n      swap1\n      pop\n      jump\t// out\n        /* \"#utility.yul\":14245:14339   */\n    tag_439:\n        /* \"#utility.yul\":14284:14291   */\n      0x00\n        /* \"#utility.yul\":14313:14333   */\n      tag_441\n        /* \"#utility.yul\":14327:14332   */\n      dup3\n        /* \"#utility.yul\":14313:14333   */\n      tag_442\n      jump\t// in\n    tag_441:\n        /* \"#utility.yul\":14302:14333   */\n      swap1\n      pop\n        /* \"#utility.yul\":14245:14339   */\n      swap2\n      swap1\n      pop\n      jump\t// out\n        /* \"#utility.yul\":14345:14424   */\n    tag_324:\n        /* \"#utility.yul\":14384:14391   */\n      0x00\n        /* \"#utility.yul\":14413:14418   */\n      dup2\n        /* \"#utility.yul\":14402:14418   */\n      swap1\n      pop\n        /* \"#utility.yul\":14345:14424   */\n      swap2\n      swap1\n      pop\n      jump\t// out\n        /* \"#utility.yul\":14430:14606   */\n    tag_134:\n        /* \"#utility.yul\":14462:14463   */\n      0x00\n        /* \"#utility.yul\":14479:14499   */\n      tag_445\n        /* \"#utility.yul\":14497:14498   */\n      dup3\n        /* \"#utility.yul\":14479:14499   */\n      tag_319\n      jump\t// in\n    tag_445:\n        /* \"#utility.yul\":14474:14499   */\n      swap2\n      pop\n        /* \"#utility.yul\":14513:14533   */\n      tag_446\n        /* \"#utility.yul\":14531:14532   */\n      dup4\n        /* \"#utility.yul\":14513:14533   */\n      tag_319\n      jump\t// in\n    tag_446:\n        /* \"#utility.yul\":14508:14533   */\n      swap3\n      pop\n        /* \"#utility.yul\":14552:14553   */\n      dup3\n        /* \"#utility.yul\":14542:14577   */\n      tag_447\n      jumpi\n        /* \"#utility.yul\":14557:14575   */\n      tag_448\n      tag_449\n      jump\t// in\n    tag_448:\n        /* \"#utility.yul\":14542:14577   */\n    tag_447:\n        /* \"#utility.yul\":14598:14599   */\n      dup3\n        /* \"#utility.yul\":14595:14596   */\n      dup3\n        /* \"#utility.yul\":14591:14600   */\n      mod\n        /* \"#utility.yul\":14586:14600   */\n      swap1\n      pop\n        /* \"#utility.yul\":14430:14606   */\n      swap3\n      swap2\n      pop\n      pop\n      jump\t// out\n        /* \"#utility.yul\":14612:14792   */\n    tag_368:\n        /* \"#utility.yul\":14660:14737   */\n      0x4e487b7100000000000000000000000000000000000000000000000000000000\n        /* \"#utility.yul\":14657:14658   */\n      0x00\n        /* \"#utility.yul\":14650:14738   */\n      mstore\n        /* \"#utility.yul\":14757:14761   */\n      0x11\n        /* \"#utility.yul\":14754:14755   */\n      0x04\n        /* \"#utility.yul\":14747:14762   */\n      mstore\n        /* \"#utility.yul\":14781:14785   */\n      0x24\n        /* \"#utility.yul\":14778:14779   */\n      0x00\n        /* \"#utility.yul\":14771:14786   */\n      revert\n        /* \"#utility.yul\":14798:14978   */\n    tag_449:\n        /* \"#utility.yul\":14846:14923   */\n      0x4e487b7100000000000000000000000000000000000000000000000000000000\n        /* \"#utility.yul\":14843:14844   */\n      0x00\n        /* \"#utility.yul\":14836:14924   */\n      mstore\n        /* \"#utility.yul\":14943:14947   */\n      0x12\n        /* \"#utility.yul\":14940:14941   */\n      0x04\n        /* \"#utility.yul\":14933:14948   */\n      mstore\n        /* \"#utility.yul\":14967:14971   */\n      0x24\n        /* \"#utility.yul\":14964:14965   */\n      0x00\n        /* \"#utility.yul\":14957:14972   */\n      revert\n        /* \"#utility.yul\":14984:15164   */\n    tag_358:\n        /* \"#utility.yul\":15032:15109   */\n      0x4e487b7100000000000000000000000000000000000000000000000000000000\n        /* \"#utility.yul\":15029:15030   */\n      0x00\n        /* \"#utility.yul\":15022:15110   */\n      mstore\n        /* \"#utility.yul\":15129:15133   */\n      0x41\n        /* \"#utility.yul\":15126:15127   */\n      0x04\n        /* \"#utility.yul\":15119:15134   */\n      mstore\n        /* \"#utility.yul\":15153:15157   */\n      0x24\n        /* \"#utility.yul\":15150:15151   */\n      0x00\n        /* \"#utility.yul\":15143:15158   */\n      revert\n        /* \"#utility.yul\":15170:15287   */\n    tag_251:\n        /* \"#utility.yul\":15279:15280   */\n      0x00\n        /* \"#utility.yul\":15276:15277   */\n      dup1\n        /* \"#utility.yul\":15269:15281   */\n      revert\n        /* \"#utility.yul\":15293:15410   */\n    tag_236:\n        /* \"#utility.yul\":15402:15403   */\n      0x00\n        /* \"#utility.yul\":15399:15400   */\n      dup1\n        /* \"#utility.yul\":15392:15404   */\n      revert\n        /* \"#utility.yul\":15416:15533   */\n    tag_272:\n        /* \"#utility.yul\":15525:15526   */\n      0x00\n        /* \"#utility.yul\":15522:15523   */\n      dup1\n        /* \"#utility.yul\":15515:15527   */\n      revert\n        /* \"#utility.yul\":15539:15656   */\n    tag_260:\n        /* \"#utility.yul\":15648:15649   */\n      0x00\n        /* \"#utility.yul\":15645:15646   */\n      dup1\n        /* \"#utility.yul\":15638:15650   */\n      revert\n        /* \"#utility.yul\":15662:15764   */\n    tag_298:\n        /* \"#utility.yul\":15703:15709   */\n      0x00\n        /* \"#utility.yul\":15754:15756   */\n      0x1f\n        /* \"#utility.yul\":15750:15757   */\n      not\n        /* \"#utility.yul\":15745:15747   */\n      0x1f\n        /* \"#utility.yul\":15738:15743   */\n      dup4\n        /* \"#utility.yul\":15734:15748   */\n      add\n        /* \"#utility.yul\":15730:15758   */\n      and\n        /* \"#utility.yul\":15720:15758   */\n      swap1\n      pop\n        /* \"#utility.yul\":15662:15764   */\n      swap2\n      swap1\n      pop\n      jump\t// out\n        /* \"#utility.yul\":15770:15864   */\n    tag_442:\n        /* \"#utility.yul\":15803:15811   */\n      0x00\n        /* \"#utility.yul\":15851:15856   */\n      dup2\n        /* \"#utility.yul\":15847:15849   */\n      0x60\n        /* \"#utility.yul\":15843:15857   */\n      shl\n        /* \"#utility.yul\":15822:15857   */\n      swap1\n      pop\n        /* \"#utility.yul\":15770:15864   */\n      swap2\n      swap1\n      pop\n      jump\t// out\n        /* \"#utility.yul\":15870:15972   */\n    tag_378:\n        /* \"#utility.yul\":15912:15920   */\n      0x00\n        /* \"#utility.yul\":15959:15964   */\n      dup2\n        /* \"#utility.yul\":15956:15957   */\n      0x01\n        /* \"#utility.yul\":15952:15965   */\n      shr\n        /* \"#utility.yul\":15931:15965   */\n      swap1\n      pop\n        /* \"#utility.yul\":15870:15972   */\n      swap2\n      swap1\n      pop\n      jump\t// out\n        /* \"#utility.yul\":15978:16200   */\n    tag_310:\n        /* \"#utility.yul\":16118:16152   */\n      0x756e61626c6520746f207472616e73666572416e6443616c6c20746f206f7261\n        /* \"#utility.yul\":16114:16115   */\n      0x00\n        /* \"#utility.yul\":16106:16112   */\n      dup3\n        /* \"#utility.yul\":16102:16116   */\n      add\n        /* \"#utility.yul\":16095:16153   */\n      mstore\n        /* \"#utility.yul\":16187:16192   */\n      0x636c650000000000000000000000000000000000000000000000000000000000\n        /* \"#utility.yul\":16182:16184   */\n      0x20\n        /* \"#utility.yul\":16174:16180   */\n      dup3\n        /* \"#utility.yul\":16170:16185   */\n      add\n        /* \"#utility.yul\":16163:16193   */\n      mstore\n        /* \"#utility.yul\":15978:16200   */\n      pop\n      jump\t// out\n        /* \"#utility.yul\":16206:16433   */\n    tag_315:\n        /* \"#utility.yul\":16346:16380   */\n      0x536f75726365206d75737420626520746865206f7261636c65206f6620746865\n        /* \"#utility.yul\":16342:16343   */\n      0x00\n        /* \"#utility.yul\":16334:16340   */\n      dup3\n        /* \"#utility.yul\":16330:16344   */\n      add\n        /* \"#utility.yul\":16323:16381   */\n      mstore\n        /* \"#utility.yul\":16415:16425   */\n      0x2072657175657374000000000000000000000000000000000000000000000000\n        /* \"#utility.yul\":16410:16412   */\n      0x20\n        /* \"#utility.yul\":16402:16408   */\n      dup3\n        /* \"#utility.yul\":16398:16413   */\n      add\n        /* \"#utility.yul\":16391:16426   */\n      mstore\n        /* \"#utility.yul\":16206:16433   */\n      pop\n      jump\t// out\n        /* \"#utility.yul\":16439:16555   */\n    tag_242:\n        /* \"#utility.yul\":16509:16530   */\n      tag_463\n        /* \"#utility.yul\":16524:16529   */\n      dup2\n        /* \"#utility.yul\":16509:16530   */\n      tag_413\n      jump\t// in\n    tag_463:\n        /* \"#utility.yul\":16502:16507   */\n      dup2\n        /* \"#utility.yul\":16499:16531   */\n      eq\n        /* \"#utility.yul\":16489:16549   */\n      tag_464\n      jumpi\n        /* \"#utility.yul\":16545:16546   */\n      0x00\n        /* \"#utility.yul\":16542:16543   */\n      dup1\n        /* \"#utility.yul\":16535:16547   */\n      revert\n        /* \"#utility.yul\":16489:16549   */\n    tag_464:\n        /* \"#utility.yul\":16439:16555   */\n      pop\n      jump\t// out\n        /* \"#utility.yul\":16561:16683   */\n    tag_246:\n        /* \"#utility.yul\":16634:16658   */\n      tag_466\n        /* \"#utility.yul\":16652:16657   */\n      dup2\n        /* \"#utility.yul\":16634:16658   */\n      tag_284\n      jump\t// in\n    tag_466:\n        /* \"#utility.yul\":16627:16632   */\n      dup2\n        /* \"#utility.yul\":16624:16659   */\n      eq\n        /* \"#utility.yul\":16614:16677   */\n      tag_467\n      jumpi\n        /* \"#utility.yul\":16673:16674   */\n      0x00\n        /* \"#utility.yul\":16670:16671   */\n      dup1\n        /* \"#utility.yul\":16663:16675   */\n      revert\n        /* \"#utility.yul\":16614:16677   */\n    tag_467:\n        /* \"#utility.yul\":16561:16683   */\n      pop\n      jump\t// out\n        /* \"#utility.yul\":16689:16811   */\n    tag_256:\n        /* \"#utility.yul\":16762:16786   */\n      tag_469\n        /* \"#utility.yul\":16780:16785   */\n      dup2\n        /* \"#utility.yul\":16762:16786   */\n      tag_319\n      jump\t// in\n    tag_469:\n        /* \"#utility.yul\":16755:16760   */\n      dup2\n        /* \"#utility.yul\":16752:16787   */\n      eq\n        /* \"#utility.yul\":16742:16805   */\n      tag_470\n      jumpi\n        /* \"#utility.yul\":16801:16802   */\n      0x00\n        /* \"#utility.yul\":16798:16799   */\n      dup1\n        /* \"#utility.yul\":16791:16803   */\n      revert\n        /* \"#utility.yul\":16742:16805   */\n    tag_470:\n        /* \"#utility.yul\":16689:16811   */\n      pop\n      jump\t// out\n\n    auxdata: 0xa264697066735822122014bc9580b44ff8c039932b465cb769252c137100967a1015c17696119c86066264736f6c63430008070033\n}\n",
				"bytecode": {
					"linkReferences": {},
					"object": "608060405260016004553480156200001657600080fd5b50604051620021113803806200211183398181016040528101906200003c919062000153565b6200004d866200008660201b60201c565b6200005e85620000ca60201b60201c565b836006819055508260088190555081600a8190555080600c819055505050505050506200028a565b80600260006101000a81548173ffffffffffffffffffffffffffffffffffffffff021916908373ffffffffffffffffffffffffffffffffffffffff16021790555050565b80600360006101000a81548173ffffffffffffffffffffffffffffffffffffffff021916908373ffffffffffffffffffffffffffffffffffffffff16021790555050565b6000815190506200011f816200023c565b92915050565b600081519050620001368162000256565b92915050565b6000815190506200014d8162000270565b92915050565b60008060008060008060c0878903121562000173576200017262000237565b5b60006200018389828a016200010e565b96505060206200019689828a016200010e565b9550506040620001a989828a0162000125565b9450506060620001bc89828a0162000125565b9350506080620001cf89828a0162000125565b92505060a0620001e289828a016200013c565b9150509295509295509295565b6000620001fc826200020d565b9050919050565b6000819050919050565b600073ffffffffffffffffffffffffffffffffffffffff82169050919050565b6000819050919050565b600080fd5b6200024781620001ef565b81146200025357600080fd5b50565b620002618162000203565b81146200026d57600080fd5b50565b6200027b816200022d565b81146200028757600080fd5b50565b611e77806200029a6000396000f3fe608060405234801561001057600080fd5b50600436106100cf5760003560e01c8063a52363701161008c578063c70d439111610066578063c70d4391146101d8578063c95fa3c9146101f6578063ce4316a514610214578063ddca3f4314610230576100cf565b8063a52363701461017e578063bdcc616e1461019c578063bf5be35a146101ba576100cf565b806305efce06146100d45780632a3508dc146100f0578063381719471461010c578063446bf1e3146101285780636aead4a3146101445780637c4d50ad14610162575b600080fd5b6100ee60048036038101906100e9919061152e565b61024e565b005b61010a6004803603810190610105919061152e565b610396565b005b6101266004803603810190610121919061152e565b6104de565b005b610142600480360381019061013d919061156e565b610626565b005b61014c6107e2565b6040516101599190611819565b60405180910390f35b61017c6004803603810190610177919061156e565b6107e8565b005b6101866109a4565b6040516101939190611819565b60405180910390f35b6101a46109aa565b6040516101b191906117be565b60405180910390f35b6101c26109b0565b6040516101cf9190611819565b60405180910390f35b6101e06109b6565b6040516101ed91906117be565b60405180910390f35b6101fe6109bc565b60405161020b91906117be565b60405180910390f35b61022e6004803603810190610229919061156e565b6109c2565b005b610238610b7e565b6040516102459190611819565b60405180910390f35b816005600082815260200190815260200160002060009054906101000a900473ffffffffffffffffffffffffffffffffffffffff1673ffffffffffffffffffffffffffffffffffffffff163373ffffffffffffffffffffffffffffffffffffffff16146102f0576040517f08c379a00000000000000000000000000000000000000000000000000000000081526004016102e7906117f9565b60405180910390fd5b6005600082815260200190815260200160002060006101000a81549073ffffffffffffffffffffffffffffffffffffffff0219169055807f7cc135e0cebb02c3480ae5d74d377283180a2601f8f644edf7987b009316c63a60405160405180910390a2816009819055507f26115bd9d6d2ceafb11a6485d30eba28954e14cfd3934f01e68beaddfea51078826040516103899190611819565b60405180910390a1505050565b816005600082815260200190815260200160002060009054906101000a900473ffffffffffffffffffffffffffffffffffffffff1673ffffffffffffffffffffffffffffffffffffffff163373ffffffffffffffffffffffffffffffffffffffff1614610438576040517f08c379a000000000000000000000000000000000000000000000000000000000815260040161042f906117f9565b60405180910390fd5b6005600082815260200190815260200160002060006101000a81549073ffffffffffffffffffffffffffffffffffffffff0219169055807f7cc135e0cebb02c3480ae5d74d377283180a2601f8f644edf7987b009316c63a60405160405180910390a2816007819055507fe5e26a600dc81b241131b3541c3c53d9b02d780f102c65b08b91fd57998e3b72826040516104d19190611819565b60405180910390a1505050565b816005600082815260200190815260200160002060009054906101000a900473ffffffffffffffffffffffffffffffffffffffff1673ffffffffffffffffffffffffffffffffffffffff163373ffffffffffffffffffffffffffffffffffffffff1614610580576040517f08c379a0000000000000000000000000000000000000000000000000000000008152600401610577906117f9565b60405180910390fd5b6005600082815260200190815260200160002060006101000a81549073ffffffffffffffffffffffffffffffffffffffff0219169055807f7cc135e0cebb02c3480ae5d74d377283180a2601f8f644edf7987b009316c63a60405160405180910390a281600b819055507ffe14b6164c67c7837a2e1bbf8eb765ff403c6a748a8d7c22be06745dc92cf338826040516106199190611819565b60405180910390a1505050565b600061063c600854306305efce0660e01b610b84565b90506106886040518060400160405280600881526020017f6461746546726f6d0000000000000000000000000000000000000000000000008152508483610bb59092919063ffffffff16565b6106d26040518060400160405280600681526020017f64617465546f00000000000000000000000000000000000000000000000000008152508383610bb59092919063ffffffff16565b6107516040518060400160405280600681526020017f6d6574686f6400000000000000000000000000000000000000000000000000008152506040518060400160405280600381526020017f53554d000000000000000000000000000000000000000000000000000000000081525083610bb59092919063ffffffff16565b6107d06040518060400160405280600681526020017f636f6c756d6e00000000000000000000000000000000000000000000000000008152506040518060400160405280600481526020017f707263700000000000000000000000000000000000000000000000000000000081525083610bb59092919063ffffffff16565b6107dc81600c54610be8565b50505050565b60075481565b60006107fe60065430632a3508dc60e01b610b84565b905061084a6040518060400160405280600881526020017f6461746546726f6d0000000000000000000000000000000000000000000000008152508483610bb59092919063ffffffff16565b6108946040518060400160405280600681526020017f64617465546f00000000000000000000000000000000000000000000000000008152508383610bb59092919063ffffffff16565b6109136040518060400160405280600681526020017f6d6574686f6400000000000000000000000000000000000000000000000000008152506040518060400160405280600381526020017f415647000000000000000000000000000000000000000000000000000000000081525083610bb59092919063ffffffff16565b6109926040518060400160405280600681526020017f636f6c756d6e00000000000000000000000000000000000000000000000000008152506040518060400160405280600481526020017f74656d700000000000000000000000000000000000000000000000000000000081525083610bb59092919063ffffffff16565b61099e81600c54610be8565b50505050565b60095481565b600a5481565b600b5481565b60065481565b60085481565b60006109d8600a5430633817194760e01b610b84565b9050610a246040518060400160405280600881526020017f6461746546726f6d0000000000000000000000000000000000000000000000008152508483610bb59092919063ffffffff16565b610a6e6040518060400160405280600681526020017f64617465546f00000000000000000000000000000000000000000000000000008152508383610bb59092919063ffffffff16565b610aed6040518060400160405280600681526020017f6d6574686f6400000000000000000000000000000000000000000000000000008152506040518060400160405280600381526020017f53554d000000000000000000000000000000000000000000000000000000000081525083610bb59092919063ffffffff16565b610b6c6040518060400160405280600681526020017f636f6c756d6e00000000000000000000000000000000000000000000000000008152506040518060400160405280600481526020017f6861696c0000000000000000000000000000000000000000000000000000000081525083610bb59092919063ffffffff16565b610b7881600c54610be8565b50505050565b600c5481565b610b8c6113cb565b610b946113cb565b610bab85858584610c1f909392919063ffffffff16565b9150509392505050565b610bcc828460800151610ccf90919063ffffffff16565b610be3818460800151610ccf90919063ffffffff16565b505050565b6000610c17600360009054906101000a900473ffffffffffffffffffffffffffffffffffffffff168484610cf4565b905092915050565b610c276113cb565b610c378560800151610100610dc0565b508385600001818152505082856020019073ffffffffffffffffffffffffffffffffffffffff16908173ffffffffffffffffffffffffffffffffffffffff16815250508185604001907bffffffffffffffffffffffffffffffffffffffffffffffffffffffff191690817bffffffffffffffffffffffffffffffffffffffffffffffffffffffff191681525050849050949350505050565b610cdc8260038351610e2a565b610cef8183610faf90919063ffffffff16565b505050565b6000806004549050600181610d0991906118b7565b6004819055506000634042994660e01b60008087600001513089604001518760018c6080015160000151604051602401610d4a9897969594939291906116fb565b604051602081830303815290604052907bffffffffffffffffffffffffffffffffffffffffffffffffffffffff19166020820180517bffffffffffffffffffffffffffffffffffffffffffffffffffffffff83818316178352505050509050610db586838684610fd1565b925050509392505050565b610dc8611438565b6000602083610dd79190611c61565b14610e0357602082610de99190611c61565b6020610df59190611ad8565b82610e0091906118b7565b91505b81836020018181525050604051808452600081528281016020016040525082905092915050565b60178167ffffffffffffffff1611610e6157610e5b8160058460ff16901b60ff16178461117590919063ffffffff16565b50610faa565b60ff8167ffffffffffffffff1611610eb757610e90601860058460ff16901b178461117590919063ffffffff16565b50610eb18167ffffffffffffffff166001856111959092919063ffffffff16565b50610fa9565b61ffff8167ffffffffffffffff1611610f0e57610ee7601960058460ff16901b178461117590919063ffffffff16565b50610f088167ffffffffffffffff166002856111959092919063ffffffff16565b50610fa8565b63ffffffff8167ffffffffffffffff1611610f6757610f40601a60058460ff16901b178461117590919063ffffffff16565b50610f618167ffffffffffffffff166004856111959092919063ffffffff16565b50610fa7565b610f84601b60058460ff16901b178461117590919063ffffffff16565b50610fa58167ffffffffffffffff166008856111959092919063ffffffff16565b505b5b5b5b505050565b610fb7611438565b610fc9838460000151518485516111b7565b905092915050565b60003084604051602001610fe69291906116cf565b604051602081830303815290604052805190602001209050846005600083815260200190815260200160002060006101000a81548173ffffffffffffffffffffffffffffffffffffffff021916908373ffffffffffffffffffffffffffffffffffffffff160217905550807fb5e6e01e79f91267dc17b4e6314d5d4d03593d2ceee0fbb452b750bd70ea5af960405160405180910390a2600260009054906101000a900473ffffffffffffffffffffffffffffffffffffffff1673ffffffffffffffffffffffffffffffffffffffff16634000aea08685856040518463ffffffff1660e01b81526004016110dc93929190611780565b602060405180830381600087803b1580156110f657600080fd5b505af115801561110a573d6000803e3d6000fd5b505050506040513d601f19601f8201168201806040525081019061112e9190611501565b61116d576040517f08c379a0000000000000000000000000000000000000000000000000000000008152600401611164906117d9565b60405180910390fd5b949350505050565b61117d611438565b61118d83846000015151846112a6565b905092915050565b61119d611438565b6111ae8485600001515185856112fd565b90509392505050565b6111bf611438565b82518211156111cd57600080fd5b846020015182856111de91906118b7565b111561121357611212856002611203886020015188876111fe91906118b7565b61138b565b61120d9190611a7e565b6113a7565b5b6000808651805187602083010193508088870111156112325787860182525b60208701925050505b60208410611279578051825260208261125491906118b7565b915060208161126391906118b7565b90506020846112729190611ad8565b935061123b565b60006001856020036101000a03905080198251168184511681811785525050508692505050949350505050565b6112ae611438565b836020015183106112d4576112d384600286602001516112ce9190611a7e565b6113a7565b5b83518051602085830101848153818614156112f0576001820183525b5050508390509392505050565b611305611438565b8460200151848361131691906118b7565b111561133e5761133d856002868561132e91906118b7565b6113389190611a7e565b6113a7565b5b60006001836101006113509190611960565b61135a9190611ad8565b9050855183868201018583198251161781528151858801111561137d5784870182525b505085915050949350505050565b60008183111561139d578290506113a1565b8190505b92915050565b6000826000015190506113ba8383610dc0565b506113c58382610faf565b50505050565b6040518060a0016040528060008019168152602001600073ffffffffffffffffffffffffffffffffffffffff16815260200160007bffffffffffffffffffffffffffffffffffffffffffffffffffffffff1916815260200160008152602001611432611438565b81525090565b604051806040016040528060608152602001600081525090565b600061146561146084611859565b611834565b90508281526020810184848401111561148157611480611d24565b5b61148c848285611bc0565b509392505050565b6000815190506114a381611dfc565b92915050565b6000813590506114b881611e13565b92915050565b600082601f8301126114d3576114d2611d1f565b5b81356114e3848260208601611452565b91505092915050565b6000813590506114fb81611e2a565b92915050565b60006020828403121561151757611516611d2e565b5b600061152584828501611494565b91505092915050565b6000806040838503121561154557611544611d2e565b5b6000611553858286016114a9565b9250506020611564858286016114ec565b9150509250929050565b6000806040838503121561158557611584611d2e565b5b600083013567ffffffffffffffff8111156115a3576115a2611d29565b5b6115af858286016114be565b925050602083013567ffffffffffffffff8111156115d0576115cf611d29565b5b6115dc858286016114be565b9150509250929050565b6115ef81611b0c565b82525050565b6115fe81611b2a565b82525050565b61160d81611b34565b82525050565b600061161e8261188a565b6116288185611895565b9350611638818560208601611bcf565b61164181611d33565b840191505092915050565b61165d61165882611b8a565b611c33565b82525050565b60006116706023836118a6565b915061167b82611d5e565b604082019050919050565b60006116936028836118a6565b915061169e82611dad565b604082019050919050565b6116b281611b80565b82525050565b6116c96116c482611b80565b611c57565b82525050565b60006116db828561164c565b6014820191506116eb82846116b8565b6020820191508190509392505050565b600061010082019050611711600083018b6115e6565b61171e602083018a6116a9565b61172b60408301896115f5565b61173860608301886115e6565b6117456080830187611604565b61175260a08301866116a9565b61175f60c08301856116a9565b81810360e08301526117718184611613565b90509998505050505050505050565b600060608201905061179560008301866115e6565b6117a260208301856116a9565b81810360408301526117b48184611613565b9050949350505050565b60006020820190506117d360008301846115f5565b92915050565b600060208201905081810360008301526117f281611663565b9050919050565b6000602082019050818103600083015261181281611686565b9050919050565b600060208201905061182e60008301846116a9565b92915050565b600061183e61184f565b905061184a8282611c02565b919050565b6000604051905090565b600067ffffffffffffffff82111561187457611873611cf0565b5b61187d82611d33565b9050602081019050919050565b600081519050919050565b600082825260208201905092915050565b600082825260208201905092915050565b60006118c282611b80565b91506118cd83611b80565b9250827fffffffffffffffffffffffffffffffffffffffffffffffffffffffffffffffff0382111561190257611901611c92565b5b828201905092915050565b6000808291508390505b60018511156119575780860481111561193357611932611c92565b5b60018516156119425780820291505b808102905061195085611d51565b9450611917565b94509492505050565b600061196b82611b80565b915061197683611b80565b92506119a37fffffffffffffffffffffffffffffffffffffffffffffffffffffffffffffffff84846119ab565b905092915050565b6000826119bb5760019050611a77565b816119c95760009050611a77565b81600181146119df57600281146119e957611a18565b6001915050611a77565b60ff8411156119fb576119fa611c92565b5b8360020a915084821115611a1257611a11611c92565b5b50611a77565b5060208310610133831016604e8410600b8410161715611a4d5782820a905083811115611a4857611a47611c92565b5b611a77565b611a5a848484600161190d565b92509050818404811115611a7157611a70611c92565b5b81810290505b9392505050565b6000611a8982611b80565b9150611a9483611b80565b9250817fffffffffffffffffffffffffffffffffffffffffffffffffffffffffffffffff0483118215151615611acd57611acc611c92565b5b828202905092915050565b6000611ae382611b80565b9150611aee83611b80565b925082821015611b0157611b00611c92565b5b828203905092915050565b6000611b1782611b60565b9050919050565b60008115159050919050565b6000819050919050565b60007fffffffff0000000000000000000000000000000000000000000000000000000082169050919050565b600073ffffffffffffffffffffffffffffffffffffffff82169050919050565b6000819050919050565b6000611b9582611b9c565b9050919050565b6000611ba782611bae565b9050919050565b6000611bb982611b60565b9050919050565b82818337600083830152505050565b60005b83811015611bed578082015181840152602081019050611bd2565b83811115611bfc576000848401525b50505050565b611c0b82611d33565b810181811067ffffffffffffffff82111715611c2a57611c29611cf0565b5b80604052505050565b6000611c3e82611c45565b9050919050565b6000611c5082611d44565b9050919050565b6000819050919050565b6000611c6c82611b80565b9150611c7783611b80565b925082611c8757611c86611cc1565b5b828206905092915050565b7f4e487b7100000000000000000000000000000000000000000000000000000000600052601160045260246000fd5b7f4e487b7100000000000000000000000000000000000000000000000000000000600052601260045260246000fd5b7f4e487b7100000000000000000000000000000000000000000000000000000000600052604160045260246000fd5b600080fd5b600080fd5b600080fd5b600080fd5b6000601f19601f8301169050919050565b60008160601b9050919050565b60008160011c9050919050565b7f756e61626c6520746f207472616e73666572416e6443616c6c20746f206f726160008201527f636c650000000000000000000000000000000000000000000000000000000000602082015250565b7f536f75726365206d75737420626520746865206f7261636c65206f662074686560008201527f2072657175657374000000000000000000000000000000000000000000000000602082015250565b611e0581611b1e565b8114611e1057600080fd5b50565b611e1c81611b2a565b8114611e2757600080fd5b50565b611e3381611b80565b8114611e3e57600080fd5b5056fea264697066735822122014bc9580b44ff8c039932b465cb769252c137100967a1015c17696119c86066264736f6c63430008070033",
					"opcodes": "PUSH1 0x80 PUSH1 0x40 MSTORE PUSH1 0x1 PUSH1 0x4 SSTORE CALLVALUE DUP1 ISZERO PUSH3 0x16 JUMPI PUSH1 0x0 DUP1 REVERT JUMPDEST POP PUSH1 0x40 MLOAD PUSH3 0x2111 CODESIZE SUB DUP1 PUSH3 0x2111 DUP4 CODECOPY DUP2 DUP2 ADD PUSH1 0x40 MSTORE DUP2 ADD SWAP1 PUSH3 0x3C SWAP2 SWAP1 PUSH3 0x153 JUMP JUMPDEST PUSH3 0x4D DUP7 PUSH3 0x86 PUSH1 0x20 SHL PUSH1 0x20 SHR JUMP JUMPDEST PUSH3 0x5E DUP6 PUSH3 0xCA PUSH1 0x20 SHL PUSH1 0x20 SHR JUMP JUMPDEST DUP4 PUSH1 0x6 DUP2 SWAP1 SSTORE POP DUP3 PUSH1 0x8 DUP2 SWAP1 SSTORE POP DUP2 PUSH1 0xA DUP2 SWAP1 SSTORE POP DUP1 PUSH1 0xC DUP2 SWAP1 SSTORE POP POP POP POP POP POP POP PUSH3 0x28A JUMP JUMPDEST DUP1 PUSH1 0x2 PUSH1 0x0 PUSH2 0x100 EXP DUP2 SLOAD DUP2 PUSH20 0xFFFFFFFFFFFFFFFFFFFFFFFFFFFFFFFFFFFFFFFF MUL NOT AND SWAP1 DUP4 PUSH20 0xFFFFFFFFFFFFFFFFFFFFFFFFFFFFFFFFFFFFFFFF AND MUL OR SWAP1 SSTORE POP POP JUMP JUMPDEST DUP1 PUSH1 0x3 PUSH1 0x0 PUSH2 0x100 EXP DUP2 SLOAD DUP2 PUSH20 0xFFFFFFFFFFFFFFFFFFFFFFFFFFFFFFFFFFFFFFFF MUL NOT AND SWAP1 DUP4 PUSH20 0xFFFFFFFFFFFFFFFFFFFFFFFFFFFFFFFFFFFFFFFF AND MUL OR SWAP1 SSTORE POP POP JUMP JUMPDEST PUSH1 0x0 DUP2 MLOAD SWAP1 POP PUSH3 0x11F DUP2 PUSH3 0x23C JUMP JUMPDEST SWAP3 SWAP2 POP POP JUMP JUMPDEST PUSH1 0x0 DUP2 MLOAD SWAP1 POP PUSH3 0x136 DUP2 PUSH3 0x256 JUMP JUMPDEST SWAP3 SWAP2 POP POP JUMP JUMPDEST PUSH1 0x0 DUP2 MLOAD SWAP1 POP PUSH3 0x14D DUP2 PUSH3 0x270 JUMP JUMPDEST SWAP3 SWAP2 POP POP JUMP JUMPDEST PUSH1 0x0 DUP1 PUSH1 0x0 DUP1 PUSH1 0x0 DUP1 PUSH1 0xC0 DUP8 DUP10 SUB SLT ISZERO PUSH3 0x173 JUMPI PUSH3 0x172 PUSH3 0x237 JUMP JUMPDEST JUMPDEST PUSH1 0x0 PUSH3 0x183 DUP10 DUP3 DUP11 ADD PUSH3 0x10E JUMP JUMPDEST SWAP7 POP POP PUSH1 0x20 PUSH3 0x196 DUP10 DUP3 DUP11 ADD PUSH3 0x10E JUMP JUMPDEST SWAP6 POP POP PUSH1 0x40 PUSH3 0x1A9 DUP10 DUP3 DUP11 ADD PUSH3 0x125 JUMP JUMPDEST SWAP5 POP POP PUSH1 0x60 PUSH3 0x1BC DUP10 DUP3 DUP11 ADD PUSH3 0x125 JUMP JUMPDEST SWAP4 POP POP PUSH1 0x80 PUSH3 0x1CF DUP10 DUP3 DUP11 ADD PUSH3 0x125 JUMP JUMPDEST SWAP3 POP POP PUSH1 0xA0 PUSH3 0x1E2 DUP10 DUP3 DUP11 ADD PUSH3 0x13C JUMP JUMPDEST SWAP2 POP POP SWAP3 SWAP6 POP SWAP3 SWAP6 POP SWAP3 SWAP6 JUMP JUMPDEST PUSH1 0x0 PUSH3 0x1FC DUP3 PUSH3 0x20D JUMP JUMPDEST SWAP1 POP SWAP2 SWAP1 POP JUMP JUMPDEST PUSH1 0x0 DUP2 SWAP1 POP SWAP2 SWAP1 POP JUMP JUMPDEST PUSH1 0x0 PUSH20 0xFFFFFFFFFFFFFFFFFFFFFFFFFFFFFFFFFFFFFFFF DUP3 AND SWAP1 POP SWAP2 SWAP1 POP JUMP JUMPDEST PUSH1 0x0 DUP2 SWAP1 POP SWAP2 SWAP1 POP JUMP JUMPDEST PUSH1 0x0 DUP1 REVERT JUMPDEST PUSH3 0x247 DUP2 PUSH3 0x1EF JUMP JUMPDEST DUP2 EQ PUSH3 0x253 JUMPI PUSH1 0x0 DUP1 REVERT JUMPDEST POP JUMP JUMPDEST PUSH3 0x261 DUP2 PUSH3 0x203 JUMP JUMPDEST DUP2 EQ PUSH3 0x26D JUMPI PUSH1 0x0 DUP1 REVERT JUMPDEST POP JUMP JUMPDEST PUSH3 0x27B DUP2 PUSH3 0x22D JUMP JUMPDEST DUP2 EQ PUSH3 0x287 JUMPI PUSH1 0x0 DUP1 REVERT JUMPDEST POP JUMP JUMPDEST PUSH2 0x1E77 DUP1 PUSH3 0x29A PUSH1 0x0 CODECOPY PUSH1 0x0 RETURN INVALID PUSH1 0x80 PUSH1 0x40 MSTORE CALLVALUE DUP1 ISZERO PUSH2 0x10 JUMPI PUSH1 0x0 DUP1 REVERT JUMPDEST POP PUSH1 0x4 CALLDATASIZE LT PUSH2 0xCF JUMPI PUSH1 0x0 CALLDATALOAD PUSH1 0xE0 SHR DUP1 PUSH4 0xA5236370 GT PUSH2 0x8C JUMPI DUP1 PUSH4 0xC70D4391 GT PUSH2 0x66 JUMPI DUP1 PUSH4 0xC70D4391 EQ PUSH2 0x1D8 JUMPI DUP1 PUSH4 0xC95FA3C9 EQ PUSH2 0x1F6 JUMPI DUP1 PUSH4 0xCE4316A5 EQ PUSH2 0x214 JUMPI DUP1 PUSH4 0xDDCA3F43 EQ PUSH2 0x230 JUMPI PUSH2 0xCF JUMP JUMPDEST DUP1 PUSH4 0xA5236370 EQ PUSH2 0x17E JUMPI DUP1 PUSH4 0xBDCC616E EQ PUSH2 0x19C JUMPI DUP1 PUSH4 0xBF5BE35A EQ PUSH2 0x1BA JUMPI PUSH2 0xCF JUMP JUMPDEST DUP1 PUSH4 0x5EFCE06 EQ PUSH2 0xD4 JUMPI DUP1 PUSH4 0x2A3508DC EQ PUSH2 0xF0 JUMPI DUP1 PUSH4 0x38171947 EQ PUSH2 0x10C JUMPI DUP1 PUSH4 0x446BF1E3 EQ PUSH2 0x128 JUMPI DUP1 PUSH4 0x6AEAD4A3 EQ PUSH2 0x144 JUMPI DUP1 PUSH4 0x7C4D50AD EQ PUSH2 0x162 JUMPI JUMPDEST PUSH1 0x0 DUP1 REVERT JUMPDEST PUSH2 0xEE PUSH1 0x4 DUP1 CALLDATASIZE SUB DUP2 ADD SWAP1 PUSH2 0xE9 SWAP2 SWAP1 PUSH2 0x152E JUMP JUMPDEST PUSH2 0x24E JUMP JUMPDEST STOP JUMPDEST PUSH2 0x10A PUSH1 0x4 DUP1 CALLDATASIZE SUB DUP2 ADD SWAP1 PUSH2 0x105 SWAP2 SWAP1 PUSH2 0x152E JUMP JUMPDEST PUSH2 0x396 JUMP JUMPDEST STOP JUMPDEST PUSH2 0x126 PUSH1 0x4 DUP1 CALLDATASIZE SUB DUP2 ADD SWAP1 PUSH2 0x121 SWAP2 SWAP1 PUSH2 0x152E JUMP JUMPDEST PUSH2 0x4DE JUMP JUMPDEST STOP JUMPDEST PUSH2 0x142 PUSH1 0x4 DUP1 CALLDATASIZE SUB DUP2 ADD SWAP1 PUSH2 0x13D SWAP2 SWAP1 PUSH2 0x156E JUMP JUMPDEST PUSH2 0x626 JUMP JUMPDEST STOP JUMPDEST PUSH2 0x14C PUSH2 0x7E2 JUMP JUMPDEST PUSH1 0x40 MLOAD PUSH2 0x159 SWAP2 SWAP1 PUSH2 0x1819 JUMP JUMPDEST PUSH1 0x40 MLOAD DUP1 SWAP2 SUB SWAP1 RETURN JUMPDEST PUSH2 0x17C PUSH1 0x4 DUP1 CALLDATASIZE SUB DUP2 ADD SWAP1 PUSH2 0x177 SWAP2 SWAP1 PUSH2 0x156E JUMP JUMPDEST PUSH2 0x7E8 JUMP JUMPDEST STOP JUMPDEST PUSH2 0x186 PUSH2 0x9A4 JUMP JUMPDEST PUSH1 0x40 MLOAD PUSH2 0x193 SWAP2 SWAP1 PUSH2 0x1819 JUMP JUMPDEST PUSH1 0x40 MLOAD DUP1 SWAP2 SUB SWAP1 RETURN JUMPDEST PUSH2 0x1A4 PUSH2 0x9AA JUMP JUMPDEST PUSH1 0x40 MLOAD PUSH2 0x1B1 SWAP2 SWAP1 PUSH2 0x17BE JUMP JUMPDEST PUSH1 0x40 MLOAD DUP1 SWAP2 SUB SWAP1 RETURN JUMPDEST PUSH2 0x1C2 PUSH2 0x9B0 JUMP JUMPDEST PUSH1 0x40 MLOAD PUSH2 0x1CF SWAP2 SWAP1 PUSH2 0x1819 JUMP JUMPDEST PUSH1 0x40 MLOAD DUP1 SWAP2 SUB SWAP1 RETURN JUMPDEST PUSH2 0x1E0 PUSH2 0x9B6 JUMP JUMPDEST PUSH1 0x40 MLOAD PUSH2 0x1ED SWAP2 SWAP1 PUSH2 0x17BE JUMP JUMPDEST PUSH1 0x40 MLOAD DUP1 SWAP2 SUB SWAP1 RETURN JUMPDEST PUSH2 0x1FE PUSH2 0x9BC JUMP JUMPDEST PUSH1 0x40 MLOAD PUSH2 0x20B SWAP2 SWAP1 PUSH2 0x17BE JUMP JUMPDEST PUSH1 0x40 MLOAD DUP1 SWAP2 SUB SWAP1 RETURN JUMPDEST PUSH2 0x22E PUSH1 0x4 DUP1 CALLDATASIZE SUB DUP2 ADD SWAP1 PUSH2 0x229 SWAP2 SWAP1 PUSH2 0x156E JUMP JUMPDEST PUSH2 0x9C2 JUMP JUMPDEST STOP JUMPDEST PUSH2 0x238 PUSH2 0xB7E JUMP JUMPDEST PUSH1 0x40 MLOAD PUSH2 0x245 SWAP2 SWAP1 PUSH2 0x1819 JUMP JUMPDEST PUSH1 0x40 MLOAD DUP1 SWAP2 SUB SWAP1 RETURN JUMPDEST DUP2 PUSH1 0x5 PUSH1 0x0 DUP3 DUP2 MSTORE PUSH1 0x20 ADD SWAP1 DUP2 MSTORE PUSH1 0x20 ADD PUSH1 0x0 KECCAK256 PUSH1 0x0 SWAP1 SLOAD SWAP1 PUSH2 0x100 EXP SWAP1 DIV PUSH20 0xFFFFFFFFFFFFFFFFFFFFFFFFFFFFFFFFFFFFFFFF AND PUSH20 0xFFFFFFFFFFFFFFFFFFFFFFFFFFFFFFFFFFFFFFFF AND CALLER PUSH20 0xFFFFFFFFFFFFFFFFFFFFFFFFFFFFFFFFFFFFFFFF AND EQ PUSH2 0x2F0 JUMPI PUSH1 0x40 MLOAD PUSH32 0x8C379A000000000000000000000000000000000000000000000000000000000 DUP2 MSTORE PUSH1 0x4 ADD PUSH2 0x2E7 SWAP1 PUSH2 0x17F9 JUMP JUMPDEST PUSH1 0x40 MLOAD DUP1 SWAP2 SUB SWAP1 REVERT JUMPDEST PUSH1 0x5 PUSH1 0x0 DUP3 DUP2 MSTORE PUSH1 0x20 ADD SWAP1 DUP2 MSTORE PUSH1 0x20 ADD PUSH1 0x0 KECCAK256 PUSH1 0x0 PUSH2 0x100 EXP DUP2 SLOAD SWAP1 PUSH20 0xFFFFFFFFFFFFFFFFFFFFFFFFFFFFFFFFFFFFFFFF MUL NOT AND SWAP1 SSTORE DUP1 PUSH32 0x7CC135E0CEBB02C3480AE5D74D377283180A2601F8F644EDF7987B009316C63A PUSH1 0x40 MLOAD PUSH1 0x40 MLOAD DUP1 SWAP2 SUB SWAP1 LOG2 DUP2 PUSH1 0x9 DUP2 SWAP1 SSTORE POP PUSH32 0x26115BD9D6D2CEAFB11A6485D30EBA28954E14CFD3934F01E68BEADDFEA51078 DUP3 PUSH1 0x40 MLOAD PUSH2 0x389 SWAP2 SWAP1 PUSH2 0x1819 JUMP JUMPDEST PUSH1 0x40 MLOAD DUP1 SWAP2 SUB SWAP1 LOG1 POP POP POP JUMP JUMPDEST DUP2 PUSH1 0x5 PUSH1 0x0 DUP3 DUP2 MSTORE PUSH1 0x20 ADD SWAP1 DUP2 MSTORE PUSH1 0x20 ADD PUSH1 0x0 KECCAK256 PUSH1 0x0 SWAP1 SLOAD SWAP1 PUSH2 0x100 EXP SWAP1 DIV PUSH20 0xFFFFFFFFFFFFFFFFFFFFFFFFFFFFFFFFFFFFFFFF AND PUSH20 0xFFFFFFFFFFFFFFFFFFFFFFFFFFFFFFFFFFFFFFFF AND CALLER PUSH20 0xFFFFFFFFFFFFFFFFFFFFFFFFFFFFFFFFFFFFFFFF AND EQ PUSH2 0x438 JUMPI PUSH1 0x40 MLOAD PUSH32 0x8C379A000000000000000000000000000000000000000000000000000000000 DUP2 MSTORE PUSH1 0x4 ADD PUSH2 0x42F SWAP1 PUSH2 0x17F9 JUMP JUMPDEST PUSH1 0x40 MLOAD DUP1 SWAP2 SUB SWAP1 REVERT JUMPDEST PUSH1 0x5 PUSH1 0x0 DUP3 DUP2 MSTORE PUSH1 0x20 ADD SWAP1 DUP2 MSTORE PUSH1 0x20 ADD PUSH1 0x0 KECCAK256 PUSH1 0x0 PUSH2 0x100 EXP DUP2 SLOAD SWAP1 PUSH20 0xFFFFFFFFFFFFFFFFFFFFFFFFFFFFFFFFFFFFFFFF MUL NOT AND SWAP1 SSTORE DUP1 PUSH32 0x7CC135E0CEBB02C3480AE5D74D377283180A2601F8F644EDF7987B009316C63A PUSH1 0x40 MLOAD PUSH1 0x40 MLOAD DUP1 SWAP2 SUB SWAP1 LOG2 DUP2 PUSH1 0x7 DUP2 SWAP1 SSTORE POP PUSH32 0xE5E26A600DC81B241131B3541C3C53D9B02D780F102C65B08B91FD57998E3B72 DUP3 PUSH1 0x40 MLOAD PUSH2 0x4D1 SWAP2 SWAP1 PUSH2 0x1819 JUMP JUMPDEST PUSH1 0x40 MLOAD DUP1 SWAP2 SUB SWAP1 LOG1 POP POP POP JUMP JUMPDEST DUP2 PUSH1 0x5 PUSH1 0x0 DUP3 DUP2 MSTORE PUSH1 0x20 ADD SWAP1 DUP2 MSTORE PUSH1 0x20 ADD PUSH1 0x0 KECCAK256 PUSH1 0x0 SWAP1 SLOAD SWAP1 PUSH2 0x100 EXP SWAP1 DIV PUSH20 0xFFFFFFFFFFFFFFFFFFFFFFFFFFFFFFFFFFFFFFFF AND PUSH20 0xFFFFFFFFFFFFFFFFFFFFFFFFFFFFFFFFFFFFFFFF AND CALLER PUSH20 0xFFFFFFFFFFFFFFFFFFFFFFFFFFFFFFFFFFFFFFFF AND EQ PUSH2 0x580 JUMPI PUSH1 0x40 MLOAD PUSH32 0x8C379A000000000000000000000000000000000000000000000000000000000 DUP2 MSTORE PUSH1 0x4 ADD PUSH2 0x577 SWAP1 PUSH2 0x17F9 JUMP JUMPDEST PUSH1 0x40 MLOAD DUP1 SWAP2 SUB SWAP1 REVERT JUMPDEST PUSH1 0x5 PUSH1 0x0 DUP3 DUP2 MSTORE PUSH1 0x20 ADD SWAP1 DUP2 MSTORE PUSH1 0x20 ADD PUSH1 0x0 KECCAK256 PUSH1 0x0 PUSH2 0x100 EXP DUP2 SLOAD SWAP1 PUSH20 0xFFFFFFFFFFFFFFFFFFFFFFFFFFFFFFFFFFFFFFFF MUL NOT AND SWAP1 SSTORE DUP1 PUSH32 0x7CC135E0CEBB02C3480AE5D74D377283180A2601F8F644EDF7987B009316C63A PUSH1 0x40 MLOAD PUSH1 0x40 MLOAD DUP1 SWAP2 SUB SWAP1 LOG2 DUP2 PUSH1 0xB DUP2 SWAP1 SSTORE POP PUSH32 0xFE14B6164C67C7837A2E1BBF8EB765FF403C6A748A8D7C22BE06745DC92CF338 DUP3 PUSH1 0x40 MLOAD PUSH2 0x619 SWAP2 SWAP1 PUSH2 0x1819 JUMP JUMPDEST PUSH1 0x40 MLOAD DUP1 SWAP2 SUB SWAP1 LOG1 POP POP POP JUMP JUMPDEST PUSH1 0x0 PUSH2 0x63C PUSH1 0x8 SLOAD ADDRESS PUSH4 0x5EFCE06 PUSH1 0xE0 SHL PUSH2 0xB84 JUMP JUMPDEST SWAP1 POP PUSH2 0x688 PUSH1 0x40 MLOAD DUP1 PUSH1 0x40 ADD PUSH1 0x40 MSTORE DUP1 PUSH1 0x8 DUP2 MSTORE PUSH1 0x20 ADD PUSH32 0x6461746546726F6D000000000000000000000000000000000000000000000000 DUP2 MSTORE POP DUP5 DUP4 PUSH2 0xBB5 SWAP1 SWAP3 SWAP2 SWAP1 PUSH4 0xFFFFFFFF AND JUMP JUMPDEST PUSH2 0x6D2 PUSH1 0x40 MLOAD DUP1 PUSH1 0x40 ADD PUSH1 0x40 MSTORE DUP1 PUSH1 0x6 DUP2 MSTORE PUSH1 0x20 ADD PUSH32 0x64617465546F0000000000000000000000000000000000000000000000000000 DUP2 MSTORE POP DUP4 DUP4 PUSH2 0xBB5 SWAP1 SWAP3 SWAP2 SWAP1 PUSH4 0xFFFFFFFF AND JUMP JUMPDEST PUSH2 0x751 PUSH1 0x40 MLOAD DUP1 PUSH1 0x40 ADD PUSH1 0x40 MSTORE DUP1 PUSH1 0x6 DUP2 MSTORE PUSH1 0x20 ADD PUSH32 0x6D6574686F640000000000000000000000000000000000000000000000000000 DUP2 MSTORE POP PUSH1 0x40 MLOAD DUP1 PUSH1 0x40 ADD PUSH1 0x40 MSTORE DUP1 PUSH1 0x3 DUP2 MSTORE PUSH1 0x20 ADD PUSH32 0x53554D0000000000000000000000000000000000000000000000000000000000 DUP2 MSTORE POP DUP4 PUSH2 0xBB5 SWAP1 SWAP3 SWAP2 SWAP1 PUSH4 0xFFFFFFFF AND JUMP JUMPDEST PUSH2 0x7D0 PUSH1 0x40 MLOAD DUP1 PUSH1 0x40 ADD PUSH1 0x40 MSTORE DUP1 PUSH1 0x6 DUP2 MSTORE PUSH1 0x20 ADD PUSH32 0x636F6C756D6E0000000000000000000000000000000000000000000000000000 DUP2 MSTORE POP PUSH1 0x40 MLOAD DUP1 PUSH1 0x40 ADD PUSH1 0x40 MSTORE DUP1 PUSH1 0x4 DUP2 MSTORE PUSH1 0x20 ADD PUSH32 0x7072637000000000000000000000000000000000000000000000000000000000 DUP2 MSTORE POP DUP4 PUSH2 0xBB5 SWAP1 SWAP3 SWAP2 SWAP1 PUSH4 0xFFFFFFFF AND JUMP JUMPDEST PUSH2 0x7DC DUP2 PUSH1 0xC SLOAD PUSH2 0xBE8 JUMP JUMPDEST POP POP POP POP JUMP JUMPDEST PUSH1 0x7 SLOAD DUP2 JUMP JUMPDEST PUSH1 0x0 PUSH2 0x7FE PUSH1 0x6 SLOAD ADDRESS PUSH4 0x2A3508DC PUSH1 0xE0 SHL PUSH2 0xB84 JUMP JUMPDEST SWAP1 POP PUSH2 0x84A PUSH1 0x40 MLOAD DUP1 PUSH1 0x40 ADD PUSH1 0x40 MSTORE DUP1 PUSH1 0x8 DUP2 MSTORE PUSH1 0x20 ADD PUSH32 0x6461746546726F6D000000000000000000000000000000000000000000000000 DUP2 MSTORE POP DUP5 DUP4 PUSH2 0xBB5 SWAP1 SWAP3 SWAP2 SWAP1 PUSH4 0xFFFFFFFF AND JUMP JUMPDEST PUSH2 0x894 PUSH1 0x40 MLOAD DUP1 PUSH1 0x40 ADD PUSH1 0x40 MSTORE DUP1 PUSH1 0x6 DUP2 MSTORE PUSH1 0x20 ADD PUSH32 0x64617465546F0000000000000000000000000000000000000000000000000000 DUP2 MSTORE POP DUP4 DUP4 PUSH2 0xBB5 SWAP1 SWAP3 SWAP2 SWAP1 PUSH4 0xFFFFFFFF AND JUMP JUMPDEST PUSH2 0x913 PUSH1 0x40 MLOAD DUP1 PUSH1 0x40 ADD PUSH1 0x40 MSTORE DUP1 PUSH1 0x6 DUP2 MSTORE PUSH1 0x20 ADD PUSH32 0x6D6574686F640000000000000000000000000000000000000000000000000000 DUP2 MSTORE POP PUSH1 0x40 MLOAD DUP1 PUSH1 0x40 ADD PUSH1 0x40 MSTORE DUP1 PUSH1 0x3 DUP2 MSTORE PUSH1 0x20 ADD PUSH32 0x4156470000000000000000000000000000000000000000000000000000000000 DUP2 MSTORE POP DUP4 PUSH2 0xBB5 SWAP1 SWAP3 SWAP2 SWAP1 PUSH4 0xFFFFFFFF AND JUMP JUMPDEST PUSH2 0x992 PUSH1 0x40 MLOAD DUP1 PUSH1 0x40 ADD PUSH1 0x40 MSTORE DUP1 PUSH1 0x6 DUP2 MSTORE PUSH1 0x20 ADD PUSH32 0x636F6C756D6E0000000000000000000000000000000000000000000000000000 DUP2 MSTORE POP PUSH1 0x40 MLOAD DUP1 PUSH1 0x40 ADD PUSH1 0x40 MSTORE DUP1 PUSH1 0x4 DUP2 MSTORE PUSH1 0x20 ADD PUSH32 0x74656D7000000000000000000000000000000000000000000000000000000000 DUP2 MSTORE POP DUP4 PUSH2 0xBB5 SWAP1 SWAP3 SWAP2 SWAP1 PUSH4 0xFFFFFFFF AND JUMP JUMPDEST PUSH2 0x99E DUP2 PUSH1 0xC SLOAD PUSH2 0xBE8 JUMP JUMPDEST POP POP POP POP JUMP JUMPDEST PUSH1 0x9 SLOAD DUP2 JUMP JUMPDEST PUSH1 0xA SLOAD DUP2 JUMP JUMPDEST PUSH1 0xB SLOAD DUP2 JUMP JUMPDEST PUSH1 0x6 SLOAD DUP2 JUMP JUMPDEST PUSH1 0x8 SLOAD DUP2 JUMP JUMPDEST PUSH1 0x0 PUSH2 0x9D8 PUSH1 0xA SLOAD ADDRESS PUSH4 0x38171947 PUSH1 0xE0 SHL PUSH2 0xB84 JUMP JUMPDEST SWAP1 POP PUSH2 0xA24 PUSH1 0x40 MLOAD DUP1 PUSH1 0x40 ADD PUSH1 0x40 MSTORE DUP1 PUSH1 0x8 DUP2 MSTORE PUSH1 0x20 ADD PUSH32 0x6461746546726F6D000000000000000000000000000000000000000000000000 DUP2 MSTORE POP DUP5 DUP4 PUSH2 0xBB5 SWAP1 SWAP3 SWAP2 SWAP1 PUSH4 0xFFFFFFFF AND JUMP JUMPDEST PUSH2 0xA6E PUSH1 0x40 MLOAD DUP1 PUSH1 0x40 ADD PUSH1 0x40 MSTORE DUP1 PUSH1 0x6 DUP2 MSTORE PUSH1 0x20 ADD PUSH32 0x64617465546F0000000000000000000000000000000000000000000000000000 DUP2 MSTORE POP DUP4 DUP4 PUSH2 0xBB5 SWAP1 SWAP3 SWAP2 SWAP1 PUSH4 0xFFFFFFFF AND JUMP JUMPDEST PUSH2 0xAED PUSH1 0x40 MLOAD DUP1 PUSH1 0x40 ADD PUSH1 0x40 MSTORE DUP1 PUSH1 0x6 DUP2 MSTORE PUSH1 0x20 ADD PUSH32 0x6D6574686F640000000000000000000000000000000000000000000000000000 DUP2 MSTORE POP PUSH1 0x40 MLOAD DUP1 PUSH1 0x40 ADD PUSH1 0x40 MSTORE DUP1 PUSH1 0x3 DUP2 MSTORE PUSH1 0x20 ADD PUSH32 0x53554D0000000000000000000000000000000000000000000000000000000000 DUP2 MSTORE POP DUP4 PUSH2 0xBB5 SWAP1 SWAP3 SWAP2 SWAP1 PUSH4 0xFFFFFFFF AND JUMP JUMPDEST PUSH2 0xB6C PUSH1 0x40 MLOAD DUP1 PUSH1 0x40 ADD PUSH1 0x40 MSTORE DUP1 PUSH1 0x6 DUP2 MSTORE PUSH1 0x20 ADD PUSH32 0x636F6C756D6E0000000000000000000000000000000000000000000000000000 DUP2 MSTORE POP PUSH1 0x40 MLOAD DUP1 PUSH1 0x40 ADD PUSH1 0x40 MSTORE DUP1 PUSH1 0x4 DUP2 MSTORE PUSH1 0x20 ADD PUSH32 0x6861696C00000000000000000000000000000000000000000000000000000000 DUP2 MSTORE POP DUP4 PUSH2 0xBB5 SWAP1 SWAP3 SWAP2 SWAP1 PUSH4 0xFFFFFFFF AND JUMP JUMPDEST PUSH2 0xB78 DUP2 PUSH1 0xC SLOAD PUSH2 0xBE8 JUMP JUMPDEST POP POP POP POP JUMP JUMPDEST PUSH1 0xC SLOAD DUP2 JUMP JUMPDEST PUSH2 0xB8C PUSH2 0x13CB JUMP JUMPDEST PUSH2 0xB94 PUSH2 0x13CB JUMP JUMPDEST PUSH2 0xBAB DUP6 DUP6 DUP6 DUP5 PUSH2 0xC1F SWAP1 SWAP4 SWAP3 SWAP2 SWAP1 PUSH4 0xFFFFFFFF AND JUMP JUMPDEST SWAP2 POP POP SWAP4 SWAP3 POP POP POP JUMP JUMPDEST PUSH2 0xBCC DUP3 DUP5 PUSH1 0x80 ADD MLOAD PUSH2 0xCCF SWAP1 SWAP2 SWAP1 PUSH4 0xFFFFFFFF AND JUMP JUMPDEST PUSH2 0xBE3 DUP2 DUP5 PUSH1 0x80 ADD MLOAD PUSH2 0xCCF SWAP1 SWAP2 SWAP1 PUSH4 0xFFFFFFFF AND JUMP JUMPDEST POP POP POP JUMP JUMPDEST PUSH1 0x0 PUSH2 0xC17 PUSH1 0x3 PUSH1 0x0 SWAP1 SLOAD SWAP1 PUSH2 0x100 EXP SWAP1 DIV PUSH20 0xFFFFFFFFFFFFFFFFFFFFFFFFFFFFFFFFFFFFFFFF AND DUP5 DUP5 PUSH2 0xCF4 JUMP JUMPDEST SWAP1 POP SWAP3 SWAP2 POP POP JUMP JUMPDEST PUSH2 0xC27 PUSH2 0x13CB JUMP JUMPDEST PUSH2 0xC37 DUP6 PUSH1 0x80 ADD MLOAD PUSH2 0x100 PUSH2 0xDC0 JUMP JUMPDEST POP DUP4 DUP6 PUSH1 0x0 ADD DUP2 DUP2 MSTORE POP POP DUP3 DUP6 PUSH1 0x20 ADD SWAP1 PUSH20 0xFFFFFFFFFFFFFFFFFFFFFFFFFFFFFFFFFFFFFFFF AND SWAP1 DUP2 PUSH20 0xFFFFFFFFFFFFFFFFFFFFFFFFFFFFFFFFFFFFFFFF AND DUP2 MSTORE POP POP DUP2 DUP6 PUSH1 0x40 ADD SWAP1 PUSH28 0xFFFFFFFFFFFFFFFFFFFFFFFFFFFFFFFFFFFFFFFFFFFFFFFFFFFFFFFF NOT AND SWAP1 DUP2 PUSH28 0xFFFFFFFFFFFFFFFFFFFFFFFFFFFFFFFFFFFFFFFFFFFFFFFFFFFFFFFF NOT AND DUP2 MSTORE POP POP DUP5 SWAP1 POP SWAP5 SWAP4 POP POP POP POP JUMP JUMPDEST PUSH2 0xCDC DUP3 PUSH1 0x3 DUP4 MLOAD PUSH2 0xE2A JUMP JUMPDEST PUSH2 0xCEF DUP2 DUP4 PUSH2 0xFAF SWAP1 SWAP2 SWAP1 PUSH4 0xFFFFFFFF AND JUMP JUMPDEST POP POP POP JUMP JUMPDEST PUSH1 0x0 DUP1 PUSH1 0x4 SLOAD SWAP1 POP PUSH1 0x1 DUP2 PUSH2 0xD09 SWAP2 SWAP1 PUSH2 0x18B7 JUMP JUMPDEST PUSH1 0x4 DUP2 SWAP1 SSTORE POP PUSH1 0x0 PUSH4 0x40429946 PUSH1 0xE0 SHL PUSH1 0x0 DUP1 DUP8 PUSH1 0x0 ADD MLOAD ADDRESS DUP10 PUSH1 0x40 ADD MLOAD DUP8 PUSH1 0x1 DUP13 PUSH1 0x80 ADD MLOAD PUSH1 0x0 ADD MLOAD PUSH1 0x40 MLOAD PUSH1 0x24 ADD PUSH2 0xD4A SWAP9 SWAP8 SWAP7 SWAP6 SWAP5 SWAP4 SWAP3 SWAP2 SWAP1 PUSH2 0x16FB JUMP JUMPDEST PUSH1 0x40 MLOAD PUSH1 0x20 DUP2 DUP4 SUB SUB DUP2 MSTORE SWAP1 PUSH1 0x40 MSTORE SWAP1 PUSH28 0xFFFFFFFFFFFFFFFFFFFFFFFFFFFFFFFFFFFFFFFFFFFFFFFFFFFFFFFF NOT AND PUSH1 0x20 DUP3 ADD DUP1 MLOAD PUSH28 0xFFFFFFFFFFFFFFFFFFFFFFFFFFFFFFFFFFFFFFFFFFFFFFFFFFFFFFFF DUP4 DUP2 DUP4 AND OR DUP4 MSTORE POP POP POP POP SWAP1 POP PUSH2 0xDB5 DUP7 DUP4 DUP7 DUP5 PUSH2 0xFD1 JUMP JUMPDEST SWAP3 POP POP POP SWAP4 SWAP3 POP POP POP JUMP JUMPDEST PUSH2 0xDC8 PUSH2 0x1438 JUMP JUMPDEST PUSH1 0x0 PUSH1 0x20 DUP4 PUSH2 0xDD7 SWAP2 SWAP1 PUSH2 0x1C61 JUMP JUMPDEST EQ PUSH2 0xE03 JUMPI PUSH1 0x20 DUP3 PUSH2 0xDE9 SWAP2 SWAP1 PUSH2 0x1C61 JUMP JUMPDEST PUSH1 0x20 PUSH2 0xDF5 SWAP2 SWAP1 PUSH2 0x1AD8 JUMP JUMPDEST DUP3 PUSH2 0xE00 SWAP2 SWAP1 PUSH2 0x18B7 JUMP JUMPDEST SWAP2 POP JUMPDEST DUP2 DUP4 PUSH1 0x20 ADD DUP2 DUP2 MSTORE POP POP PUSH1 0x40 MLOAD DUP1 DUP5 MSTORE PUSH1 0x0 DUP2 MSTORE DUP3 DUP2 ADD PUSH1 0x20 ADD PUSH1 0x40 MSTORE POP DUP3 SWAP1 POP SWAP3 SWAP2 POP POP JUMP JUMPDEST PUSH1 0x17 DUP2 PUSH8 0xFFFFFFFFFFFFFFFF AND GT PUSH2 0xE61 JUMPI PUSH2 0xE5B DUP2 PUSH1 0x5 DUP5 PUSH1 0xFF AND SWAP1 SHL PUSH1 0xFF AND OR DUP5 PUSH2 0x1175 SWAP1 SWAP2 SWAP1 PUSH4 0xFFFFFFFF AND JUMP JUMPDEST POP PUSH2 0xFAA JUMP JUMPDEST PUSH1 0xFF DUP2 PUSH8 0xFFFFFFFFFFFFFFFF AND GT PUSH2 0xEB7 JUMPI PUSH2 0xE90 PUSH1 0x18 PUSH1 0x5 DUP5 PUSH1 0xFF AND SWAP1 SHL OR DUP5 PUSH2 0x1175 SWAP1 SWAP2 SWAP1 PUSH4 0xFFFFFFFF AND JUMP JUMPDEST POP PUSH2 0xEB1 DUP2 PUSH8 0xFFFFFFFFFFFFFFFF AND PUSH1 0x1 DUP6 PUSH2 0x1195 SWAP1 SWAP3 SWAP2 SWAP1 PUSH4 0xFFFFFFFF AND JUMP JUMPDEST POP PUSH2 0xFA9 JUMP JUMPDEST PUSH2 0xFFFF DUP2 PUSH8 0xFFFFFFFFFFFFFFFF AND GT PUSH2 0xF0E JUMPI PUSH2 0xEE7 PUSH1 0x19 PUSH1 0x5 DUP5 PUSH1 0xFF AND SWAP1 SHL OR DUP5 PUSH2 0x1175 SWAP1 SWAP2 SWAP1 PUSH4 0xFFFFFFFF AND JUMP JUMPDEST POP PUSH2 0xF08 DUP2 PUSH8 0xFFFFFFFFFFFFFFFF AND PUSH1 0x2 DUP6 PUSH2 0x1195 SWAP1 SWAP3 SWAP2 SWAP1 PUSH4 0xFFFFFFFF AND JUMP JUMPDEST POP PUSH2 0xFA8 JUMP JUMPDEST PUSH4 0xFFFFFFFF DUP2 PUSH8 0xFFFFFFFFFFFFFFFF AND GT PUSH2 0xF67 JUMPI PUSH2 0xF40 PUSH1 0x1A PUSH1 0x5 DUP5 PUSH1 0xFF AND SWAP1 SHL OR DUP5 PUSH2 0x1175 SWAP1 SWAP2 SWAP1 PUSH4 0xFFFFFFFF AND JUMP JUMPDEST POP PUSH2 0xF61 DUP2 PUSH8 0xFFFFFFFFFFFFFFFF AND PUSH1 0x4 DUP6 PUSH2 0x1195 SWAP1 SWAP3 SWAP2 SWAP1 PUSH4 0xFFFFFFFF AND JUMP JUMPDEST POP PUSH2 0xFA7 JUMP JUMPDEST PUSH2 0xF84 PUSH1 0x1B PUSH1 0x5 DUP5 PUSH1 0xFF AND SWAP1 SHL OR DUP5 PUSH2 0x1175 SWAP1 SWAP2 SWAP1 PUSH4 0xFFFFFFFF AND JUMP JUMPDEST POP PUSH2 0xFA5 DUP2 PUSH8 0xFFFFFFFFFFFFFFFF AND PUSH1 0x8 DUP6 PUSH2 0x1195 SWAP1 SWAP3 SWAP2 SWAP1 PUSH4 0xFFFFFFFF AND JUMP JUMPDEST POP JUMPDEST JUMPDEST JUMPDEST JUMPDEST POP POP POP JUMP JUMPDEST PUSH2 0xFB7 PUSH2 0x1438 JUMP JUMPDEST PUSH2 0xFC9 DUP4 DUP5 PUSH1 0x0 ADD MLOAD MLOAD DUP5 DUP6 MLOAD PUSH2 0x11B7 JUMP JUMPDEST SWAP1 POP SWAP3 SWAP2 POP POP JUMP JUMPDEST PUSH1 0x0 ADDRESS DUP5 PUSH1 0x40 MLOAD PUSH1 0x20 ADD PUSH2 0xFE6 SWAP3 SWAP2 SWAP1 PUSH2 0x16CF JUMP JUMPDEST PUSH1 0x40 MLOAD PUSH1 0x20 DUP2 DUP4 SUB SUB DUP2 MSTORE SWAP1 PUSH1 0x40 MSTORE DUP1 MLOAD SWAP1 PUSH1 0x20 ADD KECCAK256 SWAP1 POP DUP5 PUSH1 0x5 PUSH1 0x0 DUP4 DUP2 MSTORE PUSH1 0x20 ADD SWAP1 DUP2 MSTORE PUSH1 0x20 ADD PUSH1 0x0 KECCAK256 PUSH1 0x0 PUSH2 0x100 EXP DUP2 SLOAD DUP2 PUSH20 0xFFFFFFFFFFFFFFFFFFFFFFFFFFFFFFFFFFFFFFFF MUL NOT AND SWAP1 DUP4 PUSH20 0xFFFFFFFFFFFFFFFFFFFFFFFFFFFFFFFFFFFFFFFF AND MUL OR SWAP1 SSTORE POP DUP1 PUSH32 0xB5E6E01E79F91267DC17B4E6314D5D4D03593D2CEEE0FBB452B750BD70EA5AF9 PUSH1 0x40 MLOAD PUSH1 0x40 MLOAD DUP1 SWAP2 SUB SWAP1 LOG2 PUSH1 0x2 PUSH1 0x0 SWAP1 SLOAD SWAP1 PUSH2 0x100 EXP SWAP1 DIV PUSH20 0xFFFFFFFFFFFFFFFFFFFFFFFFFFFFFFFFFFFFFFFF AND PUSH20 0xFFFFFFFFFFFFFFFFFFFFFFFFFFFFFFFFFFFFFFFF AND PUSH4 0x4000AEA0 DUP7 DUP6 DUP6 PUSH1 0x40 MLOAD DUP5 PUSH4 0xFFFFFFFF AND PUSH1 0xE0 SHL DUP2 MSTORE PUSH1 0x4 ADD PUSH2 0x10DC SWAP4 SWAP3 SWAP2 SWAP1 PUSH2 0x1780 JUMP JUMPDEST PUSH1 0x20 PUSH1 0x40 MLOAD DUP1 DUP4 SUB DUP2 PUSH1 0x0 DUP8 DUP1 EXTCODESIZE ISZERO DUP1 ISZERO PUSH2 0x10F6 JUMPI PUSH1 0x0 DUP1 REVERT JUMPDEST POP GAS CALL ISZERO DUP1 ISZERO PUSH2 0x110A JUMPI RETURNDATASIZE PUSH1 0x0 DUP1 RETURNDATACOPY RETURNDATASIZE PUSH1 0x0 REVERT JUMPDEST POP POP POP POP PUSH1 0x40 MLOAD RETURNDATASIZE PUSH1 0x1F NOT PUSH1 0x1F DUP3 ADD AND DUP3 ADD DUP1 PUSH1 0x40 MSTORE POP DUP2 ADD SWAP1 PUSH2 0x112E SWAP2 SWAP1 PUSH2 0x1501 JUMP JUMPDEST PUSH2 0x116D JUMPI PUSH1 0x40 MLOAD PUSH32 0x8C379A000000000000000000000000000000000000000000000000000000000 DUP2 MSTORE PUSH1 0x4 ADD PUSH2 0x1164 SWAP1 PUSH2 0x17D9 JUMP JUMPDEST PUSH1 0x40 MLOAD DUP1 SWAP2 SUB SWAP1 REVERT JUMPDEST SWAP5 SWAP4 POP POP POP POP JUMP JUMPDEST PUSH2 0x117D PUSH2 0x1438 JUMP JUMPDEST PUSH2 0x118D DUP4 DUP5 PUSH1 0x0 ADD MLOAD MLOAD DUP5 PUSH2 0x12A6 JUMP JUMPDEST SWAP1 POP SWAP3 SWAP2 POP POP JUMP JUMPDEST PUSH2 0x119D PUSH2 0x1438 JUMP JUMPDEST PUSH2 0x11AE DUP5 DUP6 PUSH1 0x0 ADD MLOAD MLOAD DUP6 DUP6 PUSH2 0x12FD JUMP JUMPDEST SWAP1 POP SWAP4 SWAP3 POP POP POP JUMP JUMPDEST PUSH2 0x11BF PUSH2 0x1438 JUMP JUMPDEST DUP3 MLOAD DUP3 GT ISZERO PUSH2 0x11CD JUMPI PUSH1 0x0 DUP1 REVERT JUMPDEST DUP5 PUSH1 0x20 ADD MLOAD DUP3 DUP6 PUSH2 0x11DE SWAP2 SWAP1 PUSH2 0x18B7 JUMP JUMPDEST GT ISZERO PUSH2 0x1213 JUMPI PUSH2 0x1212 DUP6 PUSH1 0x2 PUSH2 0x1203 DUP9 PUSH1 0x20 ADD MLOAD DUP9 DUP8 PUSH2 0x11FE SWAP2 SWAP1 PUSH2 0x18B7 JUMP JUMPDEST PUSH2 0x138B JUMP JUMPDEST PUSH2 0x120D SWAP2 SWAP1 PUSH2 0x1A7E JUMP JUMPDEST PUSH2 0x13A7 JUMP JUMPDEST JUMPDEST PUSH1 0x0 DUP1 DUP7 MLOAD DUP1 MLOAD DUP8 PUSH1 0x20 DUP4 ADD ADD SWAP4 POP DUP1 DUP9 DUP8 ADD GT ISZERO PUSH2 0x1232 JUMPI DUP8 DUP7 ADD DUP3 MSTORE JUMPDEST PUSH1 0x20 DUP8 ADD SWAP3 POP POP POP JUMPDEST PUSH1 0x20 DUP5 LT PUSH2 0x1279 JUMPI DUP1 MLOAD DUP3 MSTORE PUSH1 0x20 DUP3 PUSH2 0x1254 SWAP2 SWAP1 PUSH2 0x18B7 JUMP JUMPDEST SWAP2 POP PUSH1 0x20 DUP2 PUSH2 0x1263 SWAP2 SWAP1 PUSH2 0x18B7 JUMP JUMPDEST SWAP1 POP PUSH1 0x20 DUP5 PUSH2 0x1272 SWAP2 SWAP1 PUSH2 0x1AD8 JUMP JUMPDEST SWAP4 POP PUSH2 0x123B JUMP JUMPDEST PUSH1 0x0 PUSH1 0x1 DUP6 PUSH1 0x20 SUB PUSH2 0x100 EXP SUB SWAP1 POP DUP1 NOT DUP3 MLOAD AND DUP2 DUP5 MLOAD AND DUP2 DUP2 OR DUP6 MSTORE POP POP POP DUP7 SWAP3 POP POP POP SWAP5 SWAP4 POP POP POP POP JUMP JUMPDEST PUSH2 0x12AE PUSH2 0x1438 JUMP JUMPDEST DUP4 PUSH1 0x20 ADD MLOAD DUP4 LT PUSH2 0x12D4 JUMPI PUSH2 0x12D3 DUP5 PUSH1 0x2 DUP7 PUSH1 0x20 ADD MLOAD PUSH2 0x12CE SWAP2 SWAP1 PUSH2 0x1A7E JUMP JUMPDEST PUSH2 0x13A7 JUMP JUMPDEST JUMPDEST DUP4 MLOAD DUP1 MLOAD PUSH1 0x20 DUP6 DUP4 ADD ADD DUP5 DUP2 MSTORE8 DUP2 DUP7 EQ ISZERO PUSH2 0x12F0 JUMPI PUSH1 0x1 DUP3 ADD DUP4 MSTORE JUMPDEST POP POP POP DUP4 SWAP1 POP SWAP4 SWAP3 POP POP POP JUMP JUMPDEST PUSH2 0x1305 PUSH2 0x1438 JUMP JUMPDEST DUP5 PUSH1 0x20 ADD MLOAD DUP5 DUP4 PUSH2 0x1316 SWAP2 SWAP1 PUSH2 0x18B7 JUMP JUMPDEST GT ISZERO PUSH2 0x133E JUMPI PUSH2 0x133D DUP6 PUSH1 0x2 DUP7 DUP6 PUSH2 0x132E SWAP2 SWAP1 PUSH2 0x18B7 JUMP JUMPDEST PUSH2 0x1338 SWAP2 SWAP1 PUSH2 0x1A7E JUMP JUMPDEST PUSH2 0x13A7 JUMP JUMPDEST JUMPDEST PUSH1 0x0 PUSH1 0x1 DUP4 PUSH2 0x100 PUSH2 0x1350 SWAP2 SWAP1 PUSH2 0x1960 JUMP JUMPDEST PUSH2 0x135A SWAP2 SWAP1 PUSH2 0x1AD8 JUMP JUMPDEST SWAP1 POP DUP6 MLOAD DUP4 DUP7 DUP3 ADD ADD DUP6 DUP4 NOT DUP3 MLOAD AND OR DUP2 MSTORE DUP2 MLOAD DUP6 DUP9 ADD GT ISZERO PUSH2 0x137D JUMPI DUP5 DUP8 ADD DUP3 MSTORE JUMPDEST POP POP DUP6 SWAP2 POP POP SWAP5 SWAP4 POP POP POP POP JUMP JUMPDEST PUSH1 0x0 DUP2 DUP4 GT ISZERO PUSH2 0x139D JUMPI DUP3 SWAP1 POP PUSH2 0x13A1 JUMP JUMPDEST DUP2 SWAP1 POP JUMPDEST SWAP3 SWAP2 POP POP JUMP JUMPDEST PUSH1 0x0 DUP3 PUSH1 0x0 ADD MLOAD SWAP1 POP PUSH2 0x13BA DUP4 DUP4 PUSH2 0xDC0 JUMP JUMPDEST POP PUSH2 0x13C5 DUP4 DUP3 PUSH2 0xFAF JUMP JUMPDEST POP POP POP POP JUMP JUMPDEST PUSH1 0x40 MLOAD DUP1 PUSH1 0xA0 ADD PUSH1 0x40 MSTORE DUP1 PUSH1 0x0 DUP1 NOT AND DUP2 MSTORE PUSH1 0x20 ADD PUSH1 0x0 PUSH20 0xFFFFFFFFFFFFFFFFFFFFFFFFFFFFFFFFFFFFFFFF AND DUP2 MSTORE PUSH1 0x20 ADD PUSH1 0x0 PUSH28 0xFFFFFFFFFFFFFFFFFFFFFFFFFFFFFFFFFFFFFFFFFFFFFFFFFFFFFFFF NOT AND DUP2 MSTORE PUSH1 0x20 ADD PUSH1 0x0 DUP2 MSTORE PUSH1 0x20 ADD PUSH2 0x1432 PUSH2 0x1438 JUMP JUMPDEST DUP2 MSTORE POP SWAP1 JUMP JUMPDEST PUSH1 0x40 MLOAD DUP1 PUSH1 0x40 ADD PUSH1 0x40 MSTORE DUP1 PUSH1 0x60 DUP2 MSTORE PUSH1 0x20 ADD PUSH1 0x0 DUP2 MSTORE POP SWAP1 JUMP JUMPDEST PUSH1 0x0 PUSH2 0x1465 PUSH2 0x1460 DUP5 PUSH2 0x1859 JUMP JUMPDEST PUSH2 0x1834 JUMP JUMPDEST SWAP1 POP DUP3 DUP2 MSTORE PUSH1 0x20 DUP2 ADD DUP5 DUP5 DUP5 ADD GT ISZERO PUSH2 0x1481 JUMPI PUSH2 0x1480 PUSH2 0x1D24 JUMP JUMPDEST JUMPDEST PUSH2 0x148C DUP5 DUP3 DUP6 PUSH2 0x1BC0 JUMP JUMPDEST POP SWAP4 SWAP3 POP POP POP JUMP JUMPDEST PUSH1 0x0 DUP2 MLOAD SWAP1 POP PUSH2 0x14A3 DUP2 PUSH2 0x1DFC JUMP JUMPDEST SWAP3 SWAP2 POP POP JUMP JUMPDEST PUSH1 0x0 DUP2 CALLDATALOAD SWAP1 POP PUSH2 0x14B8 DUP2 PUSH2 0x1E13 JUMP JUMPDEST SWAP3 SWAP2 POP POP JUMP JUMPDEST PUSH1 0x0 DUP3 PUSH1 0x1F DUP4 ADD SLT PUSH2 0x14D3 JUMPI PUSH2 0x14D2 PUSH2 0x1D1F JUMP JUMPDEST JUMPDEST DUP2 CALLDATALOAD PUSH2 0x14E3 DUP5 DUP3 PUSH1 0x20 DUP7 ADD PUSH2 0x1452 JUMP JUMPDEST SWAP2 POP POP SWAP3 SWAP2 POP POP JUMP JUMPDEST PUSH1 0x0 DUP2 CALLDATALOAD SWAP1 POP PUSH2 0x14FB DUP2 PUSH2 0x1E2A JUMP JUMPDEST SWAP3 SWAP2 POP POP JUMP JUMPDEST PUSH1 0x0 PUSH1 0x20 DUP3 DUP5 SUB SLT ISZERO PUSH2 0x1517 JUMPI PUSH2 0x1516 PUSH2 0x1D2E JUMP JUMPDEST JUMPDEST PUSH1 0x0 PUSH2 0x1525 DUP5 DUP3 DUP6 ADD PUSH2 0x1494 JUMP JUMPDEST SWAP2 POP POP SWAP3 SWAP2 POP POP JUMP JUMPDEST PUSH1 0x0 DUP1 PUSH1 0x40 DUP4 DUP6 SUB SLT ISZERO PUSH2 0x1545 JUMPI PUSH2 0x1544 PUSH2 0x1D2E JUMP JUMPDEST JUMPDEST PUSH1 0x0 PUSH2 0x1553 DUP6 DUP3 DUP7 ADD PUSH2 0x14A9 JUMP JUMPDEST SWAP3 POP POP PUSH1 0x20 PUSH2 0x1564 DUP6 DUP3 DUP7 ADD PUSH2 0x14EC JUMP JUMPDEST SWAP2 POP POP SWAP3 POP SWAP3 SWAP1 POP JUMP JUMPDEST PUSH1 0x0 DUP1 PUSH1 0x40 DUP4 DUP6 SUB SLT ISZERO PUSH2 0x1585 JUMPI PUSH2 0x1584 PUSH2 0x1D2E JUMP JUMPDEST JUMPDEST PUSH1 0x0 DUP4 ADD CALLDATALOAD PUSH8 0xFFFFFFFFFFFFFFFF DUP2 GT ISZERO PUSH2 0x15A3 JUMPI PUSH2 0x15A2 PUSH2 0x1D29 JUMP JUMPDEST JUMPDEST PUSH2 0x15AF DUP6 DUP3 DUP7 ADD PUSH2 0x14BE JUMP JUMPDEST SWAP3 POP POP PUSH1 0x20 DUP4 ADD CALLDATALOAD PUSH8 0xFFFFFFFFFFFFFFFF DUP2 GT ISZERO PUSH2 0x15D0 JUMPI PUSH2 0x15CF PUSH2 0x1D29 JUMP JUMPDEST JUMPDEST PUSH2 0x15DC DUP6 DUP3 DUP7 ADD PUSH2 0x14BE JUMP JUMPDEST SWAP2 POP POP SWAP3 POP SWAP3 SWAP1 POP JUMP JUMPDEST PUSH2 0x15EF DUP2 PUSH2 0x1B0C JUMP JUMPDEST DUP3 MSTORE POP POP JUMP JUMPDEST PUSH2 0x15FE DUP2 PUSH2 0x1B2A JUMP JUMPDEST DUP3 MSTORE POP POP JUMP JUMPDEST PUSH2 0x160D DUP2 PUSH2 0x1B34 JUMP JUMPDEST DUP3 MSTORE POP POP JUMP JUMPDEST PUSH1 0x0 PUSH2 0x161E DUP3 PUSH2 0x188A JUMP JUMPDEST PUSH2 0x1628 DUP2 DUP6 PUSH2 0x1895 JUMP JUMPDEST SWAP4 POP PUSH2 0x1638 DUP2 DUP6 PUSH1 0x20 DUP7 ADD PUSH2 0x1BCF JUMP JUMPDEST PUSH2 0x1641 DUP2 PUSH2 0x1D33 JUMP JUMPDEST DUP5 ADD SWAP2 POP POP SWAP3 SWAP2 POP POP JUMP JUMPDEST PUSH2 0x165D PUSH2 0x1658 DUP3 PUSH2 0x1B8A JUMP JUMPDEST PUSH2 0x1C33 JUMP JUMPDEST DUP3 MSTORE POP POP JUMP JUMPDEST PUSH1 0x0 PUSH2 0x1670 PUSH1 0x23 DUP4 PUSH2 0x18A6 JUMP JUMPDEST SWAP2 POP PUSH2 0x167B DUP3 PUSH2 0x1D5E JUMP JUMPDEST PUSH1 0x40 DUP3 ADD SWAP1 POP SWAP2 SWAP1 POP JUMP JUMPDEST PUSH1 0x0 PUSH2 0x1693 PUSH1 0x28 DUP4 PUSH2 0x18A6 JUMP JUMPDEST SWAP2 POP PUSH2 0x169E DUP3 PUSH2 0x1DAD JUMP JUMPDEST PUSH1 0x40 DUP3 ADD SWAP1 POP SWAP2 SWAP1 POP JUMP JUMPDEST PUSH2 0x16B2 DUP2 PUSH2 0x1B80 JUMP JUMPDEST DUP3 MSTORE POP POP JUMP JUMPDEST PUSH2 0x16C9 PUSH2 0x16C4 DUP3 PUSH2 0x1B80 JUMP JUMPDEST PUSH2 0x1C57 JUMP JUMPDEST DUP3 MSTORE POP POP JUMP JUMPDEST PUSH1 0x0 PUSH2 0x16DB DUP3 DUP6 PUSH2 0x164C JUMP JUMPDEST PUSH1 0x14 DUP3 ADD SWAP2 POP PUSH2 0x16EB DUP3 DUP5 PUSH2 0x16B8 JUMP JUMPDEST PUSH1 0x20 DUP3 ADD SWAP2 POP DUP2 SWAP1 POP SWAP4 SWAP3 POP POP POP JUMP JUMPDEST PUSH1 0x0 PUSH2 0x100 DUP3 ADD SWAP1 POP PUSH2 0x1711 PUSH1 0x0 DUP4 ADD DUP12 PUSH2 0x15E6 JUMP JUMPDEST PUSH2 0x171E PUSH1 0x20 DUP4 ADD DUP11 PUSH2 0x16A9 JUMP JUMPDEST PUSH2 0x172B PUSH1 0x40 DUP4 ADD DUP10 PUSH2 0x15F5 JUMP JUMPDEST PUSH2 0x1738 PUSH1 0x60 DUP4 ADD DUP9 PUSH2 0x15E6 JUMP JUMPDEST PUSH2 0x1745 PUSH1 0x80 DUP4 ADD DUP8 PUSH2 0x1604 JUMP JUMPDEST PUSH2 0x1752 PUSH1 0xA0 DUP4 ADD DUP7 PUSH2 0x16A9 JUMP JUMPDEST PUSH2 0x175F PUSH1 0xC0 DUP4 ADD DUP6 PUSH2 0x16A9 JUMP JUMPDEST DUP2 DUP2 SUB PUSH1 0xE0 DUP4 ADD MSTORE PUSH2 0x1771 DUP2 DUP5 PUSH2 0x1613 JUMP JUMPDEST SWAP1 POP SWAP10 SWAP9 POP POP POP POP POP POP POP POP POP JUMP JUMPDEST PUSH1 0x0 PUSH1 0x60 DUP3 ADD SWAP1 POP PUSH2 0x1795 PUSH1 0x0 DUP4 ADD DUP7 PUSH2 0x15E6 JUMP JUMPDEST PUSH2 0x17A2 PUSH1 0x20 DUP4 ADD DUP6 PUSH2 0x16A9 JUMP JUMPDEST DUP2 DUP2 SUB PUSH1 0x40 DUP4 ADD MSTORE PUSH2 0x17B4 DUP2 DUP5 PUSH2 0x1613 JUMP JUMPDEST SWAP1 POP SWAP5 SWAP4 POP POP POP POP JUMP JUMPDEST PUSH1 0x0 PUSH1 0x20 DUP3 ADD SWAP1 POP PUSH2 0x17D3 PUSH1 0x0 DUP4 ADD DUP5 PUSH2 0x15F5 JUMP JUMPDEST SWAP3 SWAP2 POP POP JUMP JUMPDEST PUSH1 0x0 PUSH1 0x20 DUP3 ADD SWAP1 POP DUP2 DUP2 SUB PUSH1 0x0 DUP4 ADD MSTORE PUSH2 0x17F2 DUP2 PUSH2 0x1663 JUMP JUMPDEST SWAP1 POP SWAP2 SWAP1 POP JUMP JUMPDEST PUSH1 0x0 PUSH1 0x20 DUP3 ADD SWAP1 POP DUP2 DUP2 SUB PUSH1 0x0 DUP4 ADD MSTORE PUSH2 0x1812 DUP2 PUSH2 0x1686 JUMP JUMPDEST SWAP1 POP SWAP2 SWAP1 POP JUMP JUMPDEST PUSH1 0x0 PUSH1 0x20 DUP3 ADD SWAP1 POP PUSH2 0x182E PUSH1 0x0 DUP4 ADD DUP5 PUSH2 0x16A9 JUMP JUMPDEST SWAP3 SWAP2 POP POP JUMP JUMPDEST PUSH1 0x0 PUSH2 0x183E PUSH2 0x184F JUMP JUMPDEST SWAP1 POP PUSH2 0x184A DUP3 DUP3 PUSH2 0x1C02 JUMP JUMPDEST SWAP2 SWAP1 POP JUMP JUMPDEST PUSH1 0x0 PUSH1 0x40 MLOAD SWAP1 POP SWAP1 JUMP JUMPDEST PUSH1 0x0 PUSH8 0xFFFFFFFFFFFFFFFF DUP3 GT ISZERO PUSH2 0x1874 JUMPI PUSH2 0x1873 PUSH2 0x1CF0 JUMP JUMPDEST JUMPDEST PUSH2 0x187D DUP3 PUSH2 0x1D33 JUMP JUMPDEST SWAP1 POP PUSH1 0x20 DUP2 ADD SWAP1 POP SWAP2 SWAP1 POP JUMP JUMPDEST PUSH1 0x0 DUP2 MLOAD SWAP1 POP SWAP2 SWAP1 POP JUMP JUMPDEST PUSH1 0x0 DUP3 DUP3 MSTORE PUSH1 0x20 DUP3 ADD SWAP1 POP SWAP3 SWAP2 POP POP JUMP JUMPDEST PUSH1 0x0 DUP3 DUP3 MSTORE PUSH1 0x20 DUP3 ADD SWAP1 POP SWAP3 SWAP2 POP POP JUMP JUMPDEST PUSH1 0x0 PUSH2 0x18C2 DUP3 PUSH2 0x1B80 JUMP JUMPDEST SWAP2 POP PUSH2 0x18CD DUP4 PUSH2 0x1B80 JUMP JUMPDEST SWAP3 POP DUP3 PUSH32 0xFFFFFFFFFFFFFFFFFFFFFFFFFFFFFFFFFFFFFFFFFFFFFFFFFFFFFFFFFFFFFFFF SUB DUP3 GT ISZERO PUSH2 0x1902 JUMPI PUSH2 0x1901 PUSH2 0x1C92 JUMP JUMPDEST JUMPDEST DUP3 DUP3 ADD SWAP1 POP SWAP3 SWAP2 POP POP JUMP JUMPDEST PUSH1 0x0 DUP1 DUP3 SWAP2 POP DUP4 SWAP1 POP JUMPDEST PUSH1 0x1 DUP6 GT ISZERO PUSH2 0x1957 JUMPI DUP1 DUP7 DIV DUP2 GT ISZERO PUSH2 0x1933 JUMPI PUSH2 0x1932 PUSH2 0x1C92 JUMP JUMPDEST JUMPDEST PUSH1 0x1 DUP6 AND ISZERO PUSH2 0x1942 JUMPI DUP1 DUP3 MUL SWAP2 POP JUMPDEST DUP1 DUP2 MUL SWAP1 POP PUSH2 0x1950 DUP6 PUSH2 0x1D51 JUMP JUMPDEST SWAP5 POP PUSH2 0x1917 JUMP JUMPDEST SWAP5 POP SWAP5 SWAP3 POP POP POP JUMP JUMPDEST PUSH1 0x0 PUSH2 0x196B DUP3 PUSH2 0x1B80 JUMP JUMPDEST SWAP2 POP PUSH2 0x1976 DUP4 PUSH2 0x1B80 JUMP JUMPDEST SWAP3 POP PUSH2 0x19A3 PUSH32 0xFFFFFFFFFFFFFFFFFFFFFFFFFFFFFFFFFFFFFFFFFFFFFFFFFFFFFFFFFFFFFFFF DUP5 DUP5 PUSH2 0x19AB JUMP JUMPDEST SWAP1 POP SWAP3 SWAP2 POP POP JUMP JUMPDEST PUSH1 0x0 DUP3 PUSH2 0x19BB JUMPI PUSH1 0x1 SWAP1 POP PUSH2 0x1A77 JUMP JUMPDEST DUP2 PUSH2 0x19C9 JUMPI PUSH1 0x0 SWAP1 POP PUSH2 0x1A77 JUMP JUMPDEST DUP2 PUSH1 0x1 DUP2 EQ PUSH2 0x19DF JUMPI PUSH1 0x2 DUP2 EQ PUSH2 0x19E9 JUMPI PUSH2 0x1A18 JUMP JUMPDEST PUSH1 0x1 SWAP2 POP POP PUSH2 0x1A77 JUMP JUMPDEST PUSH1 0xFF DUP5 GT ISZERO PUSH2 0x19FB JUMPI PUSH2 0x19FA PUSH2 0x1C92 JUMP JUMPDEST JUMPDEST DUP4 PUSH1 0x2 EXP SWAP2 POP DUP5 DUP3 GT ISZERO PUSH2 0x1A12 JUMPI PUSH2 0x1A11 PUSH2 0x1C92 JUMP JUMPDEST JUMPDEST POP PUSH2 0x1A77 JUMP JUMPDEST POP PUSH1 0x20 DUP4 LT PUSH2 0x133 DUP4 LT AND PUSH1 0x4E DUP5 LT PUSH1 0xB DUP5 LT AND OR ISZERO PUSH2 0x1A4D JUMPI DUP3 DUP3 EXP SWAP1 POP DUP4 DUP2 GT ISZERO PUSH2 0x1A48 JUMPI PUSH2 0x1A47 PUSH2 0x1C92 JUMP JUMPDEST JUMPDEST PUSH2 0x1A77 JUMP JUMPDEST PUSH2 0x1A5A DUP5 DUP5 DUP5 PUSH1 0x1 PUSH2 0x190D JUMP JUMPDEST SWAP3 POP SWAP1 POP DUP2 DUP5 DIV DUP2 GT ISZERO PUSH2 0x1A71 JUMPI PUSH2 0x1A70 PUSH2 0x1C92 JUMP JUMPDEST JUMPDEST DUP2 DUP2 MUL SWAP1 POP JUMPDEST SWAP4 SWAP3 POP POP POP JUMP JUMPDEST PUSH1 0x0 PUSH2 0x1A89 DUP3 PUSH2 0x1B80 JUMP JUMPDEST SWAP2 POP PUSH2 0x1A94 DUP4 PUSH2 0x1B80 JUMP JUMPDEST SWAP3 POP DUP2 PUSH32 0xFFFFFFFFFFFFFFFFFFFFFFFFFFFFFFFFFFFFFFFFFFFFFFFFFFFFFFFFFFFFFFFF DIV DUP4 GT DUP3 ISZERO ISZERO AND ISZERO PUSH2 0x1ACD JUMPI PUSH2 0x1ACC PUSH2 0x1C92 JUMP JUMPDEST JUMPDEST DUP3 DUP3 MUL SWAP1 POP SWAP3 SWAP2 POP POP JUMP JUMPDEST PUSH1 0x0 PUSH2 0x1AE3 DUP3 PUSH2 0x1B80 JUMP JUMPDEST SWAP2 POP PUSH2 0x1AEE DUP4 PUSH2 0x1B80 JUMP JUMPDEST SWAP3 POP DUP3 DUP3 LT ISZERO PUSH2 0x1B01 JUMPI PUSH2 0x1B00 PUSH2 0x1C92 JUMP JUMPDEST JUMPDEST DUP3 DUP3 SUB SWAP1 POP SWAP3 SWAP2 POP POP JUMP JUMPDEST PUSH1 0x0 PUSH2 0x1B17 DUP3 PUSH2 0x1B60 JUMP JUMPDEST SWAP1 POP SWAP2 SWAP1 POP JUMP JUMPDEST PUSH1 0x0 DUP2 ISZERO ISZERO SWAP1 POP SWAP2 SWAP1 POP JUMP JUMPDEST PUSH1 0x0 DUP2 SWAP1 POP SWAP2 SWAP1 POP JUMP JUMPDEST PUSH1 0x0 PUSH32 0xFFFFFFFF00000000000000000000000000000000000000000000000000000000 DUP3 AND SWAP1 POP SWAP2 SWAP1 POP JUMP JUMPDEST PUSH1 0x0 PUSH20 0xFFFFFFFFFFFFFFFFFFFFFFFFFFFFFFFFFFFFFFFF DUP3 AND SWAP1 POP SWAP2 SWAP1 POP JUMP JUMPDEST PUSH1 0x0 DUP2 SWAP1 POP SWAP2 SWAP1 POP JUMP JUMPDEST PUSH1 0x0 PUSH2 0x1B95 DUP3 PUSH2 0x1B9C JUMP JUMPDEST SWAP1 POP SWAP2 SWAP1 POP JUMP JUMPDEST PUSH1 0x0 PUSH2 0x1BA7 DUP3 PUSH2 0x1BAE JUMP JUMPDEST SWAP1 POP SWAP2 SWAP1 POP JUMP JUMPDEST PUSH1 0x0 PUSH2 0x1BB9 DUP3 PUSH2 0x1B60 JUMP JUMPDEST SWAP1 POP SWAP2 SWAP1 POP JUMP JUMPDEST DUP3 DUP2 DUP4 CALLDATACOPY PUSH1 0x0 DUP4 DUP4 ADD MSTORE POP POP POP JUMP JUMPDEST PUSH1 0x0 JUMPDEST DUP4 DUP2 LT ISZERO PUSH2 0x1BED JUMPI DUP1 DUP3 ADD MLOAD DUP2 DUP5 ADD MSTORE PUSH1 0x20 DUP2 ADD SWAP1 POP PUSH2 0x1BD2 JUMP JUMPDEST DUP4 DUP2 GT ISZERO PUSH2 0x1BFC JUMPI PUSH1 0x0 DUP5 DUP5 ADD MSTORE JUMPDEST POP POP POP POP JUMP JUMPDEST PUSH2 0x1C0B DUP3 PUSH2 0x1D33 JUMP JUMPDEST DUP2 ADD DUP2 DUP2 LT PUSH8 0xFFFFFFFFFFFFFFFF DUP3 GT OR ISZERO PUSH2 0x1C2A JUMPI PUSH2 0x1C29 PUSH2 0x1CF0 JUMP JUMPDEST JUMPDEST DUP1 PUSH1 0x40 MSTORE POP POP POP JUMP JUMPDEST PUSH1 0x0 PUSH2 0x1C3E DUP3 PUSH2 0x1C45 JUMP JUMPDEST SWAP1 POP SWAP2 SWAP1 POP JUMP JUMPDEST PUSH1 0x0 PUSH2 0x1C50 DUP3 PUSH2 0x1D44 JUMP JUMPDEST SWAP1 POP SWAP2 SWAP1 POP JUMP JUMPDEST PUSH1 0x0 DUP2 SWAP1 POP SWAP2 SWAP1 POP JUMP JUMPDEST PUSH1 0x0 PUSH2 0x1C6C DUP3 PUSH2 0x1B80 JUMP JUMPDEST SWAP2 POP PUSH2 0x1C77 DUP4 PUSH2 0x1B80 JUMP JUMPDEST SWAP3 POP DUP3 PUSH2 0x1C87 JUMPI PUSH2 0x1C86 PUSH2 0x1CC1 JUMP JUMPDEST JUMPDEST DUP3 DUP3 MOD SWAP1 POP SWAP3 SWAP2 POP POP JUMP JUMPDEST PUSH32 0x4E487B7100000000000000000000000000000000000000000000000000000000 PUSH1 0x0 MSTORE PUSH1 0x11 PUSH1 0x4 MSTORE PUSH1 0x24 PUSH1 0x0 REVERT JUMPDEST PUSH32 0x4E487B7100000000000000000000000000000000000000000000000000000000 PUSH1 0x0 MSTORE PUSH1 0x12 PUSH1 0x4 MSTORE PUSH1 0x24 PUSH1 0x0 REVERT JUMPDEST PUSH32 0x4E487B7100000000000000000000000000000000000000000000000000000000 PUSH1 0x0 MSTORE PUSH1 0x41 PUSH1 0x4 MSTORE PUSH1 0x24 PUSH1 0x0 REVERT JUMPDEST PUSH1 0x0 DUP1 REVERT JUMPDEST PUSH1 0x0 DUP1 REVERT JUMPDEST PUSH1 0x0 DUP1 REVERT JUMPDEST PUSH1 0x0 DUP1 REVERT JUMPDEST PUSH1 0x0 PUSH1 0x1F NOT PUSH1 0x1F DUP4 ADD AND SWAP1 POP SWAP2 SWAP1 POP JUMP JUMPDEST PUSH1 0x0 DUP2 PUSH1 0x60 SHL SWAP1 POP SWAP2 SWAP1 POP JUMP JUMPDEST PUSH1 0x0 DUP2 PUSH1 0x1 SHR SWAP1 POP SWAP2 SWAP1 POP JUMP JUMPDEST PUSH32 0x756E61626C6520746F207472616E73666572416E6443616C6C20746F206F7261 PUSH1 0x0 DUP3 ADD MSTORE PUSH32 0x636C650000000000000000000000000000000000000000000000000000000000 PUSH1 0x20 DUP3 ADD MSTORE POP JUMP JUMPDEST PUSH32 0x536F75726365206D75737420626520746865206F7261636C65206F6620746865 PUSH1 0x0 DUP3 ADD MSTORE PUSH32 0x2072657175657374000000000000000000000000000000000000000000000000 PUSH1 0x20 DUP3 ADD MSTORE POP JUMP JUMPDEST PUSH2 0x1E05 DUP2 PUSH2 0x1B1E JUMP JUMPDEST DUP2 EQ PUSH2 0x1E10 JUMPI PUSH1 0x0 DUP1 REVERT JUMPDEST POP JUMP JUMPDEST PUSH2 0x1E1C DUP2 PUSH2 0x1B2A JUMP JUMPDEST DUP2 EQ PUSH2 0x1E27 JUMPI PUSH1 0x0 DUP1 REVERT JUMPDEST POP JUMP JUMPDEST PUSH2 0x1E33 DUP2 PUSH2 0x1B80 JUMP JUMPDEST DUP2 EQ PUSH2 0x1E3E JUMPI PUSH1 0x0 DUP1 REVERT JUMPDEST POP JUMP INVALID LOG2 PUSH5 0x6970667358 0x22 SLT KECCAK256 EQ 0xBC SWAP6 DUP1 0xB4 0x4F 0xF8 0xC0 CODECOPY SWAP4 0x2B CHAINID 0x5C 0xB7 PUSH10 0x252C137100967A1015C1 PUSH23 0x96119C86066264736F6C63430008070033000000000000 "
				},
				"gasEstimates": {
					"creation": {
						"codeDepositCost": "1559800",
						"executionCost": "infinite",
						"totalCost": "infinite"
					},
					"external": {
						"avgTemp()": "2518",
						"avgTempJobId()": "2451",
						"fee()": "2517",
						"fulfillAvgTemp(bytes32,uint256)": "infinite",
						"fulfillHail(bytes32,uint256)": "infinite",
						"fulfillTotalRain(bytes32,uint256)": "infinite",
						"hail()": "2496",
						"hailJobId()": "2474",
						"requestAvgTemp(string,string)": "infinite",
						"requestHail(string,string)": "infinite",
						"requestTotalRain(string,string)": "infinite",
						"totalRain()": "2452",
						"totalRainJobId()": "2473"
					}
				},
				"methodIdentifiers": {
					"avgTemp()": "6aead4a3",
					"avgTempJobId()": "c70d4391",
					"fee()": "ddca3f43",
					"fulfillAvgTemp(bytes32,uint256)": "2a3508dc",
					"fulfillHail(bytes32,uint256)": "38171947",
					"fulfillTotalRain(bytes32,uint256)": "05efce06",
					"hail()": "bf5be35a",
					"hailJobId()": "bdcc616e",
					"requestAvgTemp(string,string)": "7c4d50ad",
					"requestHail(string,string)": "ce4316a5",
					"requestTotalRain(string,string)": "446bf1e3",
					"totalRain()": "a5236370",
					"totalRainJobId()": "c95fa3c9"
				}
			},
			"storageLayout": {
				"storage": [
					{
						"astId": 319,
						"contract": "decentralized_oracle.sol:Weather",
						"label": "s_ens",
						"offset": 0,
						"slot": "0",
						"type": "t_contract(ENSInterface)974"
					},
					{
						"astId": 321,
						"contract": "decentralized_oracle.sol:Weather",
						"label": "s_ensNode",
						"offset": 0,
						"slot": "1",
						"type": "t_bytes32"
					},
					{
						"astId": 324,
						"contract": "decentralized_oracle.sol:Weather",
						"label": "s_link",
						"offset": 0,
						"slot": "2",
						"type": "t_contract(LinkTokenInterface)1069"
					},
					{
						"astId": 327,
						"contract": "decentralized_oracle.sol:Weather",
						"label": "s_oracle",
						"offset": 0,
						"slot": "3",
						"type": "t_contract(OperatorInterface)1149"
					},
					{
						"astId": 330,
						"contract": "decentralized_oracle.sol:Weather",
						"label": "s_requestCount",
						"offset": 0,
						"slot": "4",
						"type": "t_uint256"
					},
					{
						"astId": 334,
						"contract": "decentralized_oracle.sol:Weather",
						"label": "s_pendingRequests",
						"offset": 0,
						"slot": "5",
						"type": "t_mapping(t_bytes32,t_address)"
					},
					{
						"astId": 2187,
						"contract": "decentralized_oracle.sol:Weather",
						"label": "avgTempJobId",
						"offset": 0,
						"slot": "6",
						"type": "t_bytes32"
					},
					{
						"astId": 2189,
						"contract": "decentralized_oracle.sol:Weather",
						"label": "avgTemp",
						"offset": 0,
						"slot": "7",
						"type": "t_uint256"
					},
					{
						"astId": 2191,
						"contract": "decentralized_oracle.sol:Weather",
						"label": "totalRainJobId",
						"offset": 0,
						"slot": "8",
						"type": "t_bytes32"
					},
					{
						"astId": 2193,
						"contract": "decentralized_oracle.sol:Weather",
						"label": "totalRain",
						"offset": 0,
						"slot": "9",
						"type": "t_uint256"
					},
					{
						"astId": 2195,
						"contract": "decentralized_oracle.sol:Weather",
						"label": "hailJobId",
						"offset": 0,
						"slot": "10",
						"type": "t_bytes32"
					},
					{
						"astId": 2197,
						"contract": "decentralized_oracle.sol:Weather",
						"label": "hail",
						"offset": 0,
						"slot": "11",
						"type": "t_uint256"
					},
					{
						"astId": 2199,
						"contract": "decentralized_oracle.sol:Weather",
						"label": "fee",
						"offset": 0,
						"slot": "12",
						"type": "t_uint256"
					}
				],
				"types": {
					"t_address": {
						"encoding": "inplace",
						"label": "address",
						"numberOfBytes": "20"
					},
					"t_bytes32": {
						"encoding": "inplace",
						"label": "bytes32",
						"numberOfBytes": "32"
					},
					"t_contract(ENSInterface)974": {
						"encoding": "inplace",
						"label": "contract ENSInterface",
						"numberOfBytes": "20"
					},
					"t_contract(LinkTokenInterface)1069": {
						"encoding": "inplace",
						"label": "contract LinkTokenInterface",
						"numberOfBytes": "20"
					},
					"t_contract(OperatorInterface)1149": {
						"encoding": "inplace",
						"label": "contract OperatorInterface",
						"numberOfBytes": "20"
					},
					"t_mapping(t_bytes32,t_address)": {
						"encoding": "mapping",
						"key": "t_bytes32",
						"label": "mapping(bytes32 => address)",
						"numberOfBytes": "32",
						"value": "t_address"
					},
					"t_uint256": {
						"encoding": "inplace",
						"label": "uint256",
						"numberOfBytes": "32"
					}
				}
			},
			"userdoc": {
				"kind": "user",
				"methods": {},
				"notice": "THIS IS AN EXAMPLE CONTRACT THAT USES HARDCODED VALUES FOR CLARITY. THIS IS AN EXAMPLE CONTRACT THAT USES UN-AUDITED CODE. DO NOT USE THIS CODE IN PRODUCTION.",
				"version": 1
			}
		}
	}
}