{
	"data": {
		"bytecode": {
			"linkReferences": {},
			"object": "608060405234801561001057600080fd5b50610a2d806100206000396000f3fe608060405234801561001057600080fd5b50600436106100415760003560e01c8063278ddb3414610046578063557b785014610076578063fae0e930146100a6575b600080fd5b610060600480360381019061005b9190610416565b6100c2565b60405161006d919061047a565b60405180910390f35b610090600480360381019061008b9190610416565b6100ec565b60405161009d9190610593565b60405180910390f35b6100c060048036038101906100bb9190610851565b61017d565b005b6000806001836040516100d5919061093a565b908152602001604051809103902054119050919050565b6100f4610282565b600082604051610104919061093a565b90815260200160405180910390206040518060800160405290816000820154815260200160018201548152602001600282015481526020016003820160009054906101000a900460ff1660078111156101605761015f6104c7565b5b6007811115610172576101716104c7565b5b815250509050919050565b60005b825181101561027d5781818151811061019c5761019b610951565b5b602002602001015160008483815181106101b9576101b8610951565b5b60200260200101516040516101ce919061093a565b908152602001604051809103902060008201518160000155602082015181600101556040820151816002015560608201518160030160006101000a81548160ff02191690836007811115610225576102246104c7565b5b021790555090505042600184838151811061024357610242610951565b5b6020026020010151604051610258919061093a565b9081526020016040518091039020819055508080610275906109af565b915050610180565b505050565b6040518060800160405280600081526020016000815260200160008152602001600060078111156102b6576102b56104c7565b5b81525090565b6000604051905090565b600080fd5b600080fd5b600080fd5b600080fd5b6000601f19601f8301169050919050565b7f4e487b7100000000000000000000000000000000000000000000000000000000600052604160045260246000fd5b610323826102da565b810181811067ffffffffffffffff82111715610342576103416102eb565b5b80604052505050565b60006103556102bc565b9050610361828261031a565b919050565b600067ffffffffffffffff821115610381576103806102eb565b5b61038a826102da565b9050602081019050919050565b82818337600083830152505050565b60006103b96103b484610366565b61034b565b9050828152602081018484840111156103d5576103d46102d5565b5b6103e0848285610397565b509392505050565b600082601f8301126103fd576103fc6102d0565b5b813561040d8482602086016103a6565b91505092915050565b60006020828403121561042c5761042b6102c6565b5b600082013567ffffffffffffffff81111561044a576104496102cb565b5b610456848285016103e8565b91505092915050565b60008115159050919050565b6104748161045f565b82525050565b600060208201905061048f600083018461046b565b92915050565b6000819050919050565b6104a881610495565b82525050565b6000819050919050565b6104c1816104ae565b82525050565b7f4e487b7100000000000000000000000000000000000000000000000000000000600052602160045260246000fd5b60088110610507576105066104c7565b5b50565b6000819050610518826104f6565b919050565b60006105288261050a565b9050919050565b6105388161051d565b82525050565b608082016000820151610554600085018261049f565b50602082015161056760208501826104b8565b50604082015161057a60408501826104b8565b50606082015161058d606085018261052f565b50505050565b60006080820190506105a8600083018461053e565b92915050565b600067ffffffffffffffff8211156105c9576105c86102eb565b5b602082029050602081019050919050565b600080fd5b60006105f26105ed846105ae565b61034b565b90508083825260208201905060208402830185811115610615576106146105da565b5b835b8181101561065c57803567ffffffffffffffff81111561063a576106396102d0565b5b80860161064789826103e8565b85526020850194505050602081019050610617565b5050509392505050565b600082601f83011261067b5761067a6102d0565b5b813561068b8482602086016105df565b91505092915050565b600067ffffffffffffffff8211156106af576106ae6102eb565b5b602082029050602081019050919050565b600080fd5b6106ce81610495565b81146106d957600080fd5b50565b6000813590506106eb816106c5565b92915050565b6106fa816104ae565b811461070557600080fd5b50565b600081359050610717816106f1565b92915050565b6008811061072a57600080fd5b50565b60008135905061073c8161071d565b92915050565b600060808284031215610758576107576106c0565b5b610762608061034b565b90506000610772848285016106dc565b600083015250602061078684828501610708565b602083015250604061079a84828501610708565b60408301525060606107ae8482850161072d565b60608301525092915050565b60006107cd6107c884610694565b61034b565b905080838252602082019050608084028301858111156107f0576107ef6105da565b5b835b8181101561081957806108058882610742565b8452602084019350506080810190506107f2565b5050509392505050565b600082601f830112610838576108376102d0565b5b81356108488482602086016107ba565b91505092915050565b60008060408385031215610868576108676102c6565b5b600083013567ffffffffffffffff811115610886576108856102cb565b5b61089285828601610666565b925050602083013567ffffffffffffffff8111156108b3576108b26102cb565b5b6108bf85828601610823565b9150509250929050565b600081519050919050565b600081905092915050565b60005b838110156108fd5780820151818401526020810190506108e2565b60008484015250505050565b6000610914826108c9565b61091e81856108d4565b935061092e8185602086016108df565b80840191505092915050565b60006109468284610909565b915081905092915050565b7f4e487b7100000000000000000000000000000000000000000000000000000000600052603260045260246000fd5b7f4e487b7100000000000000000000000000000000000000000000000000000000600052601160045260246000fd5b60006109ba826104ae565b91507fffffffffffffffffffffffffffffffffffffffffffffffffffffffffffffffff82036109ec576109eb610980565b5b60018201905091905056fea26469706673582212205c396aa1f82c618556c20d018707f43557965a189f57b86b3f5f3d3bd4601b1d64736f6c63430008110033",
			"opcodes": "PUSH1 0x80 PUSH1 0x40 MSTORE CALLVALUE DUP1 ISZERO PUSH2 0x10 JUMPI PUSH1 0x0 DUP1 REVERT JUMPDEST POP PUSH2 0xA2D DUP1 PUSH2 0x20 PUSH1 0x0 CODECOPY PUSH1 0x0 RETURN INVALID PUSH1 0x80 PUSH1 0x40 MSTORE CALLVALUE DUP1 ISZERO PUSH2 0x10 JUMPI PUSH1 0x0 DUP1 REVERT JUMPDEST POP PUSH1 0x4 CALLDATASIZE LT PUSH2 0x41 JUMPI PUSH1 0x0 CALLDATALOAD PUSH1 0xE0 SHR DUP1 PUSH4 0x278DDB34 EQ PUSH2 0x46 JUMPI DUP1 PUSH4 0x557B7850 EQ PUSH2 0x76 JUMPI DUP1 PUSH4 0xFAE0E930 EQ PUSH2 0xA6 JUMPI JUMPDEST PUSH1 0x0 DUP1 REVERT JUMPDEST PUSH2 0x60 PUSH1 0x4 DUP1 CALLDATASIZE SUB DUP2 ADD SWAP1 PUSH2 0x5B SWAP2 SWAP1 PUSH2 0x416 JUMP JUMPDEST PUSH2 0xC2 JUMP JUMPDEST PUSH1 0x40 MLOAD PUSH2 0x6D SWAP2 SWAP1 PUSH2 0x47A JUMP JUMPDEST PUSH1 0x40 MLOAD DUP1 SWAP2 SUB SWAP1 RETURN JUMPDEST PUSH2 0x90 PUSH1 0x4 DUP1 CALLDATASIZE SUB DUP2 ADD SWAP1 PUSH2 0x8B SWAP2 SWAP1 PUSH2 0x416 JUMP JUMPDEST PUSH2 0xEC JUMP JUMPDEST PUSH1 0x40 MLOAD PUSH2 0x9D SWAP2 SWAP1 PUSH2 0x593 JUMP JUMPDEST PUSH1 0x40 MLOAD DUP1 SWAP2 SUB SWAP1 RETURN JUMPDEST PUSH2 0xC0 PUSH1 0x4 DUP1 CALLDATASIZE SUB DUP2 ADD SWAP1 PUSH2 0xBB SWAP2 SWAP1 PUSH2 0x851 JUMP JUMPDEST PUSH2 0x17D JUMP JUMPDEST STOP JUMPDEST PUSH1 0x0 DUP1 PUSH1 0x1 DUP4 PUSH1 0x40 MLOAD PUSH2 0xD5 SWAP2 SWAP1 PUSH2 0x93A JUMP JUMPDEST SWAP1 DUP2 MSTORE PUSH1 0x20 ADD PUSH1 0x40 MLOAD DUP1 SWAP2 SUB SWAP1 KECCAK256 SLOAD GT SWAP1 POP SWAP2 SWAP1 POP JUMP JUMPDEST PUSH2 0xF4 PUSH2 0x282 JUMP JUMPDEST PUSH1 0x0 DUP3 PUSH1 0x40 MLOAD PUSH2 0x104 SWAP2 SWAP1 PUSH2 0x93A JUMP JUMPDEST SWAP1 DUP2 MSTORE PUSH1 0x20 ADD PUSH1 0x40 MLOAD DUP1 SWAP2 SUB SWAP1 KECCAK256 PUSH1 0x40 MLOAD DUP1 PUSH1 0x80 ADD PUSH1 0x40 MSTORE SWAP1 DUP2 PUSH1 0x0 DUP3 ADD SLOAD DUP2 MSTORE PUSH1 0x20 ADD PUSH1 0x1 DUP3 ADD SLOAD DUP2 MSTORE PUSH1 0x20 ADD PUSH1 0x2 DUP3 ADD SLOAD DUP2 MSTORE PUSH1 0x20 ADD PUSH1 0x3 DUP3 ADD PUSH1 0x0 SWAP1 SLOAD SWAP1 PUSH2 0x100 EXP SWAP1 DIV PUSH1 0xFF AND PUSH1 0x7 DUP2 GT ISZERO PUSH2 0x160 JUMPI PUSH2 0x15F PUSH2 0x4C7 JUMP JUMPDEST JUMPDEST PUSH1 0x7 DUP2 GT ISZERO PUSH2 0x172 JUMPI PUSH2 0x171 PUSH2 0x4C7 JUMP JUMPDEST JUMPDEST DUP2 MSTORE POP POP SWAP1 POP SWAP2 SWAP1 POP JUMP JUMPDEST PUSH1 0x0 JUMPDEST DUP3 MLOAD DUP2 LT ISZERO PUSH2 0x27D JUMPI DUP2 DUP2 DUP2 MLOAD DUP2 LT PUSH2 0x19C JUMPI PUSH2 0x19B PUSH2 0x951 JUMP JUMPDEST JUMPDEST PUSH1 0x20 MUL PUSH1 0x20 ADD ADD MLOAD PUSH1 0x0 DUP5 DUP4 DUP2 MLOAD DUP2 LT PUSH2 0x1B9 JUMPI PUSH2 0x1B8 PUSH2 0x951 JUMP JUMPDEST JUMPDEST PUSH1 0x20 MUL PUSH1 0x20 ADD ADD MLOAD PUSH1 0x40 MLOAD PUSH2 0x1CE SWAP2 SWAP1 PUSH2 0x93A JUMP JUMPDEST SWAP1 DUP2 MSTORE PUSH1 0x20 ADD PUSH1 0x40 MLOAD DUP1 SWAP2 SUB SWAP1 KECCAK256 PUSH1 0x0 DUP3 ADD MLOAD DUP2 PUSH1 0x0 ADD SSTORE PUSH1 0x20 DUP3 ADD MLOAD DUP2 PUSH1 0x1 ADD SSTORE PUSH1 0x40 DUP3 ADD MLOAD DUP2 PUSH1 0x2 ADD SSTORE PUSH1 0x60 DUP3 ADD MLOAD DUP2 PUSH1 0x3 ADD PUSH1 0x0 PUSH2 0x100 EXP DUP2 SLOAD DUP2 PUSH1 0xFF MUL NOT AND SWAP1 DUP4 PUSH1 0x7 DUP2 GT ISZERO PUSH2 0x225 JUMPI PUSH2 0x224 PUSH2 0x4C7 JUMP JUMPDEST JUMPDEST MUL OR SWAP1 SSTORE POP SWAP1 POP POP TIMESTAMP PUSH1 0x1 DUP5 DUP4 DUP2 MLOAD DUP2 LT PUSH2 0x243 JUMPI PUSH2 0x242 PUSH2 0x951 JUMP JUMPDEST JUMPDEST PUSH1 0x20 MUL PUSH1 0x20 ADD ADD MLOAD PUSH1 0x40 MLOAD PUSH2 0x258 SWAP2 SWAP1 PUSH2 0x93A JUMP JUMPDEST SWAP1 DUP2 MSTORE PUSH1 0x20 ADD PUSH1 0x40 MLOAD DUP1 SWAP2 SUB SWAP1 KECCAK256 DUP2 SWAP1 SSTORE POP DUP1 DUP1 PUSH2 0x275 SWAP1 PUSH2 0x9AF JUMP JUMPDEST SWAP2 POP POP PUSH2 0x180 JUMP JUMPDEST POP POP POP JUMP JUMPDEST PUSH1 0x40 MLOAD DUP1 PUSH1 0x80 ADD PUSH1 0x40 MSTORE DUP1 PUSH1 0x0 DUP2 MSTORE PUSH1 0x20 ADD PUSH1 0x0 DUP2 MSTORE PUSH1 0x20 ADD PUSH1 0x0 DUP2 MSTORE PUSH1 0x20 ADD PUSH1 0x0 PUSH1 0x7 DUP2 GT ISZERO PUSH2 0x2B6 JUMPI PUSH2 0x2B5 PUSH2 0x4C7 JUMP JUMPDEST JUMPDEST DUP2 MSTORE POP SWAP1 JUMP JUMPDEST PUSH1 0x0 PUSH1 0x40 MLOAD SWAP1 POP SWAP1 JUMP JUMPDEST PUSH1 0x0 DUP1 REVERT JUMPDEST PUSH1 0x0 DUP1 REVERT JUMPDEST PUSH1 0x0 DUP1 REVERT JUMPDEST PUSH1 0x0 DUP1 REVERT JUMPDEST PUSH1 0x0 PUSH1 0x1F NOT PUSH1 0x1F DUP4 ADD AND SWAP1 POP SWAP2 SWAP1 POP JUMP JUMPDEST PUSH32 0x4E487B7100000000000000000000000000000000000000000000000000000000 PUSH1 0x0 MSTORE PUSH1 0x41 PUSH1 0x4 MSTORE PUSH1 0x24 PUSH1 0x0 REVERT JUMPDEST PUSH2 0x323 DUP3 PUSH2 0x2DA JUMP JUMPDEST DUP2 ADD DUP2 DUP2 LT PUSH8 0xFFFFFFFFFFFFFFFF DUP3 GT OR ISZERO PUSH2 0x342 JUMPI PUSH2 0x341 PUSH2 0x2EB JUMP JUMPDEST JUMPDEST DUP1 PUSH1 0x40 MSTORE POP POP POP JUMP JUMPDEST PUSH1 0x0 PUSH2 0x355 PUSH2 0x2BC JUMP JUMPDEST SWAP1 POP PUSH2 0x361 DUP3 DUP3 PUSH2 0x31A JUMP JUMPDEST SWAP2 SWAP1 POP JUMP JUMPDEST PUSH1 0x0 PUSH8 0xFFFFFFFFFFFFFFFF DUP3 GT ISZERO PUSH2 0x381 JUMPI PUSH2 0x380 PUSH2 0x2EB JUMP JUMPDEST JUMPDEST PUSH2 0x38A DUP3 PUSH2 0x2DA JUMP JUMPDEST SWAP1 POP PUSH1 0x20 DUP2 ADD SWAP1 POP SWAP2 SWAP1 POP JUMP JUMPDEST DUP3 DUP2 DUP4 CALLDATACOPY PUSH1 0x0 DUP4 DUP4 ADD MSTORE POP POP POP JUMP JUMPDEST PUSH1 0x0 PUSH2 0x3B9 PUSH2 0x3B4 DUP5 PUSH2 0x366 JUMP JUMPDEST PUSH2 0x34B JUMP JUMPDEST SWAP1 POP DUP3 DUP2 MSTORE PUSH1 0x20 DUP2 ADD DUP5 DUP5 DUP5 ADD GT ISZERO PUSH2 0x3D5 JUMPI PUSH2 0x3D4 PUSH2 0x2D5 JUMP JUMPDEST JUMPDEST PUSH2 0x3E0 DUP5 DUP3 DUP6 PUSH2 0x397 JUMP JUMPDEST POP SWAP4 SWAP3 POP POP POP JUMP JUMPDEST PUSH1 0x0 DUP3 PUSH1 0x1F DUP4 ADD SLT PUSH2 0x3FD JUMPI PUSH2 0x3FC PUSH2 0x2D0 JUMP JUMPDEST JUMPDEST DUP2 CALLDATALOAD PUSH2 0x40D DUP5 DUP3 PUSH1 0x20 DUP7 ADD PUSH2 0x3A6 JUMP JUMPDEST SWAP2 POP POP SWAP3 SWAP2 POP POP JUMP JUMPDEST PUSH1 0x0 PUSH1 0x20 DUP3 DUP5 SUB SLT ISZERO PUSH2 0x42C JUMPI PUSH2 0x42B PUSH2 0x2C6 JUMP JUMPDEST JUMPDEST PUSH1 0x0 DUP3 ADD CALLDATALOAD PUSH8 0xFFFFFFFFFFFFFFFF DUP2 GT ISZERO PUSH2 0x44A JUMPI PUSH2 0x449 PUSH2 0x2CB JUMP JUMPDEST JUMPDEST PUSH2 0x456 DUP5 DUP3 DUP6 ADD PUSH2 0x3E8 JUMP JUMPDEST SWAP2 POP POP SWAP3 SWAP2 POP POP JUMP JUMPDEST PUSH1 0x0 DUP2 ISZERO ISZERO SWAP1 POP SWAP2 SWAP1 POP JUMP JUMPDEST PUSH2 0x474 DUP2 PUSH2 0x45F JUMP JUMPDEST DUP3 MSTORE POP POP JUMP JUMPDEST PUSH1 0x0 PUSH1 0x20 DUP3 ADD SWAP1 POP PUSH2 0x48F PUSH1 0x0 DUP4 ADD DUP5 PUSH2 0x46B JUMP JUMPDEST SWAP3 SWAP2 POP POP JUMP JUMPDEST PUSH1 0x0 DUP2 SWAP1 POP SWAP2 SWAP1 POP JUMP JUMPDEST PUSH2 0x4A8 DUP2 PUSH2 0x495 JUMP JUMPDEST DUP3 MSTORE POP POP JUMP JUMPDEST PUSH1 0x0 DUP2 SWAP1 POP SWAP2 SWAP1 POP JUMP JUMPDEST PUSH2 0x4C1 DUP2 PUSH2 0x4AE JUMP JUMPDEST DUP3 MSTORE POP POP JUMP JUMPDEST PUSH32 0x4E487B7100000000000000000000000000000000000000000000000000000000 PUSH1 0x0 MSTORE PUSH1 0x21 PUSH1 0x4 MSTORE PUSH1 0x24 PUSH1 0x0 REVERT JUMPDEST PUSH1 0x8 DUP2 LT PUSH2 0x507 JUMPI PUSH2 0x506 PUSH2 0x4C7 JUMP JUMPDEST JUMPDEST POP JUMP JUMPDEST PUSH1 0x0 DUP2 SWAP1 POP PUSH2 0x518 DUP3 PUSH2 0x4F6 JUMP JUMPDEST SWAP2 SWAP1 POP JUMP JUMPDEST PUSH1 0x0 PUSH2 0x528 DUP3 PUSH2 0x50A JUMP JUMPDEST SWAP1 POP SWAP2 SWAP1 POP JUMP JUMPDEST PUSH2 0x538 DUP2 PUSH2 0x51D JUMP JUMPDEST DUP3 MSTORE POP POP JUMP JUMPDEST PUSH1 0x80 DUP3 ADD PUSH1 0x0 DUP3 ADD MLOAD PUSH2 0x554 PUSH1 0x0 DUP6 ADD DUP3 PUSH2 0x49F JUMP JUMPDEST POP PUSH1 0x20 DUP3 ADD MLOAD PUSH2 0x567 PUSH1 0x20 DUP6 ADD DUP3 PUSH2 0x4B8 JUMP JUMPDEST POP PUSH1 0x40 DUP3 ADD MLOAD PUSH2 0x57A PUSH1 0x40 DUP6 ADD DUP3 PUSH2 0x4B8 JUMP JUMPDEST POP PUSH1 0x60 DUP3 ADD MLOAD PUSH2 0x58D PUSH1 0x60 DUP6 ADD DUP3 PUSH2 0x52F JUMP JUMPDEST POP POP POP POP JUMP JUMPDEST PUSH1 0x0 PUSH1 0x80 DUP3 ADD SWAP1 POP PUSH2 0x5A8 PUSH1 0x0 DUP4 ADD DUP5 PUSH2 0x53E JUMP JUMPDEST SWAP3 SWAP2 POP POP JUMP JUMPDEST PUSH1 0x0 PUSH8 0xFFFFFFFFFFFFFFFF DUP3 GT ISZERO PUSH2 0x5C9 JUMPI PUSH2 0x5C8 PUSH2 0x2EB JUMP JUMPDEST JUMPDEST PUSH1 0x20 DUP3 MUL SWAP1 POP PUSH1 0x20 DUP2 ADD SWAP1 POP SWAP2 SWAP1 POP JUMP JUMPDEST PUSH1 0x0 DUP1 REVERT JUMPDEST PUSH1 0x0 PUSH2 0x5F2 PUSH2 0x5ED DUP5 PUSH2 0x5AE JUMP JUMPDEST PUSH2 0x34B JUMP JUMPDEST SWAP1 POP DUP1 DUP4 DUP3 MSTORE PUSH1 0x20 DUP3 ADD SWAP1 POP PUSH1 0x20 DUP5 MUL DUP4 ADD DUP6 DUP2 GT ISZERO PUSH2 0x615 JUMPI PUSH2 0x614 PUSH2 0x5DA JUMP JUMPDEST JUMPDEST DUP4 JUMPDEST DUP2 DUP2 LT ISZERO PUSH2 0x65C JUMPI DUP1 CALLDATALOAD PUSH8 0xFFFFFFFFFFFFFFFF DUP2 GT ISZERO PUSH2 0x63A JUMPI PUSH2 0x639 PUSH2 0x2D0 JUMP JUMPDEST JUMPDEST DUP1 DUP7 ADD PUSH2 0x647 DUP10 DUP3 PUSH2 0x3E8 JUMP JUMPDEST DUP6 MSTORE PUSH1 0x20 DUP6 ADD SWAP5 POP POP POP PUSH1 0x20 DUP2 ADD SWAP1 POP PUSH2 0x617 JUMP JUMPDEST POP POP POP SWAP4 SWAP3 POP POP POP JUMP JUMPDEST PUSH1 0x0 DUP3 PUSH1 0x1F DUP4 ADD SLT PUSH2 0x67B JUMPI PUSH2 0x67A PUSH2 0x2D0 JUMP JUMPDEST JUMPDEST DUP2 CALLDATALOAD PUSH2 0x68B DUP5 DUP3 PUSH1 0x20 DUP7 ADD PUSH2 0x5DF JUMP JUMPDEST SWAP2 POP POP SWAP3 SWAP2 POP POP JUMP JUMPDEST PUSH1 0x0 PUSH8 0xFFFFFFFFFFFFFFFF DUP3 GT ISZERO PUSH2 0x6AF JUMPI PUSH2 0x6AE PUSH2 0x2EB JUMP JUMPDEST JUMPDEST PUSH1 0x20 DUP3 MUL SWAP1 POP PUSH1 0x20 DUP2 ADD SWAP1 POP SWAP2 SWAP1 POP JUMP JUMPDEST PUSH1 0x0 DUP1 REVERT JUMPDEST PUSH2 0x6CE DUP2 PUSH2 0x495 JUMP JUMPDEST DUP2 EQ PUSH2 0x6D9 JUMPI PUSH1 0x0 DUP1 REVERT JUMPDEST POP JUMP JUMPDEST PUSH1 0x0 DUP2 CALLDATALOAD SWAP1 POP PUSH2 0x6EB DUP2 PUSH2 0x6C5 JUMP JUMPDEST SWAP3 SWAP2 POP POP JUMP JUMPDEST PUSH2 0x6FA DUP2 PUSH2 0x4AE JUMP JUMPDEST DUP2 EQ PUSH2 0x705 JUMPI PUSH1 0x0 DUP1 REVERT JUMPDEST POP JUMP JUMPDEST PUSH1 0x0 DUP2 CALLDATALOAD SWAP1 POP PUSH2 0x717 DUP2 PUSH2 0x6F1 JUMP JUMPDEST SWAP3 SWAP2 POP POP JUMP JUMPDEST PUSH1 0x8 DUP2 LT PUSH2 0x72A JUMPI PUSH1 0x0 DUP1 REVERT JUMPDEST POP JUMP JUMPDEST PUSH1 0x0 DUP2 CALLDATALOAD SWAP1 POP PUSH2 0x73C DUP2 PUSH2 0x71D JUMP JUMPDEST SWAP3 SWAP2 POP POP JUMP JUMPDEST PUSH1 0x0 PUSH1 0x80 DUP3 DUP5 SUB SLT ISZERO PUSH2 0x758 JUMPI PUSH2 0x757 PUSH2 0x6C0 JUMP JUMPDEST JUMPDEST PUSH2 0x762 PUSH1 0x80 PUSH2 0x34B JUMP JUMPDEST SWAP1 POP PUSH1 0x0 PUSH2 0x772 DUP5 DUP3 DUP6 ADD PUSH2 0x6DC JUMP JUMPDEST PUSH1 0x0 DUP4 ADD MSTORE POP PUSH1 0x20 PUSH2 0x786 DUP5 DUP3 DUP6 ADD PUSH2 0x708 JUMP JUMPDEST PUSH1 0x20 DUP4 ADD MSTORE POP PUSH1 0x40 PUSH2 0x79A DUP5 DUP3 DUP6 ADD PUSH2 0x708 JUMP JUMPDEST PUSH1 0x40 DUP4 ADD MSTORE POP PUSH1 0x60 PUSH2 0x7AE DUP5 DUP3 DUP6 ADD PUSH2 0x72D JUMP JUMPDEST PUSH1 0x60 DUP4 ADD MSTORE POP SWAP3 SWAP2 POP POP JUMP JUMPDEST PUSH1 0x0 PUSH2 0x7CD PUSH2 0x7C8 DUP5 PUSH2 0x694 JUMP JUMPDEST PUSH2 0x34B JUMP JUMPDEST SWAP1 POP DUP1 DUP4 DUP3 MSTORE PUSH1 0x20 DUP3 ADD SWAP1 POP PUSH1 0x80 DUP5 MUL DUP4 ADD DUP6 DUP2 GT ISZERO PUSH2 0x7F0 JUMPI PUSH2 0x7EF PUSH2 0x5DA JUMP JUMPDEST JUMPDEST DUP4 JUMPDEST DUP2 DUP2 LT ISZERO PUSH2 0x819 JUMPI DUP1 PUSH2 0x805 DUP9 DUP3 PUSH2 0x742 JUMP JUMPDEST DUP5 MSTORE PUSH1 0x20 DUP5 ADD SWAP4 POP POP PUSH1 0x80 DUP2 ADD SWAP1 POP PUSH2 0x7F2 JUMP JUMPDEST POP POP POP SWAP4 SWAP3 POP POP POP JUMP JUMPDEST PUSH1 0x0 DUP3 PUSH1 0x1F DUP4 ADD SLT PUSH2 0x838 JUMPI PUSH2 0x837 PUSH2 0x2D0 JUMP JUMPDEST JUMPDEST DUP2 CALLDATALOAD PUSH2 0x848 DUP5 DUP3 PUSH1 0x20 DUP7 ADD PUSH2 0x7BA JUMP JUMPDEST SWAP2 POP POP SWAP3 SWAP2 POP POP JUMP JUMPDEST PUSH1 0x0 DUP1 PUSH1 0x40 DUP4 DUP6 SUB SLT ISZERO PUSH2 0x868 JUMPI PUSH2 0x867 PUSH2 0x2C6 JUMP JUMPDEST JUMPDEST PUSH1 0x0 DUP4 ADD CALLDATALOAD PUSH8 0xFFFFFFFFFFFFFFFF DUP2 GT ISZERO PUSH2 0x886 JUMPI PUSH2 0x885 PUSH2 0x2CB JUMP JUMPDEST JUMPDEST PUSH2 0x892 DUP6 DUP3 DUP7 ADD PUSH2 0x666 JUMP JUMPDEST SWAP3 POP POP PUSH1 0x20 DUP4 ADD CALLDATALOAD PUSH8 0xFFFFFFFFFFFFFFFF DUP2 GT ISZERO PUSH2 0x8B3 JUMPI PUSH2 0x8B2 PUSH2 0x2CB JUMP JUMPDEST JUMPDEST PUSH2 0x8BF DUP6 DUP3 DUP7 ADD PUSH2 0x823 JUMP JUMPDEST SWAP2 POP POP SWAP3 POP SWAP3 SWAP1 POP JUMP JUMPDEST PUSH1 0x0 DUP2 MLOAD SWAP1 POP SWAP2 SWAP1 POP JUMP JUMPDEST PUSH1 0x0 DUP2 SWAP1 POP SWAP3 SWAP2 POP POP JUMP JUMPDEST PUSH1 0x0 JUMPDEST DUP4 DUP2 LT ISZERO PUSH2 0x8FD JUMPI DUP1 DUP3 ADD MLOAD DUP2 DUP5 ADD MSTORE PUSH1 0x20 DUP2 ADD SWAP1 POP PUSH2 0x8E2 JUMP JUMPDEST PUSH1 0x0 DUP5 DUP5 ADD MSTORE POP POP POP POP JUMP JUMPDEST PUSH1 0x0 PUSH2 0x914 DUP3 PUSH2 0x8C9 JUMP JUMPDEST PUSH2 0x91E DUP2 DUP6 PUSH2 0x8D4 JUMP JUMPDEST SWAP4 POP PUSH2 0x92E DUP2 DUP6 PUSH1 0x20 DUP7 ADD PUSH2 0x8DF JUMP JUMPDEST DUP1 DUP5 ADD SWAP2 POP POP SWAP3 SWAP2 POP POP JUMP JUMPDEST PUSH1 0x0 PUSH2 0x946 DUP3 DUP5 PUSH2 0x909 JUMP JUMPDEST SWAP2 POP DUP2 SWAP1 POP SWAP3 SWAP2 POP POP JUMP JUMPDEST PUSH32 0x4E487B7100000000000000000000000000000000000000000000000000000000 PUSH1 0x0 MSTORE PUSH1 0x32 PUSH1 0x4 MSTORE PUSH1 0x24 PUSH1 0x0 REVERT JUMPDEST PUSH32 0x4E487B7100000000000000000000000000000000000000000000000000000000 PUSH1 0x0 MSTORE PUSH1 0x11 PUSH1 0x4 MSTORE PUSH1 0x24 PUSH1 0x0 REVERT JUMPDEST PUSH1 0x0 PUSH2 0x9BA DUP3 PUSH2 0x4AE JUMP JUMPDEST SWAP2 POP PUSH32 0xFFFFFFFFFFFFFFFFFFFFFFFFFFFFFFFFFFFFFFFFFFFFFFFFFFFFFFFFFFFFFFFF DUP3 SUB PUSH2 0x9EC JUMPI PUSH2 0x9EB PUSH2 0x980 JUMP JUMPDEST JUMPDEST PUSH1 0x1 DUP3 ADD SWAP1 POP SWAP2 SWAP1 POP JUMP INVALID LOG2 PUSH5 0x6970667358 0x22 SLT KECCAK256 0x5C CODECOPY PUSH11 0xA1F82C618556C20D018707 DELEGATECALL CALLDATALOAD JUMPI SWAP7 GAS XOR SWAP16 JUMPI 0xB8 PUSH12 0x3F5F3D3BD4601B1D64736F6C PUSH4 0x43000811 STOP CALLER "
		},
		"gasEstimates": {
			"creation": {
				"codeDepositCost": "521000",
				"executionCost": "556",
				"totalCost": "521556"
			},
			"external": {
				"getWeatherData(string)": "infinite",
				"hasWeatherDataFor(string)": "infinite",
				"setWeatherData(string[],(int256,uint256,uint256,uint8)[])": "infinite"
			}
		},
		"methodIdentifiers": {
			"getWeatherData(string)": "557b7850",
			"hasWeatherDataFor(string)": "278ddb34",
			"setWeatherData(string[],(int256,uint256,uint256,uint8)[])": "fae0e930"
		}
	},
	"abi": [
		{
			"inputs": [
				{
					"internalType": "string",
					"name": "city",
					"type": "string"
				}
			],
			"name": "getWeatherData",
			"outputs": [
				{
					"components": [
						{
							"internalType": "int256",
							"name": "temperature",
							"type": "int256"
						},
						{
							"internalType": "uint256",
							"name": "wind_power",
							"type": "uint256"
						},
						{
							"internalType": "uint256",
							"name": "rain_percentage",
							"type": "uint256"
						},
						{
							"internalType": "enum Oracle.WindDirection",
							"name": "wind_direction",
							"type": "uint8"
						}
					],
					"internalType": "struct Oracle.WeatherData",
					"name": "",
					"type": "tuple"
				}
			],
			"stateMutability": "view",
			"type": "function"
		},
		{
			"inputs": [
				{
					"internalType": "string",
					"name": "city",
					"type": "string"
				}
			],
			"name": "hasWeatherDataFor",
			"outputs": [
				{
					"internalType": "bool",
					"name": "",
					"type": "bool"
				}
			],
			"stateMutability": "view",
			"type": "function"
		},
		{
			"inputs": [
				{
					"internalType": "string[]",
					"name": "cities",
					"type": "string[]"
				},
				{
					"components": [
						{
							"internalType": "int256",
							"name": "temperature",
							"type": "int256"
						},
						{
							"internalType": "uint256",
							"name": "wind_power",
							"type": "uint256"
						},
						{
							"internalType": "uint256",
							"name": "rain_percentage",
							"type": "uint256"
						},
						{
							"internalType": "enum Oracle.WindDirection",
							"name": "wind_direction",
							"type": "uint8"
						}
					],
					"internalType": "struct Oracle.WeatherData[]",
					"name": "_weatherData",
					"type": "tuple[]"
				}
			],
			"name": "setWeatherData",
			"outputs": [],
			"stateMutability": "nonpayable",
			"type": "function"
		}
	]
}