{
	"data": {
		"bytecode": {
			"linkReferences": {},
			"object": "608060405260016004553480156200001657600080fd5b50604051620021113803806200211183398181016040528101906200003c919062000153565b6200004d866200008660201b60201c565b6200005e85620000ca60201b60201c565b836006819055508260088190555081600a8190555080600c819055505050505050506200028a565b80600260006101000a81548173ffffffffffffffffffffffffffffffffffffffff021916908373ffffffffffffffffffffffffffffffffffffffff16021790555050565b80600360006101000a81548173ffffffffffffffffffffffffffffffffffffffff021916908373ffffffffffffffffffffffffffffffffffffffff16021790555050565b6000815190506200011f816200023c565b92915050565b600081519050620001368162000256565b92915050565b6000815190506200014d8162000270565b92915050565b60008060008060008060c0878903121562000173576200017262000237565b5b60006200018389828a016200010e565b96505060206200019689828a016200010e565b9550506040620001a989828a0162000125565b9450506060620001bc89828a0162000125565b9350506080620001cf89828a0162000125565b92505060a0620001e289828a016200013c565b9150509295509295509295565b6000620001fc826200020d565b9050919050565b6000819050919050565b600073ffffffffffffffffffffffffffffffffffffffff82169050919050565b6000819050919050565b600080fd5b6200024781620001ef565b81146200025357600080fd5b50565b620002618162000203565b81146200026d57600080fd5b50565b6200027b816200022d565b81146200028757600080fd5b50565b611e77806200029a6000396000f3fe608060405234801561001057600080fd5b50600436106100cf5760003560e01c8063a52363701161008c578063c70d439111610066578063c70d4391146101d8578063c95fa3c9146101f6578063ce4316a514610214578063ddca3f4314610230576100cf565b8063a52363701461017e578063bdcc616e1461019c578063bf5be35a146101ba576100cf565b806305efce06146100d45780632a3508dc146100f0578063381719471461010c578063446bf1e3146101285780636aead4a3146101445780637c4d50ad14610162575b600080fd5b6100ee60048036038101906100e9919061152e565b61024e565b005b61010a6004803603810190610105919061152e565b610396565b005b6101266004803603810190610121919061152e565b6104de565b005b610142600480360381019061013d919061156e565b610626565b005b61014c6107e2565b6040516101599190611819565b60405180910390f35b61017c6004803603810190610177919061156e565b6107e8565b005b6101866109a4565b6040516101939190611819565b60405180910390f35b6101a46109aa565b6040516101b191906117be565b60405180910390f35b6101c26109b0565b6040516101cf9190611819565b60405180910390f35b6101e06109b6565b6040516101ed91906117be565b60405180910390f35b6101fe6109bc565b60405161020b91906117be565b60405180910390f35b61022e6004803603810190610229919061156e565b6109c2565b005b610238610b7e565b6040516102459190611819565b60405180910390f35b816005600082815260200190815260200160002060009054906101000a900473ffffffffffffffffffffffffffffffffffffffff1673ffffffffffffffffffffffffffffffffffffffff163373ffffffffffffffffffffffffffffffffffffffff16146102f0576040517f08c379a00000000000000000000000000000000000000000000000000000000081526004016102e7906117f9565b60405180910390fd5b6005600082815260200190815260200160002060006101000a81549073ffffffffffffffffffffffffffffffffffffffff0219169055807f7cc135e0cebb02c3480ae5d74d377283180a2601f8f644edf7987b009316c63a60405160405180910390a2816009819055507f26115bd9d6d2ceafb11a6485d30eba28954e14cfd3934f01e68beaddfea51078826040516103899190611819565b60405180910390a1505050565b816005600082815260200190815260200160002060009054906101000a900473ffffffffffffffffffffffffffffffffffffffff1673ffffffffffffffffffffffffffffffffffffffff163373ffffffffffffffffffffffffffffffffffffffff1614610438576040517f08c379a000000000000000000000000000000000000000000000000000000000815260040161042f906117f9565b60405180910390fd5b6005600082815260200190815260200160002060006101000a81549073ffffffffffffffffffffffffffffffffffffffff0219169055807f7cc135e0cebb02c3480ae5d74d377283180a2601f8f644edf7987b009316c63a60405160405180910390a2816007819055507fe5e26a600dc81b241131b3541c3c53d9b02d780f102c65b08b91fd57998e3b72826040516104d19190611819565b60405180910390a1505050565b816005600082815260200190815260200160002060009054906101000a900473ffffffffffffffffffffffffffffffffffffffff1673ffffffffffffffffffffffffffffffffffffffff163373ffffffffffffffffffffffffffffffffffffffff1614610580576040517f08c379a0000000000000000000000000000000000000000000000000000000008152600401610577906117f9565b60405180910390fd5b6005600082815260200190815260200160002060006101000a81549073ffffffffffffffffffffffffffffffffffffffff0219169055807f7cc135e0cebb02c3480ae5d74d377283180a2601f8f644edf7987b009316c63a60405160405180910390a281600b819055507ffe14b6164c67c7837a2e1bbf8eb765ff403c6a748a8d7c22be06745dc92cf338826040516106199190611819565b60405180910390a1505050565b600061063c600854306305efce0660e01b610b84565b90506106886040518060400160405280600881526020017f6461746546726f6d0000000000000000000000000000000000000000000000008152508483610bb59092919063ffffffff16565b6106d26040518060400160405280600681526020017f64617465546f00000000000000000000000000000000000000000000000000008152508383610bb59092919063ffffffff16565b6107516040518060400160405280600681526020017f6d6574686f6400000000000000000000000000000000000000000000000000008152506040518060400160405280600381526020017f53554d000000000000000000000000000000000000000000000000000000000081525083610bb59092919063ffffffff16565b6107d06040518060400160405280600681526020017f636f6c756d6e00000000000000000000000000000000000000000000000000008152506040518060400160405280600481526020017f707263700000000000000000000000000000000000000000000000000000000081525083610bb59092919063ffffffff16565b6107dc81600c54610be8565b50505050565b60075481565b60006107fe60065430632a3508dc60e01b610b84565b905061084a6040518060400160405280600881526020017f6461746546726f6d0000000000000000000000000000000000000000000000008152508483610bb59092919063ffffffff16565b6108946040518060400160405280600681526020017f64617465546f00000000000000000000000000000000000000000000000000008152508383610bb59092919063ffffffff16565b6109136040518060400160405280600681526020017f6d6574686f6400000000000000000000000000000000000000000000000000008152506040518060400160405280600381526020017f415647000000000000000000000000000000000000000000000000000000000081525083610bb59092919063ffffffff16565b6109926040518060400160405280600681526020017f636f6c756d6e00000000000000000000000000000000000000000000000000008152506040518060400160405280600481526020017f74656d700000000000000000000000000000000000000000000000000000000081525083610bb59092919063ffffffff16565b61099e81600c54610be8565b50505050565b60095481565b600a5481565b600b5481565b60065481565b60085481565b60006109d8600a5430633817194760e01b610b84565b9050610a246040518060400160405280600881526020017f6461746546726f6d0000000000000000000000000000000000000000000000008152508483610bb59092919063ffffffff16565b610a6e6040518060400160405280600681526020017f64617465546f00000000000000000000000000000000000000000000000000008152508383610bb59092919063ffffffff16565b610aed6040518060400160405280600681526020017f6d6574686f6400000000000000000000000000000000000000000000000000008152506040518060400160405280600381526020017f53554d000000000000000000000000000000000000000000000000000000000081525083610bb59092919063ffffffff16565b610b6c6040518060400160405280600681526020017f636f6c756d6e00000000000000000000000000000000000000000000000000008152506040518060400160405280600481526020017f6861696c0000000000000000000000000000000000000000000000000000000081525083610bb59092919063ffffffff16565b610b7881600c54610be8565b50505050565b600c5481565b610b8c6113cb565b610b946113cb565b610bab85858584610c1f909392919063ffffffff16565b9150509392505050565b610bcc828460800151610ccf90919063ffffffff16565b610be3818460800151610ccf90919063ffffffff16565b505050565b6000610c17600360009054906101000a900473ffffffffffffffffffffffffffffffffffffffff168484610cf4565b905092915050565b610c276113cb565b610c378560800151610100610dc0565b508385600001818152505082856020019073ffffffffffffffffffffffffffffffffffffffff16908173ffffffffffffffffffffffffffffffffffffffff16815250508185604001907bffffffffffffffffffffffffffffffffffffffffffffffffffffffff191690817bffffffffffffffffffffffffffffffffffffffffffffffffffffffff191681525050849050949350505050565b610cdc8260038351610e2a565b610cef8183610faf90919063ffffffff16565b505050565b6000806004549050600181610d0991906118b7565b6004819055506000634042994660e01b60008087600001513089604001518760018c6080015160000151604051602401610d4a9897969594939291906116fb565b604051602081830303815290604052907bffffffffffffffffffffffffffffffffffffffffffffffffffffffff19166020820180517bffffffffffffffffffffffffffffffffffffffffffffffffffffffff83818316178352505050509050610db586838684610fd1565b925050509392505050565b610dc8611438565b6000602083610dd79190611c61565b14610e0357602082610de99190611c61565b6020610df59190611ad8565b82610e0091906118b7565b91505b81836020018181525050604051808452600081528281016020016040525082905092915050565b60178167ffffffffffffffff1611610e6157610e5b8160058460ff16901b60ff16178461117590919063ffffffff16565b50610faa565b60ff8167ffffffffffffffff1611610eb757610e90601860058460ff16901b178461117590919063ffffffff16565b50610eb18167ffffffffffffffff166001856111959092919063ffffffff16565b50610fa9565b61ffff8167ffffffffffffffff1611610f0e57610ee7601960058460ff16901b178461117590919063ffffffff16565b50610f088167ffffffffffffffff166002856111959092919063ffffffff16565b50610fa8565b63ffffffff8167ffffffffffffffff1611610f6757610f40601a60058460ff16901b178461117590919063ffffffff16565b50610f618167ffffffffffffffff166004856111959092919063ffffffff16565b50610fa7565b610f84601b60058460ff16901b178461117590919063ffffffff16565b50610fa58167ffffffffffffffff166008856111959092919063ffffffff16565b505b5b5b5b505050565b610fb7611438565b610fc9838460000151518485516111b7565b905092915050565b60003084604051602001610fe69291906116cf565b604051602081830303815290604052805190602001209050846005600083815260200190815260200160002060006101000a81548173ffffffffffffffffffffffffffffffffffffffff021916908373ffffffffffffffffffffffffffffffffffffffff160217905550807fb5e6e01e79f91267dc17b4e6314d5d4d03593d2ceee0fbb452b750bd70ea5af960405160405180910390a2600260009054906101000a900473ffffffffffffffffffffffffffffffffffffffff1673ffffffffffffffffffffffffffffffffffffffff16634000aea08685856040518463ffffffff1660e01b81526004016110dc93929190611780565b602060405180830381600087803b1580156110f657600080fd5b505af115801561110a573d6000803e3d6000fd5b505050506040513d601f19601f8201168201806040525081019061112e9190611501565b61116d576040517f08c379a0000000000000000000000000000000000000000000000000000000008152600401611164906117d9565b60405180910390fd5b949350505050565b61117d611438565b61118d83846000015151846112a6565b905092915050565b61119d611438565b6111ae8485600001515185856112fd565b90509392505050565b6111bf611438565b82518211156111cd57600080fd5b846020015182856111de91906118b7565b111561121357611212856002611203886020015188876111fe91906118b7565b61138b565b61120d9190611a7e565b6113a7565b5b6000808651805187602083010193508088870111156112325787860182525b60208701925050505b60208410611279578051825260208261125491906118b7565b915060208161126391906118b7565b90506020846112729190611ad8565b935061123b565b60006001856020036101000a03905080198251168184511681811785525050508692505050949350505050565b6112ae611438565b836020015183106112d4576112d384600286602001516112ce9190611a7e565b6113a7565b5b83518051602085830101848153818614156112f0576001820183525b5050508390509392505050565b611305611438565b8460200151848361131691906118b7565b111561133e5761133d856002868561132e91906118b7565b6113389190611a7e565b6113a7565b5b60006001836101006113509190611960565b61135a9190611ad8565b9050855183868201018583198251161781528151858801111561137d5784870182525b505085915050949350505050565b60008183111561139d578290506113a1565b8190505b92915050565b6000826000015190506113ba8383610dc0565b506113c58382610faf565b50505050565b6040518060a0016040528060008019168152602001600073ffffffffffffffffffffffffffffffffffffffff16815260200160007bffffffffffffffffffffffffffffffffffffffffffffffffffffffff1916815260200160008152602001611432611438565b81525090565b604051806040016040528060608152602001600081525090565b600061146561146084611859565b611834565b90508281526020810184848401111561148157611480611d24565b5b61148c848285611bc0565b509392505050565b6000815190506114a381611dfc565b92915050565b6000813590506114b881611e13565b92915050565b600082601f8301126114d3576114d2611d1f565b5b81356114e3848260208601611452565b91505092915050565b6000813590506114fb81611e2a565b92915050565b60006020828403121561151757611516611d2e565b5b600061152584828501611494565b91505092915050565b6000806040838503121561154557611544611d2e565b5b6000611553858286016114a9565b9250506020611564858286016114ec565b9150509250929050565b6000806040838503121561158557611584611d2e565b5b600083013567ffffffffffffffff8111156115a3576115a2611d29565b5b6115af858286016114be565b925050602083013567ffffffffffffffff8111156115d0576115cf611d29565b5b6115dc858286016114be565b9150509250929050565b6115ef81611b0c565b82525050565b6115fe81611b2a565b82525050565b61160d81611b34565b82525050565b600061161e8261188a565b6116288185611895565b9350611638818560208601611bcf565b61164181611d33565b840191505092915050565b61165d61165882611b8a565b611c33565b82525050565b60006116706023836118a6565b915061167b82611d5e565b604082019050919050565b60006116936028836118a6565b915061169e82611dad565b604082019050919050565b6116b281611b80565b82525050565b6116c96116c482611b80565b611c57565b82525050565b60006116db828561164c565b6014820191506116eb82846116b8565b6020820191508190509392505050565b600061010082019050611711600083018b6115e6565b61171e602083018a6116a9565b61172b60408301896115f5565b61173860608301886115e6565b6117456080830187611604565b61175260a08301866116a9565b61175f60c08301856116a9565b81810360e08301526117718184611613565b90509998505050505050505050565b600060608201905061179560008301866115e6565b6117a260208301856116a9565b81810360408301526117b48184611613565b9050949350505050565b60006020820190506117d360008301846115f5565b92915050565b600060208201905081810360008301526117f281611663565b9050919050565b6000602082019050818103600083015261181281611686565b9050919050565b600060208201905061182e60008301846116a9565b92915050565b600061183e61184f565b905061184a8282611c02565b919050565b6000604051905090565b600067ffffffffffffffff82111561187457611873611cf0565b5b61187d82611d33565b9050602081019050919050565b600081519050919050565b600082825260208201905092915050565b600082825260208201905092915050565b60006118c282611b80565b91506118cd83611b80565b9250827fffffffffffffffffffffffffffffffffffffffffffffffffffffffffffffffff0382111561190257611901611c92565b5b828201905092915050565b6000808291508390505b60018511156119575780860481111561193357611932611c92565b5b60018516156119425780820291505b808102905061195085611d51565b9450611917565b94509492505050565b600061196b82611b80565b915061197683611b80565b92506119a37fffffffffffffffffffffffffffffffffffffffffffffffffffffffffffffffff84846119ab565b905092915050565b6000826119bb5760019050611a77565b816119c95760009050611a77565b81600181146119df57600281146119e957611a18565b6001915050611a77565b60ff8411156119fb576119fa611c92565b5b8360020a915084821115611a1257611a11611c92565b5b50611a77565b5060208310610133831016604e8410600b8410161715611a4d5782820a905083811115611a4857611a47611c92565b5b611a77565b611a5a848484600161190d565b92509050818404811115611a7157611a70611c92565b5b81810290505b9392505050565b6000611a8982611b80565b9150611a9483611b80565b9250817fffffffffffffffffffffffffffffffffffffffffffffffffffffffffffffffff0483118215151615611acd57611acc611c92565b5b828202905092915050565b6000611ae382611b80565b9150611aee83611b80565b925082821015611b0157611b00611c92565b5b828203905092915050565b6000611b1782611b60565b9050919050565b60008115159050919050565b6000819050919050565b60007fffffffff0000000000000000000000000000000000000000000000000000000082169050919050565b600073ffffffffffffffffffffffffffffffffffffffff82169050919050565b6000819050919050565b6000611b9582611b9c565b9050919050565b6000611ba782611bae565b9050919050565b6000611bb982611b60565b9050919050565b82818337600083830152505050565b60005b83811015611bed578082015181840152602081019050611bd2565b83811115611bfc576000848401525b50505050565b611c0b82611d33565b810181811067ffffffffffffffff82111715611c2a57611c29611cf0565b5b80604052505050565b6000611c3e82611c45565b9050919050565b6000611c5082611d44565b9050919050565b6000819050919050565b6000611c6c82611b80565b9150611c7783611b80565b925082611c8757611c86611cc1565b5b828206905092915050565b7f4e487b7100000000000000000000000000000000000000000000000000000000600052601160045260246000fd5b7f4e487b7100000000000000000000000000000000000000000000000000000000600052601260045260246000fd5b7f4e487b7100000000000000000000000000000000000000000000000000000000600052604160045260246000fd5b600080fd5b600080fd5b600080fd5b600080fd5b6000601f19601f8301169050919050565b60008160601b9050919050565b60008160011c9050919050565b7f756e61626c6520746f207472616e73666572416e6443616c6c20746f206f726160008201527f636c650000000000000000000000000000000000000000000000000000000000602082015250565b7f536f75726365206d75737420626520746865206f7261636c65206f662074686560008201527f2072657175657374000000000000000000000000000000000000000000000000602082015250565b611e0581611b1e565b8114611e1057600080fd5b50565b611e1c81611b2a565b8114611e2757600080fd5b50565b611e3381611b80565b8114611e3e57600080fd5b5056fea264697066735822122014bc9580b44ff8c039932b465cb769252c137100967a1015c17696119c86066264736f6c63430008070033",
			"opcodes": "PUSH1 0x80 PUSH1 0x40 MSTORE PUSH1 0x1 PUSH1 0x4 SSTORE CALLVALUE DUP1 ISZERO PUSH3 0x16 JUMPI PUSH1 0x0 DUP1 REVERT JUMPDEST POP PUSH1 0x40 MLOAD PUSH3 0x2111 CODESIZE SUB DUP1 PUSH3 0x2111 DUP4 CODECOPY DUP2 DUP2 ADD PUSH1 0x40 MSTORE DUP2 ADD SWAP1 PUSH3 0x3C SWAP2 SWAP1 PUSH3 0x153 JUMP JUMPDEST PUSH3 0x4D DUP7 PUSH3 0x86 PUSH1 0x20 SHL PUSH1 0x20 SHR JUMP JUMPDEST PUSH3 0x5E DUP6 PUSH3 0xCA PUSH1 0x20 SHL PUSH1 0x20 SHR JUMP JUMPDEST DUP4 PUSH1 0x6 DUP2 SWAP1 SSTORE POP DUP3 PUSH1 0x8 DUP2 SWAP1 SSTORE POP DUP2 PUSH1 0xA DUP2 SWAP1 SSTORE POP DUP1 PUSH1 0xC DUP2 SWAP1 SSTORE POP POP POP POP POP POP POP PUSH3 0x28A JUMP JUMPDEST DUP1 PUSH1 0x2 PUSH1 0x0 PUSH2 0x100 EXP DUP2 SLOAD DUP2 PUSH20 0xFFFFFFFFFFFFFFFFFFFFFFFFFFFFFFFFFFFFFFFF MUL NOT AND SWAP1 DUP4 PUSH20 0xFFFFFFFFFFFFFFFFFFFFFFFFFFFFFFFFFFFFFFFF AND MUL OR SWAP1 SSTORE POP POP JUMP JUMPDEST DUP1 PUSH1 0x3 PUSH1 0x0 PUSH2 0x100 EXP DUP2 SLOAD DUP2 PUSH20 0xFFFFFFFFFFFFFFFFFFFFFFFFFFFFFFFFFFFFFFFF MUL NOT AND SWAP1 DUP4 PUSH20 0xFFFFFFFFFFFFFFFFFFFFFFFFFFFFFFFFFFFFFFFF AND MUL OR SWAP1 SSTORE POP POP JUMP JUMPDEST PUSH1 0x0 DUP2 MLOAD SWAP1 POP PUSH3 0x11F DUP2 PUSH3 0x23C JUMP JUMPDEST SWAP3 SWAP2 POP POP JUMP JUMPDEST PUSH1 0x0 DUP2 MLOAD SWAP1 POP PUSH3 0x136 DUP2 PUSH3 0x256 JUMP JUMPDEST SWAP3 SWAP2 POP POP JUMP JUMPDEST PUSH1 0x0 DUP2 MLOAD SWAP1 POP PUSH3 0x14D DUP2 PUSH3 0x270 JUMP JUMPDEST SWAP3 SWAP2 POP POP JUMP JUMPDEST PUSH1 0x0 DUP1 PUSH1 0x0 DUP1 PUSH1 0x0 DUP1 PUSH1 0xC0 DUP8 DUP10 SUB SLT ISZERO PUSH3 0x173 JUMPI PUSH3 0x172 PUSH3 0x237 JUMP JUMPDEST JUMPDEST PUSH1 0x0 PUSH3 0x183 DUP10 DUP3 DUP11 ADD PUSH3 0x10E JUMP JUMPDEST SWAP7 POP POP PUSH1 0x20 PUSH3 0x196 DUP10 DUP3 DUP11 ADD PUSH3 0x10E JUMP JUMPDEST SWAP6 POP POP PUSH1 0x40 PUSH3 0x1A9 DUP10 DUP3 DUP11 ADD PUSH3 0x125 JUMP JUMPDEST SWAP5 POP POP PUSH1 0x60 PUSH3 0x1BC DUP10 DUP3 DUP11 ADD PUSH3 0x125 JUMP JUMPDEST SWAP4 POP POP PUSH1 0x80 PUSH3 0x1CF DUP10 DUP3 DUP11 ADD PUSH3 0x125 JUMP JUMPDEST SWAP3 POP POP PUSH1 0xA0 PUSH3 0x1E2 DUP10 DUP3 DUP11 ADD PUSH3 0x13C JUMP JUMPDEST SWAP2 POP POP SWAP3 SWAP6 POP SWAP3 SWAP6 POP SWAP3 SWAP6 JUMP JUMPDEST PUSH1 0x0 PUSH3 0x1FC DUP3 PUSH3 0x20D JUMP JUMPDEST SWAP1 POP SWAP2 SWAP1 POP JUMP JUMPDEST PUSH1 0x0 DUP2 SWAP1 POP SWAP2 SWAP1 POP JUMP JUMPDEST PUSH1 0x0 PUSH20 0xFFFFFFFFFFFFFFFFFFFFFFFFFFFFFFFFFFFFFFFF DUP3 AND SWAP1 POP SWAP2 SWAP1 POP JUMP JUMPDEST PUSH1 0x0 DUP2 SWAP1 POP SWAP2 SWAP1 POP JUMP JUMPDEST PUSH1 0x0 DUP1 REVERT JUMPDEST PUSH3 0x247 DUP2 PUSH3 0x1EF JUMP JUMPDEST DUP2 EQ PUSH3 0x253 JUMPI PUSH1 0x0 DUP1 REVERT JUMPDEST POP JUMP JUMPDEST PUSH3 0x261 DUP2 PUSH3 0x203 JUMP JUMPDEST DUP2 EQ PUSH3 0x26D JUMPI PUSH1 0x0 DUP1 REVERT JUMPDEST POP JUMP JUMPDEST PUSH3 0x27B DUP2 PUSH3 0x22D JUMP JUMPDEST DUP2 EQ PUSH3 0x287 JUMPI PUSH1 0x0 DUP1 REVERT JUMPDEST POP JUMP JUMPDEST PUSH2 0x1E77 DUP1 PUSH3 0x29A PUSH1 0x0 CODECOPY PUSH1 0x0 RETURN INVALID PUSH1 0x80 PUSH1 0x40 MSTORE CALLVALUE DUP1 ISZERO PUSH2 0x10 JUMPI PUSH1 0x0 DUP1 REVERT JUMPDEST POP PUSH1 0x4 CALLDATASIZE LT PUSH2 0xCF JUMPI PUSH1 0x0 CALLDATALOAD PUSH1 0xE0 SHR DUP1 PUSH4 0xA5236370 GT PUSH2 0x8C JUMPI DUP1 PUSH4 0xC70D4391 GT PUSH2 0x66 JUMPI DUP1 PUSH4 0xC70D4391 EQ PUSH2 0x1D8 JUMPI DUP1 PUSH4 0xC95FA3C9 EQ PUSH2 0x1F6 JUMPI DUP1 PUSH4 0xCE4316A5 EQ PUSH2 0x214 JUMPI DUP1 PUSH4 0xDDCA3F43 EQ PUSH2 0x230 JUMPI PUSH2 0xCF JUMP JUMPDEST DUP1 PUSH4 0xA5236370 EQ PUSH2 0x17E JUMPI DUP1 PUSH4 0xBDCC616E EQ PUSH2 0x19C JUMPI DUP1 PUSH4 0xBF5BE35A EQ PUSH2 0x1BA JUMPI PUSH2 0xCF JUMP JUMPDEST DUP1 PUSH4 0x5EFCE06 EQ PUSH2 0xD4 JUMPI DUP1 PUSH4 0x2A3508DC EQ PUSH2 0xF0 JUMPI DUP1 PUSH4 0x38171947 EQ PUSH2 0x10C JUMPI DUP1 PUSH4 0x446BF1E3 EQ PUSH2 0x128 JUMPI DUP1 PUSH4 0x6AEAD4A3 EQ PUSH2 0x144 JUMPI DUP1 PUSH4 0x7C4D50AD EQ PUSH2 0x162 JUMPI JUMPDEST PUSH1 0x0 DUP1 REVERT JUMPDEST PUSH2 0xEE PUSH1 0x4 DUP1 CALLDATASIZE SUB DUP2 ADD SWAP1 PUSH2 0xE9 SWAP2 SWAP1 PUSH2 0x152E JUMP JUMPDEST PUSH2 0x24E JUMP JUMPDEST STOP JUMPDEST PUSH2 0x10A PUSH1 0x4 DUP1 CALLDATASIZE SUB DUP2 ADD SWAP1 PUSH2 0x105 SWAP2 SWAP1 PUSH2 0x152E JUMP JUMPDEST PUSH2 0x396 JUMP JUMPDEST STOP JUMPDEST PUSH2 0x126 PUSH1 0x4 DUP1 CALLDATASIZE SUB DUP2 ADD SWAP1 PUSH2 0x121 SWAP2 SWAP1 PUSH2 0x152E JUMP JUMPDEST PUSH2 0x4DE JUMP JUMPDEST STOP JUMPDEST PUSH2 0x142 PUSH1 0x4 DUP1 CALLDATASIZE SUB DUP2 ADD SWAP1 PUSH2 0x13D SWAP2 SWAP1 PUSH2 0x156E JUMP JUMPDEST PUSH2 0x626 JUMP JUMPDEST STOP JUMPDEST PUSH2 0x14C PUSH2 0x7E2 JUMP JUMPDEST PUSH1 0x40 MLOAD PUSH2 0x159 SWAP2 SWAP1 PUSH2 0x1819 JUMP JUMPDEST PUSH1 0x40 MLOAD DUP1 SWAP2 SUB SWAP1 RETURN JUMPDEST PUSH2 0x17C PUSH1 0x4 DUP1 CALLDATASIZE SUB DUP2 ADD SWAP1 PUSH2 0x177 SWAP2 SWAP1 PUSH2 0x156E JUMP JUMPDEST PUSH2 0x7E8 JUMP JUMPDEST STOP JUMPDEST PUSH2 0x186 PUSH2 0x9A4 JUMP JUMPDEST PUSH1 0x40 MLOAD PUSH2 0x193 SWAP2 SWAP1 PUSH2 0x1819 JUMP JUMPDEST PUSH1 0x40 MLOAD DUP1 SWAP2 SUB SWAP1 RETURN JUMPDEST PUSH2 0x1A4 PUSH2 0x9AA JUMP JUMPDEST PUSH1 0x40 MLOAD PUSH2 0x1B1 SWAP2 SWAP1 PUSH2 0x17BE JUMP JUMPDEST PUSH1 0x40 MLOAD DUP1 SWAP2 SUB SWAP1 RETURN JUMPDEST PUSH2 0x1C2 PUSH2 0x9B0 JUMP JUMPDEST PUSH1 0x40 MLOAD PUSH2 0x1CF SWAP2 SWAP1 PUSH2 0x1819 JUMP JUMPDEST PUSH1 0x40 MLOAD DUP1 SWAP2 SUB SWAP1 RETURN JUMPDEST PUSH2 0x1E0 PUSH2 0x9B6 JUMP JUMPDEST PUSH1 0x40 MLOAD PUSH2 0x1ED SWAP2 SWAP1 PUSH2 0x17BE JUMP JUMPDEST PUSH1 0x40 MLOAD DUP1 SWAP2 SUB SWAP1 RETURN JUMPDEST PUSH2 0x1FE PUSH2 0x9BC JUMP JUMPDEST PUSH1 0x40 MLOAD PUSH2 0x20B SWAP2 SWAP1 PUSH2 0x17BE JUMP JUMPDEST PUSH1 0x40 MLOAD DUP1 SWAP2 SUB SWAP1 RETURN JUMPDEST PUSH2 0x22E PUSH1 0x4 DUP1 CALLDATASIZE SUB DUP2 ADD SWAP1 PUSH2 0x229 SWAP2 SWAP1 PUSH2 0x156E JUMP JUMPDEST PUSH2 0x9C2 JUMP JUMPDEST STOP JUMPDEST PUSH2 0x238 PUSH2 0xB7E JUMP JUMPDEST PUSH1 0x40 MLOAD PUSH2 0x245 SWAP2 SWAP1 PUSH2 0x1819 JUMP JUMPDEST PUSH1 0x40 MLOAD DUP1 SWAP2 SUB SWAP1 RETURN JUMPDEST DUP2 PUSH1 0x5 PUSH1 0x0 DUP3 DUP2 MSTORE PUSH1 0x20 ADD SWAP1 DUP2 MSTORE PUSH1 0x20 ADD PUSH1 0x0 KECCAK256 PUSH1 0x0 SWAP1 SLOAD SWAP1 PUSH2 0x100 EXP SWAP1 DIV PUSH20 0xFFFFFFFFFFFFFFFFFFFFFFFFFFFFFFFFFFFFFFFF AND PUSH20 0xFFFFFFFFFFFFFFFFFFFFFFFFFFFFFFFFFFFFFFFF AND CALLER PUSH20 0xFFFFFFFFFFFFFFFFFFFFFFFFFFFFFFFFFFFFFFFF AND EQ PUSH2 0x2F0 JUMPI PUSH1 0x40 MLOAD PUSH32 0x8C379A000000000000000000000000000000000000000000000000000000000 DUP2 MSTORE PUSH1 0x4 ADD PUSH2 0x2E7 SWAP1 PUSH2 0x17F9 JUMP JUMPDEST PUSH1 0x40 MLOAD DUP1 SWAP2 SUB SWAP1 REVERT JUMPDEST PUSH1 0x5 PUSH1 0x0 DUP3 DUP2 MSTORE PUSH1 0x20 ADD SWAP1 DUP2 MSTORE PUSH1 0x20 ADD PUSH1 0x0 KECCAK256 PUSH1 0x0 PUSH2 0x100 EXP DUP2 SLOAD SWAP1 PUSH20 0xFFFFFFFFFFFFFFFFFFFFFFFFFFFFFFFFFFFFFFFF MUL NOT AND SWAP1 SSTORE DUP1 PUSH32 0x7CC135E0CEBB02C3480AE5D74D377283180A2601F8F644EDF7987B009316C63A PUSH1 0x40 MLOAD PUSH1 0x40 MLOAD DUP1 SWAP2 SUB SWAP1 LOG2 DUP2 PUSH1 0x9 DUP2 SWAP1 SSTORE POP PUSH32 0x26115BD9D6D2CEAFB11A6485D30EBA28954E14CFD3934F01E68BEADDFEA51078 DUP3 PUSH1 0x40 MLOAD PUSH2 0x389 SWAP2 SWAP1 PUSH2 0x1819 JUMP JUMPDEST PUSH1 0x40 MLOAD DUP1 SWAP2 SUB SWAP1 LOG1 POP POP POP JUMP JUMPDEST DUP2 PUSH1 0x5 PUSH1 0x0 DUP3 DUP2 MSTORE PUSH1 0x20 ADD SWAP1 DUP2 MSTORE PUSH1 0x20 ADD PUSH1 0x0 KECCAK256 PUSH1 0x0 SWAP1 SLOAD SWAP1 PUSH2 0x100 EXP SWAP1 DIV PUSH20 0xFFFFFFFFFFFFFFFFFFFFFFFFFFFFFFFFFFFFFFFF AND PUSH20 0xFFFFFFFFFFFFFFFFFFFFFFFFFFFFFFFFFFFFFFFF AND CALLER PUSH20 0xFFFFFFFFFFFFFFFFFFFFFFFFFFFFFFFFFFFFFFFF AND EQ PUSH2 0x438 JUMPI PUSH1 0x40 MLOAD PUSH32 0x8C379A000000000000000000000000000000000000000000000000000000000 DUP2 MSTORE PUSH1 0x4 ADD PUSH2 0x42F SWAP1 PUSH2 0x17F9 JUMP JUMPDEST PUSH1 0x40 MLOAD DUP1 SWAP2 SUB SWAP1 REVERT JUMPDEST PUSH1 0x5 PUSH1 0x0 DUP3 DUP2 MSTORE PUSH1 0x20 ADD SWAP1 DUP2 MSTORE PUSH1 0x20 ADD PUSH1 0x0 KECCAK256 PUSH1 0x0 PUSH2 0x100 EXP DUP2 SLOAD SWAP1 PUSH20 0xFFFFFFFFFFFFFFFFFFFFFFFFFFFFFFFFFFFFFFFF MUL NOT AND SWAP1 SSTORE DUP1 PUSH32 0x7CC135E0CEBB02C3480AE5D74D377283180A2601F8F644EDF7987B009316C63A PUSH1 0x40 MLOAD PUSH1 0x40 MLOAD DUP1 SWAP2 SUB SWAP1 LOG2 DUP2 PUSH1 0x7 DUP2 SWAP1 SSTORE POP PUSH32 0xE5E26A600DC81B241131B3541C3C53D9B02D780F102C65B08B91FD57998E3B72 DUP3 PUSH1 0x40 MLOAD PUSH2 0x4D1 SWAP2 SWAP1 PUSH2 0x1819 JUMP JUMPDEST PUSH1 0x40 MLOAD DUP1 SWAP2 SUB SWAP1 LOG1 POP POP POP JUMP JUMPDEST DUP2 PUSH1 0x5 PUSH1 0x0 DUP3 DUP2 MSTORE PUSH1 0x20 ADD SWAP1 DUP2 MSTORE PUSH1 0x20 ADD PUSH1 0x0 KECCAK256 PUSH1 0x0 SWAP1 SLOAD SWAP1 PUSH2 0x100 EXP SWAP1 DIV PUSH20 0xFFFFFFFFFFFFFFFFFFFFFFFFFFFFFFFFFFFFFFFF AND PUSH20 0xFFFFFFFFFFFFFFFFFFFFFFFFFFFFFFFFFFFFFFFF AND CALLER PUSH20 0xFFFFFFFFFFFFFFFFFFFFFFFFFFFFFFFFFFFFFFFF AND EQ PUSH2 0x580 JUMPI PUSH1 0x40 MLOAD PUSH32 0x8C379A000000000000000000000000000000000000000000000000000000000 DUP2 MSTORE PUSH1 0x4 ADD PUSH2 0x577 SWAP1 PUSH2 0x17F9 JUMP JUMPDEST PUSH1 0x40 MLOAD DUP1 SWAP2 SUB SWAP1 REVERT JUMPDEST PUSH1 0x5 PUSH1 0x0 DUP3 DUP2 MSTORE PUSH1 0x20 ADD SWAP1 DUP2 MSTORE PUSH1 0x20 ADD PUSH1 0x0 KECCAK256 PUSH1 0x0 PUSH2 0x100 EXP DUP2 SLOAD SWAP1 PUSH20 0xFFFFFFFFFFFFFFFFFFFFFFFFFFFFFFFFFFFFFFFF MUL NOT AND SWAP1 SSTORE DUP1 PUSH32 0x7CC135E0CEBB02C3480AE5D74D377283180A2601F8F644EDF7987B009316C63A PUSH1 0x40 MLOAD PUSH1 0x40 MLOAD DUP1 SWAP2 SUB SWAP1 LOG2 DUP2 PUSH1 0xB DUP2 SWAP1 SSTORE POP PUSH32 0xFE14B6164C67C7837A2E1BBF8EB765FF403C6A748A8D7C22BE06745DC92CF338 DUP3 PUSH1 0x40 MLOAD PUSH2 0x619 SWAP2 SWAP1 PUSH2 0x1819 JUMP JUMPDEST PUSH1 0x40 MLOAD DUP1 SWAP2 SUB SWAP1 LOG1 POP POP POP JUMP JUMPDEST PUSH1 0x0 PUSH2 0x63C PUSH1 0x8 SLOAD ADDRESS PUSH4 0x5EFCE06 PUSH1 0xE0 SHL PUSH2 0xB84 JUMP JUMPDEST SWAP1 POP PUSH2 0x688 PUSH1 0x40 MLOAD DUP1 PUSH1 0x40 ADD PUSH1 0x40 MSTORE DUP1 PUSH1 0x8 DUP2 MSTORE PUSH1 0x20 ADD PUSH32 0x6461746546726F6D000000000000000000000000000000000000000000000000 DUP2 MSTORE POP DUP5 DUP4 PUSH2 0xBB5 SWAP1 SWAP3 SWAP2 SWAP1 PUSH4 0xFFFFFFFF AND JUMP JUMPDEST PUSH2 0x6D2 PUSH1 0x40 MLOAD DUP1 PUSH1 0x40 ADD PUSH1 0x40 MSTORE DUP1 PUSH1 0x6 DUP2 MSTORE PUSH1 0x20 ADD PUSH32 0x64617465546F0000000000000000000000000000000000000000000000000000 DUP2 MSTORE POP DUP4 DUP4 PUSH2 0xBB5 SWAP1 SWAP3 SWAP2 SWAP1 PUSH4 0xFFFFFFFF AND JUMP JUMPDEST PUSH2 0x751 PUSH1 0x40 MLOAD DUP1 PUSH1 0x40 ADD PUSH1 0x40 MSTORE DUP1 PUSH1 0x6 DUP2 MSTORE PUSH1 0x20 ADD PUSH32 0x6D6574686F640000000000000000000000000000000000000000000000000000 DUP2 MSTORE POP PUSH1 0x40 MLOAD DUP1 PUSH1 0x40 ADD PUSH1 0x40 MSTORE DUP1 PUSH1 0x3 DUP2 MSTORE PUSH1 0x20 ADD PUSH32 0x53554D0000000000000000000000000000000000000000000000000000000000 DUP2 MSTORE POP DUP4 PUSH2 0xBB5 SWAP1 SWAP3 SWAP2 SWAP1 PUSH4 0xFFFFFFFF AND JUMP JUMPDEST PUSH2 0x7D0 PUSH1 0x40 MLOAD DUP1 PUSH1 0x40 ADD PUSH1 0x40 MSTORE DUP1 PUSH1 0x6 DUP2 MSTORE PUSH1 0x20 ADD PUSH32 0x636F6C756D6E0000000000000000000000000000000000000000000000000000 DUP2 MSTORE POP PUSH1 0x40 MLOAD DUP1 PUSH1 0x40 ADD PUSH1 0x40 MSTORE DUP1 PUSH1 0x4 DUP2 MSTORE PUSH1 0x20 ADD PUSH32 0x7072637000000000000000000000000000000000000000000000000000000000 DUP2 MSTORE POP DUP4 PUSH2 0xBB5 SWAP1 SWAP3 SWAP2 SWAP1 PUSH4 0xFFFFFFFF AND JUMP JUMPDEST PUSH2 0x7DC DUP2 PUSH1 0xC SLOAD PUSH2 0xBE8 JUMP JUMPDEST POP POP POP POP JUMP JUMPDEST PUSH1 0x7 SLOAD DUP2 JUMP JUMPDEST PUSH1 0x0 PUSH2 0x7FE PUSH1 0x6 SLOAD ADDRESS PUSH4 0x2A3508DC PUSH1 0xE0 SHL PUSH2 0xB84 JUMP JUMPDEST SWAP1 POP PUSH2 0x84A PUSH1 0x40 MLOAD DUP1 PUSH1 0x40 ADD PUSH1 0x40 MSTORE DUP1 PUSH1 0x8 DUP2 MSTORE PUSH1 0x20 ADD PUSH32 0x6461746546726F6D000000000000000000000000000000000000000000000000 DUP2 MSTORE POP DUP5 DUP4 PUSH2 0xBB5 SWAP1 SWAP3 SWAP2 SWAP1 PUSH4 0xFFFFFFFF AND JUMP JUMPDEST PUSH2 0x894 PUSH1 0x40 MLOAD DUP1 PUSH1 0x40 ADD PUSH1 0x40 MSTORE DUP1 PUSH1 0x6 DUP2 MSTORE PUSH1 0x20 ADD PUSH32 0x64617465546F0000000000000000000000000000000000000000000000000000 DUP2 MSTORE POP DUP4 DUP4 PUSH2 0xBB5 SWAP1 SWAP3 SWAP2 SWAP1 PUSH4 0xFFFFFFFF AND JUMP JUMPDEST PUSH2 0x913 PUSH1 0x40 MLOAD DUP1 PUSH1 0x40 ADD PUSH1 0x40 MSTORE DUP1 PUSH1 0x6 DUP2 MSTORE PUSH1 0x20 ADD PUSH32 0x6D6574686F640000000000000000000000000000000000000000000000000000 DUP2 MSTORE POP PUSH1 0x40 MLOAD DUP1 PUSH1 0x40 ADD PUSH1 0x40 MSTORE DUP1 PUSH1 0x3 DUP2 MSTORE PUSH1 0x20 ADD PUSH32 0x4156470000000000000000000000000000000000000000000000000000000000 DUP2 MSTORE POP DUP4 PUSH2 0xBB5 SWAP1 SWAP3 SWAP2 SWAP1 PUSH4 0xFFFFFFFF AND JUMP JUMPDEST PUSH2 0x992 PUSH1 0x40 MLOAD DUP1 PUSH1 0x40 ADD PUSH1 0x40 MSTORE DUP1 PUSH1 0x6 DUP2 MSTORE PUSH1 0x20 ADD PUSH32 0x636F6C756D6E0000000000000000000000000000000000000000000000000000 DUP2 MSTORE POP PUSH1 0x40 MLOAD DUP1 PUSH1 0x40 ADD PUSH1 0x40 MSTORE DUP1 PUSH1 0x4 DUP2 MSTORE PUSH1 0x20 ADD PUSH32 0x74656D7000000000000000000000000000000000000000000000000000000000 DUP2 MSTORE POP DUP4 PUSH2 0xBB5 SWAP1 SWAP3 SWAP2 SWAP1 PUSH4 0xFFFFFFFF AND JUMP JUMPDEST PUSH2 0x99E DUP2 PUSH1 0xC SLOAD PUSH2 0xBE8 JUMP JUMPDEST POP POP POP POP JUMP JUMPDEST PUSH1 0x9 SLOAD DUP2 JUMP JUMPDEST PUSH1 0xA SLOAD DUP2 JUMP JUMPDEST PUSH1 0xB SLOAD DUP2 JUMP JUMPDEST PUSH1 0x6 SLOAD DUP2 JUMP JUMPDEST PUSH1 0x8 SLOAD DUP2 JUMP JUMPDEST PUSH1 0x0 PUSH2 0x9D8 PUSH1 0xA SLOAD ADDRESS PUSH4 0x38171947 PUSH1 0xE0 SHL PUSH2 0xB84 JUMP JUMPDEST SWAP1 POP PUSH2 0xA24 PUSH1 0x40 MLOAD DUP1 PUSH1 0x40 ADD PUSH1 0x40 MSTORE DUP1 PUSH1 0x8 DUP2 MSTORE PUSH1 0x20 ADD PUSH32 0x6461746546726F6D000000000000000000000000000000000000000000000000 DUP2 MSTORE POP DUP5 DUP4 PUSH2 0xBB5 SWAP1 SWAP3 SWAP2 SWAP1 PUSH4 0xFFFFFFFF AND JUMP JUMPDEST PUSH2 0xA6E PUSH1 0x40 MLOAD DUP1 PUSH1 0x40 ADD PUSH1 0x40 MSTORE DUP1 PUSH1 0x6 DUP2 MSTORE PUSH1 0x20 ADD PUSH32 0x64617465546F0000000000000000000000000000000000000000000000000000 DUP2 MSTORE POP DUP4 DUP4 PUSH2 0xBB5 SWAP1 SWAP3 SWAP2 SWAP1 PUSH4 0xFFFFFFFF AND JUMP JUMPDEST PUSH2 0xAED PUSH1 0x40 MLOAD DUP1 PUSH1 0x40 ADD PUSH1 0x40 MSTORE DUP1 PUSH1 0x6 DUP2 MSTORE PUSH1 0x20 ADD PUSH32 0x6D6574686F640000000000000000000000000000000000000000000000000000 DUP2 MSTORE POP PUSH1 0x40 MLOAD DUP1 PUSH1 0x40 ADD PUSH1 0x40 MSTORE DUP1 PUSH1 0x3 DUP2 MSTORE PUSH1 0x20 ADD PUSH32 0x53554D0000000000000000000000000000000000000000000000000000000000 DUP2 MSTORE POP DUP4 PUSH2 0xBB5 SWAP1 SWAP3 SWAP2 SWAP1 PUSH4 0xFFFFFFFF AND JUMP JUMPDEST PUSH2 0xB6C PUSH1 0x40 MLOAD DUP1 PUSH1 0x40 ADD PUSH1 0x40 MSTORE DUP1 PUSH1 0x6 DUP2 MSTORE PUSH1 0x20 ADD PUSH32 0x636F6C756D6E0000000000000000000000000000000000000000000000000000 DUP2 MSTORE POP PUSH1 0x40 MLOAD DUP1 PUSH1 0x40 ADD PUSH1 0x40 MSTORE DUP1 PUSH1 0x4 DUP2 MSTORE PUSH1 0x20 ADD PUSH32 0x6861696C00000000000000000000000000000000000000000000000000000000 DUP2 MSTORE POP DUP4 PUSH2 0xBB5 SWAP1 SWAP3 SWAP2 SWAP1 PUSH4 0xFFFFFFFF AND JUMP JUMPDEST PUSH2 0xB78 DUP2 PUSH1 0xC SLOAD PUSH2 0xBE8 JUMP JUMPDEST POP POP POP POP JUMP JUMPDEST PUSH1 0xC SLOAD DUP2 JUMP JUMPDEST PUSH2 0xB8C PUSH2 0x13CB JUMP JUMPDEST PUSH2 0xB94 PUSH2 0x13CB JUMP JUMPDEST PUSH2 0xBAB DUP6 DUP6 DUP6 DUP5 PUSH2 0xC1F SWAP1 SWAP4 SWAP3 SWAP2 SWAP1 PUSH4 0xFFFFFFFF AND JUMP JUMPDEST SWAP2 POP POP SWAP4 SWAP3 POP POP POP JUMP JUMPDEST PUSH2 0xBCC DUP3 DUP5 PUSH1 0x80 ADD MLOAD PUSH2 0xCCF SWAP1 SWAP2 SWAP1 PUSH4 0xFFFFFFFF AND JUMP JUMPDEST PUSH2 0xBE3 DUP2 DUP5 PUSH1 0x80 ADD MLOAD PUSH2 0xCCF SWAP1 SWAP2 SWAP1 PUSH4 0xFFFFFFFF AND JUMP JUMPDEST POP POP POP JUMP JUMPDEST PUSH1 0x0 PUSH2 0xC17 PUSH1 0x3 PUSH1 0x0 SWAP1 SLOAD SWAP1 PUSH2 0x100 EXP SWAP1 DIV PUSH20 0xFFFFFFFFFFFFFFFFFFFFFFFFFFFFFFFFFFFFFFFF AND DUP5 DUP5 PUSH2 0xCF4 JUMP JUMPDEST SWAP1 POP SWAP3 SWAP2 POP POP JUMP JUMPDEST PUSH2 0xC27 PUSH2 0x13CB JUMP JUMPDEST PUSH2 0xC37 DUP6 PUSH1 0x80 ADD MLOAD PUSH2 0x100 PUSH2 0xDC0 JUMP JUMPDEST POP DUP4 DUP6 PUSH1 0x0 ADD DUP2 DUP2 MSTORE POP POP DUP3 DUP6 PUSH1 0x20 ADD SWAP1 PUSH20 0xFFFFFFFFFFFFFFFFFFFFFFFFFFFFFFFFFFFFFFFF AND SWAP1 DUP2 PUSH20 0xFFFFFFFFFFFFFFFFFFFFFFFFFFFFFFFFFFFFFFFF AND DUP2 MSTORE POP POP DUP2 DUP6 PUSH1 0x40 ADD SWAP1 PUSH28 0xFFFFFFFFFFFFFFFFFFFFFFFFFFFFFFFFFFFFFFFFFFFFFFFFFFFFFFFF NOT AND SWAP1 DUP2 PUSH28 0xFFFFFFFFFFFFFFFFFFFFFFFFFFFFFFFFFFFFFFFFFFFFFFFFFFFFFFFF NOT AND DUP2 MSTORE POP POP DUP5 SWAP1 POP SWAP5 SWAP4 POP POP POP POP JUMP JUMPDEST PUSH2 0xCDC DUP3 PUSH1 0x3 DUP4 MLOAD PUSH2 0xE2A JUMP JUMPDEST PUSH2 0xCEF DUP2 DUP4 PUSH2 0xFAF SWAP1 SWAP2 SWAP1 PUSH4 0xFFFFFFFF AND JUMP JUMPDEST POP POP POP JUMP JUMPDEST PUSH1 0x0 DUP1 PUSH1 0x4 SLOAD SWAP1 POP PUSH1 0x1 DUP2 PUSH2 0xD09 SWAP2 SWAP1 PUSH2 0x18B7 JUMP JUMPDEST PUSH1 0x4 DUP2 SWAP1 SSTORE POP PUSH1 0x0 PUSH4 0x40429946 PUSH1 0xE0 SHL PUSH1 0x0 DUP1 DUP8 PUSH1 0x0 ADD MLOAD ADDRESS DUP10 PUSH1 0x40 ADD MLOAD DUP8 PUSH1 0x1 DUP13 PUSH1 0x80 ADD MLOAD PUSH1 0x0 ADD MLOAD PUSH1 0x40 MLOAD PUSH1 0x24 ADD PUSH2 0xD4A SWAP9 SWAP8 SWAP7 SWAP6 SWAP5 SWAP4 SWAP3 SWAP2 SWAP1 PUSH2 0x16FB JUMP JUMPDEST PUSH1 0x40 MLOAD PUSH1 0x20 DUP2 DUP4 SUB SUB DUP2 MSTORE SWAP1 PUSH1 0x40 MSTORE SWAP1 PUSH28 0xFFFFFFFFFFFFFFFFFFFFFFFFFFFFFFFFFFFFFFFFFFFFFFFFFFFFFFFF NOT AND PUSH1 0x20 DUP3 ADD DUP1 MLOAD PUSH28 0xFFFFFFFFFFFFFFFFFFFFFFFFFFFFFFFFFFFFFFFFFFFFFFFFFFFFFFFF DUP4 DUP2 DUP4 AND OR DUP4 MSTORE POP POP POP POP SWAP1 POP PUSH2 0xDB5 DUP7 DUP4 DUP7 DUP5 PUSH2 0xFD1 JUMP JUMPDEST SWAP3 POP POP POP SWAP4 SWAP3 POP POP POP JUMP JUMPDEST PUSH2 0xDC8 PUSH2 0x1438 JUMP JUMPDEST PUSH1 0x0 PUSH1 0x20 DUP4 PUSH2 0xDD7 SWAP2 SWAP1 PUSH2 0x1C61 JUMP JUMPDEST EQ PUSH2 0xE03 JUMPI PUSH1 0x20 DUP3 PUSH2 0xDE9 SWAP2 SWAP1 PUSH2 0x1C61 JUMP JUMPDEST PUSH1 0x20 PUSH2 0xDF5 SWAP2 SWAP1 PUSH2 0x1AD8 JUMP JUMPDEST DUP3 PUSH2 0xE00 SWAP2 SWAP1 PUSH2 0x18B7 JUMP JUMPDEST SWAP2 POP JUMPDEST DUP2 DUP4 PUSH1 0x20 ADD DUP2 DUP2 MSTORE POP POP PUSH1 0x40 MLOAD DUP1 DUP5 MSTORE PUSH1 0x0 DUP2 MSTORE DUP3 DUP2 ADD PUSH1 0x20 ADD PUSH1 0x40 MSTORE POP DUP3 SWAP1 POP SWAP3 SWAP2 POP POP JUMP JUMPDEST PUSH1 0x17 DUP2 PUSH8 0xFFFFFFFFFFFFFFFF AND GT PUSH2 0xE61 JUMPI PUSH2 0xE5B DUP2 PUSH1 0x5 DUP5 PUSH1 0xFF AND SWAP1 SHL PUSH1 0xFF AND OR DUP5 PUSH2 0x1175 SWAP1 SWAP2 SWAP1 PUSH4 0xFFFFFFFF AND JUMP JUMPDEST POP PUSH2 0xFAA JUMP JUMPDEST PUSH1 0xFF DUP2 PUSH8 0xFFFFFFFFFFFFFFFF AND GT PUSH2 0xEB7 JUMPI PUSH2 0xE90 PUSH1 0x18 PUSH1 0x5 DUP5 PUSH1 0xFF AND SWAP1 SHL OR DUP5 PUSH2 0x1175 SWAP1 SWAP2 SWAP1 PUSH4 0xFFFFFFFF AND JUMP JUMPDEST POP PUSH2 0xEB1 DUP2 PUSH8 0xFFFFFFFFFFFFFFFF AND PUSH1 0x1 DUP6 PUSH2 0x1195 SWAP1 SWAP3 SWAP2 SWAP1 PUSH4 0xFFFFFFFF AND JUMP JUMPDEST POP PUSH2 0xFA9 JUMP JUMPDEST PUSH2 0xFFFF DUP2 PUSH8 0xFFFFFFFFFFFFFFFF AND GT PUSH2 0xF0E JUMPI PUSH2 0xEE7 PUSH1 0x19 PUSH1 0x5 DUP5 PUSH1 0xFF AND SWAP1 SHL OR DUP5 PUSH2 0x1175 SWAP1 SWAP2 SWAP1 PUSH4 0xFFFFFFFF AND JUMP JUMPDEST POP PUSH2 0xF08 DUP2 PUSH8 0xFFFFFFFFFFFFFFFF AND PUSH1 0x2 DUP6 PUSH2 0x1195 SWAP1 SWAP3 SWAP2 SWAP1 PUSH4 0xFFFFFFFF AND JUMP JUMPDEST POP PUSH2 0xFA8 JUMP JUMPDEST PUSH4 0xFFFFFFFF DUP2 PUSH8 0xFFFFFFFFFFFFFFFF AND GT PUSH2 0xF67 JUMPI PUSH2 0xF40 PUSH1 0x1A PUSH1 0x5 DUP5 PUSH1 0xFF AND SWAP1 SHL OR DUP5 PUSH2 0x1175 SWAP1 SWAP2 SWAP1 PUSH4 0xFFFFFFFF AND JUMP JUMPDEST POP PUSH2 0xF61 DUP2 PUSH8 0xFFFFFFFFFFFFFFFF AND PUSH1 0x4 DUP6 PUSH2 0x1195 SWAP1 SWAP3 SWAP2 SWAP1 PUSH4 0xFFFFFFFF AND JUMP JUMPDEST POP PUSH2 0xFA7 JUMP JUMPDEST PUSH2 0xF84 PUSH1 0x1B PUSH1 0x5 DUP5 PUSH1 0xFF AND SWAP1 SHL OR DUP5 PUSH2 0x1175 SWAP1 SWAP2 SWAP1 PUSH4 0xFFFFFFFF AND JUMP JUMPDEST POP PUSH2 0xFA5 DUP2 PUSH8 0xFFFFFFFFFFFFFFFF AND PUSH1 0x8 DUP6 PUSH2 0x1195 SWAP1 SWAP3 SWAP2 SWAP1 PUSH4 0xFFFFFFFF AND JUMP JUMPDEST POP JUMPDEST JUMPDEST JUMPDEST JUMPDEST POP POP POP JUMP JUMPDEST PUSH2 0xFB7 PUSH2 0x1438 JUMP JUMPDEST PUSH2 0xFC9 DUP4 DUP5 PUSH1 0x0 ADD MLOAD MLOAD DUP5 DUP6 MLOAD PUSH2 0x11B7 JUMP JUMPDEST SWAP1 POP SWAP3 SWAP2 POP POP JUMP JUMPDEST PUSH1 0x0 ADDRESS DUP5 PUSH1 0x40 MLOAD PUSH1 0x20 ADD PUSH2 0xFE6 SWAP3 SWAP2 SWAP1 PUSH2 0x16CF JUMP JUMPDEST PUSH1 0x40 MLOAD PUSH1 0x20 DUP2 DUP4 SUB SUB DUP2 MSTORE SWAP1 PUSH1 0x40 MSTORE DUP1 MLOAD SWAP1 PUSH1 0x20 ADD KECCAK256 SWAP1 POP DUP5 PUSH1 0x5 PUSH1 0x0 DUP4 DUP2 MSTORE PUSH1 0x20 ADD SWAP1 DUP2 MSTORE PUSH1 0x20 ADD PUSH1 0x0 KECCAK256 PUSH1 0x0 PUSH2 0x100 EXP DUP2 SLOAD DUP2 PUSH20 0xFFFFFFFFFFFFFFFFFFFFFFFFFFFFFFFFFFFFFFFF MUL NOT AND SWAP1 DUP4 PUSH20 0xFFFFFFFFFFFFFFFFFFFFFFFFFFFFFFFFFFFFFFFF AND MUL OR SWAP1 SSTORE POP DUP1 PUSH32 0xB5E6E01E79F91267DC17B4E6314D5D4D03593D2CEEE0FBB452B750BD70EA5AF9 PUSH1 0x40 MLOAD PUSH1 0x40 MLOAD DUP1 SWAP2 SUB SWAP1 LOG2 PUSH1 0x2 PUSH1 0x0 SWAP1 SLOAD SWAP1 PUSH2 0x100 EXP SWAP1 DIV PUSH20 0xFFFFFFFFFFFFFFFFFFFFFFFFFFFFFFFFFFFFFFFF AND PUSH20 0xFFFFFFFFFFFFFFFFFFFFFFFFFFFFFFFFFFFFFFFF AND PUSH4 0x4000AEA0 DUP7 DUP6 DUP6 PUSH1 0x40 MLOAD DUP5 PUSH4 0xFFFFFFFF AND PUSH1 0xE0 SHL DUP2 MSTORE PUSH1 0x4 ADD PUSH2 0x10DC SWAP4 SWAP3 SWAP2 SWAP1 PUSH2 0x1780 JUMP JUMPDEST PUSH1 0x20 PUSH1 0x40 MLOAD DUP1 DUP4 SUB DUP2 PUSH1 0x0 DUP8 DUP1 EXTCODESIZE ISZERO DUP1 ISZERO PUSH2 0x10F6 JUMPI PUSH1 0x0 DUP1 REVERT JUMPDEST POP GAS CALL ISZERO DUP1 ISZERO PUSH2 0x110A JUMPI RETURNDATASIZE PUSH1 0x0 DUP1 RETURNDATACOPY RETURNDATASIZE PUSH1 0x0 REVERT JUMPDEST POP POP POP POP PUSH1 0x40 MLOAD RETURNDATASIZE PUSH1 0x1F NOT PUSH1 0x1F DUP3 ADD AND DUP3 ADD DUP1 PUSH1 0x40 MSTORE POP DUP2 ADD SWAP1 PUSH2 0x112E SWAP2 SWAP1 PUSH2 0x1501 JUMP JUMPDEST PUSH2 0x116D JUMPI PUSH1 0x40 MLOAD PUSH32 0x8C379A000000000000000000000000000000000000000000000000000000000 DUP2 MSTORE PUSH1 0x4 ADD PUSH2 0x1164 SWAP1 PUSH2 0x17D9 JUMP JUMPDEST PUSH1 0x40 MLOAD DUP1 SWAP2 SUB SWAP1 REVERT JUMPDEST SWAP5 SWAP4 POP POP POP POP JUMP JUMPDEST PUSH2 0x117D PUSH2 0x1438 JUMP JUMPDEST PUSH2 0x118D DUP4 DUP5 PUSH1 0x0 ADD MLOAD MLOAD DUP5 PUSH2 0x12A6 JUMP JUMPDEST SWAP1 POP SWAP3 SWAP2 POP POP JUMP JUMPDEST PUSH2 0x119D PUSH2 0x1438 JUMP JUMPDEST PUSH2 0x11AE DUP5 DUP6 PUSH1 0x0 ADD MLOAD MLOAD DUP6 DUP6 PUSH2 0x12FD JUMP JUMPDEST SWAP1 POP SWAP4 SWAP3 POP POP POP JUMP JUMPDEST PUSH2 0x11BF PUSH2 0x1438 JUMP JUMPDEST DUP3 MLOAD DUP3 GT ISZERO PUSH2 0x11CD JUMPI PUSH1 0x0 DUP1 REVERT JUMPDEST DUP5 PUSH1 0x20 ADD MLOAD DUP3 DUP6 PUSH2 0x11DE SWAP2 SWAP1 PUSH2 0x18B7 JUMP JUMPDEST GT ISZERO PUSH2 0x1213 JUMPI PUSH2 0x1212 DUP6 PUSH1 0x2 PUSH2 0x1203 DUP9 PUSH1 0x20 ADD MLOAD DUP9 DUP8 PUSH2 0x11FE SWAP2 SWAP1 PUSH2 0x18B7 JUMP JUMPDEST PUSH2 0x138B JUMP JUMPDEST PUSH2 0x120D SWAP2 SWAP1 PUSH2 0x1A7E JUMP JUMPDEST PUSH2 0x13A7 JUMP JUMPDEST JUMPDEST PUSH1 0x0 DUP1 DUP7 MLOAD DUP1 MLOAD DUP8 PUSH1 0x20 DUP4 ADD ADD SWAP4 POP DUP1 DUP9 DUP8 ADD GT ISZERO PUSH2 0x1232 JUMPI DUP8 DUP7 ADD DUP3 MSTORE JUMPDEST PUSH1 0x20 DUP8 ADD SWAP3 POP POP POP JUMPDEST PUSH1 0x20 DUP5 LT PUSH2 0x1279 JUMPI DUP1 MLOAD DUP3 MSTORE PUSH1 0x20 DUP3 PUSH2 0x1254 SWAP2 SWAP1 PUSH2 0x18B7 JUMP JUMPDEST SWAP2 POP PUSH1 0x20 DUP2 PUSH2 0x1263 SWAP2 SWAP1 PUSH2 0x18B7 JUMP JUMPDEST SWAP1 POP PUSH1 0x20 DUP5 PUSH2 0x1272 SWAP2 SWAP1 PUSH2 0x1AD8 JUMP JUMPDEST SWAP4 POP PUSH2 0x123B JUMP JUMPDEST PUSH1 0x0 PUSH1 0x1 DUP6 PUSH1 0x20 SUB PUSH2 0x100 EXP SUB SWAP1 POP DUP1 NOT DUP3 MLOAD AND DUP2 DUP5 MLOAD AND DUP2 DUP2 OR DUP6 MSTORE POP POP POP DUP7 SWAP3 POP POP POP SWAP5 SWAP4 POP POP POP POP JUMP JUMPDEST PUSH2 0x12AE PUSH2 0x1438 JUMP JUMPDEST DUP4 PUSH1 0x20 ADD MLOAD DUP4 LT PUSH2 0x12D4 JUMPI PUSH2 0x12D3 DUP5 PUSH1 0x2 DUP7 PUSH1 0x20 ADD MLOAD PUSH2 0x12CE SWAP2 SWAP1 PUSH2 0x1A7E JUMP JUMPDEST PUSH2 0x13A7 JUMP JUMPDEST JUMPDEST DUP4 MLOAD DUP1 MLOAD PUSH1 0x20 DUP6 DUP4 ADD ADD DUP5 DUP2 MSTORE8 DUP2 DUP7 EQ ISZERO PUSH2 0x12F0 JUMPI PUSH1 0x1 DUP3 ADD DUP4 MSTORE JUMPDEST POP POP POP DUP4 SWAP1 POP SWAP4 SWAP3 POP POP POP JUMP JUMPDEST PUSH2 0x1305 PUSH2 0x1438 JUMP JUMPDEST DUP5 PUSH1 0x20 ADD MLOAD DUP5 DUP4 PUSH2 0x1316 SWAP2 SWAP1 PUSH2 0x18B7 JUMP JUMPDEST GT ISZERO PUSH2 0x133E JUMPI PUSH2 0x133D DUP6 PUSH1 0x2 DUP7 DUP6 PUSH2 0x132E SWAP2 SWAP1 PUSH2 0x18B7 JUMP JUMPDEST PUSH2 0x1338 SWAP2 SWAP1 PUSH2 0x1A7E JUMP JUMPDEST PUSH2 0x13A7 JUMP JUMPDEST JUMPDEST PUSH1 0x0 PUSH1 0x1 DUP4 PUSH2 0x100 PUSH2 0x1350 SWAP2 SWAP1 PUSH2 0x1960 JUMP JUMPDEST PUSH2 0x135A SWAP2 SWAP1 PUSH2 0x1AD8 JUMP JUMPDEST SWAP1 POP DUP6 MLOAD DUP4 DUP7 DUP3 ADD ADD DUP6 DUP4 NOT DUP3 MLOAD AND OR DUP2 MSTORE DUP2 MLOAD DUP6 DUP9 ADD GT ISZERO PUSH2 0x137D JUMPI DUP5 DUP8 ADD DUP3 MSTORE JUMPDEST POP POP DUP6 SWAP2 POP POP SWAP5 SWAP4 POP POP POP POP JUMP JUMPDEST PUSH1 0x0 DUP2 DUP4 GT ISZERO PUSH2 0x139D JUMPI DUP3 SWAP1 POP PUSH2 0x13A1 JUMP JUMPDEST DUP2 SWAP1 POP JUMPDEST SWAP3 SWAP2 POP POP JUMP JUMPDEST PUSH1 0x0 DUP3 PUSH1 0x0 ADD MLOAD SWAP1 POP PUSH2 0x13BA DUP4 DUP4 PUSH2 0xDC0 JUMP JUMPDEST POP PUSH2 0x13C5 DUP4 DUP3 PUSH2 0xFAF JUMP JUMPDEST POP POP POP POP JUMP JUMPDEST PUSH1 0x40 MLOAD DUP1 PUSH1 0xA0 ADD PUSH1 0x40 MSTORE DUP1 PUSH1 0x0 DUP1 NOT AND DUP2 MSTORE PUSH1 0x20 ADD PUSH1 0x0 PUSH20 0xFFFFFFFFFFFFFFFFFFFFFFFFFFFFFFFFFFFFFFFF AND DUP2 MSTORE PUSH1 0x20 ADD PUSH1 0x0 PUSH28 0xFFFFFFFFFFFFFFFFFFFFFFFFFFFFFFFFFFFFFFFFFFFFFFFFFFFFFFFF NOT AND DUP2 MSTORE PUSH1 0x20 ADD PUSH1 0x0 DUP2 MSTORE PUSH1 0x20 ADD PUSH2 0x1432 PUSH2 0x1438 JUMP JUMPDEST DUP2 MSTORE POP SWAP1 JUMP JUMPDEST PUSH1 0x40 MLOAD DUP1 PUSH1 0x40 ADD PUSH1 0x40 MSTORE DUP1 PUSH1 0x60 DUP2 MSTORE PUSH1 0x20 ADD PUSH1 0x0 DUP2 MSTORE POP SWAP1 JUMP JUMPDEST PUSH1 0x0 PUSH2 0x1465 PUSH2 0x1460 DUP5 PUSH2 0x1859 JUMP JUMPDEST PUSH2 0x1834 JUMP JUMPDEST SWAP1 POP DUP3 DUP2 MSTORE PUSH1 0x20 DUP2 ADD DUP5 DUP5 DUP5 ADD GT ISZERO PUSH2 0x1481 JUMPI PUSH2 0x1480 PUSH2 0x1D24 JUMP JUMPDEST JUMPDEST PUSH2 0x148C DUP5 DUP3 DUP6 PUSH2 0x1BC0 JUMP JUMPDEST POP SWAP4 SWAP3 POP POP POP JUMP JUMPDEST PUSH1 0x0 DUP2 MLOAD SWAP1 POP PUSH2 0x14A3 DUP2 PUSH2 0x1DFC JUMP JUMPDEST SWAP3 SWAP2 POP POP JUMP JUMPDEST PUSH1 0x0 DUP2 CALLDATALOAD SWAP1 POP PUSH2 0x14B8 DUP2 PUSH2 0x1E13 JUMP JUMPDEST SWAP3 SWAP2 POP POP JUMP JUMPDEST PUSH1 0x0 DUP3 PUSH1 0x1F DUP4 ADD SLT PUSH2 0x14D3 JUMPI PUSH2 0x14D2 PUSH2 0x1D1F JUMP JUMPDEST JUMPDEST DUP2 CALLDATALOAD PUSH2 0x14E3 DUP5 DUP3 PUSH1 0x20 DUP7 ADD PUSH2 0x1452 JUMP JUMPDEST SWAP2 POP POP SWAP3 SWAP2 POP POP JUMP JUMPDEST PUSH1 0x0 DUP2 CALLDATALOAD SWAP1 POP PUSH2 0x14FB DUP2 PUSH2 0x1E2A JUMP JUMPDEST SWAP3 SWAP2 POP POP JUMP JUMPDEST PUSH1 0x0 PUSH1 0x20 DUP3 DUP5 SUB SLT ISZERO PUSH2 0x1517 JUMPI PUSH2 0x1516 PUSH2 0x1D2E JUMP JUMPDEST JUMPDEST PUSH1 0x0 PUSH2 0x1525 DUP5 DUP3 DUP6 ADD PUSH2 0x1494 JUMP JUMPDEST SWAP2 POP POP SWAP3 SWAP2 POP POP JUMP JUMPDEST PUSH1 0x0 DUP1 PUSH1 0x40 DUP4 DUP6 SUB SLT ISZERO PUSH2 0x1545 JUMPI PUSH2 0x1544 PUSH2 0x1D2E JUMP JUMPDEST JUMPDEST PUSH1 0x0 PUSH2 0x1553 DUP6 DUP3 DUP7 ADD PUSH2 0x14A9 JUMP JUMPDEST SWAP3 POP POP PUSH1 0x20 PUSH2 0x1564 DUP6 DUP3 DUP7 ADD PUSH2 0x14EC JUMP JUMPDEST SWAP2 POP POP SWAP3 POP SWAP3 SWAP1 POP JUMP JUMPDEST PUSH1 0x0 DUP1 PUSH1 0x40 DUP4 DUP6 SUB SLT ISZERO PUSH2 0x1585 JUMPI PUSH2 0x1584 PUSH2 0x1D2E JUMP JUMPDEST JUMPDEST PUSH1 0x0 DUP4 ADD CALLDATALOAD PUSH8 0xFFFFFFFFFFFFFFFF DUP2 GT ISZERO PUSH2 0x15A3 JUMPI PUSH2 0x15A2 PUSH2 0x1D29 JUMP JUMPDEST JUMPDEST PUSH2 0x15AF DUP6 DUP3 DUP7 ADD PUSH2 0x14BE JUMP JUMPDEST SWAP3 POP POP PUSH1 0x20 DUP4 ADD CALLDATALOAD PUSH8 0xFFFFFFFFFFFFFFFF DUP2 GT ISZERO PUSH2 0x15D0 JUMPI PUSH2 0x15CF PUSH2 0x1D29 JUMP JUMPDEST JUMPDEST PUSH2 0x15DC DUP6 DUP3 DUP7 ADD PUSH2 0x14BE JUMP JUMPDEST SWAP2 POP POP SWAP3 POP SWAP3 SWAP1 POP JUMP JUMPDEST PUSH2 0x15EF DUP2 PUSH2 0x1B0C JUMP JUMPDEST DUP3 MSTORE POP POP JUMP JUMPDEST PUSH2 0x15FE DUP2 PUSH2 0x1B2A JUMP JUMPDEST DUP3 MSTORE POP POP JUMP JUMPDEST PUSH2 0x160D DUP2 PUSH2 0x1B34 JUMP JUMPDEST DUP3 MSTORE POP POP JUMP JUMPDEST PUSH1 0x0 PUSH2 0x161E DUP3 PUSH2 0x188A JUMP JUMPDEST PUSH2 0x1628 DUP2 DUP6 PUSH2 0x1895 JUMP JUMPDEST SWAP4 POP PUSH2 0x1638 DUP2 DUP6 PUSH1 0x20 DUP7 ADD PUSH2 0x1BCF JUMP JUMPDEST PUSH2 0x1641 DUP2 PUSH2 0x1D33 JUMP JUMPDEST DUP5 ADD SWAP2 POP POP SWAP3 SWAP2 POP POP JUMP JUMPDEST PUSH2 0x165D PUSH2 0x1658 DUP3 PUSH2 0x1B8A JUMP JUMPDEST PUSH2 0x1C33 JUMP JUMPDEST DUP3 MSTORE POP POP JUMP JUMPDEST PUSH1 0x0 PUSH2 0x1670 PUSH1 0x23 DUP4 PUSH2 0x18A6 JUMP JUMPDEST SWAP2 POP PUSH2 0x167B DUP3 PUSH2 0x1D5E JUMP JUMPDEST PUSH1 0x40 DUP3 ADD SWAP1 POP SWAP2 SWAP1 POP JUMP JUMPDEST PUSH1 0x0 PUSH2 0x1693 PUSH1 0x28 DUP4 PUSH2 0x18A6 JUMP JUMPDEST SWAP2 POP PUSH2 0x169E DUP3 PUSH2 0x1DAD JUMP JUMPDEST PUSH1 0x40 DUP3 ADD SWAP1 POP SWAP2 SWAP1 POP JUMP JUMPDEST PUSH2 0x16B2 DUP2 PUSH2 0x1B80 JUMP JUMPDEST DUP3 MSTORE POP POP JUMP JUMPDEST PUSH2 0x16C9 PUSH2 0x16C4 DUP3 PUSH2 0x1B80 JUMP JUMPDEST PUSH2 0x1C57 JUMP JUMPDEST DUP3 MSTORE POP POP JUMP JUMPDEST PUSH1 0x0 PUSH2 0x16DB DUP3 DUP6 PUSH2 0x164C JUMP JUMPDEST PUSH1 0x14 DUP3 ADD SWAP2 POP PUSH2 0x16EB DUP3 DUP5 PUSH2 0x16B8 JUMP JUMPDEST PUSH1 0x20 DUP3 ADD SWAP2 POP DUP2 SWAP1 POP SWAP4 SWAP3 POP POP POP JUMP JUMPDEST PUSH1 0x0 PUSH2 0x100 DUP3 ADD SWAP1 POP PUSH2 0x1711 PUSH1 0x0 DUP4 ADD DUP12 PUSH2 0x15E6 JUMP JUMPDEST PUSH2 0x171E PUSH1 0x20 DUP4 ADD DUP11 PUSH2 0x16A9 JUMP JUMPDEST PUSH2 0x172B PUSH1 0x40 DUP4 ADD DUP10 PUSH2 0x15F5 JUMP JUMPDEST PUSH2 0x1738 PUSH1 0x60 DUP4 ADD DUP9 PUSH2 0x15E6 JUMP JUMPDEST PUSH2 0x1745 PUSH1 0x80 DUP4 ADD DUP8 PUSH2 0x1604 JUMP JUMPDEST PUSH2 0x1752 PUSH1 0xA0 DUP4 ADD DUP7 PUSH2 0x16A9 JUMP JUMPDEST PUSH2 0x175F PUSH1 0xC0 DUP4 ADD DUP6 PUSH2 0x16A9 JUMP JUMPDEST DUP2 DUP2 SUB PUSH1 0xE0 DUP4 ADD MSTORE PUSH2 0x1771 DUP2 DUP5 PUSH2 0x1613 JUMP JUMPDEST SWAP1 POP SWAP10 SWAP9 POP POP POP POP POP POP POP POP POP JUMP JUMPDEST PUSH1 0x0 PUSH1 0x60 DUP3 ADD SWAP1 POP PUSH2 0x1795 PUSH1 0x0 DUP4 ADD DUP7 PUSH2 0x15E6 JUMP JUMPDEST PUSH2 0x17A2 PUSH1 0x20 DUP4 ADD DUP6 PUSH2 0x16A9 JUMP JUMPDEST DUP2 DUP2 SUB PUSH1 0x40 DUP4 ADD MSTORE PUSH2 0x17B4 DUP2 DUP5 PUSH2 0x1613 JUMP JUMPDEST SWAP1 POP SWAP5 SWAP4 POP POP POP POP JUMP JUMPDEST PUSH1 0x0 PUSH1 0x20 DUP3 ADD SWAP1 POP PUSH2 0x17D3 PUSH1 0x0 DUP4 ADD DUP5 PUSH2 0x15F5 JUMP JUMPDEST SWAP3 SWAP2 POP POP JUMP JUMPDEST PUSH1 0x0 PUSH1 0x20 DUP3 ADD SWAP1 POP DUP2 DUP2 SUB PUSH1 0x0 DUP4 ADD MSTORE PUSH2 0x17F2 DUP2 PUSH2 0x1663 JUMP JUMPDEST SWAP1 POP SWAP2 SWAP1 POP JUMP JUMPDEST PUSH1 0x0 PUSH1 0x20 DUP3 ADD SWAP1 POP DUP2 DUP2 SUB PUSH1 0x0 DUP4 ADD MSTORE PUSH2 0x1812 DUP2 PUSH2 0x1686 JUMP JUMPDEST SWAP1 POP SWAP2 SWAP1 POP JUMP JUMPDEST PUSH1 0x0 PUSH1 0x20 DUP3 ADD SWAP1 POP PUSH2 0x182E PUSH1 0x0 DUP4 ADD DUP5 PUSH2 0x16A9 JUMP JUMPDEST SWAP3 SWAP2 POP POP JUMP JUMPDEST PUSH1 0x0 PUSH2 0x183E PUSH2 0x184F JUMP JUMPDEST SWAP1 POP PUSH2 0x184A DUP3 DUP3 PUSH2 0x1C02 JUMP JUMPDEST SWAP2 SWAP1 POP JUMP JUMPDEST PUSH1 0x0 PUSH1 0x40 MLOAD SWAP1 POP SWAP1 JUMP JUMPDEST PUSH1 0x0 PUSH8 0xFFFFFFFFFFFFFFFF DUP3 GT ISZERO PUSH2 0x1874 JUMPI PUSH2 0x1873 PUSH2 0x1CF0 JUMP JUMPDEST JUMPDEST PUSH2 0x187D DUP3 PUSH2 0x1D33 JUMP JUMPDEST SWAP1 POP PUSH1 0x20 DUP2 ADD SWAP1 POP SWAP2 SWAP1 POP JUMP JUMPDEST PUSH1 0x0 DUP2 MLOAD SWAP1 POP SWAP2 SWAP1 POP JUMP JUMPDEST PUSH1 0x0 DUP3 DUP3 MSTORE PUSH1 0x20 DUP3 ADD SWAP1 POP SWAP3 SWAP2 POP POP JUMP JUMPDEST PUSH1 0x0 DUP3 DUP3 MSTORE PUSH1 0x20 DUP3 ADD SWAP1 POP SWAP3 SWAP2 POP POP JUMP JUMPDEST PUSH1 0x0 PUSH2 0x18C2 DUP3 PUSH2 0x1B80 JUMP JUMPDEST SWAP2 POP PUSH2 0x18CD DUP4 PUSH2 0x1B80 JUMP JUMPDEST SWAP3 POP DUP3 PUSH32 0xFFFFFFFFFFFFFFFFFFFFFFFFFFFFFFFFFFFFFFFFFFFFFFFFFFFFFFFFFFFFFFFF SUB DUP3 GT ISZERO PUSH2 0x1902 JUMPI PUSH2 0x1901 PUSH2 0x1C92 JUMP JUMPDEST JUMPDEST DUP3 DUP3 ADD SWAP1 POP SWAP3 SWAP2 POP POP JUMP JUMPDEST PUSH1 0x0 DUP1 DUP3 SWAP2 POP DUP4 SWAP1 POP JUMPDEST PUSH1 0x1 DUP6 GT ISZERO PUSH2 0x1957 JUMPI DUP1 DUP7 DIV DUP2 GT ISZERO PUSH2 0x1933 JUMPI PUSH2 0x1932 PUSH2 0x1C92 JUMP JUMPDEST JUMPDEST PUSH1 0x1 DUP6 AND ISZERO PUSH2 0x1942 JUMPI DUP1 DUP3 MUL SWAP2 POP JUMPDEST DUP1 DUP2 MUL SWAP1 POP PUSH2 0x1950 DUP6 PUSH2 0x1D51 JUMP JUMPDEST SWAP5 POP PUSH2 0x1917 JUMP JUMPDEST SWAP5 POP SWAP5 SWAP3 POP POP POP JUMP JUMPDEST PUSH1 0x0 PUSH2 0x196B DUP3 PUSH2 0x1B80 JUMP JUMPDEST SWAP2 POP PUSH2 0x1976 DUP4 PUSH2 0x1B80 JUMP JUMPDEST SWAP3 POP PUSH2 0x19A3 PUSH32 0xFFFFFFFFFFFFFFFFFFFFFFFFFFFFFFFFFFFFFFFFFFFFFFFFFFFFFFFFFFFFFFFF DUP5 DUP5 PUSH2 0x19AB JUMP JUMPDEST SWAP1 POP SWAP3 SWAP2 POP POP JUMP JUMPDEST PUSH1 0x0 DUP3 PUSH2 0x19BB JUMPI PUSH1 0x1 SWAP1 POP PUSH2 0x1A77 JUMP JUMPDEST DUP2 PUSH2 0x19C9 JUMPI PUSH1 0x0 SWAP1 POP PUSH2 0x1A77 JUMP JUMPDEST DUP2 PUSH1 0x1 DUP2 EQ PUSH2 0x19DF JUMPI PUSH1 0x2 DUP2 EQ PUSH2 0x19E9 JUMPI PUSH2 0x1A18 JUMP JUMPDEST PUSH1 0x1 SWAP2 POP POP PUSH2 0x1A77 JUMP JUMPDEST PUSH1 0xFF DUP5 GT ISZERO PUSH2 0x19FB JUMPI PUSH2 0x19FA PUSH2 0x1C92 JUMP JUMPDEST JUMPDEST DUP4 PUSH1 0x2 EXP SWAP2 POP DUP5 DUP3 GT ISZERO PUSH2 0x1A12 JUMPI PUSH2 0x1A11 PUSH2 0x1C92 JUMP JUMPDEST JUMPDEST POP PUSH2 0x1A77 JUMP JUMPDEST POP PUSH1 0x20 DUP4 LT PUSH2 0x133 DUP4 LT AND PUSH1 0x4E DUP5 LT PUSH1 0xB DUP5 LT AND OR ISZERO PUSH2 0x1A4D JUMPI DUP3 DUP3 EXP SWAP1 POP DUP4 DUP2 GT ISZERO PUSH2 0x1A48 JUMPI PUSH2 0x1A47 PUSH2 0x1C92 JUMP JUMPDEST JUMPDEST PUSH2 0x1A77 JUMP JUMPDEST PUSH2 0x1A5A DUP5 DUP5 DUP5 PUSH1 0x1 PUSH2 0x190D JUMP JUMPDEST SWAP3 POP SWAP1 POP DUP2 DUP5 DIV DUP2 GT ISZERO PUSH2 0x1A71 JUMPI PUSH2 0x1A70 PUSH2 0x1C92 JUMP JUMPDEST JUMPDEST DUP2 DUP2 MUL SWAP1 POP JUMPDEST SWAP4 SWAP3 POP POP POP JUMP JUMPDEST PUSH1 0x0 PUSH2 0x1A89 DUP3 PUSH2 0x1B80 JUMP JUMPDEST SWAP2 POP PUSH2 0x1A94 DUP4 PUSH2 0x1B80 JUMP JUMPDEST SWAP3 POP DUP2 PUSH32 0xFFFFFFFFFFFFFFFFFFFFFFFFFFFFFFFFFFFFFFFFFFFFFFFFFFFFFFFFFFFFFFFF DIV DUP4 GT DUP3 ISZERO ISZERO AND ISZERO PUSH2 0x1ACD JUMPI PUSH2 0x1ACC PUSH2 0x1C92 JUMP JUMPDEST JUMPDEST DUP3 DUP3 MUL SWAP1 POP SWAP3 SWAP2 POP POP JUMP JUMPDEST PUSH1 0x0 PUSH2 0x1AE3 DUP3 PUSH2 0x1B80 JUMP JUMPDEST SWAP2 POP PUSH2 0x1AEE DUP4 PUSH2 0x1B80 JUMP JUMPDEST SWAP3 POP DUP3 DUP3 LT ISZERO PUSH2 0x1B01 JUMPI PUSH2 0x1B00 PUSH2 0x1C92 JUMP JUMPDEST JUMPDEST DUP3 DUP3 SUB SWAP1 POP SWAP3 SWAP2 POP POP JUMP JUMPDEST PUSH1 0x0 PUSH2 0x1B17 DUP3 PUSH2 0x1B60 JUMP JUMPDEST SWAP1 POP SWAP2 SWAP1 POP JUMP JUMPDEST PUSH1 0x0 DUP2 ISZERO ISZERO SWAP1 POP SWAP2 SWAP1 POP JUMP JUMPDEST PUSH1 0x0 DUP2 SWAP1 POP SWAP2 SWAP1 POP JUMP JUMPDEST PUSH1 0x0 PUSH32 0xFFFFFFFF00000000000000000000000000000000000000000000000000000000 DUP3 AND SWAP1 POP SWAP2 SWAP1 POP JUMP JUMPDEST PUSH1 0x0 PUSH20 0xFFFFFFFFFFFFFFFFFFFFFFFFFFFFFFFFFFFFFFFF DUP3 AND SWAP1 POP SWAP2 SWAP1 POP JUMP JUMPDEST PUSH1 0x0 DUP2 SWAP1 POP SWAP2 SWAP1 POP JUMP JUMPDEST PUSH1 0x0 PUSH2 0x1B95 DUP3 PUSH2 0x1B9C JUMP JUMPDEST SWAP1 POP SWAP2 SWAP1 POP JUMP JUMPDEST PUSH1 0x0 PUSH2 0x1BA7 DUP3 PUSH2 0x1BAE JUMP JUMPDEST SWAP1 POP SWAP2 SWAP1 POP JUMP JUMPDEST PUSH1 0x0 PUSH2 0x1BB9 DUP3 PUSH2 0x1B60 JUMP JUMPDEST SWAP1 POP SWAP2 SWAP1 POP JUMP JUMPDEST DUP3 DUP2 DUP4 CALLDATACOPY PUSH1 0x0 DUP4 DUP4 ADD MSTORE POP POP POP JUMP JUMPDEST PUSH1 0x0 JUMPDEST DUP4 DUP2 LT ISZERO PUSH2 0x1BED JUMPI DUP1 DUP3 ADD MLOAD DUP2 DUP5 ADD MSTORE PUSH1 0x20 DUP2 ADD SWAP1 POP PUSH2 0x1BD2 JUMP JUMPDEST DUP4 DUP2 GT ISZERO PUSH2 0x1BFC JUMPI PUSH1 0x0 DUP5 DUP5 ADD MSTORE JUMPDEST POP POP POP POP JUMP JUMPDEST PUSH2 0x1C0B DUP3 PUSH2 0x1D33 JUMP JUMPDEST DUP2 ADD DUP2 DUP2 LT PUSH8 0xFFFFFFFFFFFFFFFF DUP3 GT OR ISZERO PUSH2 0x1C2A JUMPI PUSH2 0x1C29 PUSH2 0x1CF0 JUMP JUMPDEST JUMPDEST DUP1 PUSH1 0x40 MSTORE POP POP POP JUMP JUMPDEST PUSH1 0x0 PUSH2 0x1C3E DUP3 PUSH2 0x1C45 JUMP JUMPDEST SWAP1 POP SWAP2 SWAP1 POP JUMP JUMPDEST PUSH1 0x0 PUSH2 0x1C50 DUP3 PUSH2 0x1D44 JUMP JUMPDEST SWAP1 POP SWAP2 SWAP1 POP JUMP JUMPDEST PUSH1 0x0 DUP2 SWAP1 POP SWAP2 SWAP1 POP JUMP JUMPDEST PUSH1 0x0 PUSH2 0x1C6C DUP3 PUSH2 0x1B80 JUMP JUMPDEST SWAP2 POP PUSH2 0x1C77 DUP4 PUSH2 0x1B80 JUMP JUMPDEST SWAP3 POP DUP3 PUSH2 0x1C87 JUMPI PUSH2 0x1C86 PUSH2 0x1CC1 JUMP JUMPDEST JUMPDEST DUP3 DUP3 MOD SWAP1 POP SWAP3 SWAP2 POP POP JUMP JUMPDEST PUSH32 0x4E487B7100000000000000000000000000000000000000000000000000000000 PUSH1 0x0 MSTORE PUSH1 0x11 PUSH1 0x4 MSTORE PUSH1 0x24 PUSH1 0x0 REVERT JUMPDEST PUSH32 0x4E487B7100000000000000000000000000000000000000000000000000000000 PUSH1 0x0 MSTORE PUSH1 0x12 PUSH1 0x4 MSTORE PUSH1 0x24 PUSH1 0x0 REVERT JUMPDEST PUSH32 0x4E487B7100000000000000000000000000000000000000000000000000000000 PUSH1 0x0 MSTORE PUSH1 0x41 PUSH1 0x4 MSTORE PUSH1 0x24 PUSH1 0x0 REVERT JUMPDEST PUSH1 0x0 DUP1 REVERT JUMPDEST PUSH1 0x0 DUP1 REVERT JUMPDEST PUSH1 0x0 DUP1 REVERT JUMPDEST PUSH1 0x0 DUP1 REVERT JUMPDEST PUSH1 0x0 PUSH1 0x1F NOT PUSH1 0x1F DUP4 ADD AND SWAP1 POP SWAP2 SWAP1 POP JUMP JUMPDEST PUSH1 0x0 DUP2 PUSH1 0x60 SHL SWAP1 POP SWAP2 SWAP1 POP JUMP JUMPDEST PUSH1 0x0 DUP2 PUSH1 0x1 SHR SWAP1 POP SWAP2 SWAP1 POP JUMP JUMPDEST PUSH32 0x756E61626C6520746F207472616E73666572416E6443616C6C20746F206F7261 PUSH1 0x0 DUP3 ADD MSTORE PUSH32 0x636C650000000000000000000000000000000000000000000000000000000000 PUSH1 0x20 DUP3 ADD MSTORE POP JUMP JUMPDEST PUSH32 0x536F75726365206D75737420626520746865206F7261636C65206F6620746865 PUSH1 0x0 DUP3 ADD MSTORE PUSH32 0x2072657175657374000000000000000000000000000000000000000000000000 PUSH1 0x20 DUP3 ADD MSTORE POP JUMP JUMPDEST PUSH2 0x1E05 DUP2 PUSH2 0x1B1E JUMP JUMPDEST DUP2 EQ PUSH2 0x1E10 JUMPI PUSH1 0x0 DUP1 REVERT JUMPDEST POP JUMP JUMPDEST PUSH2 0x1E1C DUP2 PUSH2 0x1B2A JUMP JUMPDEST DUP2 EQ PUSH2 0x1E27 JUMPI PUSH1 0x0 DUP1 REVERT JUMPDEST POP JUMP JUMPDEST PUSH2 0x1E33 DUP2 PUSH2 0x1B80 JUMP JUMPDEST DUP2 EQ PUSH2 0x1E3E JUMPI PUSH1 0x0 DUP1 REVERT JUMPDEST POP JUMP INVALID LOG2 PUSH5 0x6970667358 0x22 SLT KECCAK256 EQ 0xBC SWAP6 DUP1 0xB4 0x4F 0xF8 0xC0 CODECOPY SWAP4 0x2B CHAINID 0x5C 0xB7 PUSH10 0x252C137100967A1015C1 PUSH23 0x96119C86066264736F6C63430008070033000000000000 "
		},
		"gasEstimates": {
			"creation": {
				"codeDepositCost": "1559800",
				"executionCost": "infinite",
				"totalCost": "infinite"
			},
			"external": {
				"avgTemp()": "2518",
				"avgTempJobId()": "2451",
				"fee()": "2517",
				"fulfillAvgTemp(bytes32,uint256)": "infinite",
				"fulfillHail(bytes32,uint256)": "infinite",
				"fulfillTotalRain(bytes32,uint256)": "infinite",
				"hail()": "2496",
				"hailJobId()": "2474",
				"requestAvgTemp(string,string)": "infinite",
				"requestHail(string,string)": "infinite",
				"requestTotalRain(string,string)": "infinite",
				"totalRain()": "2452",
				"totalRainJobId()": "2473"
			}
		},
		"methodIdentifiers": {
			"avgTemp()": "6aead4a3",
			"avgTempJobId()": "c70d4391",
			"fee()": "ddca3f43",
			"fulfillAvgTemp(bytes32,uint256)": "2a3508dc",
			"fulfillHail(bytes32,uint256)": "38171947",
			"fulfillTotalRain(bytes32,uint256)": "05efce06",
			"hail()": "bf5be35a",
			"hailJobId()": "bdcc616e",
			"requestAvgTemp(string,string)": "7c4d50ad",
			"requestHail(string,string)": "ce4316a5",
			"requestTotalRain(string,string)": "446bf1e3",
			"totalRain()": "a5236370",
			"totalRainJobId()": "c95fa3c9"
		}
	},
	"abi": [
		{
			"inputs": [
				{
					"internalType": "address",
					"name": "_link",
					"type": "address"
				},
				{
					"internalType": "address",
					"name": "_oracle",
					"type": "address"
				},
				{
					"internalType": "bytes32",
					"name": "_avgTempJobId",
					"type": "bytes32"
				},
				{
					"internalType": "bytes32",
					"name": "_totalRainJobId",
					"type": "bytes32"
				},
				{
					"internalType": "bytes32",
					"name": "_hailJobId",
					"type": "bytes32"
				},
				{
					"internalType": "uint256",
					"name": "_fee",
					"type": "uint256"
				}
			],
			"stateMutability": "nonpayable",
			"type": "constructor"
		},
		{
			"anonymous": false,
			"inputs": [
				{
					"indexed": false,
					"internalType": "uint256",
					"name": "_result",
					"type": "uint256"
				}
			],
			"name": "AvgTemp",
			"type": "event"
		},
		{
			"anonymous": false,
			"inputs": [
				{
					"indexed": true,
					"internalType": "bytes32",
					"name": "id",
					"type": "bytes32"
				}
			],
			"name": "ChainlinkCancelled",
			"type": "event"
		},
		{
			"anonymous": false,
			"inputs": [
				{
					"indexed": true,
					"internalType": "bytes32",
					"name": "id",
					"type": "bytes32"
				}
			],
			"name": "ChainlinkFulfilled",
			"type": "event"
		},
		{
			"anonymous": false,
			"inputs": [
				{
					"indexed": true,
					"internalType": "bytes32",
					"name": "id",
					"type": "bytes32"
				}
			],
			"name": "ChainlinkRequested",
			"type": "event"
		},
		{
			"anonymous": false,
			"inputs": [
				{
					"indexed": false,
					"internalType": "uint256",
					"name": "_result",
					"type": "uint256"
				}
			],
			"name": "Hail",
			"type": "event"
		},
		{
			"anonymous": false,
			"inputs": [
				{
					"indexed": false,
					"internalType": "uint256",
					"name": "_result",
					"type": "uint256"
				}
			],
			"name": "TotalRain",
			"type": "event"
		},
		{
			"inputs": [],
			"name": "avgTemp",
			"outputs": [
				{
					"internalType": "uint256",
					"name": "",
					"type": "uint256"
				}
			],
			"stateMutability": "view",
			"type": "function"
		},
		{
			"inputs": [],
			"name": "avgTempJobId",
			"outputs": [
				{
					"internalType": "bytes32",
					"name": "",
					"type": "bytes32"
				}
			],
			"stateMutability": "view",
			"type": "function"
		},
		{
			"inputs": [],
			"name": "fee",
			"outputs": [
				{
					"internalType": "uint256",
					"name": "",
					"type": "uint256"
				}
			],
			"stateMutability": "view",
			"type": "function"
		},
		{
			"inputs": [
				{
					"internalType": "bytes32",
					"name": "_requestId",
					"type": "bytes32"
				},
				{
					"internalType": "uint256",
					"name": "_result",
					"type": "uint256"
				}
			],
			"name": "fulfillAvgTemp",
			"outputs": [],
			"stateMutability": "nonpayable",
			"type": "function"
		},
		{
			"inputs": [
				{
					"internalType": "bytes32",
					"name": "_requestId",
					"type": "bytes32"
				},
				{
					"internalType": "uint256",
					"name": "_result",
					"type": "uint256"
				}
			],
			"name": "fulfillHail",
			"outputs": [],
			"stateMutability": "nonpayable",
			"type": "function"
		},
		{
			"inputs": [
				{
					"internalType": "bytes32",
					"name": "_requestId",
					"type": "bytes32"
				},
				{
					"internalType": "uint256",
					"name": "_result",
					"type": "uint256"
				}
			],
			"name": "fulfillTotalRain",
			"outputs": [],
			"stateMutability": "nonpayable",
			"type": "function"
		},
		{
			"inputs": [],
			"name": "hail",
			"outputs": [
				{
					"internalType": "uint256",
					"name": "",
					"type": "uint256"
				}
			],
			"stateMutability": "view",
			"type": "function"
		},
		{
			"inputs": [],
			"name": "hailJobId",
			"outputs": [
				{
					"internalType": "bytes32",
					"name": "",
					"type": "bytes32"
				}
			],
			"stateMutability": "view",
			"type": "function"
		},
		{
			"inputs": [
				{
					"internalType": "string",
					"name": "_from",
					"type": "string"
				},
				{
					"internalType": "string",
					"name": "_to",
					"type": "string"
				}
			],
			"name": "requestAvgTemp",
			"outputs": [],
			"stateMutability": "nonpayable",
			"type": "function"
		},
		{
			"inputs": [
				{
					"internalType": "string",
					"name": "_from",
					"type": "string"
				},
				{
					"internalType": "string",
					"name": "_to",
					"type": "string"
				}
			],
			"name": "requestHail",
			"outputs": [],
			"stateMutability": "nonpayable",
			"type": "function"
		},
		{
			"inputs": [
				{
					"internalType": "string",
					"name": "_from",
					"type": "string"
				},
				{
					"internalType": "string",
					"name": "_to",
					"type": "string"
				}
			],
			"name": "requestTotalRain",
			"outputs": [],
			"stateMutability": "nonpayable",
			"type": "function"
		},
		{
			"inputs": [],
			"name": "totalRain",
			"outputs": [
				{
					"internalType": "uint256",
					"name": "",
					"type": "uint256"
				}
			],
			"stateMutability": "view",
			"type": "function"
		},
		{
			"inputs": [],
			"name": "totalRainJobId",
			"outputs": [
				{
					"internalType": "bytes32",
					"name": "",
					"type": "bytes32"
				}
			],
			"stateMutability": "view",
			"type": "function"
		}
	]
}