{
	"data": {
		"bytecode": {
			"linkReferences": {},
			"object": "608060405234801561001057600080fd5b5060405161046438038061046483398181016040528101906100329190610054565b80600281905550506100a7565b60008151905061004e81610090565b92915050565b60006020828403121561006a5761006961008b565b5b60006100788482850161003f565b91505092915050565b6000819050919050565b600080fd5b61009981610081565b81146100a457600080fd5b50565b6103ae806100b66000396000f3fe608060405234801561001057600080fd5b506004361061004c5760003560e01c806391571df014610051578063a3d606451461006d578063a8e5e2191461009d578063aa2c6636146100cd575b600080fd5b61006b60048036038101906100669190610203565b6100e9565b005b610087600480360381019061008291906101d6565b610142565b604051610094919061027c565b60405180910390f35b6100b760048036038101906100b291906101d6565b61015a565b6040516100c49190610261565b60405180910390f35b6100e760048036038101906100e29190610203565b61017a565b005b7fcb15c0bcfc2eef262956a089f66b8a2d6bd91a0d1020c3bd0371918b5d9b4a1a828260025460405161011e93929190610297565b60405180910390a160026000815480929190610139906102e4565b91905055505050565b60016020528060005260406000206000915090505481565b60006020528060005260406000206000915054906101000a900460ff1681565b816001600083815260200190815260200160002081905550600160008083815260200190815260200160002060006101000a81548160ff0219169083151502179055505050565b6000813590506101d081610361565b92915050565b6000602082840312156101ec576101eb61035c565b5b60006101fa848285016101c1565b91505092915050565b6000806040838503121561021a5761021961035c565b5b6000610228858286016101c1565b9250506020610239858286016101c1565b9150509250929050565b61024c816102ce565b82525050565b61025b816102da565b82525050565b60006020820190506102766000830184610243565b92915050565b60006020820190506102916000830184610252565b92915050565b60006060820190506102ac6000830186610252565b6102b96020830185610252565b6102c66040830184610252565b949350505050565b60008115159050919050565b6000819050919050565b60006102ef826102da565b91507fffffffffffffffffffffffffffffffffffffffffffffffffffffffffffffffff8214156103225761032161032d565b5b600182019050919050565b7f4e487b7100000000000000000000000000000000000000000000000000000000600052601160045260246000fd5b600080fd5b61036a816102da565b811461037557600080fd5b5056fea2646970667358221220239a02c12c339405f518906db71cc3f5f6a0af7100cfa5444bb78b9f76695e2c64736f6c63430008070033",
			"opcodes": "PUSH1 0x80 PUSH1 0x40 MSTORE CALLVALUE DUP1 ISZERO PUSH2 0x10 JUMPI PUSH1 0x0 DUP1 REVERT JUMPDEST POP PUSH1 0x40 MLOAD PUSH2 0x464 CODESIZE SUB DUP1 PUSH2 0x464 DUP4 CODECOPY DUP2 DUP2 ADD PUSH1 0x40 MSTORE DUP2 ADD SWAP1 PUSH2 0x32 SWAP2 SWAP1 PUSH2 0x54 JUMP JUMPDEST DUP1 PUSH1 0x2 DUP2 SWAP1 SSTORE POP POP PUSH2 0xA7 JUMP JUMPDEST PUSH1 0x0 DUP2 MLOAD SWAP1 POP PUSH2 0x4E DUP2 PUSH2 0x90 JUMP JUMPDEST SWAP3 SWAP2 POP POP JUMP JUMPDEST PUSH1 0x0 PUSH1 0x20 DUP3 DUP5 SUB SLT ISZERO PUSH2 0x6A JUMPI PUSH2 0x69 PUSH2 0x8B JUMP JUMPDEST JUMPDEST PUSH1 0x0 PUSH2 0x78 DUP5 DUP3 DUP6 ADD PUSH2 0x3F JUMP JUMPDEST SWAP2 POP POP SWAP3 SWAP2 POP POP JUMP JUMPDEST PUSH1 0x0 DUP2 SWAP1 POP SWAP2 SWAP1 POP JUMP JUMPDEST PUSH1 0x0 DUP1 REVERT JUMPDEST PUSH2 0x99 DUP2 PUSH2 0x81 JUMP JUMPDEST DUP2 EQ PUSH2 0xA4 JUMPI PUSH1 0x0 DUP1 REVERT JUMPDEST POP JUMP JUMPDEST PUSH2 0x3AE DUP1 PUSH2 0xB6 PUSH1 0x0 CODECOPY PUSH1 0x0 RETURN INVALID PUSH1 0x80 PUSH1 0x40 MSTORE CALLVALUE DUP1 ISZERO PUSH2 0x10 JUMPI PUSH1 0x0 DUP1 REVERT JUMPDEST POP PUSH1 0x4 CALLDATASIZE LT PUSH2 0x4C JUMPI PUSH1 0x0 CALLDATALOAD PUSH1 0xE0 SHR DUP1 PUSH4 0x91571DF0 EQ PUSH2 0x51 JUMPI DUP1 PUSH4 0xA3D60645 EQ PUSH2 0x6D JUMPI DUP1 PUSH4 0xA8E5E219 EQ PUSH2 0x9D JUMPI DUP1 PUSH4 0xAA2C6636 EQ PUSH2 0xCD JUMPI JUMPDEST PUSH1 0x0 DUP1 REVERT JUMPDEST PUSH2 0x6B PUSH1 0x4 DUP1 CALLDATASIZE SUB DUP2 ADD SWAP1 PUSH2 0x66 SWAP2 SWAP1 PUSH2 0x203 JUMP JUMPDEST PUSH2 0xE9 JUMP JUMPDEST STOP JUMPDEST PUSH2 0x87 PUSH1 0x4 DUP1 CALLDATASIZE SUB DUP2 ADD SWAP1 PUSH2 0x82 SWAP2 SWAP1 PUSH2 0x1D6 JUMP JUMPDEST PUSH2 0x142 JUMP JUMPDEST PUSH1 0x40 MLOAD PUSH2 0x94 SWAP2 SWAP1 PUSH2 0x27C JUMP JUMPDEST PUSH1 0x40 MLOAD DUP1 SWAP2 SUB SWAP1 RETURN JUMPDEST PUSH2 0xB7 PUSH1 0x4 DUP1 CALLDATASIZE SUB DUP2 ADD SWAP1 PUSH2 0xB2 SWAP2 SWAP1 PUSH2 0x1D6 JUMP JUMPDEST PUSH2 0x15A JUMP JUMPDEST PUSH1 0x40 MLOAD PUSH2 0xC4 SWAP2 SWAP1 PUSH2 0x261 JUMP JUMPDEST PUSH1 0x40 MLOAD DUP1 SWAP2 SUB SWAP1 RETURN JUMPDEST PUSH2 0xE7 PUSH1 0x4 DUP1 CALLDATASIZE SUB DUP2 ADD SWAP1 PUSH2 0xE2 SWAP2 SWAP1 PUSH2 0x203 JUMP JUMPDEST PUSH2 0x17A JUMP JUMPDEST STOP JUMPDEST PUSH32 0xCB15C0BCFC2EEF262956A089F66B8A2D6BD91A0D1020C3BD0371918B5D9B4A1A DUP3 DUP3 PUSH1 0x2 SLOAD PUSH1 0x40 MLOAD PUSH2 0x11E SWAP4 SWAP3 SWAP2 SWAP1 PUSH2 0x297 JUMP JUMPDEST PUSH1 0x40 MLOAD DUP1 SWAP2 SUB SWAP1 LOG1 PUSH1 0x2 PUSH1 0x0 DUP2 SLOAD DUP1 SWAP3 SWAP2 SWAP1 PUSH2 0x139 SWAP1 PUSH2 0x2E4 JUMP JUMPDEST SWAP2 SWAP1 POP SSTORE POP POP POP JUMP JUMPDEST PUSH1 0x1 PUSH1 0x20 MSTORE DUP1 PUSH1 0x0 MSTORE PUSH1 0x40 PUSH1 0x0 KECCAK256 PUSH1 0x0 SWAP2 POP SWAP1 POP SLOAD DUP2 JUMP JUMPDEST PUSH1 0x0 PUSH1 0x20 MSTORE DUP1 PUSH1 0x0 MSTORE PUSH1 0x40 PUSH1 0x0 KECCAK256 PUSH1 0x0 SWAP2 POP SLOAD SWAP1 PUSH2 0x100 EXP SWAP1 DIV PUSH1 0xFF AND DUP2 JUMP JUMPDEST DUP2 PUSH1 0x1 PUSH1 0x0 DUP4 DUP2 MSTORE PUSH1 0x20 ADD SWAP1 DUP2 MSTORE PUSH1 0x20 ADD PUSH1 0x0 KECCAK256 DUP2 SWAP1 SSTORE POP PUSH1 0x1 PUSH1 0x0 DUP1 DUP4 DUP2 MSTORE PUSH1 0x20 ADD SWAP1 DUP2 MSTORE PUSH1 0x20 ADD PUSH1 0x0 KECCAK256 PUSH1 0x0 PUSH2 0x100 EXP DUP2 SLOAD DUP2 PUSH1 0xFF MUL NOT AND SWAP1 DUP4 ISZERO ISZERO MUL OR SWAP1 SSTORE POP POP POP JUMP JUMPDEST PUSH1 0x0 DUP2 CALLDATALOAD SWAP1 POP PUSH2 0x1D0 DUP2 PUSH2 0x361 JUMP JUMPDEST SWAP3 SWAP2 POP POP JUMP JUMPDEST PUSH1 0x0 PUSH1 0x20 DUP3 DUP5 SUB SLT ISZERO PUSH2 0x1EC JUMPI PUSH2 0x1EB PUSH2 0x35C JUMP JUMPDEST JUMPDEST PUSH1 0x0 PUSH2 0x1FA DUP5 DUP3 DUP6 ADD PUSH2 0x1C1 JUMP JUMPDEST SWAP2 POP POP SWAP3 SWAP2 POP POP JUMP JUMPDEST PUSH1 0x0 DUP1 PUSH1 0x40 DUP4 DUP6 SUB SLT ISZERO PUSH2 0x21A JUMPI PUSH2 0x219 PUSH2 0x35C JUMP JUMPDEST JUMPDEST PUSH1 0x0 PUSH2 0x228 DUP6 DUP3 DUP7 ADD PUSH2 0x1C1 JUMP JUMPDEST SWAP3 POP POP PUSH1 0x20 PUSH2 0x239 DUP6 DUP3 DUP7 ADD PUSH2 0x1C1 JUMP JUMPDEST SWAP2 POP POP SWAP3 POP SWAP3 SWAP1 POP JUMP JUMPDEST PUSH2 0x24C DUP2 PUSH2 0x2CE JUMP JUMPDEST DUP3 MSTORE POP POP JUMP JUMPDEST PUSH2 0x25B DUP2 PUSH2 0x2DA JUMP JUMPDEST DUP3 MSTORE POP POP JUMP JUMPDEST PUSH1 0x0 PUSH1 0x20 DUP3 ADD SWAP1 POP PUSH2 0x276 PUSH1 0x0 DUP4 ADD DUP5 PUSH2 0x243 JUMP JUMPDEST SWAP3 SWAP2 POP POP JUMP JUMPDEST PUSH1 0x0 PUSH1 0x20 DUP3 ADD SWAP1 POP PUSH2 0x291 PUSH1 0x0 DUP4 ADD DUP5 PUSH2 0x252 JUMP JUMPDEST SWAP3 SWAP2 POP POP JUMP JUMPDEST PUSH1 0x0 PUSH1 0x60 DUP3 ADD SWAP1 POP PUSH2 0x2AC PUSH1 0x0 DUP4 ADD DUP7 PUSH2 0x252 JUMP JUMPDEST PUSH2 0x2B9 PUSH1 0x20 DUP4 ADD DUP6 PUSH2 0x252 JUMP JUMPDEST PUSH2 0x2C6 PUSH1 0x40 DUP4 ADD DUP5 PUSH2 0x252 JUMP JUMPDEST SWAP5 SWAP4 POP POP POP POP JUMP JUMPDEST PUSH1 0x0 DUP2 ISZERO ISZERO SWAP1 POP SWAP2 SWAP1 POP JUMP JUMPDEST PUSH1 0x0 DUP2 SWAP1 POP SWAP2 SWAP1 POP JUMP JUMPDEST PUSH1 0x0 PUSH2 0x2EF DUP3 PUSH2 0x2DA JUMP JUMPDEST SWAP2 POP PUSH32 0xFFFFFFFFFFFFFFFFFFFFFFFFFFFFFFFFFFFFFFFFFFFFFFFFFFFFFFFFFFFFFFFF DUP3 EQ ISZERO PUSH2 0x322 JUMPI PUSH2 0x321 PUSH2 0x32D JUMP JUMPDEST JUMPDEST PUSH1 0x1 DUP3 ADD SWAP1 POP SWAP2 SWAP1 POP JUMP JUMPDEST PUSH32 0x4E487B7100000000000000000000000000000000000000000000000000000000 PUSH1 0x0 MSTORE PUSH1 0x11 PUSH1 0x4 MSTORE PUSH1 0x24 PUSH1 0x0 REVERT JUMPDEST PUSH1 0x0 DUP1 REVERT JUMPDEST PUSH2 0x36A DUP2 PUSH2 0x2DA JUMP JUMPDEST DUP2 EQ PUSH2 0x375 JUMPI PUSH1 0x0 DUP1 REVERT JUMPDEST POP JUMP INVALID LOG2 PUSH5 0x6970667358 0x22 SLT KECCAK256 0x23 SWAP11 MUL 0xC1 0x2C CALLER SWAP5 SDIV CREATE2 XOR SWAP1 PUSH14 0xB71CC3F5F6A0AF7100CFA5444BB7 DUP12 SWAP16 PUSH23 0x695E2C64736F6C63430008070033000000000000000000 "
		},
		"gasEstimates": {
			"creation": {
				"codeDepositCost": "188400",
				"executionCost": "infinite",
				"totalCost": "infinite"
			},
			"external": {
				"getWeather(uint256,uint256)": "infinite",
				"jobResults(uint256)": "infinite",
				"jobStatus(uint256)": "2818",
				"updateWeather(uint256,uint256)": "infinite"
			}
		},
		"methodIdentifiers": {
			"getWeather(uint256,uint256)": "91571df0",
			"jobResults(uint256)": "a3d60645",
			"jobStatus(uint256)": "a8e5e219",
			"updateWeather(uint256,uint256)": "aa2c6636"
		}
	},
	"abi": [
		{
			"inputs": [
				{
					"internalType": "uint256",
					"name": "initialId",
					"type": "uint256"
				}
			],
			"stateMutability": "nonpayable",
			"type": "constructor"
		},
		{
			"anonymous": false,
			"inputs": [
				{
					"indexed": false,
					"internalType": "uint256",
					"name": "lat",
					"type": "uint256"
				},
				{
					"indexed": false,
					"internalType": "uint256",
					"name": "lon",
					"type": "uint256"
				},
				{
					"indexed": false,
					"internalType": "uint256",
					"name": "jobId",
					"type": "uint256"
				}
			],
			"name": "NewJob",
			"type": "event"
		},
		{
			"inputs": [
				{
					"internalType": "uint256",
					"name": "lat",
					"type": "uint256"
				},
				{
					"internalType": "uint256",
					"name": "lon",
					"type": "uint256"
				}
			],
			"name": "getWeather",
			"outputs": [],
			"stateMutability": "nonpayable",
			"type": "function"
		},
		{
			"inputs": [
				{
					"internalType": "uint256",
					"name": "",
					"type": "uint256"
				}
			],
			"name": "jobResults",
			"outputs": [
				{
					"internalType": "uint256",
					"name": "",
					"type": "uint256"
				}
			],
			"stateMutability": "view",
			"type": "function"
		},
		{
			"inputs": [
				{
					"internalType": "uint256",
					"name": "",
					"type": "uint256"
				}
			],
			"name": "jobStatus",
			"outputs": [
				{
					"internalType": "bool",
					"name": "",
					"type": "bool"
				}
			],
			"stateMutability": "view",
			"type": "function"
		},
		{
			"inputs": [
				{
					"internalType": "uint256",
					"name": "temp",
					"type": "uint256"
				},
				{
					"internalType": "uint256",
					"name": "_jobId",
					"type": "uint256"
				}
			],
			"name": "updateWeather",
			"outputs": [],
			"stateMutability": "nonpayable",
			"type": "function"
		}
	]
}