{
	"data": {
		"bytecode": {
			"linkReferences": {},
			"object": "608060405234801561001057600080fd5b506040516104633803806104638339818101604052810190610032919061007a565b80600281905550506100a7565b600080fd5b6000819050919050565b61005781610044565b811461006257600080fd5b50565b6000815190506100748161004e565b92915050565b6000602082840312156100905761008f61003f565b5b600061009e84828501610065565b91505092915050565b6103ad806100b66000396000f3fe608060405234801561001057600080fd5b506004361061004c5760003560e01c806391571df014610051578063a3d606451461006d578063a8e5e2191461009d578063aa2c6636146100cd575b600080fd5b61006b600480360381019061006691906101fc565b6100e9565b005b6100876004803603810190610082919061023c565b610142565b6040516100949190610278565b60405180910390f35b6100b760048036038101906100b2919061023c565b61015a565b6040516100c491906102ae565b60405180910390f35b6100e760048036038101906100e291906101fc565b61017a565b005b7fcb15c0bcfc2eef262956a089f66b8a2d6bd91a0d1020c3bd0371918b5d9b4a1a828260025460405161011e939291906102c9565b60405180910390a1600260008154809291906101399061032f565b91905055505050565b60016020528060005260406000206000915090505481565b60006020528060005260406000206000915054906101000a900460ff1681565b816001600083815260200190815260200160002081905550600160008083815260200190815260200160002060006101000a81548160ff0219169083151502179055505050565b600080fd5b6000819050919050565b6101d9816101c6565b81146101e457600080fd5b50565b6000813590506101f6816101d0565b92915050565b60008060408385031215610213576102126101c1565b5b6000610221858286016101e7565b9250506020610232858286016101e7565b9150509250929050565b600060208284031215610252576102516101c1565b5b6000610260848285016101e7565b91505092915050565b610272816101c6565b82525050565b600060208201905061028d6000830184610269565b92915050565b60008115159050919050565b6102a881610293565b82525050565b60006020820190506102c3600083018461029f565b92915050565b60006060820190506102de6000830186610269565b6102eb6020830185610269565b6102f86040830184610269565b949350505050565b7f4e487b7100000000000000000000000000000000000000000000000000000000600052601160045260246000fd5b600061033a826101c6565b91507fffffffffffffffffffffffffffffffffffffffffffffffffffffffffffffffff820361036c5761036b610300565b5b60018201905091905056fea2646970667358221220ad4e8995f0b050d59593041d05fdec74faa9389343a714c9a7898eda1afb293564736f6c63430008110033",
			"opcodes": "PUSH1 0x80 PUSH1 0x40 MSTORE CALLVALUE DUP1 ISZERO PUSH2 0x10 JUMPI PUSH1 0x0 DUP1 REVERT JUMPDEST POP PUSH1 0x40 MLOAD PUSH2 0x463 CODESIZE SUB DUP1 PUSH2 0x463 DUP4 CODECOPY DUP2 DUP2 ADD PUSH1 0x40 MSTORE DUP2 ADD SWAP1 PUSH2 0x32 SWAP2 SWAP1 PUSH2 0x7A JUMP JUMPDEST DUP1 PUSH1 0x2 DUP2 SWAP1 SSTORE POP POP PUSH2 0xA7 JUMP JUMPDEST PUSH1 0x0 DUP1 REVERT JUMPDEST PUSH1 0x0 DUP2 SWAP1 POP SWAP2 SWAP1 POP JUMP JUMPDEST PUSH2 0x57 DUP2 PUSH2 0x44 JUMP JUMPDEST DUP2 EQ PUSH2 0x62 JUMPI PUSH1 0x0 DUP1 REVERT JUMPDEST POP JUMP JUMPDEST PUSH1 0x0 DUP2 MLOAD SWAP1 POP PUSH2 0x74 DUP2 PUSH2 0x4E JUMP JUMPDEST SWAP3 SWAP2 POP POP JUMP JUMPDEST PUSH1 0x0 PUSH1 0x20 DUP3 DUP5 SUB SLT ISZERO PUSH2 0x90 JUMPI PUSH2 0x8F PUSH2 0x3F JUMP JUMPDEST JUMPDEST PUSH1 0x0 PUSH2 0x9E DUP5 DUP3 DUP6 ADD PUSH2 0x65 JUMP JUMPDEST SWAP2 POP POP SWAP3 SWAP2 POP POP JUMP JUMPDEST PUSH2 0x3AD DUP1 PUSH2 0xB6 PUSH1 0x0 CODECOPY PUSH1 0x0 RETURN INVALID PUSH1 0x80 PUSH1 0x40 MSTORE CALLVALUE DUP1 ISZERO PUSH2 0x10 JUMPI PUSH1 0x0 DUP1 REVERT JUMPDEST POP PUSH1 0x4 CALLDATASIZE LT PUSH2 0x4C JUMPI PUSH1 0x0 CALLDATALOAD PUSH1 0xE0 SHR DUP1 PUSH4 0x91571DF0 EQ PUSH2 0x51 JUMPI DUP1 PUSH4 0xA3D60645 EQ PUSH2 0x6D JUMPI DUP1 PUSH4 0xA8E5E219 EQ PUSH2 0x9D JUMPI DUP1 PUSH4 0xAA2C6636 EQ PUSH2 0xCD JUMPI JUMPDEST PUSH1 0x0 DUP1 REVERT JUMPDEST PUSH2 0x6B PUSH1 0x4 DUP1 CALLDATASIZE SUB DUP2 ADD SWAP1 PUSH2 0x66 SWAP2 SWAP1 PUSH2 0x1FC JUMP JUMPDEST PUSH2 0xE9 JUMP JUMPDEST STOP JUMPDEST PUSH2 0x87 PUSH1 0x4 DUP1 CALLDATASIZE SUB DUP2 ADD SWAP1 PUSH2 0x82 SWAP2 SWAP1 PUSH2 0x23C JUMP JUMPDEST PUSH2 0x142 JUMP JUMPDEST PUSH1 0x40 MLOAD PUSH2 0x94 SWAP2 SWAP1 PUSH2 0x278 JUMP JUMPDEST PUSH1 0x40 MLOAD DUP1 SWAP2 SUB SWAP1 RETURN JUMPDEST PUSH2 0xB7 PUSH1 0x4 DUP1 CALLDATASIZE SUB DUP2 ADD SWAP1 PUSH2 0xB2 SWAP2 SWAP1 PUSH2 0x23C JUMP JUMPDEST PUSH2 0x15A JUMP JUMPDEST PUSH1 0x40 MLOAD PUSH2 0xC4 SWAP2 SWAP1 PUSH2 0x2AE JUMP JUMPDEST PUSH1 0x40 MLOAD DUP1 SWAP2 SUB SWAP1 RETURN JUMPDEST PUSH2 0xE7 PUSH1 0x4 DUP1 CALLDATASIZE SUB DUP2 ADD SWAP1 PUSH2 0xE2 SWAP2 SWAP1 PUSH2 0x1FC JUMP JUMPDEST PUSH2 0x17A JUMP JUMPDEST STOP JUMPDEST PUSH32 0xCB15C0BCFC2EEF262956A089F66B8A2D6BD91A0D1020C3BD0371918B5D9B4A1A DUP3 DUP3 PUSH1 0x2 SLOAD PUSH1 0x40 MLOAD PUSH2 0x11E SWAP4 SWAP3 SWAP2 SWAP1 PUSH2 0x2C9 JUMP JUMPDEST PUSH1 0x40 MLOAD DUP1 SWAP2 SUB SWAP1 LOG1 PUSH1 0x2 PUSH1 0x0 DUP2 SLOAD DUP1 SWAP3 SWAP2 SWAP1 PUSH2 0x139 SWAP1 PUSH2 0x32F JUMP JUMPDEST SWAP2 SWAP1 POP SSTORE POP POP POP JUMP JUMPDEST PUSH1 0x1 PUSH1 0x20 MSTORE DUP1 PUSH1 0x0 MSTORE PUSH1 0x40 PUSH1 0x0 KECCAK256 PUSH1 0x0 SWAP2 POP SWAP1 POP SLOAD DUP2 JUMP JUMPDEST PUSH1 0x0 PUSH1 0x20 MSTORE DUP1 PUSH1 0x0 MSTORE PUSH1 0x40 PUSH1 0x0 KECCAK256 PUSH1 0x0 SWAP2 POP SLOAD SWAP1 PUSH2 0x100 EXP SWAP1 DIV PUSH1 0xFF AND DUP2 JUMP JUMPDEST DUP2 PUSH1 0x1 PUSH1 0x0 DUP4 DUP2 MSTORE PUSH1 0x20 ADD SWAP1 DUP2 MSTORE PUSH1 0x20 ADD PUSH1 0x0 KECCAK256 DUP2 SWAP1 SSTORE POP PUSH1 0x1 PUSH1 0x0 DUP1 DUP4 DUP2 MSTORE PUSH1 0x20 ADD SWAP1 DUP2 MSTORE PUSH1 0x20 ADD PUSH1 0x0 KECCAK256 PUSH1 0x0 PUSH2 0x100 EXP DUP2 SLOAD DUP2 PUSH1 0xFF MUL NOT AND SWAP1 DUP4 ISZERO ISZERO MUL OR SWAP1 SSTORE POP POP POP JUMP JUMPDEST PUSH1 0x0 DUP1 REVERT JUMPDEST PUSH1 0x0 DUP2 SWAP1 POP SWAP2 SWAP1 POP JUMP JUMPDEST PUSH2 0x1D9 DUP2 PUSH2 0x1C6 JUMP JUMPDEST DUP2 EQ PUSH2 0x1E4 JUMPI PUSH1 0x0 DUP1 REVERT JUMPDEST POP JUMP JUMPDEST PUSH1 0x0 DUP2 CALLDATALOAD SWAP1 POP PUSH2 0x1F6 DUP2 PUSH2 0x1D0 JUMP JUMPDEST SWAP3 SWAP2 POP POP JUMP JUMPDEST PUSH1 0x0 DUP1 PUSH1 0x40 DUP4 DUP6 SUB SLT ISZERO PUSH2 0x213 JUMPI PUSH2 0x212 PUSH2 0x1C1 JUMP JUMPDEST JUMPDEST PUSH1 0x0 PUSH2 0x221 DUP6 DUP3 DUP7 ADD PUSH2 0x1E7 JUMP JUMPDEST SWAP3 POP POP PUSH1 0x20 PUSH2 0x232 DUP6 DUP3 DUP7 ADD PUSH2 0x1E7 JUMP JUMPDEST SWAP2 POP POP SWAP3 POP SWAP3 SWAP1 POP JUMP JUMPDEST PUSH1 0x0 PUSH1 0x20 DUP3 DUP5 SUB SLT ISZERO PUSH2 0x252 JUMPI PUSH2 0x251 PUSH2 0x1C1 JUMP JUMPDEST JUMPDEST PUSH1 0x0 PUSH2 0x260 DUP5 DUP3 DUP6 ADD PUSH2 0x1E7 JUMP JUMPDEST SWAP2 POP POP SWAP3 SWAP2 POP POP JUMP JUMPDEST PUSH2 0x272 DUP2 PUSH2 0x1C6 JUMP JUMPDEST DUP3 MSTORE POP POP JUMP JUMPDEST PUSH1 0x0 PUSH1 0x20 DUP3 ADD SWAP1 POP PUSH2 0x28D PUSH1 0x0 DUP4 ADD DUP5 PUSH2 0x269 JUMP JUMPDEST SWAP3 SWAP2 POP POP JUMP JUMPDEST PUSH1 0x0 DUP2 ISZERO ISZERO SWAP1 POP SWAP2 SWAP1 POP JUMP JUMPDEST PUSH2 0x2A8 DUP2 PUSH2 0x293 JUMP JUMPDEST DUP3 MSTORE POP POP JUMP JUMPDEST PUSH1 0x0 PUSH1 0x20 DUP3 ADD SWAP1 POP PUSH2 0x2C3 PUSH1 0x0 DUP4 ADD DUP5 PUSH2 0x29F JUMP JUMPDEST SWAP3 SWAP2 POP POP JUMP JUMPDEST PUSH1 0x0 PUSH1 0x60 DUP3 ADD SWAP1 POP PUSH2 0x2DE PUSH1 0x0 DUP4 ADD DUP7 PUSH2 0x269 JUMP JUMPDEST PUSH2 0x2EB PUSH1 0x20 DUP4 ADD DUP6 PUSH2 0x269 JUMP JUMPDEST PUSH2 0x2F8 PUSH1 0x40 DUP4 ADD DUP5 PUSH2 0x269 JUMP JUMPDEST SWAP5 SWAP4 POP POP POP POP JUMP JUMPDEST PUSH32 0x4E487B7100000000000000000000000000000000000000000000000000000000 PUSH1 0x0 MSTORE PUSH1 0x11 PUSH1 0x4 MSTORE PUSH1 0x24 PUSH1 0x0 REVERT JUMPDEST PUSH1 0x0 PUSH2 0x33A DUP3 PUSH2 0x1C6 JUMP JUMPDEST SWAP2 POP PUSH32 0xFFFFFFFFFFFFFFFFFFFFFFFFFFFFFFFFFFFFFFFFFFFFFFFFFFFFFFFFFFFFFFFF DUP3 SUB PUSH2 0x36C JUMPI PUSH2 0x36B PUSH2 0x300 JUMP JUMPDEST JUMPDEST PUSH1 0x1 DUP3 ADD SWAP1 POP SWAP2 SWAP1 POP JUMP INVALID LOG2 PUSH5 0x6970667358 0x22 SLT KECCAK256 0xAD 0x4E DUP10 SWAP6 CREATE 0xB0 POP 0xD5 SWAP6 SWAP4 DIV SAR SDIV REVERT 0xEC PUSH21 0xFAA9389343A714C9A7898EDA1AFB293564736F6C63 NUMBER STOP ADDMOD GT STOP CALLER "
		},
		"gasEstimates": {
			"creation": {
				"codeDepositCost": "188200",
				"executionCost": "infinite",
				"totalCost": "infinite"
			},
			"external": {
				"getWeather(uint256,uint256)": "infinite",
				"jobResults(uint256)": "infinite",
				"jobStatus(uint256)": "2818",
				"updateWeather(uint256,uint256)": "infinite"
			}
		},
		"methodIdentifiers": {
			"getWeather(uint256,uint256)": "91571df0",
			"jobResults(uint256)": "a3d60645",
			"jobStatus(uint256)": "a8e5e219",
			"updateWeather(uint256,uint256)": "aa2c6636"
		}
	},
	"abi": [
		{
			"inputs": [
				{
					"internalType": "uint256",
					"name": "initialId",
					"type": "uint256"
				}
			],
			"stateMutability": "nonpayable",
			"type": "constructor"
		},
		{
			"anonymous": false,
			"inputs": [
				{
					"indexed": false,
					"internalType": "uint256",
					"name": "lat",
					"type": "uint256"
				},
				{
					"indexed": false,
					"internalType": "uint256",
					"name": "lon",
					"type": "uint256"
				},
				{
					"indexed": false,
					"internalType": "uint256",
					"name": "jobId",
					"type": "uint256"
				}
			],
			"name": "NewJob",
			"type": "event"
		},
		{
			"inputs": [
				{
					"internalType": "uint256",
					"name": "lat",
					"type": "uint256"
				},
				{
					"internalType": "uint256",
					"name": "lon",
					"type": "uint256"
				}
			],
			"name": "getWeather",
			"outputs": [],
			"stateMutability": "nonpayable",
			"type": "function"
		},
		{
			"inputs": [
				{
					"internalType": "uint256",
					"name": "",
					"type": "uint256"
				}
			],
			"name": "jobResults",
			"outputs": [
				{
					"internalType": "uint256",
					"name": "",
					"type": "uint256"
				}
			],
			"stateMutability": "view",
			"type": "function"
		},
		{
			"inputs": [
				{
					"internalType": "uint256",
					"name": "",
					"type": "uint256"
				}
			],
			"name": "jobStatus",
			"outputs": [
				{
					"internalType": "bool",
					"name": "",
					"type": "bool"
				}
			],
			"stateMutability": "view",
			"type": "function"
		},
		{
			"inputs": [
				{
					"internalType": "uint256",
					"name": "temp",
					"type": "uint256"
				},
				{
					"internalType": "uint256",
					"name": "_jobId",
					"type": "uint256"
				}
			],
			"name": "updateWeather",
			"outputs": [],
			"stateMutability": "nonpayable",
			"type": "function"
		}
	]
}